:020000040800F2
:10000000480E0020ED400008C5400008C740000829
:1000100000000000000000000000000000000000E0
:100020000000000000000000000000007939000816
:1000300000000000000000003B390008E93800081B
:10004000AB10000800000000C31000086312000895
:10005000771700087B1700087F170008C32A0008DD
:1000600000000000EB3600083B380008673E00083F
:1000700083400008C94000088F40000800000000CD
:100080001D41000800000000000000001F410008A2
:10009000000000002141000823410008254100081C
:1000A000000000002741000800000000294100086E
:1000B0000100202008437047FDB5B2B03A98049182
:1000C00002A93B22885400200D9027A8401C3190A3
:1000D0000DE00498329A90470490002801D100F076
:1000E000D3FE0D98401C0D903398401C33903398EC
:1000F000017800290FD02529EBD100200790089026
:1001000009900A900B900C9002250121149108216E
:100110001291339C05E00D9800F0B8FE0100149890
:100120000843641C21782029F8D023290BD02B29DF
:1001300004D02D2904D0302908D00AE02843F0E764
:1001400001000420ECE701000820E9E7010010208D
:10015000E6E72A290FD134990A681168121D349BE9
:100160001A600F91002904D54A420F920100042021
:100170000843641C12E000210F91644B09E00F99C1
:10018000994205DA8E0071184900891830390F91AB
:10019000641C2278110030390A29F0D321782E29E5
:1001A00003D00021C9430E9126E0641C21782A293E
:1001B00008D134990A681168121D349B1A600E9197
:1001C000641C19E02D2901D1641C00E000210022EB
:1001D0000E920CE0002909D10E9A4C4EB24205DA7B
:1001E0009600B2185200D218303A0E92641C23784E
:1001F0001A00303A0A2AEDD302A90887267831007E
:1002000040487844FF30401E00F01AFF002801D01B
:10021000641C00E0002602A83A214654682E04D14E
:10022000207868280BD1622005E06C2E07D1207859
:100230006C2804D1712002A93A228854641C18A8A1
:100240000690207869460870601C339068460478F0
:100250002000253833D01C3800D1CDE1001F022802
:1002600000D8C9E1133801D100F036FD093800D1BA
:10027000C2E1801E01D100F0CCFD401E01D100F092
:1002800079FD401E022800D8B6E1001F01D100F020
:1002900071FD401F00D109E1401E01D100F01CFD9D
:1002A000401E00D1F1E0C01E0ED0801E01D100F032
:1002B00013FDC01E01D100F00FFD00F0B6FD149833
:1002C0000790252000F0ADFD349800680468001DFB
:1002D000349908600594002C00D0C2E002A83B21AC
:1002E000405C002800D1B6E00024E443064878448E
:1002F000163000F0AFFE201A01D000F0C5FD00F06E
:10030000A2FD00BFF83A00002C3B0000CBCCCC0C87
:1003100001236A4602A9280000F072FE002801D0DD
:1003200000F0B2FD641EF3D13295079D18AC002D8C
:100330000FD0329E21780498B0470490002801D154
:1003400000F0A2FD0D98401C0D90641C6D1EF1D1B3
:1003500032963020694608700A9C002C0DDD329DD3
:1003600001236A4602A9280000F04AFE002801D0B5
:1003700000F08AFD641EF3D13295059C089D002D86
:100380000FD0329E21780498B0470490002801D104
:1003900000F07AFD0D98401C0D90641C6D1EF1D18B
:1003A0003296302769460F700B9C002C0DDD329D74
:1003B00001236A4602A9280000F022FE002801D08D
:1003C00000F062FD641EF3D1329505980899441837
:1003D000099D002D0FD0329E21780498B0470490DB
:1003E000002801D100F050FD0D98401C0D90641CB8
:1003F0006D1EF1D13296684607700C9C002C0DDD05
:10040000329D01236A4602A9280000F0F9FD002868
:1004100001D000F039FD641EF3D1329502A83821D5
:10042000405C400700D462E62020694608700198CD
:10043000002800DC5BE6019C329D01236A4602A98C
:10044000280000F0DDFD002801D000F01DFD641E35
:10045000F3D132954BE61B4878446830059000F0A4
:10046000F2FC0E9D002D03D5200000F017FE09E0E0
:100470002A000021200000F019FE002801D0001BF6
:1004800000E02800089000F0DEFC34980068026864
:10049000001D349908600020C0430021104002AACA
:1004A00003C218A80590782100F0AFFC02A83B21F8
:1004B000415C002908D00024E4434B487844FF30D5
:1004C000293016E78C3900003A21405C62286AD056
:1004D000682819D06A2845D06C2806D071284FD0DA
:1004E000742831D07A2821D06FE0349801680868E8
:1004F000091D349A116000287AD10024E4433B4856
:100500007844FF301738F4E6349801680868091D0C
:10051000349A1160002805D10024E443334878441C
:10052000CA30E6E60D99018000F08DFC3498016830
:100530000868091D349A1160002859D10024E44349
:100540002A487844A630D4E6349801680868091D22
:10055000349A116000284BD10024E44323487844A6
:100560008A30C6E6349800680268001D3499086035
:10057000002A13D10024E4431C4878446E30B8E6C6
:10058000349800680268001D34990860002A05D17B
:100590000024E443154878445230AAE60D98C11768
:1005A00003C200F050FC349801680868091D349AB1
:1005B0001160002805D10024E4430C4878442C3015
:1005C00097E60D99017000F03EFC349801680868C8
:1005D000091D349A116000280AD10024E44303481D
:1005E0007844083085E600BF1C3800003038000031
:1005F0000D99016000F027FC34980068C21D0720A7
:1006000082433498026003CA349B1A6002AA03C270
:100610002022C80F04D007982D2118AA11540DE0EC
:1006200002A8008F284204D007982B2118AA115441
:1006300004E0C00704D5079818A90A54401C079085
:1006400018A8079940181390059027AD02A803C871
:1006500016AA03C26846007820210143684641700B
:10066000612909D00E98002801D5062003E003D1A6
:10067000672901D114980E9002A803C80F0006182C
:100680007F417E15FF17BBA20CCA9F4212D1964232
:1006900010D10903020D11430003002901D10028E4
:1006A00008D003200890613C1A2C19D324497944BE
:1006B0008E3110E002A803C8080041004915994294
:1006C00012D1000310D103200890613C1A2C21D3D1
:1006D0001C4979446E310322139800F00DFDB2E3FA
:1006E000194979446231F6E701AA02A803C800F06B
:1006F00010FD02AA03C268464078612813D105980C
:1007000030210170811C059169460978612905D164
:10071000782104E00D4979443231DCE758214170F9
:100720000798801C079002A803C894A20CCA024034
:100730000B400DD1002A0BD10024002669E100BF37
:10074000183700001C3700000C370000103700007D
:1007500068464078612800D097E00E98002801D5BF
:10076000212000E0401C1390139F7F1C16A803C893
:100770000022002300F0E2FC02A830C802D2802050
:10078000000645400198001F01909C2169440A70B1
:1007900027A8461C002F31DD2000290000228023DD
:1007A0005B0300F0E4FC29D81C2200F0F9FC0400F3
:1007B0000D0000F02DFD1590FF1F002F09DD00F04A
:1007C00061FD02000B002000290000F0C2FD0400C2
:1007D0000D00F01D0722159900290ADD521E08D4CC
:1007E000401E0B071B0F03700911F5E7401E002187
:1007F0000170521EFAD5C61D002FCDDC27A83199F5
:10080000711A27AA551C139A0C00914200DD14009E
:10081000002C33D48C4205DA411C095D082901DB28
:100820000F2100E00021220027AB9B1801E0641E8D
:100830005B1E521E1E788E42F9D00F2904D1411C36
:10084000895C491C401C8154002A04D527AD641CD6
:100850000198001D0190611E10D46A186846007846
:1008600013783033DEB23A2E01DBC318C63313706F
:10087000491E521E0029F3D5694608700E980028BB
:1008800000D4C5E0601E0E90C2E016A830C86D000E
:100890006D0801986C4948436C4900F0D1FD019006
:1008A00007200199401A002805DD020020002900D8
:1008B00000F080FB0AE042420020664900F07AFB2B
:1008C00002000B002000290000F0E9FD6A46527882
:1008D000662A02D1019A0A3200E006220E9B9A187B
:1008E000142A00DD142227AB30241C705C1C02E0AB
:1008F00016A803C8139A002A44DD16AB03C313924B
:1009000016A803C800F096FC159005460834042686
:1009100028000A2100F0A8FD0F0028000A2100F09D
:10092000A3FD05003037601E077028000A2100F083
:100930009BFD0F0028000A2100F096FD0500A41E73
:1009400030372770761EE3D1083413980838139097
:100950000028CDDD159800F085FC02000B0016A8DC
:1009600003C800F0F6FC00223B4B00F0F9FD16AA8C
:1009700003C2C5E7FFFFFFFFFFFFFFFFFFFFFFFF12
:10098000FFFFFF7F3198201A27A94D1C04E0401E6D
:100990000199491E01916D1C29783029F7D0202139
:1009A0006A46127811436A46517069464978662949
:1009B00002D10199491C06E069464978652901D1AF
:1009C000149900E000210E9A5418A04200DA441E47
:1009D000002C1DD4844204DA285D342801DD39203E
:1009E00000E0302021006A1E531801E0641E5B1EE7
:1009F000491E1E788642F9D0392802D1685C401C15
:100A00006854002904D51500641C0198401C01900D
:100A1000019E1395684600786946887000F062FE72
:100A2000406A0078694608700E9D20B2002804DCF8
:100A3000149C07487844183013906846407866281C
:100A40000CD1761C24E000BF97750000A086010041
:100A5000143400000000F03F84D797416846407886
:100A6000672846D130B20321C943884247DBA842F8
:100A700045DA761C02A8008F1299C0B2084203D151
:100A800020B2A84200DC050030B22D1A00D50025A6
:100A900037B2002F00DDBAE00898411C08913021E0
:100AA000059A1154002D05DC02A8008F1299C0B2DE
:100AB000084206D00898411C089169460978059AB1
:100AC00011547842854200DA6E4236B270420B9081
:100AD000AD1920B2854200DA2C0024B2099422001C
:100AE00013990598089BC01800F006FB281B0C9072
:100AF000DAE068468078612818D170201BE020B2C7
:100B0000A84206DA02A9098F129AC9B2114200D18D
:100B100005006D1E00D5002568468078672802D143
:100B20006520694607E04520694604E0684680780C
:100B3000412801D1502088700898411C08911399D0
:100B40000978059A11541398411C002D05DC02A860
:100B5000008F129AC0B2104219D00898421C089215
:100B60006A461278059B1A54002D10DD641E20B2CF
:100B7000854200DA2C0022B20598089BC01800F0CC
:100B8000BBFA24B2089800190890281B0B9005980E
:100B90000899411868468078087030B2002803D45C
:100BA0002B2048708F1C03E02D224A708F1C464278
:100BB000002412AD300008E00A2100F041FC15AA23
:100BC00003C229701598641C6D1C00B20028F3DC68
:100BD000012C08DC6846807820210143652902D178
:100BE000302038707F1C002C09D1302038707F1CD9
:100BF00007E0641E12A8005D303038707F1C002CA6
:100C0000F7DC059808994018381A09904CE020B292
:100C100031B288421DDA22B213990598089BC01898
:100C200000F06AFA24B2089800190890391B0B9159
:100C3000002D05DC02A9098F129AC9B2114206D013
:100C400069460978059A11540998401C09900C9539
:100C50002AE032B213990598089BC01800F04CFAAC
:100C60000898C0190890A41B002D05DC02A9098F63
:100C7000129AC9B2114205D0411C089169460978FF
:100C8000059A115420B2854200DA2C0022B2139842
:100C9000C1190598089BC01800F02EFA24B20898D4
:100CA00000190890281B0B9002A83821405C1421E1
:100CB0000140102900D0C6E00798089940180B9908
:100CC0004018099940180C9940180F99884200DB88
:100CD000B9E0081A0A90B6E002AA3A20105C62282D
:100CE00008D068280ED06A2814D06C281DD071282E
:100CF00010D01AE0349801680868091D349B196007
:100D0000C0B218E0349801680868091D349B196066
:100D100080B210E034980068C31D072083433498E4
:100D2000036003CB349C236006E0349801680868B4
:100D3000091D349B1960002102AB03C3108F129967
:100D4000C0B208425BD002A803C8002901D1002824
:100D500055D0684600782021014378294FD1079863
:100D600018A930220A54401C421C07926A46127885
:100D70000A5444E002AA3A20105C622808D068288D
:100D80000ED06A2814D06C281DD0712810D01AE01B
:100D9000349801680868091D349B196040B218E056
:100DA000349801680868091D349B196000B210E08E
:100DB00034980068C31D072083433498036003CB35
:100DC000349C236006E0349801680868091D349B50
:100DD0001960C11702AB03C3002902DA07982D215D
:100DE00009E0108F284202D007982B2103E0C007AA
:100DF00005D50798202118AA1154401C079018A85F
:100E00000799401805906846017802A800F040F85C
:100E100019E014980790349801680868091D349AFD
:100E200011606021694408700DE014980790252036
:100E300060216944087068460078002803D007954F
:100E40006846007848700F980799401A0A99401A26
:100E50000899401A0B99401A0999401A0C99401A9E
:100E6000019002A83821405C400701D5FFF75DFAE8
:100E70002020694608700198002801DCFFF755FA28
:100E8000019C329DFFF744FA0020C04335B0F0BD0D
:100E9000F2B586B0040025696F2901D1082707E063
:100EA0000846FFF705F9782801D00A2700E0102747
:100EB0003C2603CC083C04AA03C26A46127E642A7C
:100EC00003D06A46127E692A09D1002907DA04A8EC
:100ED00003C800220023121A8B4104A80CC004A8E6
:100EE00003C800290DD100280BD1206B002808D1A0
:100EF000082F3DD13820205C000739D53B26302013
:100F000035E00294009504A830C8761E01962000B2
:100F100029003A00002300F0EBFB3032D0B23A282F
:100F20000DDA00988255200029003A00002300F0D5
:100F3000DFFB04000D0007D1002C05D10AE0684654
:100F4000007E8218AF32ECE70298C06800998919D8
:100F50008842DAD3029C009D082F09D13820205CFA
:100F6000000705D5A85D302802D0761E3020A85590
:100F70003C20801BA061A919E160216B884206DA40
:100F8000081A2062208F1C490140218710E00029A7
:100F90000ED53821615C14220A40102A08D1616BF9
:100FA0006269891A226A891A081A002800DD2062FB
:100FB00007B0F0BDF8B50026104F04000D000092F8
:100FC00014E0C00707D532003B002000290000F0E4
:100FD000C7FA04000D00009840100090300039005E
:100FE00032003B0000F0BCFA06000F000098002819
:100FF000E7D120002900F4BDEFFF000000002440ED
:10100000F8B50024002B11D007000E0014001D00BD
:101010002178B068B847B060002809D0F06A401C59
:10102000F0620020641C6D1EF2D104002000F2BDAD
:101030000020C043F9E70268531C03601170704739
:10104000C9B202788A4203D0401C002AF9D100209C
:1010500070472E0080B5002801D100BF07A00649C7
:101060000B68002B03D022220021984701E000F0FA
:101070007DFB222002BD00003C0A0020636F6E73DE
:10108000747261696E742068616E646C65723A2076
:10109000626164206D65737361676500431C01784C
:1010A000401C0942FBD1C01A7047FEE7C9B2521E6C
:1010B00005D30378401C8B42F9D1401E70470020B5
:1010C0007047FEE770B4103A03D378C9103A78C07D
:1010D000FBD2530701D318C918C001D508C908C0ED
:1010E000D20704D30B880380891C801C002A01D5F9
:1010F0000B78037070BC70478B0701D18307E1D078
:10110000124205D00B78491C0370401C521EF9D1C5
:10111000704710B5144600F002F8226010BD4A0076
:1011200053155B1C08D0520D06D003231B02FE3A58
:10113000D21A1305C91A70470022704730B401242F
:1011400064054D00EC420BD85D00EC4208D80C0061
:101150001C4364000443144304D2994200D19042DA
:1011600030BC7047FCD08B42FAD18242F8E730B4F1
:10117000012464054D00EC420BD85D00EC4208D818
:101180000C001C4364000443144304D28B4200D17E
:10119000824230BC7047FCD09942FAD19042F8E7C5
:1011A000124217D40023DB435B0D9C464B005B0DC2
:1011B00006D0634504D09B18634502D212058918F6
:1011C00070476246090D11430905002000B500BFB4
:1011D00000BF00BD52424B005B0DF1D05B1C5B05B4
:1011E000EED25B0D934102D91205891A70470BD1DB
:1011F0000B031B13C90FC907821C00204341134373
:10120000E4D912051143E1E7C90FC9070020DDE762
:10121000F4464A1805D200F00FF801D580174008AF
:10122000604700F009F80121C907884200D9080089
:10123000404260474A1812D2400DC90208430121BA
:10124000C9070843520D40210901521A521C06D405
:1012500052421F3201D4D0407047C017704700205F
:101260007047FEE7010042221201D21E004207D061
:1012700002D4521E0018FCD5C10A40051205891877
:10128000704700000100EED54042F446FFF7EBFF47
:101290000122D207114360478B4200D1824205D917
:1012A0008446100062468C4619006346DF184C18CD
:1012B000640D7F0D3AD0661C760537D0E61B352EBF
:1012C00034DCDB022B43DB0A0C0DC9022943C912B3
:1012D000202E0DDB1700203E06D01F00F741F34003
:1012E0005F400026012A7741C01871410DD217E0F6
:1012F0001700F741F2405740F3415A40B340F340E2
:101300005A400026801859410AD3A21C52050FD01A
:10131000C207012F724117004008CB071843490844
:10132000641C24054208AF4170416141F0BC704724
:10133000641C21050020F9E76B4010E06B40ABE72F
:10134000F742F3D1E943F1E72442EFD10020002135
:10135000ECE7F0B40125ED070F005F40EED40C0080
:10136000871A9C4105D2C01BA141D2196341694033
:101370006B40AE0ADF184C18F442E1D2640D7F0DC9
:10138000E2D0E61B362ED1DCDB022B43DB0AA4467F
:101390000C0DC9022943C90A012E28DC04D1D60745
:1013A0005208DF073A435B08EF0A764290419941C1
:1013B00014D039423BD1B61940414941761C3942DB
:1013C00004D1761C001849413942FAD0B943674626
:1013D000B74208D9A41B24052143A7E70042EAD15C
:1013E0003642E8D1A2E7E40AE10700209EE7202E7A
:1013F0000BDD203E1F00F340F7415F40012A002231
:1014000057417E42984191410BE01700F741F2406D
:101410005740F3415A40B340F3405A407E42904116
:1014200099410A0303D2641EB6194041494100277D
:10143000641E24054208AE4178416141F0BC70470A
:10144000CA0F00D0494203105A400DD004B500D352
:10145000404200F009F8009AD20701D349421242F3
:1014600000D5404204BD0000094214D088420FD389
:101470000122030C01D100041204002300185B4177
:101480008B4200D35B1A5241F8D319001000704709
:1014900001000020704708B500F06EF908BDF0B4F7
:1014A0000E005E400125ED072E40B446AE0ADF185F
:1014B0004C18F4423BD2F74241D2640D43D07F0D29
:1014C00038D0E41BC902DB0229432B43CF0ADB0AD5
:1014D0000600B61A9F4104D2641EB6197F41B618A1
:1014E0005F416812800D24180018844222DCE80C49
:1014F0000021B6197F41B61A9F4102D2B6185F414A
:101500003F1C40414941F4D3241C21DD2405B61978
:101510007F41B61A9F4105D33743C607374300269C
:10152000012F7041614166463143F0BC7047FCD1E8
:10153000F74205D20020C14349054908F3E704D02A
:101540000020C143F1E77F0DFAD000206146ECE7AF
:101550002442FAD1401C61410F03F6D30020E2E798
:10156000F0B50E005E400125ED072E40B446AE0AF0
:10157000DF184C18F44208D2F7420ED2640D01D0A5
:101580007F0D12D100206146F0BD05D1F74201D890
:101590007F0D05D10020C143F0BDFBD1640DF9D012
:1015A0000020C143490549088FE0E419C902DB0264
:1015B00029432B43DB0A460DC00231438E4630B42B
:1015C00087B295B27D432E0CADB2140C7C43A419A6
:1015D000260C240425439CB27C43A419190C79439E
:1015E000270CC919A4B20F043C43090C000C97B294
:1015F00047432E0CBE193543ADB2170C4743360C8A
:10160000BF19A6B2BF193E043543240C3E0C36194F
:101610009FB24743BF19BCB23E0C89191F0C474308
:101620007F183E043443390C704680B297B247436A
:101630002E0CBE193543ADB2170C4743360CBF19FB
:10164000A6B2BF193E043543240C3E0C36199FB296
:101650004743BF19BCB23E0C89191F0C47437F1882
:101660003E043443390C77463F0C90B278432E0C3D
:1016700080190604ADB22E43050CA0B22D18120C31
:101680007A435019020C80B2240CA4189AB27A43FF
:10169000121914042043120C89181B0C7B43C9181F
:1016A00030BCEF0A394203D1B61940414941641EAA
:1016B0006F12BF0DE41B0BDBFF19BC4211DA2405CE
:1016C00000274208AE417841614166463143F0BD92
:1016D000641C05D1401C6141CF0201D34908F4E7E5
:1016E00050E75DE701487047000000005C00002003
:1016F00012422DD0994231D970B500251B4209D034
:101700000C00002112E01100FFF7AEFE0A000021DC
:10171000002370BD0942F6D0002401264918644117
:10172000944200D3A41A7641F8D33100012601E097
:10173000764109D2001864416D41A41A9D41F7D247
:10174000A4185D41B619F5D3300022002B0070BDFE
:101750001B42CFD108B500F011F808BD01D190426D
:10176000CAD202000B0000210020704780B5012082
:1017700000F006F801BDFEE77047FEE77047FEE7A0
:1017800080B500BF00BF024A11001820ABBEFBE7C6
:101790002600020010B586B08020800286490A68C3
:1017A00002430A600A6802400092009A0A680243F3
:1017B0000A600A6802400092009A0A6802430A60BE
:1017C0000A6802400092009A0A6802430A600968A7
:1017D000084000900098012002900390032004909C
:1017E000FD3001909024E40501A9200000F0DCFB0D
:1017F0000420019001A9200000F0D6FB10200190E8
:1018000001A9200000F0D0FB2020019001A92000B8
:1018100000F0CAFB06B010BD10B5684C206820214E
:1018200088432060322000F097FC2068202101438B
:10183000216010BDF0B5614A13680424A34313600E
:101840005F4BDC430029116801D0214300E01940BF
:101850001160102115680D43156007251026F64309
:101860001768374017600700EF40FF07176801D57A
:10187000274300E01F40176017680F4317606D1E75
:10188000EED510680640166010680421014311600F
:10189000F0BD70B504000D000F2600210F222A4074
:1018A000B0201043FFF7C6FF002126403000FFF7AD
:1018B000C1FF00216006420F10201043FFF7BAFF5E
:1018C00040480470457070BD80B5FFF763FF3B482A
:1018D000016810220A430260016804220A43026080
:1018E000016820220A4302600168354A0A4002600A
:1018F000FFF792FF0021E220FFF79CFF0A2000F093
:101900002BFC0021A420FFF795FF0021A620FFF764
:1019100091FF00212F20FFF78DFF0A2000F01CFC13
:1019200000212F20FFF786FF0021AF20FFF782FF65
:1019300001BD000030B5CB084907490F224CC50056
:1019400028182018C45C01258D40002A02D02543A8
:10195000C55430BDAC43C45430BD70B50021002027
:10196000FFF797FF0024184E002501213019EAB235
:10197000D3009A18805CFFF75DFF6D1CE8B2602809
:10198000F3DB641C092CEFDB70BD70B50021002077
:10199000FFF77FFF002000210B4A00235418DDB21F
:1019A000EE00751960555B1CDCB2602CF6DB491C3F
:1019B0000929F2DB70BD0000141002401400004839
:1019C000FFFEFFFF400A0020940000200EB4FFB588
:1019D0000700002001E00198401C019001980AA92D
:1019E0004988884238D20AA90979484302900C985C
:1019F0000299405C0026002400256946898C019AE2
:101A000089186A4611706946487001E0012211E0A8
:101A10006846008D8542DED27819694649788C4641
:101A2000012307216A07520F891A8B406146194228
:101A3000ECD0002269460978C0B2FFF77BFF641C36
:101A4000082C07D30024761C0C9802998919405C55
:101A5000694648706D1CDBE704B00498F0BC04B024
:101A6000004708B4FFB506002420684400780290BF
:101A70003018401E602834DA6846418009A8407852
:101A800001906846408801994018401E442828DA91
:101A900000276846427000E07F1C0198874220DAE8
:101AA0000B98694649782039019A5143C919455C18
:101AB000002468464088C0196946087001E0002289
:101AC00007E002988442E7DA30190A992940F6D0F3
:101AD000012269460978C0B2FFF72CFF6D00641C33
:101AE000EFE7FFE704B00498F0BC02B0004708B489
:101AF000FFB50025040068460181170012E009A81F
:101B000081B069460CC80CC102680A6008BC32008A
:101B100068460189A0B2FFF7A4FF2420684400783A
:101B200024186D1CE8B23E5C002EE8D1DAE770B5EF
:101B300086B08020800213490A6802430A600A685E
:101B400002400092009A0A6802430A60096808404D
:101B5000009000988020C00001901124029400257C
:101B600004959026F60501A9300000F01DFA8020AA
:101B7000800001900294049501A9300000F014FA4D
:101B800006B070BD1410024078B587B0FFF7FDFEB7
:101B9000BD4C20000C3082B069460CC80CC10268F4
:101BA0000A600CBC00210020FFF710FF20000C3061
:101BB00082B069460CC80CC102680A600CBC0021E6
:101BC0005E20FFF703FF82B068460ECC0EC00C3CCF
:101BD0000CBC00210020FFF7F9FE82B068460ECC55
:101BE0000EC00C3C0CBC42210020FFF7EFFE00BFF2
:101BF0002CA600BF2DA52000243082B069460CC859
:101C00000CC102680A600CBC04211720FFF7DEFE3D
:101C10002000303082B069460CC80CC102680A60EE
:101C20000CBC25212A20FFF7D1FEC3A20CCA290033
:101C300002A800F0A5FA20003C3081B069460CC82B
:101C40000CC102680A6008BC02AA25210320FFF724
:101C50004EFF2000183082B069460CC80CC10268E3
:101C60000A600CBC14213720FFF7B0FEBBA20CCADF
:101C7000310002A800F084FA20003C3081B06946AF
:101C80000CC80CC102680A6008BC02AA1421032017
:101C9000FFF72DFFFFF761FEFA20C00000F0CAFA3F
:101CA000A9E70000252E303166200000252E3032B5
:101CB00066200000F0B587B000F0C4FA00F0E6F846
:101CC00014210022684600F0CDFA802080029C4951
:101CD0000A6802430A600A6810400590059880204F
:101CE000C0020A6802430A60096808400590059826
:101CF000002294499020C00500F01CFA924D002269
:101D00002021280000F016FA904800900126019644
:101D100000240294039469469020C00500F044F921
:101D2000C020C000009011270197029603946946D5
:101D30009020C00500F038F9D82000900194029658
:101D40006946280000F030F92020009001960294A6
:101D500003946946280000F027F969460C604C603E
:101D60008C607B4D7B4828606C60AC60EC602E61C1
:101D700004206861AC61FF20C230E8612C6224213C
:101D80006C54AE62280000F073FA002801D000F015
:101D9000EDF8009430030190072002906946280076
:101DA00000F020FB002801D000F0E0F80096694622
:101DB000280000F017FB002801D000F0D7F803201E
:101DC00000906946280000F00DFB002801D000F0CB
:101DD000CDF8102000906946280000F003FB002891
:101DE00001D000F0C3F800976946280000F0FAFA25
:101DF000002801D000F0BAF81C210022684600F04B
:101E000031FA554D574F2F6064206860AC60E86030
:101E10002C61AC61280000F06BFB002801D000F0C1
:101E2000A5F8280000F0B6FB002801D000F09EF8CD
:101E3000602000905A26019602940494002269467C
:101E4000280000F0ADFC002801D000F08FF8280039
:101E500000F08DFEFFF76BFE0021280000F0A9FBCB
:101E60007E63FFF731FDFFF790FD002140A000F0F9
:101E7000B2F9A864002100BF44A000F0ACF9E86406
:101E800000F0A4F9FEE700000000002038B590B093
:101E90003021002204A800F0E5F910210022684654
:101EA00000F0E0F912200490012007900990102022
:101EB00008900A9002240C9400250D95C0030E9002
:101EC0000F9504A800F082FE002801D000F04EF823
:101ED000072000900194029503950021684601F0C7
:101EE0003BF8002801D000F041F811B030BD38B502
:101EF0009025ED058024240201222100280000F015
:101F000019F9022000F096F900222100280000F0C3
:101F100011F9FA20000100F08DF9EDE780B5FFF727
:101F200033FEFCE700681049884200D0704780B556
:101F300001F0FAF801BD00003D0AD7A3703D124040
:101F4000141002403487000000040048348100006F
:101F5000FC0900200024014064090020AE47E17A1A
:101F600014AEF33F00200040002C014072B6FEE7A3
:101F7000FC400008EF1E0008000000000000000008
:101F800040000000000000000000000008410008C0
:101F90001D1F0008FDFF00000000000040000000C1
:101FA0000000000000000000FFB500220F23029394
:101FB0002DE0052403E0624CA042FAD103246D46D3
:101FC0002D78AC403443019D2C605E4CA568DC4309
:101FD00025404E68F60200D51D435A4EB560F5689F
:101FE00025404F68BF0200D51D43F5607568254048
:101FF0004F68BF0300D51D43756035682C404D68A0
:10200000ED0302D525001C002C433460521C0B68E4
:102010001C00D44000D18CE0012595402B40F5D028
:1020200054000326A640F74301974E68B707BF0F39
:10203000012F03D0B607B60F022E0ED18668019F7E
:102040003740CE68A6403E4386604668AE434D6842
:10205000EF06FF0F97403743476095006E46757057
:102060000D79AD07AD0F032D26D0C568019E2E401A
:102070008D68A5403543C5600D79AD07AD0F022DC4
:102080001AD1D508AD0045192E6A03966E467678AA
:102090001C2737406E463770039EB446029F6E463B
:1020A0003678B7406646BE43B4460F696E4636780A
:1020B000B740664637432F6207680325019E3E40BE
:1020C0004F682F40A740374307604C682E042640D6
:1020D0009CD001241C4E366826431B4F3E603E4672
:1020E000366826400196019E184E9708BF00F619E3
:1020F0000196019E366803966E4676780C27374027
:102100006E463770039EB446029F6E463678B740DF
:102110006646BE439027FF05B84201D100244EE732
:102120000B4FB842FBD00B4CA04200D043E7022437
:1021300045E7FFBD002A01D0816170478162704789
:10214000000C004800040140181002400800014043
:10215000000400480008004838B5040000F0ECFF17
:1021600005000020C043844202D0044800782418AF
:1021700000F0E2FF401BA042FAD331BD4C0000202A
:102180000CB418B583B004000A0006A802900194AC
:102190000020009002AB01A9084878441E30FDF7EA
:1021A0008BFF0021019A1170002801D40198001BB7
:1021B00004B0019910BC03B0084700BF7BEEFFFFDD
:1021C00001000020842900D0C81C704780B501F0B0
:1021D000BFF8002002BD38B584B004000D0060696E
:1021E000002815D0A069002812D00820205EFFF733
:1021F000E7FFA16902916169019100902B002269BA
:102200002168606800F09EFF0390039805B030BD20
:102210000820205EFFF7D4FF03A9019100902B0056
:10222000226992B22168606800F0B2FF0128ECD008
:102230000020EBE780B5002800D1012001F06EF806
:10224000002002BD80B50648016810220A430260E2
:10225000032001F0F3F900F035FC002002BD00007E
:1022600000200240094202D0491E4254FCD170476E
:10227000F8B504000025002C01D10120F2BDA06BAF
:10228000002805D1E06334216054200000F034FCC4
:1022900010210122A06B084003D120680423866826
:1022A0001E4000D091E0A66B4B4F374002263E43C4
:1022B000A6638668B607B60F012E06D106463668B5
:1022C00016400FD1C66836040CD4C6681827BE4322
:1022D000A7683743C76020680669B600B608676814
:1022E000374307612068C6683C4F3740C760A06A23
:1022F000012801D0080200E000202669022E01D149
:10230000009300E00095A37E267EB603677EFF0360
:1023100037435E033E433043E6680643009F37433E
:102320002420205C40003843E67E012E0CD1002B97
:1023300003D103000803184306E0A36B20261E43C5
:10234000A663E36B1343E363E369FF26C236B3423C
:1023500002D00343206A18432368DE680643DE6028
:10236000E36A0E06B3420DD0012B0BD0022B09D02D
:10237000032B07D0042B05D0052B03D0062B01D04F
:10238000072B0CD123685E690727BE435E61236873
:102390005E692C27E75D7F077F0F37435F6102236C
:1023A000DB432668F6680E4F3740874205D1E56368
:1023B000A06B03401A43A2630BE0A06B03401943D8
:1023C000A163E06B1043E06302E0A06B0143A163F3
:1023D00001252800F2BD0000FFFEFFFF1902FEFFED
:1023E000E7FF3F83F8B50400002500260095342060
:1023F000205C012801D10220F2BD01223423E254E5
:10240000206883685B075CD40B689A400092324A6C
:102410004B68324FBB42836A009F44D01F438762A0
:10242000E06A80235B0598421FD001281DD0022856
:102430001BD0032819D0042817D0052815D006284A
:1024400013D0072811D020688B6847697F077F0F5A
:10245000BB420AD043690727BB43436120684369F5
:102460000F7A7F077F0F1F4347610868102817D036
:1024700011282BD18020C00313681843106008680E
:10248000102823D1164800681649FEF7EDFF0A21EF
:10249000484300900098002818D00098401EF8E7A4
:1024A00080200004E8E7BB4383620868102806D058
:1024B00011280BD10C4811680840106006E00B4849
:1024C000F9E7A06B20210143A163012634202554A4
:1024D0003000F2BD0000000008270140011000009C
:1024E0005800002040420F00FFFFBFFFFFFF7FFFAB
:1024F00010B5040001D1012010BD3D20205C002852
:1025000004D13C216054200000F021FB20E03D215B
:10251000415C012901D00120704702213D228154F4
:1025200002680121D3680B43D3600268174B9A42BB
:1025300002D0174B9A4205D192685207520F062AD1
:1025400004D00268126811430068016000207047DF
:1025500002203D216054211D206800F08DF90120EA
:10256000462160543E2160543F2160544021605414
:1025700041216054422160544321605444216054FD
:10258000452160543D216054002010BD002C0140C5
:102590000004004010B5040001D1012010BD3D2011
:1025A000205C002804D13C216054200001F096F802
:1025B000CEE710B50400002901D13E2008E004292F
:1025C00001D13F2004E0082901D1402000E0412052
:1025D000205C012801D0012010BD0220002901D17A
:1025E0003E2208E0042901D13F2204E0082901D15C
:1025F000402200E04122A0540122206800F054FA59
:1026000020681249884205D0114A904202D0114AEE
:10261000904204D1426C80231B0213434364206820
:102620000122884202D00849884205D180684007CB
:10263000400F062804D0206800680243206802602A
:10264000002010BD0000000000040040002C0140EC
:102650000044014000480140F8B504002068C1680A
:102660000091056900270226354214D0314012D06E
:102670000221C9430161012121778069800703D0CC
:10268000200001F02CF805E0200001F029F82000DE
:1026900001F027F82777680717D50098400714D569
:1026A00020680421C943016126778069C02189001F
:1026B000014003D0200001F012F805E0200001F0F5
:1026C0000FF8200001F00DF827770826354216D0C4
:1026D0000098304013D020680821C94301610421CB
:1026E0002177C069800703D0200000F0F8FF05E0E3
:1026F000200000F0F5FF200000F0F3FF2777102006
:10270000054217D00099084014D020681021C94311
:1027100001612677C069C0218900014003D02000F3
:1027200000F0DDFF05E0200000F0DAFF200000F0FF
:10273000D8FF2777E807C00F0099CA07D20F1042C9
:1027400006D00120C043216808612000FFF7EAFBA2
:102750008020054209D00099084006D08020C0435F
:1027600021680861200000F0BDFF4020054209D02B
:102770000099084006D04020C0432168086120002D
:1027800000F0B1FF2020054009D00099084006D094
:102790002020C04321680861200000F0A5FFF1BDA2
:1027A000F1B582B000206B46187002983C23C05CE3
:1027B000012801D10220FEBD0120029B3C241855B6
:1027C00008272C4EC5020C00002A06D0042A14D07B
:1027D000082A24D00C2A32D043E00298006800F086
:1027E00084F80298006881690F4387618169042237
:1027F00091438161816922690EE00298006800F0CE
:10280000A8F80298006881690D43856181690E40CE
:1028100086618169226912020A43826123E002987B
:10282000006800F0C8F802980068C1690F43C761EA
:10283000C16904229143C161C16922690EE0029815
:10284000006800F0E7F802980068C1690D43C561AF
:10285000C1690E40C661C169226912020A43C261A0
:1028600001E069460870002002993C2288546846BD
:102870000078FEBDFFFBFFFFF0B50268794B7A4C94
:102880007A4D7B4EB04201D0A84206D17027BA43A0
:1028900017004A683A43B04208D0A84206D0754DA6
:1028A000A84203D0A04201D0984203D1724D1540F6
:1028B000CA682A438025AA434D69154305608A6882
:1028C000C2620A688262B04203D0A04201D098423C
:1028D00001D109690163012141610269114003D0FD
:1028E0000169012291430161F0BDF8B5026A036AF2
:1028F0000124A3430362436884697325AC430D68D4
:10290000254300950224A2438C681443554D564E2E
:10291000574FB84203D0B04201D0A8420AD1082292
:102920009443CA682243140004229443B84203D05B
:10293000B04201D0A84205D1504A1A404D69154312
:102940008B692B434360009A82614968416304624A
:10295000F1BD70B50A00016A036A1024A343036243
:1029600043688469464D2540146824022C43202581
:10297000A94395682D010D433D49884208D1802126
:102980008D43D168090129430D0040218D4305E0A5
:102990003549884202D03349884206D13949194025
:1029A000536996691E43B3000B43436084615168C9
:1029B0008163056270BD70B5046A026A324B1340D0
:1029C00003624268C56973239D430B682B432F4DF7
:1029D00025408C6824022C43254DA84207D12C4D5C
:1029E0002540CC6826022E432A4C344005E01E4D7B
:1029F000A84202D01B4DA84206D1274D15404A6976
:102A00008E69164332012A434260C3614968C1633B
:102A1000046270BD30B5046A026A204B1340036241
:102A20004268C369164D1D400B681B022B431C4DA9
:102A300025408C6824032C430D4DA84205D00A4D37
:102A4000A84202D0074DA84204D1164D15404A694C
:102A500092012A434260C36149680164046230BD47
:102A60000000000000480140004401400004004014
:102A7000002C014000200040FFFCFFFFFFFCFFFF97
:102A8000FF8CFFFFFFF3FFFFFFFEFFFFFFFDFFFFD8
:102A9000FFF7FFFFFFFBFFFFFFCFFFFFFFEFFFFF92
:102AA000FFDFFFFFFFBFFFFF10B5C906C90E036AB6
:102AB00001248C40A3430362036A8A401A430262E2
:102AC00010BDFEE780B501203A490A6802430A605A
:102AD0000A68104000900098802040054A68024330
:102AE0004A604968084000900098002203210120B4
:102AF000C04300F018FE01BD10B586B004001421DB
:102B0000002201A8FFF7AEFB20682B4988421CD1A8
:102B10002A48410D42680A434260426811400091D0
:102B200000998021890202680A430260006801401E
:102B3000009100980B200190032002900020039048
:102B400001A99020C005FFF72FFA06B010BD81B093
:102B500000681B49884208D1880D1A490A68024357
:102B60000A60096808400090009801B0704710B5ED
:102B700086B004001421002201A8FFF773FB20682F
:102B80000F49884214D18020C0020C490A680243D0
:102B90000A600968084000900098022001900290A5
:102BA000002003900490059001A90748FFF7FCF965
:102BB00006B010BD1810024000240140141002405D
:102BC000002000401C10024000040048FEB5040034
:102BD00019D0AD4D2078C00717D58027BF0268688F
:102BE0000C210140042909D068680C210140082902
:102BF00041D168687908084088423CD1286807407C
:102C000003D06068002800D19BE1207880071AD5A6
:102C1000F827FF4368680C21014007D068680C2141
:102C2000014008295BD16868C00358D42868800730
:102C300003D5E068012800D083E1286807402069B7
:102C4000C000384328602078000779D50227E06962
:102C50000028686A65D001210143696200F06CFABE
:102C60000600686A38406BD100F066FA801B0228C3
:102C7000F7D90320FEBD60687B0801280BD0B3495B
:102C8000B34A002801D1286809E00528286806D140
:102C9000C94301432960286803432B6004E00240D4
:102CA0002A60286801402960606800280BD000F085
:102CB00043FA060028683840A7D100F03DFA801B8F
:102CC0006528F7D3D5E700F037FA060028683840C2
:102CD0009BD000F031FA801B6528F7D3C9E7E06884
:102CE000002828680ED001210143296000F024FA51
:102CF000060028688007A0D400F01EFA801B022876
:102D0000F7D9B6E701218843286000F015FA0600DC
:102D10002868800797D500F00FFA801B0228F7D9A2
:102D2000A7E701218843686200F006FA0600686A96
:102D3000384005D000F000FA801B0228F7D998E748
:102D400004272068384062D000200190B806E96965
:102D5000014008D1E9690143E961E969084000904F
:102D60000098012001907B480068C00512D4794882
:102D70000068A90D01437748016000F0DDF9060005
:102D800074480068C00505D400F0D6F9801B65289A
:102D9000F6D36EE7A068012808D0002801D1286A80
:102DA00009E00528286A06D138432862286A0121EB
:102DB0000143296205E0012188432862286AB8435B
:102DC0002862A4480090A06800280CD000F0B4F954
:102DD0000600286A800713D400F0AEF9801B009922
:102DE0008842F6D345E700F0A7F90600286A800775
:102DF00006D500F0A1F9801B00998842F6D338E788
:102E00000198002803D0E86993490140E9612078DE
:102E1000C0061DD56069F826F643012836D1686BD7
:102E200007436F63686B01210143696300F084F914
:102E30000700686B800705D400F07EF9C01B0228EC
:102E4000F7D916E7686B0640A069C0003043686395
:102E5000206A002877D069680C220A40082A5BD0D3
:102E60008027BF0491490228286847D10140296082
:102E700000F062F906002868384021D000F05CF9C3
:102E8000801B0228F7D9F4E6001002400421C94350
:102E90008842686B02D101406963D3E707436F63DF
:102EA000686B01218843686300F046F90600686B8F
:102EB0008007CDD500F040F9801B0228F7D9D8E66D
:102EC000E86A0F218843E16A0143E962686884493E
:102ED0000140A06A0843616A014369602868790873
:102EE0000143296000F028F90400286838402AD1FD
:102EF00000F022F9001B0228F7D9BAE60140296048
:102F000000F01AF90400286838401CD000F014F9C9
:102F1000001B0228F7D9ACE6012812D06868E96ADC
:102F2000802252020240636A9A420AD10907090FBD
:102F3000E26A914205D1F02189030140A06A8142F1
:102F400001D00120FEBD0020FEBD0000FFFFFBFF01
:102F5000FFFFFEFF00700040F8B5040060D0009154
:102F600060480068C107C90F009881420CD25D48D3
:102F7000016801229143009A0A4302600068C10778
:102F8000C90F009881424BD12168574D0220014260
:102F90000CD0490704D56968E022D2000A436A6070
:102FA0006968F0229143A2680A436A600127216898
:102FB000394025D06168012902D12868800303E0E7
:102FC000022903D12868800103D429E02A6810402F
:102FD00026D06868032290430143696000F0ACF892
:102FE000060068680C21014060688000814207D0BB
:102FF00000F0A2F8801B17498842F2D30320F2BDEB
:103000003848009902683A4091420BD20168B943AE
:10301000009A0A430260006807400098874201D086
:103020000120F2BD2078400705D568682F4901408E
:10303000E0680843686000F011F82D496A681206DC
:10304000120F895CC8402B490860032000F0F6FA93
:103050000020F2BD89130000FFFFFFEF264A13682E
:1030600026480C211940082900D0704730B50F219F
:1030700025A49D0C0D40645D926ADB0307D500BF5B
:1030800025A31140595CFEF7EFF9604330BD2000E5
:103090001B49484330BD174800681A49164A126850
:1030A0005205520F895CC84070470000FFFFFFFEC9
:1030B00010B507220260104A13689B079B0F4360FC
:1030C0001368F0241C4084601268E023DB00134086
:1030D000C36004480068C207D20F0A6010BD000038
:1030E000FFFFC2FF0020024000100240FFF8FFFF78
:1030F000DC400008580000200410024000127A0052
:1031000000093D00144100080203040506070809F0
:103110000A0B0C0D0E0F1010010203040506070820
:10312000090A0B0C0D0E0F1002484168027889182D
:10313000416070474C00002001484068704700BF64
:103140004C00002078B585B00B9D002D01D172B6E2
:10315000FEE70C9C002C01D172B6FEE754260096C7
:10316000009E542E01D072B6FEE72563022551263B
:10317000A55500250395029404AD01950A9D00957F
:1031800000F036F8200000F071F8049806B070BD29
:10319000F6B585B007000C001D00900000F0D6FACF
:1031A000060021D0542000F0D1FA0490002818D055
:1031B0002B0021003800049A16630022049C51253C
:1031C00062550392049A02920D9A01920C9A00920F
:1031D0006A46128B00F00CF8049800F047F80120C2
:1031E00004E0300000F0D6FA0020C04307B0F0BD84
:1031F000F9B581B00A9C206B920087183F1F072009
:103200008743780734260A1813782518AB551278A7
:10321000002A02D0401C1028F5D3089D0026432127
:103220006654062D00D90625E56265642000443009
:103230004660201D00F0C5FA2000183000F0C1FAE9
:1032400024610720401BA061646220004430866036
:10325000200044300673029A0199380000F0EEFA1B
:1032600020600998002800D00460F7BDF8B504007C
:1032700000F022FB344DE86C401CE864334EA86A31
:10328000002826D1AC62E86C01282BD1002514203F
:103290006843301800F086FA6D1C072DF7D32A4DCD
:1032A0002800743000F07EFA2F008837380000F0D4
:1032B00079FA280000F076FA2800143000F072FA4B
:1032C0002800383000F06EFA28007430E8622F636E
:1032D00008E0A86D002805D1E06AA96AC96A884299
:1032E00000D3AC62A86E401CA866E06A696D81429A
:1032F00000D26865211D14225043301800F064FA92
:1033000000F0E6FAA86D002806D0A86AC06AE16A53
:10331000884201D200F0CAFAF1BD000080B5002851
:103320000FD022490A6F002A01D072B6FEE70A6F59
:10333000521C0A67002100F055F900F039F8002806
:1033400001D100F0B3FA01BD3C080020D8080020EC
:1033500010B586B000240594049403AA04A905A816
:1033600000F0DEFA05980290049801900094002382
:10337000039A00BF08A17648FFF7E4FE002809D0B1
:1033800072B60A480021C943C166012181650465FE
:1033900000F06CFA06B010BD49444C450000000036
:1033A0006C48016F491C0167704700003C08002011
:1033B000F8B5002700260097664C206F002801D141
:1033C00072B6FEE700F078FA206F401E2067206F8B
:1033D000002837D1E06C00281BD133E0E068C668D4
:1033E0003000183000F016FA301D00F013FAF06AC1
:1033F000616D814200D26065311D544A14235843E7
:10340000101800F0E1F9F06AA16AC96A884200D395
:103410002566012520680028E0D1002E01D000F0AB
:10342000CEF8E66D002E07D000F010F8002800D08E
:103430002566761EF8D1E765206E002802D000953B
:1034400000F034FA00F044FA0098F2BDF8B5002616
:10345000404C206F002849D1276D7F1C27650ED175
:10346000E06A0068002801D072B6FEE7E06A216BCE
:10347000E1622063606E401C606600F0A0F8E06EC0
:10348000874229D321E0E06AC068C568686887423E
:1034900021D3281D00F0BEF9A86A002803D0280017
:1034A000183000F0B7F9EB6A606D984200D263659E
:1034B000291D264814225343C01800F085F9E86AF4
:1034C000A16AC96A884200D30126E06A0068002820
:1034D000D9D10020C043E066A16A1C48C96A142201
:1034E00051434058022804D3012602E0E06D401CFD
:1034F000E065206E002800D001263000F2BD0000FB
:1035000010B51448016F002902D00121016610BDD9
:103510000166416D00E0491E0C4A14234B43D2184A
:103520001368002B03D10029F5D172B6FEE753686A
:103530005B68536014000834A34201D15B68536098
:103540005268D2688262416510BD0000D808002030
:10355000593500083C08002070B5204C204D11E082
:1035600000F0AAF9286AC668301D00F053F9E86C2B
:10357000401EE864686B401E686300F0A9F93000E3
:1035800000F00AF8686B0028EAD120680228F9D315
:1035900000F08CF9F6E7000010B504005120205C23
:1035A000002806D1206B00F0F5F8200000F0F2F8BA
:1035B00010BD0128F9D00228FAD072B6FEE70848FB
:1035C000C16A0968002902D10021C94303E0C16A28
:1035D000C968C9684968C16670470000D8080020FA
:1035E0003C080020F8B504000E00134D2F6DA86AAA
:1035F000001D00F00FF90020C043844208D1002EC6
:1036000006D0A86A011D2800383000F0DDF8F1BDB1
:103610003C19A86A4460BC42A86A04D2011D286B08
:1036200000F0DEF8F1BD011DE86A00F0D9F8E86E9F
:10363000844200D2EC66F1BD3C08002070B586B033
:103640000600802000011F490A6802430A600968D9
:1036500008400090009801A902A8FFF729FD0598ED
:10366000002802D1FFF717FD02E0FFF714FD40002C
:10367000154D164929601649E9601649FDF7F4FE13
:10368000401E686000202861A860A8612800FEF73D
:103690002FFF040012D12800FEF739FF04000DD1DE
:1036A0000D2000F044F8042E07D2002231000D2036
:1036B00000F039F80848066000E00124200006B058
:1036C00070BD000018100240B4090020002C014019
:1036D000E703000040420F0054000020704770478D
:1036E00070477047704770477047FEE710B5C300DA
:1036F00018221A40FF249440E3438907090E9140A1
:10370000020004D40E4892089200801806E00D4A88
:103710000007000F08388008800010180268134066
:103720001943016010BD80B5FFF7E0FF01BD010046
:1037300005D40121C006C00E8140034801607047D6
:1037400000E400E01CED00E000E100E038B504001A
:1037500000250720044203D02100083120400C1A24
:10376000FFF71EFE0E484168002904D10100103108
:1037700007229143416001680A19B7239B009A42CE
:1037800004D2914202D243685D180260FFF710FE36
:10379000280032BD002801D072B6FEE77047000055
:1037A000FC0300200100083141600021C943816011
:1037B00001000831C1600100083101610021016090
:1037C000704700210161704742684A6093688B60CE
:1037D00093685960916008610168491C01607047F5
:1037E00030B50A680023DB439A4201D1036907E040
:1037F0000300083300E023005C682568AA42FAD27F
:103800005A684A6091608B60596008610168491C80
:10381000016030BD0169826843689A6042688368CC
:103820005A604A68824201D182684A60002202617D
:103830000868401E086008687047FEE710B503007E
:103840000C3B802464049C6059602F491960203827
:103850000260203810BD00002C4800680021C943D8
:10386000884201D072B6FEE772B6FEE738B5284846
:103870000168FF2212040A4302600168FF22120657
:103880000A430260234C00252560A5602248006899
:10389000FA218900FDF7E8FD401E606007202060E6
:1038A0001A48056000F069F8002032BD802040050C
:1038B0001A49086006E0000072B614480168491C05
:1038C000016000BFBFF34F8FBFF36F8F70470000E1
:1038D0000E480168002901D172B6FEE7491E016059
:1038E000002900D162B6704710B500F057F8040007
:1038F000FFF7ACFD002803D0802040050749086091
:10390000200000F04FF810BD593800084800002092
:1039100020ED00E010E000E05800002004ED00E0A1
:10392000034B03601800543008604020106070475B
:10393000E806002080F308887047EFF309801B4BEE
:103940001A6820381060F0C044464D4656465F461F
:10395000F0C008B572B6FFF7D3FD62B60CBC1168B3
:1039600008681030F0C8A046A946B246BB4680F3AE
:1039700009882038F0C8184770470C4B1968086848
:10398000203080F30988022080F31488BFF36F8F02
:103990003FBCAE4608BC04BC62B61847EFF31080CB
:1039A00072B6704780F310887047000064080020EA
:1039B00000000000000000000000001010101010B7
:1039C000101000100000282828000000000000004F
:1039D00014147E2428FE284810103C5450701C14E7
:1039E00054780002046468081016262000386C4CD5
:1039F000383A4E4646390010101000000000000012
:103A000000306040404040406030003018080808F6
:103A1000080818300010741874100000000000002E
:103A200000101010FE101010000000000000181808
:103A3000102000000000000038000000000000001E
:103A400000001818000004040808081810101020BE
:103A5000003864444444444464380010301010106A
:103A60001010107C007C4404040C1830607E007C34
:103A7000440404180406447800040C1434247E041E
:103A80000404007C6060780406044478001C206014
:103A90007C6446466438007E0404080810102060E8
:103AA000003C6446643C4646643C003864444666D8
:103AB0003C040C3800000010100000001010000042
:103AC0000030300000303040000000020C30C030C8
:103AD0000C020000000000FE00FE0000000000C01C
:103AE000701C061C70C000784C0C0C183020003084
:103AF000003CC3BD25646425BFC00018182C2424D5
:103B0000667E42C3007C4446447C4646467C001E9A
:103B1000226040404060221E00F88C8486868684A5
:103B20008CF800FC808080F8808080FC00FC808025
:103B300080F880808080003C40C0809E86C6463CE5
:103B40000084848484FC84848484007C101010109D
:103B50001010107C00380808080808080870008455
:103B60008890A0E0B0988C860040404040404040A3
:103B7000407C00C2C6E6A6BA9A92828200C4E4E4FF
:103B8000B4949C8C8C84003C46C2828282C2463CA7
:103B9000007C4446464478404040003C46C2828215
:103BA0009ACE463D00F8888C88F098888C86003C38
:103BB0006040603C0606467C00FE1010101010109D
:103BC00010100042424242424242623C00868484DB
:103BD000C848487030300000009292BAAAAC6C44D9
:103BE00000C2642C3818182C64C200C2462428185D
:103BF00010101010007E040C08103020407E007061
:103C0000404040404040700000202020101010181C
:103C1000080800701010101010107000000010281C
:103C20004CC6000000000000000000000000FE0084
:103C30000000000000000000FE0000000000380C42
:103C40003C4C4C3C004040407C6444444478000080
:103C50000000386040406038000404043C64444480
:103C6000643C0000000038447C40643C0018202084
:103C700078202020202000003C644444643C043828
:103C80000040404078684C4C4C4C00001000101034
:103C9000101010100C001C0C0C0C0C0C0838004000
:103CA00040404C506050484C0020202020202020D4
:103CB000202000000000F6DB9B9B9B9B0000000087
:103CC00078684C4C4C4C0000000038644444643824
:103CD00000007C6444444478404000003C64444418
:103CE000643C040400000000383020202020000044
:103CF00000003C24300C243C000010103C1010103C
:103D0000101C000000004C4C4C4C4C3C00000000CF
:103D10004448282830100000000092B2AAAC6C443D
:103D200000000000642C18182C6400000066243485
:103D30001C181830000000003C0C1810207C0C18D7
:103D400010101020101010180C1810101020101047
:103D50001018301818080804080818180000000087
:103D600062968C0000000000600002000C00000061
:103D7000AC4000080200440001000000203F0008A1
:103D80001F000F0004000000643F00082B000F001C
:103D900006000000683E000834000D000700000027
:103DA000C43E0008080A000080000000B039000886
:103DB000AAAAAAAA01000000000000000400000056
:103DC00000127A002A4100082A4100082A4100080E
:103DD0002A4100082A4100082A4100082A41000817
:103DE000FFFFFFFFFFFFFFFF521000082A410008FE
:103DF0002A410008FFFFFFFFFFFF0000686A6C74A4
:103E00007A4C00007072696E74665F733A20256E9A
:103E100020646973616C6C6F776564007072696EA1
:103E200074663A2062616420256E20617267756D48
:103E3000656E74007072696E74665F733A206261B9
:103E40006420257320617267756D656E74000000D3
:103E5000000000006E616E004E414E00696E66000B
:103E6000494E46003000FEE7FFFFFFFFFFE0FFFF87
:103E7000FFFCFEE0FFFFFFFEFEE0FFB7FFFEFFE0FE
:103E8000FFF7FFFEFFE0FFFFFFFEF9E0FFFBE7CEDD
:103E9000F020FFF9C786FE00FEFDF396FE20BE036C
:103EA000800600E0BF23C04703E07F7FFBFFFFE009
:103EB0003E7FF7FFFFE080FFC7FFFFE0C1FF8FFFFE
:103EC000FFE00000FFFFFFFFFFFFF0FDCFBFF9FFA6
:103ED000FFF0FBC7BFFDFFFFF0BB97DFFDFFFFF06B
:103EE000BBB7DE7DDFF8F0F7B3DFFDDFF010F703DF
:103EF000DFDDDFBF10BB79DBCC1F0070BB79FFECCF
:103F00003F81F0FFFFB7EFFFFFF0FFFFF3EFFFBFD1
:103F100070FFFFF81FAF3F70FFFFFC3FFC7FF0001A
:103F20000000000000000000000000000000000091
:103F30000000000000000000000000000000000081
:103F40000000000000000000000000000000000071
:103F50000000000000000000000000000000000061
:103F600000000000FFFFFFF6FF9FEFF6FFDFEFFE10
:103F7000FFDFD7F6FFDFDFE23FDFFFFA3FDFFFE2E1
:103F8000FFDFFFE2FCDF6EFE3EC000023FE0910675
:103F9000FEFFFFFEFEFFFFFEF8FFFFFEF1FFFFFE4C
:103FA00070B40121002213E00368001D0B4202D00F
:103FB0004D46EB185B1E1A601B1D241F042CFAD201
:103FC0001D00A60701D51A80AD1C0C4000D02A7038
:103FD0000468001D002CE7D170BC704730B401218B
:103FE0000EE00368C318446808300C4202D04D4606
:103FF0002C19641E1D6825601B1D241D121FF9D17C
:104000000268001D002AECD130BC704710B507498A
:1040100079441831064C7C44163404E0081D0A68C3
:10402000891888470100A142F8D110BD080000009E
:10403000280000006DFFFFFFB00900009400002081
:104040000000000099FFFFFF940000001CFDFFFF2F
:10405000000000200000000000F00DF8002801D052
:10406000FFF7D4FF00BF00BF002000BF00BFFDF777
:1040700021FE00F002F80120704780B500F002F840
:1040800001BDFEE707463846FDF77AFBFBE7FEE792
:104090000548014603B4684680F3098800BF00BFA5
:1040A00000BF00BFFFF7D8FFA5EDF5FE0000000040
:1040B0000000000000000000000000000000000000
:1040C00000000000FEE7FEE780B50248FEF7C4FAF4
:1040D00001BD0000B409002070470000000000008E
:1040E0000000000001020304060708090148804798
:1040F00001480047D94000089140000864656661A6
:10410000756C745461736B006D795461736B3032EC
:10411000000000000000000001020304FEE7FEE7CB
:0B412000FEE7FEE7FEE7FEE7FEE7001B
:04000005080040911E
:00000001FF
