:020000040800F2
:10000000F00B0020CD7B0008D1760008D3760008E5
:1000100000000000000000000000000000000000E0
:10002000000000000000000000000000D57600087D
:100030000000000000000000D7760008D976000814
:10004000833B000800000000A73D0008D3490008DA
:10005000635D0008675D00087B5D0008D35D0008F4
:1000600000000000EB5D0008E17600088B5F0008EF
:10007000EB760008F5760008CB6100080000000070
:10008000FF7600080000000000000000097700086B
:1000900000000000137700081D770008CF610008FA
:1000A000000000002B78000800000000777B0008AB
:1000B000FA21490141430800411E0028FBD1704745
:1000C000C0000100481E0029FBD1704710B586B062
:1000D0008020800287490A6802430A600A68024059
:1000E0000092009A0A6802430A600A68024000927D
:1000F000009A0A6802430A600A6802400092009A65
:100100000A6802430A6009680840009000980120CC
:100110000290039003200490FD3001909024E405A8
:1001200001A9200003F052F80420019001A9200049
:1001300003F04CF81020019001A9200003F046F8CC
:100140002020019001A9200003F040F806B010BD66
:1001500010B5694C2068202188432060322003F0CC
:1001600005F9206820210143216010BDF0B5624AE5
:1001700013680424A3431360604BDC430029116817
:1001800001D0214300E019401160102115680D4392
:10019000156007251026F6431768374017600700DB
:1001A000EF40FF07176801D5274300E01F401760A5
:1001B00017680F4317606D1EEED510680640166075
:1001C0001068042101431160F0BD70B504000D00FA
:1001D0000F2600210F222A40B0201043FFF7C6FF50
:1001E000002126403000FFF7C1FF00216006420FCA
:1001F00010201043FFF7BAFF41480470457070BDEE
:1002000080B5FFF763FF3C48016810220A43026093
:10021000016804220A430260016820220A43026046
:100220000168364A0A400260FFF792FF0021E2208F
:10023000FFF79CFF0A2003F099F80021A420FFF7A4
:1002400095FF0021A620FFF791FF00212F20FFF747
:100250008DFF0A2003F08AF800212F20FFF786FF88
:100260000021AF20FFF782FF01BD000030B5CB08B1
:100270004907490F234CC50028182018C45C0125E4
:100280008D40002A02D02543C55430BDAC43C45430
:1002900030BD70B500210020FFF797FF0024194EF4
:1002A000002501213019EAB2D3009A18805CFFF7CB
:1002B0005DFF6D1CE8B26028F3DB641C092CEFDBEA
:1002C00070BDB0B500210020FFF77FFF00240D4F67
:1002D000002500203919EA00521988540121FFF73E
:1002E00045FF6D1C602DF4DB641C092CF0DBB0BDF8
:1002F000000000001410024014000048FFFEFFFF41
:10030000EC070020FC0300200EB4FFB5070000201E
:1003100001E00198401C019001980AA9498888428F
:1003200038D20AA90979484302900C980299405C96
:100330000026002400256946898C019A89186A469E
:1003400011706946487001E0012211E06846008D95
:100350008542DED27819694649788C460123072107
:100360006A07520F891A8B4061461942ECD000226D
:1003700069460978C0B2FFF779FF641C082C07D3DF
:100380000024761C0C9802998919405C69464870D3
:100390006D1CDBE704B00498F0BC04B0004708B45F
:1003A000FFB5060024206844007802903018401EF3
:1003B000602834DA6846418009A840780190684690
:1003C000408801994018401E442828DA00276846D2
:1003D000427000E07F1C0198874220DA0B98694642
:1003E00049782039019A5143C919455C002468466F
:1003F0004088C0196946087001E0002207E00298B1
:100400008442E7DA30190A992940F6D00122694678
:100410000978C0B2FFF72AFF6D00641CEFE7FFE721
:1004200004B00498F0BC02B0004708B4FFB5002542
:10043000040068460181170012E009A881B06946EE
:100440000CC80CC102680A6008BC32006846018909
:10045000A0B2FFF7A4FF24206844007824186D1C84
:10046000E8B23E5C002EE8D1DAE770B586B08020B5
:10047000800260490A6802430A600A6802400092EA
:10048000009A0A6802430A600968084000900098D0
:100490008020C0000190112402940025049590262C
:1004A000F60501A9300002F091FE80208000019045
:1004B0000294049501A9300002F088FE06B070BDD8
:1004C00010B5FA208000FFF7FBFD4B4C206880211F
:1004D000C900014321606420FFF7F2FD20688021FC
:1004E0008900014321606420FFF7EAFD2068434949
:1004F000014021606420FFF7E3FD2068404901408E
:1005000021606420FFF7DCFD10BD10B56420FFF70B
:10051000D7FD394C20683A49014021606420FFF73B
:10052000CFFD20683549014021606420FFF7C8FDF8
:10053000206880218900014321606420FFF7C0FD0D
:1005400020688021C90001432160FA208000FFF764
:10055000B7FD10BDF2B582B000212A4C6268284B6D
:1005600013406360802508266A4610700191244F6D
:1005700068460078290001400029606803DD802179
:10058000C900014301E01D49014061606420FFF79B
:1005900097FD6068F943014361606420FFF790FDB7
:1005A0006068384060602068400503D501982900E4
:1005B000014301916D08761EDAD1019D6846007AEB
:1005C00061680E4A0A40626001280CD16068F943F4
:1005D000014361606420FFF773FD60680740676056
:1005E0006420FFF76DFD6420FFF76AFDE8B2FEBDF1
:1005F000000000001410024014000048FFFBFFFF41
:10060000FFFDFFFF1000004838B504000D00FFF7A4
:1006100057FF0121200A4200A0201043C0B2FFF77B
:1006200099FF0121E0B2FFF795FF01212800FFF7B4
:1006300091FFFFF76AFF0F20FFF73AFD002032BD60
:10064000FEB500246E46070000203055380A4500EC
:100650003555FFF735FF0121A0202843C0B2FFF731
:1006600079FF0121F8B2FFF775FFFFF729FF01219C
:10067000A1202843C0B2FFF76DFF0021FF20FFF744
:1006800069FF3055FFF741FF0120FFF711FD002CF6
:1006900005D0305D3119491E0978814203D0641CB0
:1006A000092CD1DB00E0FEBD3078FEBD38B504007A
:1006B0000D00E1B22800FFF7A7FF210A6D1CA8B2C8
:1006C000FFF7A2FF002032BD38B50400601C80B2E5
:1006D000FFF7B6FF05022000FFF7B2FF281832BD72
:1006E000F0B585B0FFF7C1FE0024A0B202F052FDC4
:1006F00002F060FEB44902F068FEB149A2008850E1
:10070000322002F033FE641C042CEEDDFFF778FD8E
:10071000FFF7D7FD01220221AC4802F014FE9C48ED
:1007200002F0B9FE9B4F81B068460ECF0EC00C3F61
:1007300008BC994A14211E20FFF777FE81B0684655
:100740000ECF0EC00C3F08BC944A23210A20FFF7AD
:100750006CFEFFF79EFD924802F008FE984C2000C8
:10076000803003908F4E74E02021984802F0E5FD20
:10077000012849D1F86F934903F070F844D800205C
:10078000306702207067F0661420914A9083B0674A
:100790008548A061118B142034E0844903F05EF891
:1007A0000ED88C4903F06EF80AD281A003C803F07A
:1007B0007CF881A20CCA03F052F903F0B1F90400ED
:1007C000029878670198786600983866FC677C4CD8
:1007D00004986066012520217C4802F0AEFD0028C7
:1007E000C2D1F86F774903F039F8BDD800203067DF
:1007F0007567F5660A20764A9083B0677248A061F3
:10080000118B0A20FFF752FFFD65B56600200399A2
:10081000086038000C3002F05FFE20001C3002F04F
:100820003AFE6B48C06E012803D120001C3002F054
:1008300053FEA06F02F0BEFDE16803F0A3F902D100
:10084000A24802F049FE01F095FF00F001FB01F023
:10085000C3FEFFF71EFDB86F396F0143F3D10121CD
:100860009020C00502F069FD00283AD1A0673066EB
:1008700001206067B06D401CB0655548C06E00280F
:1008800006D1B06E012803D120001C3002F003FE17
:100890004F4D0020A867FA6F1000216802F0F2FFA8
:1008A0000AD26068110002F0EDFF05D22800203066
:1008B00002F012FE00202067E86E0128C3D100205C
:1008C000206701222021414802F03DFD0220F86509
:1008D000B066002003990860E867E86620001C30D5
:1008E000AFE701219020C00502F027FD0128AAD121
:1008F0000020A066364988678866706D401C706568
:100900000020206700222021304802F01CFD002535
:10091000B86D02F04FFD796F03F044F978676566B2
:10092000072002F023FD656E6D1C282DF0DB049579
:10093000FC6F786F664902F048FD0290F96E03F093
:1009400031F90190B96E03F0BDF90100019803F08F
:1009500061F90090144902F095FF03D31D4902F09C
:100960007DFF01D800242BE703F004FA02000B00FE
:100970000098584902F072FF02D8574902F082FFEE
:1009800000D30AE755A003C802F08FFF5BA211E76E
:100990000C0000204C02002058750008607500080B
:1009A000B80B0000000000200000A04101007B43C4
:1009B0008B6CE7FBA9714BC0894160E5D0824E404A
:1009C0007C000020CDCC4C3E0000204100040048BB
:1009D0004C01002001002F44F1B582B00027414EA8
:1009E00000684849C96888420BD1F06F401C8328D1
:1009F00006DBF067002202213B4802F0A4FC002045
:100A0000F0673A4D3A4C02980068E16988421AD181
:100A10003000543003F0EEF9E86FFE21890503F051
:100A2000C1F8E867A16E491C1A2904DB0121E166BF
:100A3000002101222A67A1662E4902F00FFF02D889
:100A40000120E866EF6702980068296A88420FD1A2
:100A50003000543003F0CEF9206F401C0C2806DD26
:100A60002067FFF716FC67670120B066002020674B
:100A700002980068F168884213D13000543003F0C6
:100A8000B9F9EF672767A06F401C009002F092FC55
:100A9000E16802F0E3FE02D80120E06700970098C9
:100AA000A067029800681449C96888420CD13000D8
:100AB000543003F09FF9A86F401C3D2803DB012050
:100AC000104948660020A867F7BD0000D801002043
:100AD000000020420000A84101007A43621058390A
:100AE000B4E84740CC010020000400484C0100203D
:100AF0007C0000200100A0404C020020B29DEFA726
:100B0000C6535740000000207047F8B586B003F088
:100B10007DF900F069F914210022684603F086F996
:100B2000802080029B4E316801433160316808406B
:100B3000059005988020C00231680143316031681A
:100B40000840059005989027FF050022924938003B
:100B500002F0F9FB00222221904802F0F4FB01256B
:100B600000950024019402946946380002F02EFB9F
:100B70008B4800900195029403946946380002F076
:100B800025FB222000900195029403946946834836
:100B900002F01CFBC020C0000090112001900295C3
:100BA00003946946380002F011FBD82000900194AC
:100BB00002946946794802F009FB306828433060A6
:100BC0003068284000900098002201210A2003F09C
:100BD00050F90A2003F051F969460C604C608C60B2
:100BE0007048714908604C608C60CC600D610420D5
:100BF00048610C838D76CC76FF20C230C8610846F0
:100C000004626A490D70856203F05CF9002801D026
:100C100002F0DAFA00952803019007200290694655
:100C2000614803F0C4FA002801D002F0CDFA102187
:100C3000002202A803F0FAF869460C604C60BC4D33
:100C40005B48E8615B4828626C625B48A862EC62C2
:100C50006C6328001C3002F00FFC002801D002F069
:100C6000B3FAB00C029002A928001C3002F01DFD5E
:100C7000002801D002F0A8FA0094019469462800E7
:100C80001C3003F0B3FB002801D002F09DFA4B4862
:100C90004B4901624B4F476284624B49C162046316
:100CA0008463203002F0E8FB002801D002F08CFAC7
:100CB000464D4748E860474828616C61FA200001CA
:100CC000A861EC612C626C6228000C3002F0D4FB4D
:100CD000002801D002F078FAE24E3F48F060376118
:100CE0007461FA20C000B061F46134627462300053
:100CF0000C3002F0C1FB002801D002F065FA374841
:100D000068650620A865364828663648E8652800E4
:100D1000543003F049F8002801D002F055FA1021B0
:100D2000002202A803F082F869460C604C60CE4DA8
:100D3000CE48E8601F4828616C611F48A861EC61DB
:100D40002C626C6228000C3002F096FB002801D067
:100D500002F03AFA80204001029002A928000C30EB
:100D600002F0A3FC002801D002F02EFA00940194B6
:100D7000694628000C3003F039FB002801D002F04E
:100D800023FA022231005431074803F055F9FFF7E6
:100D9000A7FCFCE7141002403C8700000004004858
:100DA0003C81000000240140A8070020CC0700205F
:100DB000000400403F1F0000B80B00004C01002061
:100DC00000200040581B000088130000CC010020C8
:100DD000004401404C1D000000480140003000402C
:100DE000FF0F0000E204000038B590B0302100226F
:100DF00004A803F01BF810210022684603F016F83F
:100E00001A200490012007900990102108910A915E
:100E10000B9002240C9400250D95A02080030E90C9
:100E20000F9504A803F00EFB002801D002F0CCF9C6
:100E3000072000900194029503950121684603F074
:100E4000C7FC002801D002F0BFF911B030BD00008E
:100E5000F8B584B0364F38008030029038008430C6
:100E60000390834E7F4D02E00020029908604021EC
:100E7000804802F062FA002857D10424FFF721FAD3
:100E8000B86902F077FF02000B007B49039803F07A
:100E900063FD81B068460ECD0EC00C3D08BC039AC0
:100EA00025211620FFF7C1FAFFF7F3F9C82040000B
:100EB00002F05CFA81B068460ECD0EC00C3D08BC55
:100EC000320026211420FFF7B0FA81B068460ECD1B
:100ED0000EC00C3D08BC320027211420FFF7A5FAF4
:100EE00081B068460ECD0EC00C3D08BC32002821F2
:100EF0001420FFF79AFA81B068460ECD0EC00C3D63
:100F000008BC320029211420FFF78FFAFFF7C1F93E
:100F1000C820400002F02AFA4021564802F00DFA9B
:100F20000128A1D0641EA2D0A8E701254D4E04E0FF
:100F30007C00002000250298056080214D4802F0C9
:100F4000FCF9002800D08BE001220221494802F080
:100F5000FAF98A4802F0C0FA0424484802F0BCFAC0
:100F600000203867022078670020B867F867FFF72D
:100F7000A8F93D4882B069460CC80CC102680A60F5
:100F80000CBC1C210620FFF7BFF9FFF782F9C8202F
:100F9000400002F0EBF981B068460ECE0EC00C3E68
:100FA00008BC374A1C210320FFF73FFA81B068468E
:100FB0000ECE0EC00C3E08BC314A1D210320FFF7A7
:100FC00034FA81B068460ECE0EC00C3E08BC2C4AE6
:100FD0001E210320FFF729FA81B068460ECE0EC00D
:100FE0000C3E08BC264A1F210320FFF71EFA81B0E1
:100FF00068460ECE0EC00C3E08BC214A20210320BC
:10100000FFF713FAFFF745F9C820400002F0AEF9E8
:101010001C4802F0EFFE012002990860802115486B
:1010200002F08BF9012885D0641E96D1002D84D062
:1010300000F02AF8002800D07FE7B866F866504C28
:10104000606638001C3002F047FA0C4802F044FA9F
:1010500020000C3002F040FA30000C3002F03CFA74
:1010600005B0F0BD4C02002000000020002C014023
:1010700074750008000400486C7500086C010020BD
:101080008075000820020020F8B53E4802F024FADE
:101090003D4802F021FA3D4802F01EFA00206E4958
:1010A0008866C866C8673A4802F0F5F900203949F1
:1010B000C866886608670220486700208867C86796
:1010C000FFF7FFF8334E2E4F04E000F011FD002033
:1010D000614948672E4802F0DEF9002000F0B2FBBB
:1010E000D64802F043F9FFF7D4F833E01021D44892
:1010F00002F023F9002816D1F86E072813D1012237
:101100002100280002F01FF9462002F02FF90022EA
:101110002100280002F017F9062000F093FBFA20C6
:10112000400002F023F98021C54802F006F90028AA
:1011300010D19025ED0580242402012221002800F1
:1011400002F001F9462002F011F9002221002800E6
:1011500002F0F9F88021BA4802F0EFF8012800D037
:1011600070E1386700247C67F06E012814D1FC67B9
:10117000024802F090F90020F2BD00BF0C000020F0
:10118000CC0100206C010020D80100205802002072
:10119000980000207C0000200821A94802F0CDF82A
:1011A00000285DD10122D1039020C00502F0CBF8C8
:1011B000462002F0DBF80022802109029020C005C1
:1011C00002F0C1F8244D01202867F4661620B066AD
:1011D000FFF777F8C44882B069460CC80CC10268B2
:1011E0000A600CBC5F210C20FFF78EF8384682B0F5
:1011F00069460CC80CC102680A600CBC00210020C2
:10120000FFF782F8384682B069460CC80CC1026804
:101210000A600CBC00215E20FFF776F882B06846B9
:101220000ECD0EC00C3D0CBC00210020FFF76CF869
:1012300082B068460ECD0EC00CBC42210020FFF7E4
:1012400063F8FFF726F8FA20C00002F08FF880203C
:101250003450FC67A54801E04C01002002F01BF966
:101260009025ED05802424024021754802F065F8A0
:10127000002815D1F86E002812D101222100280083
:1012800002F061F8462002F071F8002221002800E7
:1012900002F059F830001C3002F0FDF801203CE764
:1012A0004021674802F049F8002815D1F86E01285E
:1012B00012D101222100280002F045F8462002F058
:1012C00055F800222100280002F03DF830001C30C3
:1012D00002F0E1F8032020E71021594802F02DF830
:1012E000002810D1F86E03280DD10122210028001A
:1012F00002F029F8462002F039F8002221002800E7
:1013000002F021F8CAE710214D4802F016F8002833
:1013100011D1F86E01280ED101222100280002F01F
:1013200012F8462002F022F800222100280002F0E4
:101330000AF80020F1E64021414801F0FEFF0028B4
:1013400015D1F86E032812D101222100280001F0E6
:10135000FAFF462002F00AF800222100280001F0DE
:10136000F2FF30001C3002F096F80420D5E6102180
:10137000334801F0E2FF002810D1F86E04280DD1A7
:1013800001222100280001F0DEFF462001F0EEFFDF
:1013900000222100280001F0D6FF9BE740212848C9
:1013A00001F0CBFF002814D1F86E042811D10122DE
:1013B0002100280001F0C7FF462001F0D7FF0022DE
:1013C0002100280001F0BFFF30001C3002F063F85C
:1013D000A2E610211A4801F0B0FF002810D1F86EE3
:1013E00006280DD101222100280001F0ACFF462083
:1013F00001F0BCFF00222100280001F0A4FFB4E7A7
:1014000040210F4801F099FF002801D1F86E06280D
:1014100000D06BE601222100280001F094FF462055
:1014200001F0A4FF00222100280001F08CFF300011
:101430001C3002F030F807206FE600BF14050000F2
:1014400000040048FEF73DFFFA20400001F08EFF47
:10145000F86E002800D138E6012805D100F048FBDD
:1014600000202349486715E70024214D032807D1B0
:101470000090B4230F22F16800F03CF86C6725E778
:10148000042807D1009005230122316900F032F8C9
:101490006C6766E7062808D10090142300223168A3
:1014A000002000F027F86C678EE7072808D100902D
:1014B000142300227168012000F01CF86C67B6E765
:1014C0009025ED058024240201222100280001F04E
:1014D0003AFF462001F04AFF00222100280001F0D7
:1014E00032FF0120F2BD0000740300200C00002038
:1014F0004C010020F3B583B015001C000020CE493C
:10150000086701204867FEF7DCFECC4801F0C3FF06
:101510000020C1498866C866280001F04BFF019091
:10152000200001F047FF0090049C0A9EBA4DC3E0E2
:10153000E86E012800D124E12100300000F0C2FE55
:101540001021380001F0F9FE002854D10122D10306
:101550009020C00501F0F7FE462001F007FF0022B1
:10156000802109029020C00501F0EDFE0020A86650
:10157000E866002E01D0012E12D1200002F0FAFB05
:10158000A6A20CCA02F091F902F0CAFA040000996E
:1015900002F064F900D80C469620400001F0E6FE07
:1015A000022E03D0032E01D0042E0DD1FE21890579
:1015B000200002F0F7FA0400009902F04FF900D879
:1015C0000C46C82001F0D2FE062E01D0072E12D103
:1015D000200002F0CFFB91A20CCA02F066F902F0E3
:1015E0009FFA0400009902F039F900D80C469620C1
:1015F000400001F0BBFE4021380001F09EFE0028B3
:101600005AD180273F02012239009020C00501F005
:101610009AFE462001F0AAFE002239009020C00563
:1016200001F091FE0020A866E866002E01D0012E90
:1016300013D1200002F09EFB7BA20CCA02F035F908
:1016400002F06EFA04000198210002F007F900D8B8
:1016500004469620400001F089FE022E03D0032E9E
:1016600001D0042E10D16F49200002F09BFA040033
:10167000962001F07BFE0198210002F0EFF803D8DC
:101680000446C82001F072FE062E01D0072E13D1A9
:10169000200002F06FFB64A20CCA02F006F902F00F
:1016A0003FFA04000198210002F0D8F800D804465F
:1016B0009620400001F05AFE8021614801F03DFE75
:1016C000012862D15E4F0821380001F036FE002863
:1016D00000D02DE79025ED05802424020122210071
:1016E000280001F030FE462001F040FE00222100DB
:1016F000280001F028FEFEF7E4FD474C0025E566D2
:101700001620A0664A4882B069460CC80CC102681F
:101710000A600CBC64210420FEF7F6FD464E82B040
:1017200068460ECE0EC00C3E0CBC00210020FEF719
:10173000EBFD82B068460ECE0EC00CBC00215E20D0
:10174000FEF7E2FD3B4E82B068460ECE0EC00C3E68
:101750000CBC00210020FEF7D7FD82B068460ECEFB
:101760000EC00CBC42210020FEF7CEFDFEF791FD1D
:10177000FA20C00001F0FAFDFEF7A3FD80202550FD
:1017800001E02D494866002044E0FEF79AFD27005D
:1017900080212B4801F0D1FD0028F9D02E463000E1
:1017A0001C3001F099FE9025ED05802424020122D1
:1017B0002100280001F0C7FD462001F0D7FD0022DE
:1017C0002100280001F0BFFDBE4882B069460CC868
:1017D0000CC102680A600CBC60210020FEF794FD79
:1017E000FEF757FDFA20C00001F0C0FDFEF769FDCD
:1017F000B54D00242C67AC676846007B80003750ED
:1018000039006846007B01F0AFFC2C67B4613800FA
:1018100003F0C2F805B0F0BD7C0000209A999999B8
:101820009999B93F000080BF9A9999999999B9BF40
:10183000800300204C010020CC01002098000020F3
:1018400000040048F1B582B0A04CA14EA14DA24FBA
:101850000020029900294FD13867E866F066B0662B
:10186000FEF72FFDF06E01286FD09C4882B06946CC
:101870000CC80CC102680A600CBC60210720FEF78E
:1018800043FD20000C3082B069460CC80CC10268D0
:101890000A600CBC76212220FEF736FD82B0684635
:1018A0000ECD0EC00C3D0CBC00210020FEF72CFD1F
:1018B00082B068460ECD0EC00CBC00215E20FEF743
:1018C00023FD82B068460ECF0EC00C3F0CBC002139
:1018D0000020FEF719FD82B068460ECF0EC00CBC8A
:1018E00042210020FEF710FDFEF7D3FC002220214C
:1018F0007B4801F028FDE2E00121029A012A1AD179
:10190000E966F066B06620000C3082B069460CC80B
:101910000CC102680A600CBC76212220FEF7F4FCA0
:10192000704882B069460CC80CC102680A600CBCE1
:10193000602101206CE0032A20D10321E966F066D2
:10194000B066FEF7BEFCF06E012877D020000C30A8
:1019500082B069460CC80CC102680A600CBC7621D2
:101960002220FEF7D1FC604882B069460CC80CC149
:1019700002680A600CBC6121022049E0042A20D1DF
:101980000421E966F066B066FEF79BFCF06E012864
:1019900054D020000C3082B069460CC80CC10268DB
:1019A0000A600CBC76212220FEF7AEFC4F4882B0C4
:1019B00069460CC80CC102680A600CBC6121002099
:1019C00026E032008032029B062B2BD111600621CB
:1019D000E966F066B066FEF774FCF06E01282DD063
:1019E00020000C3082B069460CC80CC102680A6045
:1019F0000CBC76212220FEF787FC2000183082B034
:101A000069460CC80CC102680A600CBC5921082048
:101A1000FEF77AFC82B068460ECC0EC00CBC0221E8
:101A2000222022E0072B4AD111600721E966F066E7
:101A3000B066FEF746FCF06E012801D10020FEBD25
:101A400082B068460ECC0EC00C3C0CBC0221222099
:101A5000FEF75AFC2000243082B069460CC80CC145
:101A600002680A600CBC5B210320FEF74DFC82B0CB
:101A700068460ECD0EC00C3D0CBC00210020FEF7C8
:101A800043FC82B068460ECD0EC00CBC00215E2027
:101A9000FEF73AFC82B068460ECF0EC00C3F0CBC7D
:101AA00000210020FEF730FC82B068460ECF0EC049
:101AB0000CBC42210020FEF727FCFEF7EAFB02984F
:101AC000FEBD0000680300204C0200208C030020B3
:101AD0007C000020CC0100204C01002044030020A9
:101AE00000040048500300205C030020E0030020B5
:101AF000F1B584B0D74C002800D0B7E10025E566E9
:101B0000A5668021D44801F018FC012800D088E0A7
:101B1000D2484566D24882B069460CC80CC10268FA
:101B20000A600CBC00210820FEF7EEFBCD4882B015
:101B300069460CC80CC102680A600CBC112108205F
:101B4000FEF7E2FBC84882B069460CC80CC10268C7
:101B50000A600CBC21210C20FEF7D6FBFEF799FB96
:101B6000E06E01285CD00821BB4801F0E6FB0028AC
:101B7000C7D10122D1039020C00501F0E4FB46202B
:101B800001F0F4FB0022802109029020C00501F041
:101B9000DAFBFEF796FBE5661620A066E04882B009
:101BA00069460CC80CC102680A600CBC64210420A0
:101BB000FEF7AAFBDB4E82B068460ECE0EC00C3E8E
:101BC0000CBC00210020FEF79FFB82B068460ECEC1
:101BD0000EC00CBC00215E20FEF796FBD24882B0FE
:101BE00069460CC80CC102680A600CBC00210020C8
:101BF000FEF78AFBCC4882B069460CC80CC102686B
:101C00000A600CBC42210020FEF77EFBFEF741FB80
:101C1000FA20C00001F0AAFBFEF753FB80202550FC
:101C2000E7E280218C4801F088FB0028F9D02746A4
:101C300038001C3001F050FCD24C20000C3001F078
:101C40002AFC01222021844801F07DFB38008430E9
:101C500002908DE0CA4901F001FE21D8C74901F088
:101C600011FE1DD2BFA003C801F01FFEB6A211E0F5
:101C700002F080F802000B003000BC4901F0EEFDDC
:101C8000E8D8BB4901F0FEFDE4D2BAA003C801F0D8
:101C90000CFEAFA20CCA01F0E2FE01F041FF05000C
:101CA00001986067009860662666E5670398786625
:101CB000FEF707FBA84882B069460CC80CC1026851
:101CC0000A600CBC10210620FEF71EFBA34882B060
:101CD00069460CC80CC102680A600CBC242128208B
:101CE000FEF712FBE06F02F045F802000B009C4982
:101CF000029802F031FE81B068460ECC0EC00C3C5A
:101D000008BC029A28210D20FEF78FFB854882B07F
:101D100069460CC80CC102680A600CBC0021002096
:101D2000FEF7F2FA7F4882B069460CC80CC102681F
:101D30000A600CBC00215E20FEF7E6FA7A4882B009
:101D400069460CC80CC102680A600CBC0021002066
:101D5000FEF7DAFA744882B069460CC80CC1026812
:101D60000A600CBC42210020FEF7CEFAFEF791FA81
:101D70003A48406E002837D10821374801F0DDFA93
:101D8000002800D1D0E10025A06D01F013FB010077
:101D9000606F01F007FF60677D660A2001F0E6FAD8
:101DA0007D6E6D1CC82DEFDB0395E56F606FD44928
:101DB00001F00BFB01900146E06E01F0F3FE009094
:101DC0000146A06E01F07EFF0100009801F022FFA5
:101DD0000600CC4901F056FD04D3684901F03EFDF0
:101DE00000D945E700255BE7FEF76BFA38001C30A9
:101DF00001F051FB0020F866B86620000C3001F0BD
:101E00006BFB00222021144801F09DFABE4882B0ED
:101E100069460CC80CC102680A600CBC6021002035
:101E2000FEF772FAFEF735FAE16FB84801F04AFFA3
:101E300002F0B2FD050080B201F0ACFA0600B44930
:101E400001F0C3FA38600648066337488583818904
:101E500006E200BF7C0000200004004800000020D3
:101E6000140100202C01002038010020012800D09E
:101E700000E20025E566A5668021A64801F05DFA2E
:101E8000012834D1A4484566A44882B069460CC8EC
:101E90000CC102680A600CBC01210120FEF734FA73
:101EA0009F4882B069460CC80CC102680A600CBC2D
:101EB00011210820FEF728FA9A4882B069460CC81A
:101EC0000CC102680A600CBC21210C20FEF71CFA30
:101ED000FEF7DFF9E06E012806D008218D4801F0F9
:101EE0002CFA0028C8D144E6FEF7EBF981E1802105
:101EF000884801F022FA0028F9D0274638001C3023
:101F000001F0EAFA1F4C20000C3001F0C4FA012263
:101F10002021804801F017FA380084300290B3E0A5
:101F200080030020CC0100204C010020144901F066
:101F300095FC41D8114901F0A5FC3DD209A003C888
:101F400001F0B3FC00A231E0894160E5D0824E404F
:101F5000B29DEFA7C653574044030020BC030020A6
:101F60006C7500088B6CE7FBA9714BC00000A841A1
:101F700001007A4362105839B4E8474001002F4409
:101F800001007B434C02002001F0F4FE02000B0034
:101F90003000BA4901F062FCC8D8B94901F072FCBE
:101FA000C4D2B8A003C801F080FCB8A20CCA01F0EA
:101FB00056FD01F0B5FD0500019860670098606668
:101FC0002666E56703987866FEF77BF9B14882B02C
:101FD00069460CC80CC102680A600CBC10210120C3
:101FE000FEF792F9AC4882B069460CC80CC1026891
:101FF0000A600CBC24212820FEF786F9E06F01F06E
:10200000B9FE02000B00A549029802F0A5FC81B0C0
:1020100068460ECC0EC00C3C08BC029A28210D204C
:10202000FEF703FAA14882B069460CC80CC10268E9
:102030000A600CBC00210020FEF766F99B4882B0C4
:1020400069460CC80CC102680A600CBC00215E2005
:10205000FEF75AF99A4882B069460CC80CC102686A
:102060000A600CBC00210020FEF74EF9944882B0B3
:1020700069460CC80CC102680A600CBC42210020F1
:10208000FEF742F9FEF705F92348406E002800D01C
:10209000B1E008211F4801F050F9002844D0002584
:1020A000A06D01F087F90100606F01F07BFD6067B2
:1020B0007D660A2001F05AF97D6E6D1CC82DEFDB9C
:1020C0000395E56F606F0E4901F07FF901900146BD
:1020D000E06E01F067FD00900146A06E01F0F2FD98
:1020E0000100009801F096FD0600064901F0CAFBC8
:1020F00004D36B4901F0B2FB00D945E700255BE74B
:10210000000048430000A041680300200000704127
:1021100000002041000400480000002020010020B1
:102120002C010020380100205E4801F0D5F9002480
:1021300063488467002220215D4801F004F990265D
:10214000F60580252D0201222900300001F0FBF860
:10215000462001F00BF900222900300001F0F3F8CD
:10216000FEF7AFF8FC661620B8664F4882B06946A5
:102170000CC80CC102680A600CBC64210420FEF784
:10218000C3F84A4882B069460CC80CC102680A60AC
:102190000CBC00210020FEF7B7F8444882B0694625
:1021A0000CC80CC102680A600CBC00215E20FEF75E
:1021B000ABF8434882B069460CC80CC102680A609B
:1021C0000CBC00210020FEF79FF83D4882B0694614
:1021D0000CC80CC102680A600CBC42210020FEF74A
:1021E00093F8FEF756F8FA20C00001F0BFF8FEF7AA
:1021F00068F800203FE0FEF764F820000C3001F0A2
:102200006BF938001C3001F046F90020F866B8661A
:1022100000222021264801F096F8264882B069461F
:102220000CC80CC102680A600CBC60210020FEF7DB
:102230006BF8FEF72EF8E16F8220C00501F042FD39
:1022400002F0AAFB050080B201F0A4F806001A49CA
:1022500001F0BBF878601948466319488583C18945
:10226000A8B2FEF723FA00202067A067FA20C0007A
:1022700001F07CF8049805B0F0BD00000000A84112
:1022800001007A4362105839B4E84740B29DEFA785
:10229000C653574050030020BC0300206C75000853
:1022A00001002F445802002080030020CC010020B0
:1022B00000040048680300200000204114010020B1
:1022C0004C010020F2B584B00700084601F052FD31
:1022D00002AA03C2B34EB44DB44C032F6FD1B4481D
:1022E00082B069460CC80CC102680A600CBC0A21A5
:1022F0000020FEF709F802A80CC8AE49AE4802F06B
:102300002BFB81B068460ECC0EC00C3C08BCAA4A20
:1023100028210D20FEF789F882B068460ECD0EC048
:102320000C3D0CBC00210020FDF7EEFF82B068469A
:102330000ECD0EC00C3D0CBC00215E20FDF7E4FF6D
:1023400082B068460ECE0EC00C3E0CBC00210020B0
:10235000FDF7DAFF82B068460ECE0EC00C3E0CBC14
:1023600042210020FDF7D0FF944F0498390001F07E
:1023700089FA0AD281B068460ECC0EC00C3C08BC6B
:102380008F4A28211F20FEF750F80498390001F0E9
:1023900065FA09D881B068460ECC0EC008BC884AE0
:1023A00028212420FEF741F8864882B069460CC8EF
:1023B0000CC102680A600CBC28212B2099E0042F74
:1023C00032D1814882B069460CC80CC102680A60EB
:1023D0000CBC0A210120FDF797FF7C4882B06946BA
:1023E0000CC80CC102680A600CBC2A212B20FDF726
:1023F0008BFF714F02A80CC86E49380002F0ACFA8E
:1024000081B068460ECC0EC00C3C08BC3A002A21B4
:102410000D20FEF70AF881B068460ECC0EC008BC4D
:102420006BA22A21132090E0062F65D1694882B063
:1024300069460CC80CC102680A600CBC1021062059
:10244000FDF762FF02A80CC85A495B4802F084FA03
:1024500081B068460ECC0EC00C3C08BC564A282100
:102460000A20FDF7E2FF0498B64901F00BFA36D2D4
:10247000B5A781B068460ECC0EC00C3C08BC3A0033
:1024800024212120FDF7D1FF81B068460ECC0EC07B
:102490000C3C08BC3A0025212120FDF7C6FF81B085
:1024A00068460ECC0EC00C3C08BC3A002621212008
:1024B000FDF7BBFF81B068460ECC0EC00C3C08BCDB
:1024C0003A0027212120FDF7B0FF81B068460ECCED
:1024D0000EC008BC3A0028212120FDF7A6FF9B482A
:1024E00082B069460CC80CC102680A600CBC242189
:1024F0002C20FDF709FF2AE0072F50D1944882B025
:1025000069460CC80CC102680A600CBC102101208D
:10251000FDF7FAFE8D4882B069460CC80CC102680E
:102520000A600CBC24212820FDF7EEFE224F02A8F1
:102530000CC82049380002F00FFA81B068460ECC72
:102540000EC008BC3A0028210D20FDF76EFF82B0B6
:1025500068460ECD0EC00C3D0CBC00210020FDF7DE
:10256000D3FE82B068460ECD0EC00CBC00215E20AA
:10257000FDF7CAFE82B068460ECE0EC00C3E0CBC03
:1025800000210020FDF7C0FE82B068460ECE0EC0CE
:102590000CBC42210020FDF7B7FEFDF77AFE05B026
:1025A000F0BD00004C010020CC0100204C020020B6
:1025B0005C0300206C750008000100200000C84288
:1025C00090750008C8030020E0030020D403002019
:1025D0002020200044030020F8B55E4C80202058C5
:1025E000002800D0ACE05C4FFA6F5C4D0026100074
:1025F000616801F047F904D32068110001F042F945
:1026000065D201219020C00500F097FE012803D17A
:10261000686F002800D1BE675148006E012803D1C1
:10262000266702204E4908664E4800F055FF2800F4
:10263000203000F030FF4A48C16D491CC165606F11
:10264000002844D10120B867F8652800203000F048
:1026500043FF00222021444800F075FE414800F06D
:102660001AFF26674148866601219020C00500F0C8
:1026700064FE012800D1B867E06F012817D102205D
:10268000F865FDF706FE374800F026FF01222021FD
:10269000354800F058FE686F401C6867012060678D
:1026A0002800203000F0F7FE304886660FE0686FA3
:1026B00000F080FE216901F065FA08D1B86F0128A9
:1026C00005D12B4800F052FE012028498867E667B3
:1026D000F96F606801F0D6F832D20800216801F085
:1026E000D1F82DD22800203000F0D5FE606F0028F0
:1026F00005D1BE676E672800203000F0EDFE184857
:10270000016E022902D1266701210166154800F0F9
:10271000E3FEA6672800203000F0BDFE1348806E5F
:1027200001280DD12800203000F0D6FE0122202102
:102730000D4800F008FE0220F865E667012060679A
:10274000F1BD00000000204120000000BC0300207B
:10275000500300207C0000204C0200204C0100208F
:1027600000000020D801002000040048CC01002017
:1027700070170000FEB50026864D224CA06D00F0BB
:1027800019FE616F01F00EFA60676E660A2000F0B4
:10279000EDFD6E6E761C502EF0DB0196E56F606FDE
:1027A000194900F012FE0090E16E01F0FBF90700FC
:1027B000A06E390001F086FA0100380001F02AFA13
:1027C0000600124901F05EF803D3114901F046F802
:1027D00001D8002539E001F0CDFA02000B003000ED
:1027E0000C4901F03BF81DD80B4901F04BF819D208
:1027F0000AA003C801F059F800A220E0B29DEFA79B
:10280000C65357404C0200200000A0420000A041E7
:1028100001002F440000A84101007A43621058399A
:10282000B4E847405C4901F019F80ED8EA4901F0D4
:1028300029F80AD2E9A003C801F037F8E4A20CCACB
:1028400001F00DF901F06CF905000098606767660A
:102850002666E5674F4D0198686628001C3000F039
:102860003BFE0020E866DF4EDF48006F012847D1BD
:10287000306F012848D13000543001F0BBFAFDF729
:1028800020FDDA4882B069460CC80CC102680A60B3
:102890000CBC5F210C20FDF737FD82B068460ECEE0
:1028A0000EC00C3E0CBC00210020FDF72DFD82B0B7
:1028B00068460ECE0EC00C3E0CBC00215E20FDF71B
:1028C00023FDC94882B069460CC80CC102680A6081
:1028D0000CBC00210020FDF717FDC34882B06946FB
:1028E0000CC80CC102680A600CBC42210020FDF734
:1028F0000BFDFDF7CEFCEB4800F038FD0020306703
:10290000B948006F012843D1706F012840D13000D1
:10291000543001F06FFAFDF7D4FCE34882B0694609
:102920000CC80CC102680A600CBC64210E20FDF7C3
:10293000EBFC82B068460ECE0EC00C3E0CBC0021F3
:102940000020FDF7E1FC82B068460ECE0EC00C3EC2
:102950000CBC00215E20FDF7D7FCA34F82B0684677
:102960000ECF0EC00C3F0CBC00210020FDF7CCFCAC
:1029700082B068460ECF0EC00CBC42210020FDF78D
:10298000C3FCFDF786FCC74800F0F0FC0020706730
:10299000C64F03E07C00002001007B43E06D05286A
:1029A00014D13000543001F025FAFDF78AFCFDF710
:1029B00070FC3800303082B069460CC80CC1026827
:1029C0000A600CBC11211020FDF79EFCE06D01286F
:1029D00000D0D5E03000543001F00CFAFDF759FC7E
:1029E00081B068460ECC0EC00C3C08BCDF4A1521F5
:1029F0000A20FDF71AFD81B068460ECC0EC00C3CD3
:102A000008BCDA4A16210A20FDF70FFD81B068469E
:102A10000ECC0EC00C3C08BCD44A17210A20FDF78E
:102A200004FD81B068460ECC0EC00C3C08BCD04AF8
:102A30001B210A20FDF7F9FC3800183082B06946E6
:102A40000CC80CC102680A600CBC04211720FDF7F9
:102A50005BFC3800483082B069460CC80CC1026883
:102A60000A600CBC25212A20FDF74EFCE06F01F026
:102A700081F902000B00BF492800843001F06CFF8F
:102A800081B068460ECC0EC00C3C08BC2A008432D3
:102A900025210320FDF7C9FC3800543082B0694677
:102AA0000CC80CC102680A600CBC14212720FDF779
:102AB0002BFC286801F05EF902000B00AE492800EB
:102AC000843001F049FF81B068460ECC0EC00C3C4A
:102AD00008BC2A00843214210320FDF7A6FC686894
:102AE00001F048F902000B00A3492800843001F0EE
:102AF00033FF81B068460ECC0EC00C3C08BC2A00E7
:102B0000843234210320FDF790FC3800603082B01D
:102B100069460CC80CC102680A600CBC33211C2039
:102B2000FDF7F2FB82B068460ECE0EC00C3E0CBC28
:102B300000210020FDF7E8FB82B068460ECE0EC0F3
:102B40000C3E0CBC00215E20FDF7DEFB264882B067
:102B500069460CC80CC102680A600CBC0021002048
:102B6000FDF7D2FB204882B069460CC80CC1026850
:102B70000A600CBC42210020FDF7C6FBFDF789FB73
:102B8000E06D022800D044E13000543001F032F909
:102B9000FDF77FFB81B068460ECC0EC00C3C08BC34
:102BA000724A15210A20FDF740FC81B068460ECC20
:102BB0000EC00C3C08BC6D4A16210A20FDF735FCFE
:102BC00081B068460ECC0EC00C3C08BC674A0FE0D2
:102BD000894160E5D0824E4001002F448B6CE7FBB9
:102BE000A9714BC0CC0100204C01002074030020CF
:102BF00017210A20FDF719FC81B068460ECC0EC0E3
:102C00000C3C08BC5A4A1B210A20FDF70EFC81B07F
:102C100068460ECC0EC00C3C08BCF04A25210520AD
:102C2000FDF703FC81B068460ECC0EC00C3C08BC1E
:102C3000EA4A04210520FDF7F8FB81B068460ECC76
:102C40000EC00C3C08BCE54A05210520FDF7EDFB54
:102C500081B068460ECC0EC00C3C08BCDF4A062191
:102C60000520FDF7E2FB81B068460ECC0EC00C3C9F
:102C700008BCDA4A07210520FDF7D7FB81B068467A
:102C80000ECC0EC00C3C08BCD44A08210520FDF730
:102C9000CCFB81B068460ECC0EC00C3C08BCCF4AC1
:102CA00006E000BFB80B000080030020CC0200202B
:102CB00009210520FDF7B9FB3800243082B06946B0
:102CC0000CC80CC102680A600CBC04211D20FDF771
:102CD0001BFB3800483082B069460CC80CC1026842
:102CE0000A600CBC25212A20FDF70EFBE06F01F0E5
:102CF00041F802000B001F492800843001F02CFE2F
:102D000081B068460ECC0EC00C3C08BC2A00843250
:102D100025210320FDF789FB3800543082B0694635
:102D20000CC80CC102680A600CBC14212720FDF7F6
:102D3000EBFA286801F01EF802000B000E4928008B
:102D4000843001F009FE81B068460ECC0EC00C3C08
:102D500008BC2A00843214210320FDF766FB686852
:102D600001F008F802000B00034907E09C75000819
:102D700074750008A8750008B07500082800843034
:102D800001F0EAFD81B068460ECC0EC00C3C08BCD8
:102D90002A00843234210320FDF747FB38006030DD
:102DA00082B069460CC80CC102680A600CBC3321B1
:102DB0001C20FDF7A9FA82B068460ECE0EC00C3E6C
:102DC0000CBC00210020FDF79FFA82B068460ECEB1
:102DD0000EC00C3E0CBC00215E20FDF795FAEC48BD
:102DE00082B069460CC80CC102680A600CBC0021A4
:102DF0000020FDF789FAE64882B069460CC80CC18C
:102E000002680A600CBC42210020FDF77DFAFDF744
:102E100040FA6868296800F021FD00D9F0E0300030
:102E2000543000F0E7FF00222021DF4800F08BFA49
:102E300020000C3000F050FB0120206780216850FA
:102E4000DA4800F049FB28001C3000F045FB300058
:102E50000C3000F041FB0122D1039020C00500F0AE
:102E600072FAFDF72EFA81B068460ECC0EC00C3C0B
:102E700008BCCF4A0A210020FDF7D7FA81B0684686
:102E80000ECC0EC00C3C08BCCA4A15210020FDF730
:102E9000CCFA81B068460ECC0EC00C3C08BCC44ACB
:102EA00021210020FDF7C1FA81B068460ECC0EC08A
:102EB0000C3C08BCBE4A2D210020FDF7B6FA3800B4
:102EC0000C3082B069460CC80CC102680A600CBCA8
:102ED00002210F20FDF718FA82B068460ECF0EC00F
:102EE0000C3F0CBC13210620FDF70EFAFDF7D1F9BB
:102EF000FA20400000F03AFA0022802109029020D6
:102F0000C00500F020FA81B068460ECC0EC00C3C23
:102F100008BCA94A00210A20FDF787FA81B068465B
:102F20000ECC0EC00C3C08BCA34A01210A20FDF7C0
:102F30007CFA81B068460ECC0EC00C3C08BC9E4AA0
:102F400002210A20FDF771FA81B068460ECC0EC04E
:102F50000C3C08BC984A03210A20FDF766FA81B0B0
:102F600068460ECC0EC00C3C08BC934A04210A20D3
:102F7000FDF75BFA81B068460ECC0EC00C3C08BC75
:102F80008D4A05210A20FDF750FA81B068460ECC23
:102F90000EC00C3C08BC884A06210A20FDF745FA01
:102FA00081B068460ECC0EC00C3C08BC824A07219A
:102FB0000A20FDF73AFA81B068460ECC0EC00C3CF0
:102FC00008BC7D4A08210A20FDF72FFA81B0684627
:102FD0000ECC0EC00C3C08BC774A01E0B875000866
:102FE00009210A20FDF721FA82B068460ECF0EC0F3
:102FF0000C3F0CBC13210620FDF786F9FDF749F9BB
:10300000B06F012856D13000543000F0F3FE20009C
:103010000C3000F061FA00205D49C867012020678C
:1030200000222021604800F08EF90020584988666F
:103030000120802168505D4800F04EFA28001C30C5
:1030400000F04AFA30000C3000F046FAFDF739F98A
:103050000122D1039020C00500F075F938000C3032
:1030600082B069460CC80CC102680A600CBC02211F
:103070000F20FDF749F938003C3082B069460CC892
:103080000CC102680A600CBC19211220FDF73CF942
:10309000FDF7FFF89620400000F068F9002280213B
:1030A00009029020C00500F04EF908213E4800F0CA
:1030B00044F9002857D1FDF704F938006C3082B08C
:1030C00069460CC80CC102680A600CBC1C210C20AB
:1030D000FDF71AF9FDF7DDF8C820400000F046F9C9
:1030E000FDF7EFF8C820400000F040F938006C30E0
:1030F00082B069460CC80CC102680A600CBC1C2175
:103100000C20FDF701F9FDF7C4F8C820400000F0DD
:103110002DF9FDF7D6F8C820400000F027F9380057
:103120006C3082B069460CC80CC102680A600CBCE5
:103130001C210C20FDF7E8F8FDF7ABF8C820400093
:1031400000F014F9FDF7BDF80821174800F0F5F874
:10315000002808D10E4948672067A067B067802122
:10316000685001206867F7BD10B50400134800F0EF
:10317000A9FD01F011FC064988836200891889893C
:1031800080B2FDF793FA00200D49886710BD00005A
:103190004C01002010B50B4C400020188089FDF731
:1031A00093FAA08310BD0000000400486C010020C9
:1031B0007475000890750008C8750008000020416B
:1031C000CC0100204C01002072B6FEE7FFB50022C2
:1031D000012301932AE0052602E05E4FB842FAD1AE
:1031E000AE402643029C26605B4C2568DC432540AC
:1031F0004E68F60300D51D43574E3560756825406F
:103200004F68BF0300D51D437560B56825404F6802
:10321000FF0200D51D43B560F5682C404D68AD0236
:1032200002D525001C002C43F460521C0B681C00C6
:10323000D44000D180E0019D95402B40F5D0540052
:103240000326A640F74302974E68012E05D0022EB2
:1032500003D0112E01D0122E0ED186683740CE68D1
:10326000A6403E4386604668AE434D682D09019FE7
:103270002F40974037434760C568029E2E408D68B7
:10328000A5403543C56095006E4675704D68022DAA
:1032900001D0122D1AD1D508AD0045192E6A03961A
:1032A0006E4676781C2737406E463770039EB446CC
:1032B0000F276E463678B7406646BE43B4460F6960
:1032C0006E463678B740664637432F620768032656
:1032D000029D3D404F683740A7402F4307604C6830
:1032E000E400A2D51D4C2468019D25431B4C25609C
:1032F0002468019D25400295029C194C9508AD005B
:1033000064190294029C24686D466F780C253D4038
:103310000F27AF40BC439027FF05B84201D10026DC
:103320005EE7104FB84201D1019E59E70E4FB842F7
:1033300000D052E7022653E7FFBD0069084000D0E5
:103340000120C0B27047002A01D0816170478162BC
:1033500070470000000C00480004014018100240B3
:1033600008000140000400480008004838B5040087
:1033700001F030FB05000020C043844202D0044825
:103380000078241801F026FB401BA042FAD331BD7F
:10339000EC0300209D2102000AD002D4491E92189D
:1033A000FCD5C905100A1206524100D3012A484132
:1033B000704700009D210200EED55242F446FFF70F
:1033C000EBFF0122D2071043604730B405004D40A7
:1033D0000122D20715404B180418240E25D01B0ECD
:1033E0002CD0FF2C31D0FF2B34D0E41A000209027C
:1033F0001043114343084808D10D1B1A02D2641E22
:10340000DB181B18DB18834200D31B1A4941F9D380
:103410007F3423DDFF2C05DAE405480860412843AA
:1034200030BC7047FF20C005F9E728001B0E03D011
:10343000FF2BF5D14902F3D0D043F1E7FF2C01D1A6
:103440004002F9D1FF20C005E9E74002F4D1FF2B8B
:10345000F8D1F1E728004902E2D0EDE70B020020A5
:103460002442DCD15B129B1CD9D9D805D7E702686E
:10347000531C03601170704710B5040001D1012086
:1034800010BD3D20205C002804D13C216054200068
:1034900001F008FB3AE03D21415C012901D0012007
:1034A000704702213D22815402680121D3680B43F9
:1034B000D3600268264B9A4202D0264B9A4205D12D
:1034C00092685207520F062A04D00268126811430C
:1034D000006801600020704710B502680121C943EF
:1034E000D3680B40D3600268136A174C1C4008D1A4
:1034F000126A164B134004D1026812681140026828
:10350000116001213D228154002010BD02203D2187
:103510006054211D206800F027F9012046216054E5
:103520003E2160543F216054402160544121605449
:103530004221605443216054442160544521605429
:103540003D216054002010BD111100004404000012
:10355000002C014000040040F8B50400206800255C
:1035600002260169314015D0C168314012D00221D4
:10357000C9430161012121778069800703D02000C0
:1035800001F008FB05E0200001F005FB200001F040
:1035900003FB2577206804270169394016D0C168EC
:1035A000394013D00421C943016126778069C021C5
:1035B0008900014003D0200001F0ECFA05E0200072
:1035C00001F0E9FA200001F0E7FA257720680826E3
:1035D0000169314014D0C168314011D00821C9437C
:1035E00001612777C069800703D0200001F0D2FA7B
:1035F00005E0200001F0CFFA200001F0CDFA257798
:103600002068102102690A4016D0C268114013D008
:103610001021C94301612677C069C021890001409A
:1036200003D0200001F0B6FA05E0200001F0B3FA63
:10363000200001F0B1FA25772068012102690A40D3
:1036400008D0C268114005D00121C94301612000A2
:10365000FDF7C2F92068802102690A4008D0C268DB
:10366000114005D08021C9430161200001F095FA85
:103670002068402102690A4008D0C268114005D084
:103680004021C9430161200001F088FA206820210F
:1036900002690A4008D0C268114005D02021C94300
:1036A0000161200001F07BFAF1BD70B504003C20FF
:1036B000205C012801D1022070BD26003C36012586
:1036C000357002203D22A05420688268254B1340AB
:1036D0008360086802003CD010283AD0202838D0F7
:1036E000302836D040282DD050281DD0602822D038
:1036F000702803D06B0398420AD02EE0CB684A684A
:103700008968206800F099F820688168772208E0CD
:10371000CB684A688968206800F08FF82068816863
:10372000AA030A43826018E0CA684968206800F06A
:1037300059F850210EE0CA684968206800F063F823
:10374000602107E0CA684968206800F04BF8402112
:1037500000E00100206800F068F83D2025540020BA
:10376000307070BD8800FFFFF0B50268184B194C2F
:10377000194D1A4EB04201D0A84206D17027BA4363
:1037800017004A683A43B04208D0A84206D0144D08
:10379000A84203D0A04201D0984203D12C4D15403D
:1037A000CA682A438025AA434D69154305608A6883
:1037B000C2620A688262B04203D0A04201D098423D
:1037C00001D10969016301214161F0BD00000000E0
:1037D000004801400044014000040040002C01402A
:1037E0000020004030B5036A046A0125AC4304623E
:1037F0008469F025AC431201224382610A2293437B
:103800001943016230BD30B5036A1024A34303623B
:103810008369046A0F4D1D4012032A438261A0226E
:10382000944309012143016230BD826870239A43A9
:10383000114307220A438260704730B58468064D01
:10384000254029430A4319021143816030BD00001D
:10385000FFFCFFFFFF0FFFFFFF00FFFF0CB4012283
:1038600012060318DA4207D84B18DA4204D80200CD
:103870000A43921802D281420CBC7047FCD08842A5
:103880000CBC70470CB4012212060318DA4207D8A8
:103890004B18DA4204D802000A43921802D2884236
:1038A0000CBC7047FCD08142FAE7F0B40125ED076B
:1038B0000F005F404FD48B4200D1824205D984462D
:1038C000100062468C4619006346DF184C18640DE0
:1038D0007F0D3AD0661C760537D0E61B352E34DCDA
:1038E000DB022B43DB0A0C0DC9022943C912202E2F
:1038F0000DDB1700203E06D01F00F741F3405F406C
:103900000026012A7741C01871410DD217E0170037
:10391000F741F2405740F3415A40B340F3405A4018
:103920000026801859410AD3A21C52050FD0C207A5
:10393000012F724117004008CB0718434908641C47
:1039400024054208AF4170416141F0BC7047641CDE
:1039500021050020F9E76B4010E06B40ABE7F74230
:10396000F3D1E943F1E72442EFD100200021ECE755
:10397000F0B40125ED070F005F40EED40C00871A6C
:103980009C4105D2C01BA141D219634169406B40E3
:10399000AE0ADF184C18F442E1D2640D7F0DE2D07C
:1039A000E61B362ED1DCDB022B43DB0AA4460C0DD2
:1039B000C9022943C90A012E28DC04D1D6075208BE
:1039C000DF073A435B08EF0A76429041994114D0F1
:1039D00039423BD1B61940414941761C394204D1A4
:1039E000761C001849413942FAD0B9436746B742BC
:1039F00008D9A41B24052143A7E70042EAD1364297
:103A0000E8D1A2E7E40AE10700209EE7202E0BDDC3
:103A1000203E1F00F340F7415F40012A002257413A
:103A20007E42984191410BE01700F741F240574028
:103A3000F3415A40B340F3405A407E42904199418D
:103A40000A0303D2641EB619404149410027641E8F
:103A500024054208AE4178416141F0BC7047F0B4A2
:103A60000E005E400125ED072E40B446AE0ADF1879
:103A70004C18F4423BD2F74241D2640D43D07F0D43
:103A800038D0E41BC902DB0229432B43CF0ADB0AEF
:103A90000600B61A9F4104D2641EB6197F41B618BB
:103AA0005F416812800D24180018844222DCE80C63
:103AB0000021B6197F41B61A9F4102D2B6185F4164
:103AC0003F1C40414941F4D3241C21DD2405B61993
:103AD0007F41B61A9F4105D33743C60737430026B7
:103AE000012F7041614166463143F0BC7047FCD103
:103AF000F74205D20020C14349054908F3E704D045
:103B00000020C143F1E77F0DFAD000206146ECE7C9
:103B10002442FAD1401C61410F03F6D30020E2E7B2
:103B2000012252054B18DA4201D9581570475B0D36
:103B30000722D2019B1A10D9FF2B1DD2DB050122CF
:103B4000D2070A4013430903020D1143490AC20078
:103B5000524100D9491CC81870470AD1800A0A038B
:103B600002435212921C04D9D3070B40D0051843CC
:103B70007047C80FC0077047C80F0002FF30C0056C
:103B80007047FEE7944602000A43921808D0884224
:103B900006D1012212060018D042084600D8804201
:103BA000624670470122D20703004B402ED4431ACD
:103BB00001D2C01AC91830B44B180418240E1B0EB9
:103BC00022D0FF2C20D0E31A182B1DDC0902114350
:103BD000C40D641E0002104394461925ED1A0A0014
:103BE000AA40D940451801D36D08A41CE405D209A8
:103BF000280A2D062A436546AA41604103181B0E78
:103C0000FF2B01D3C00DC00530BC7047514006E00A
:103C10005140CCE70122D20703004B40F8D4431AAD
:103C200003D2C01AC9185040514030B44B18090291
:103C300011430418240E1B0E40D0FF2C3AD025004F
:103C40009D410BD31ED8C50D4002401A0BD3ED0584
:103C50000100400AC90591416841D5E7C50D400200
:103C60004918401AD0D001214008491C0018FCD541
:103C70008C4204D36D1A000AED054019C4E7E8052B
:103C80001040C1E7182DBFDCAC1C0D00E140E54140
:103C90004D40012D4941C40D00021043451A01D485
:103CA0006D199543641EE405280A2D06954160416F
:103CB00030BC7047FF2BA7D1D843A5E72442A3D13E
:103CC0000020A1E730B405004D400122D207154085
:103CD0004B180418240E2ED01B0E32D0FF2C34D0DB
:103CE000FF2B3AD0E4180002090210431143000AE6
:103CF000090A9446C2B24A43000AC3B24B43000ABF
:103D00004843110A5B181A43D2B2190A091801D4A0
:103D10004918641E080A7F3C23DBFE2C08DAE40500
:103D200009061143634699416041284330BC7047FE
:103D3000FF20C005F9E728001B0EFF2BF6D1D0436A
:103D4000F4E72800FF2CF1D1F9E74002F7D1FF2B6F
:103D500001D14902F3D1E005E7E7D8054902E4D0F3
:103D6000EDE743020020641CDFD15B129B1CDCD911
:103D7000D805DAE7012212060118CA420AD28A429D
:103D80000DD83822120609098918C20FD20711432B
:103D90004007704700D049080909014301E0C10FFD
:103DA000C90700207047FEE738B5040001D10120A3
:103DB00032BD2068124901601249016061684160AA
:103DC000A168816000F006FE05002068C168002936
:103DD00006D000F0FFFD401B2728F6D3032032BD9C
:103DE000E16802698A4201D0016101E0064901608F
:103DF000002032BD044900680160002070470000C7
:103E0000CCCC000055550000AAAA000080B5064899
:103E1000016810220A430260002000F0C1FE00F099
:103E2000DFFD002002BD000000200240094202D058
:103E3000491E4254FCD1704710B5C30018221A40E5
:103E4000FF249440E3438907090E9140020004D403
:103E5000184892089200801806E0174A0007000FE1
:103E60000838800880001018026813401943016068
:103E700010BD80B5FFF7E0FF01BD010005D40121B1
:103E8000C006C00E81400D480160704710B5401E4D
:103E900080214904884201D3012010BD084C606094
:103EA00003210020C043FFF7C7FF0020A0600721C7
:103EB000216010BD00E400E01CED00E000E100E046
:103EC00010E000E0F8B504000025002C01D101202D
:103ED000F2BDA06B002805D1E063342160542000BE
:103EE00000F093FD10210122A06B084003D120684F
:103EF000042386681E4000D091E0A66B4B4F3740EC
:103F000002263E43A6638668B607B60F012E06D189
:103F10000646366816400FD1C66836040CD4C6680B
:103F20001827BE43A7683743C76020680669B600F4
:103F3000B6086768374307612068C6683C4F37405A
:103F4000C760A06A012801D0080200E000202669AD
:103F5000022E01D1009300E00095A37E267EB603D9
:103F6000677EFF0337435E033E433043E668064304
:103F7000009F37432420205C40003843E67E012E1A
:103F80000CD1002B03D103000803184306E0A36BF8
:103F900020261E43A663E36B1343E363E369FF2616
:103FA000C236B34202D00343206A18432368DE6856
:103FB0000643DE60E36A0E06B3420DD0012B0BD040
:103FC000022B09D0032B07D0042B05D0052B03D0DF
:103FD000062B01D0072B0CD123685E690727BE434F
:103FE0005E6123685E692C27E75D7F077F0F37439B
:103FF0005F610223DB432668F6680E4F3740874235
:1040000005D1E563A06B03401A43A2630BE0A06BEC
:1040100003401943A163E06B1043E06302E0A06B2F
:104020000143A16301252800F2BD0000FFFEFFFF50
:104030001902FEFFE7FF3F83F7B5040000250027C4
:104040002068806840073BD43420205C012801D1DF
:104050000220FEBD012634216654607E012804D072
:10406000200000F023F907002BD1029BA06B16491A
:10407000014030020843A063E5633420255488489A
:10408000216B88628748216BC8628748216B08636F
:104090001C20216808602068416810220A434260A1
:1040A0002068C1680E43C660019A21684031206BC8
:1040B00000F0C0FD2068816804220A43826000E0AD
:1040C00002273800FEBD0000FEF1FFFFF8B5040036
:1040D000206801270821102504220368134003D01B
:1040E00003465B68134006D103680B4033D0034698
:1040F0005B680B402FD0A36B2B4003D1A36B8E01C9
:104100001E43A6630346DB68C02636011E401CD151
:10411000A37E002B19D10068014016D0206880686A
:1041200002400BD1206840680C2188432168486018
:10413000A06B814901403943A16306E0A06B2021B7
:104140000143A163E06B3843E0632000FCF7DCFC33
:104150000C202168086080262068006830400CD060
:1041600020684068304008D0A06B29030143A16358
:10417000200000F01BFE20680660206801682940CE
:1041800014D001464968294010D0A16A012903D002
:104190000146C9680F4007D0E16B02220A43E2637F
:1041A0000560200000F003FE20680560F1BDF8B551
:1041B00004000025002600953420205C012801D150
:1041C0000220F2BD01223423E254206883685B0799
:1041D0005CD40B689A400092584A4B68584FBB42D7
:1041E000836A009F44D01F438762E06A80235B0597
:1041F00098421FD001281DD002281BD0032819D0B7
:10420000042817D0052815D0062813D0072811D068
:1042100020688B6847697F077F0FBB420AD04369DC
:104220000727BB434361206843690F7A7F077F0FED
:104230001F4347610868102817D011282BD1802010
:10424000C0031368184310600868102823D1584829
:104250000068584900F0C0FD0A21484300900098CA
:10426000002818D00098401EF8E780200004E8E7F6
:10427000BB4383620868102806D011280BD14E4832
:1042800011680840106006E04C48F9E7A06B202157
:104290000143A1630126342025543000F2BD000003
:1042A00045430008C9430008D3430008F8B504009B
:1042B000002000902068012182689207920F012A55
:1042C00006D1024612680A4032D1C26812042FD4C5
:1042D000102782683A4B134006D0A06B0743A763B0
:1042E000E06B0143E16321E0826811438160304863
:1042F0000068304900F070FD01E00098401E009019
:1043000000980028F9D100F065FB0125060020681F
:10431000006828400CD100F05DFB801B0328F6D319
:10432000A06B0743A763E06B0543E5630120F2BD83
:104330000020F2BD00000000FFFEFFFF0827014043
:104340000110000010B5416A8A6B502313402AD136
:10435000886B8022920002438A630868C268C02387
:104360001B0113401BD18A7E002A18D10A681268EB
:10437000120714D5012283685B0709D443680C2413
:10438000A3434360886B0F4B03401A438A6306E0E4
:10439000886B202303438B63C86B0243CA63080006
:1043A000FCF7B2FB10BD096B096B884710BD00001C
:1043B000F803002040420F00FFFFBFFFFFFF7FFF19
:1043C00017000080FFFEFFFF80B5406A00F01FFD70
:1043D00001BD80B5406A816B40220A438263C16B94
:1043E00004220A43C26300F0E2FC01BDF0B53C22A6
:1043F000825C012A01D10220F0BD02003C3201237F
:10440000137002243D25445505686E68AC6870271A
:10441000BE430F6837436F600568084EB54202D04F
:10442000074EB54204D18026B44349682143A960B0
:104430003D21435400201070F0BD0000002C0140CD
:1044400000040040FEB5040019D0AD4D2078C0072F
:1044500017D58027BF0268680C210140042909D0C4
:1044600068680C210140082941D168687908084032
:1044700088423CD12868074003D06068002800D1FA
:104480009BE1207880071AD5F827FF4368680C2144
:10449000014007D068680C21014008295BD1686899
:1044A000C00358D42868800703D5E068012800D0ED
:1044B00083E1286807402069C000384328602078DD
:1044C000000779D50227E0690028686A65D00121D4
:1044D0000143696200F07EFA0600686A38406BD1D9
:1044E00000F078FA801B0228F7D90320FEBD60682F
:1044F0007B0801280BD0B349B34A002801D12868B2
:1045000009E00528286806D1C943014329602868C5
:1045100003432B6004E002402A60286801402960C0
:10452000606800280BD000F055FA06002868384073
:10453000A7D100F04FFA801B6528F7D3D5E700F02C
:1045400049FA0600286838409BD000F043FA801BE7
:104550006528F7D3C9E7E068002828680ED0012154
:104560000143296000F036FA060028688007A0D4CD
:1045700000F030FA801B0228F7D9B6E70121884302
:10458000286000F027FA06002868800797D500F019
:1045900021FA801B0228F7D9A7E701218843686226
:1045A00000F018FA0600686A384005D000F012FAE8
:1045B000801B0228F7D998E704272068384062D08A
:1045C00000200190B806E969014008D1E96901437A
:1045D000E961E969084000900098012001907B485A
:1045E0000068C00512D479480068A90D01437748D6
:1045F000016000F0EFF9060074480068C00505D4BA
:1046000000F0E8F9801B6528F6D36EE7A068012862
:1046100008D0002801D1286A09E00528286A06D1B7
:1046200038432862286A01210143296205E00121FB
:1046300088432862286AB8432862A4480090A0688A
:1046400000280CD000F0C6F90600286A800713D4B1
:1046500000F0C0F9801B00998842F6D345E700F0CE
:10466000B9F90600286A800706D500F0B3F9801B67
:1046700000998842F6D338E70198002803D0E8690A
:1046800093490140E9612078C0061DD56069F8268C
:10469000F643012836D1686B07436F63686B0121CD
:1046A0000143696300F096F90700686B800705D441
:1046B00000F090F9C01B0228F7D916E7686B064096
:1046C000A069C00030436863206A002877D0696819
:1046D0000C220A40082A5BD08027BF048C4902289C
:1046E000286847D10140296000F074F90600286865
:1046F000384021D000F06EF9801B0228F7D9F4E68B
:10470000001002400421C9438842686B02D1014075
:104710006963D3E707436F63686B0121884368636C
:1047200000F058F90600686B8007CDD500F052F90B
:10473000801B0228F7D9D8E6E86A0F218843E16A8E
:104740000143E962686873490140A06A0843616AED
:1047500001436960286879080143296000F03AF94B
:104760000400286838402AD100F034F9001B0228E0
:10477000F7D9BAE60140296000F02CF90400286856
:1047800038401CD000F026F9001B0228F7D9ACE60F
:10479000012812D06868E96A802252020240636AE6
:1047A0009A420AD10907090FE26A914205D1F02124
:1047B00089030140A06A814201D00120FEBD002092
:1047C000FEBD0000FFFFFBFFFFFFFEFF007000408B
:1047D000F8B5040060D000914F480068C107C90FC8
:1047E000009881420CD24C48016801229143009A02
:1047F0000A4302600068C107C90F009881424BD18B
:104800002168464D022001420CD0490704D5696851
:10481000E022D2000A436A606968F0229143A268EC
:104820000A436A6001272168394025D0616801295F
:1048300002D12868800303E0022903D1286880019F
:1048400003D429E02A68104026D0686803229043E8
:104850000143696000F0BEF8060068680C21014061
:1048600060688000814207D000F0B4F8801B1749CF
:104870008842F2D30320F2BD2748009902683A40EB
:1048800091420BD20168B943009A0A430260006862
:1048900007400098874201D00120F2BD20784007F0
:1048A00005D568681E490140E0680843686000F06B
:1048B00011F81C496A681206120F895CC8401A492F
:1048C0000860002000F06CF90020F2BD89130000A0
:1048D000FFFFFFEF154A136815480C2119400829FE
:1048E00000D0704730B50F2113A49D0C0D40645DBE
:1048F000926ADB0307D500BF13A31140595C00F097
:104900006BFA604330BD20000A49484330BD0000C7
:10491000FFFFFFFEFFFFC2FF002002400010024029
:10492000FFF8FFFFBC7B0008F803002004100240E2
:1049300000127A0000093D00020304050607080979
:104940000A0B0C0D0E0F10100102030405060708D8
:10495000090A0B0C0D0E0F100CB418B583B004002F
:104960000A0006A8029001940020009002AB01A961
:10497000084878441E3000F04FFA0021019A117067
:10498000002801D40198001B04B0019910BC03B0A9
:10499000084700BFDBEAFFFF0122D2070118090E1A
:1049A0007F3910D449421F310FD4001805D2C001FD
:1049B0001043C84000D5D0437047C0011043C840E1
:1049C00005D440427047002070470042F3D51000E4
:1049D0007047FEE701484068704700BFEC030020C5
:1049E00081B0012060490A6802430A600A681040E9
:1049F00000900098802040054A6802434A60496858
:104A000008400090009801B07047F8B586B00700E4
:104A10001421002201A8FFF709FA38685349884297
:104A20003ED15348440D41682143416041682140D3
:104A300000910099210202680A4302600068014067
:104A40000091009802200190032002900025039518
:104A500001A99020C005FEF7B9FB464E46483060DC
:104A60007560B5608020F0603461000170612020C5
:104A7000B061F561300000F0B5F8002801D0FEF714
:104A8000A3FB3E480168820D0A4302603E637762E1
:104A9000002201210C20FFF7ECF90C20FFF7EDF9C3
:104AA00007B0F0BD80B500682F49354A90420ED15D
:104AB000C80C0A6802430A60096808400090009820
:104AC000002200210D20FFF7D4F90D2048E02D4AE7
:104AD00090420ED102204A6802434A604968084069
:104AE00000900098002201211020FFF7C2F9102049
:104AF00036E0254A90420ED1880D4A6802434A604A
:104B00004968084000900098002201211320FFF717
:104B1000B0F9132024E01D4A90420FD1802080027A
:104B20000A6802430A600968084000900098002261
:104B300001211520FFF79DF9152011E0144A90423C
:104B400010D18020C0020A6802430A600968084048
:104B500000900098002201211620FFF78AF9162004
:104B6000FFF78BF901BD000018100240002401403E
:104B700014100240640700201C00024000000140A5
:104B8000002C01400004004000200040004401408F
:104B90000048014070477047704770477047704742
:104BA00038B505000D4CFA208000217800F014F98A
:104BB00001000B48006800F00FF9FFF767F90028C3
:104BC0000AD1042D08D2002229000020C043FFF79B
:104BD00050F9A560002032BD012032BDEC03002059
:104BE000F803002010B5040001D1012010BD0220FF
:104BF00021216054206801680D4A0A406168114310
:104C0000A2680A43E168114322690A4361691143BA
:104C1000A2690A43E16911430160200000F0B3F882
:104C20000020A06301212122A1542021605410BD45
:104C30000FC0FFFFF2B50400002000252021615CB9
:104C4000012901D10220F2BD01262027E6550221CB
:104C50002127E75D012F20D12127E155A06320689E
:104C60000168B14301600099200000F07BF82068E2
:104C7000E16A0029016803D00E220A43026007E0BE
:104C80000A220A43026020680168042291430160FD
:104C9000206801680E43066002E02022A05402252D
:104CA0002800F2BDFEB5C16B0968019101680A6870
:104CB000009220220423019C056C0426AE4026406D
:104CC00011D0009C1C400ED00C68224002D10A6812
:104CD0009A430A60016C8B40C16B4B60C16A00292A
:104CE0003FD08847F7BD012302240025019EB4462A
:104CF000066C0227B7406646374016D0009E264015
:104D000013D00E68324005D10A680A26B2430A6001
:104D100021214354016C8C40C16B4C6020214554CF
:104D2000816A00291DD08847F7BD08226446066CB9
:104D30000827B740274014D0009C224011D00A68B1
:104D40000E24A2430A60016C01228A40C16B4A60B2
:104D500083632121435420214554016B002900D055
:104D60008847F7BD30B50124056CAC40C56B6C605D
:104D7000046863604068102802D1A260E16030BD21
:104D8000A160E26030BD10B50400206805494018FC
:104D9000142100F021F8800020640348E06310BD76
:104DA00000000000F8FFFDBF0000024070477047A0
:104DB000CA0F00D0494203105A400DD004B500D3A9
:104DC000404200F009F8009AD20701D3494212424A
:104DD00000D5404204BD0000094214D088420FD3E0
:104DE0000122030C01D100041204002300185B41CE
:104DF0008B4200D35B1A5241F8D319001000704760
:104E000001000020704708B500F0ACFF08BD7047F6
:104E10000100202008437047FDB5B2B03A980491D4
:104E200002A93B22885400200D9027A8401C3190F5
:104E30000DE00498329A90470490002801D100F0C8
:104E4000B8FE0D98401C0D903398401C3390339859
:104E5000017800290FD02529EBD100200790089078
:104E600009900A900B900C900224012114910821C2
:104E70001291339D05E00D9800F09DFE01001498FD
:104E800008436D1C29782029F8D023290BD02B2921
:104E900004D02D2904D0302908D00AE02043F0E7BF
:104EA00001000420ECE701000820E9E701001020E0
:104EB000E6E72A290FD134990A681168121D349B3C
:104EC0001A600F91002904D54A420F920100042074
:104ED00008436D1C12E000210F91644B09E00F990B
:104EE000994205DA8E0071184900891830390F91FE
:104EF0006D1C2A78110030390A29F0D329782E291F
:104F000003D00021C9430E9126E06D1C29782A297F
:104F100008D134990A681168121D349B1A600E91E9
:104F20006D1C19E02D2901D16D1C00E0002100222B
:104F30000E920CE0002909D10E9A4C4EB24205DACD
:104F40009600B2185200D218303A0E926D1C2B788F
:104F50001A00303A0A2AEDD302A908872E783100C8
:104F600040487844FF30401E00F0FEFE002801D08B
:104F70006D1C00E0002602A83A214654682E04D198
:104F8000287868280BD1622005E06C2E07D128789C
:104F90006C2804D1712002A93A2288546D1C18A8EB
:104FA0000690287869460870681C33906846057832
:104FB0002800253833D01C3800D1CDE1001F02284D
:104FC00000D8C9E1133801D100F01BFD093800D128
:104FD000C2E1801E01D100F0B1FD401E01D100F000
:104FE0005EFD401E022800D8B6E1001F01D100F08E
:104FF00056FD401F00D109E1401E01D100F001FD26
:10500000401E00D1F1E0C01E0ED0801E01D100F084
:10501000F8FCC01E01D100F0F4FC00F09BFD1498D8
:105020000790252000F092FD349800680468001D68
:10503000349908600594002C00D0C2E002A83B21FE
:10504000405C002800D1B6E00024E44306487844E0
:10505000163000F093FE201A01D000F0AAFD00F0F7
:1050600087FD00BF5C27000090270000CBCCCC0C54
:1050700001236A4602A9280000F058FE002801D04A
:1050800000F097FD641EF3D13295079D18AC002DFA
:105090000FD0329E21780498B0470490002801D1A7
:1050A00000F087FD0D98401C0D90641C6D1EF1D121
:1050B00032963020694608700A9C002C0DDD329D26
:1050C00001236A4602A9280000F030FE002801D022
:1050D00000F06FFD641EF3D13295059C089D002DF4
:1050E0000FD0329E21780498B0470490002801D157
:1050F00000F05FFD0D98401C0D90641C6D1EF1D1F9
:105100003296302769460F700B9C002C0DDD329DC6
:1051100001236A4602A9280000F008FE002801D0F9
:1051200000F047FD641EF3D13295059808994418A4
:10513000099D002D0FD0329E21780498B04704902D
:10514000002801D100F035FD0D98401C0D90641C25
:105150006D1EF1D13296684607700C9C002C0DDD57
:10516000329D01236A4602A9280000F0DFFD0028D5
:1051700001D000F01EFD641EF3D1329502A8382143
:10518000405C400700D462E6202069460870019820
:10519000002800DC5BE6019C329D01236A4602A9DF
:1051A000280000F0C3FD002801D000F002FD641EBD
:1051B000F3D132954BE61B4878446830059000F0F7
:1051C000D7FC0E9D002D03D5200000F0FBFD09E06B
:1051D0002A000021200000F0FDFD002801D0001B66
:1051E00000E02800089000F0C3FC349800680268D2
:1051F000001D349908600020C0430021104002AA1D
:1052000003C218A80590782100F094FC02A83B2165
:10521000415C002908D00024E4434B487844FF3027
:10522000293016E7F02500003A21405C62286AD058
:10523000682819D06A2845D06C2806D071284FD02C
:10524000742831D07A2821D06FE03498016808683A
:10525000091D349A116000287AD10024E4433B48A8
:105260007844FF301738F4E6349801680868091D5F
:10527000349A1160002805D10024E443334878446F
:10528000CA30E6E60D99018000F072FC349801689E
:105290000868091D349A1160002859D10024E4439C
:1052A0002A487844A630D4E6349801680868091D75
:1052B000349A116000284BD10024E44323487844F9
:1052C0008A30C6E6349800680268001D3499086088
:1052D000002A13D10024E4431C4878446E30B8E619
:1052E000349800680268001D34990860002A05D1CE
:1052F0000024E443154878445230AAE60D98C117BB
:1053000003C200F035FC349801680868091D349A1E
:105310001160002805D10024E4430C4878442C3067
:1053200097E60D99017000F023FC34980168086835
:10533000091D349A116000280AD10024E44303486F
:105340007844083085E600BF8024000094240000E3
:105350000D99016000F00CFC34980068C21D072014
:1053600082433498026003CA349B1A6002AA03C2C3
:105370002022C80F04D007982D2118AA11540DE03F
:1053800002A8008F204204D007982B2118AA11549C
:1053900004E0C00704D5079818A90A54401C0790D8
:1053A00018A8079940181390059027AC02A803C8C5
:1053B00016AA03C26846007820210143684641705E
:1053C000612909D00E98002801D5062003E003D1F9
:1053D000672901D114980E9002A803C80F0006187F
:1053E0007F417E15FF17BBA20CCA9F4212D1964285
:1053F00010D10903020D11430003002901D1002837
:1054000008D003200890613D1A2D19D3244979440E
:105410008E3110E002A803C80800410049159942E6
:1054200012D1000310D103200890613D1A2D21D321
:105430001C4979446E310322139800F0F1FC97E384
:10544000194979446231F6E701AA02A803C800F0BD
:10545000F4FC02AA03C268464078612813D105987B
:1054600030210170811C059169460978612905D1B7
:10547000782104E00D4979443231DCE7582141704C
:105480000798801C079002A803C894A20CCA024087
:105490000B400DD1002A0BD10027002569E100BF88
:1054A0007C23000080230000702300007423000090
:1054B00068464078612800D097E00E98002801D512
:1054C000212000E0401C1390139F7F1C16A803C8E6
:1054D0000022002300F0C6FC02A830C802D28020BF
:1054E000000645400198001F01909C2169440A7004
:1054F00027A8461C002F31DD200029000022802330
:105500005B0300F0C8FC29D81C2200F0DDFC04007D
:105510000D0000F011FD1590FF1F002F09DD00F0B8
:1055200045FD02000B0020002900FEF721FA0400CF
:105530000D00F01D0722159900290ADD521E08D41E
:10554000401E0B071B0F03700911F5E7401E0021D9
:105550000170521EFAD5C61D002FCDDC27A8319947
:10556000711A27AA541C139A0F00914200DD1700EC
:10557000002F33D48F4205DA411CC95D082901DBB5
:105580000F2100E000213A0027AB9B1801E07F1EAD
:105590005B1E521E1D788D42F9D00F2904D1411C8B
:1055A000895C491C401C8154002A04D527AC7F1C0F
:1055B0000198001D0190791E10D462186846007889
:1055C00013783033DDB23A2D01DBC318C6331370C4
:1055D000491E521E0029F3D5694608700E9800280E
:1055E00000D4C5E0781E0E90C2E016A830C86D0049
:1055F0006D080198694948436949FFF7D9FB019053
:1056000007200199401A002805DD0200200029002A
:1056100000F065FB0AE042420020624900F05FFBB7
:1056200002000B0020002900FEF719FA6A465278A2
:10563000662A02D1019A0A3200E006220E9B9A18CD
:10564000142A00DD142227AB30241C705C1C02E0FD
:1056500016A803C8139A002A44DD16AB03C313929D
:1056600016A803C800F07AFC1590054608340426F5
:1056700028000A21FFF7B0FB0F0028000A21FFF7DE
:10568000ABFB05003037601E077028000A21FFF7CA
:10569000A3FB0F0028000A21FFF79EFB0500A41EB4
:1056A00030372770761EE3D10834139808381390EA
:1056B0000028CDDD159800F069FC02000B0016A84B
:1056C00003C8FEF755F90022374B00F079FC16AA03
:1056D00003C2C5E7FFFFFFFFFFFFFFFFFFFFFFFF65
:1056E000FFFFFF7F3198201A27A94C1C04E0401EC1
:1056F0000199491E0191641C21783029F7D020219D
:105700006A46127811436A4651706946497866299B
:1057100002D10199491C06E069464978652901D101
:10572000149900E000210E9A5718B84200DA471E7B
:10573000002F1DD4874204DAE05D342801DD3920D2
:1057400000E030203900621E531801E07F1E5B1E0E
:10575000491E1D788542F9D0392802D1605C401C71
:105760006054002904D514007F1C0198401C01904E
:10577000019D1394684606780E9C38B2002804DC1C
:10578000149F054878441030139068464078662886
:105790000CD16D1C24E000BF902000009775000024
:1057A000A08601000000F03F84D79741684640780A
:1057B000672845D128B20321C943884244DBA0426F
:1057C00042DA6D1C02A8008F1299C0B2084203D1C0
:1057D00038B2A04200DC040028B2241A00D500240C
:1057E0002EB2002E00DDA9E00898411C089130215E
:1057F000059A1154002C05DC02A8008F1299C0B242
:10580000084205D00898411C08912E21059A115490
:105810007042844200DA65422DB268420B906419EE
:1058200038B2844200DA27003FB209973A00139950
:105830000598089BC01800F0F3FAE01B0C90C8E034
:10584000612E14D1702615E038B2A04206DA02A902
:10585000098F129AC9B2114200D10400641E00D50A
:105860000024672E01D1652604E0452602E0412E82
:1058700000D150260898411C089113990978059A7F
:1058800011541398411C002C05DC02A8008F129AB9
:10589000C0B2104218D00898421C08922E22059BD4
:1058A0001A54002C10DD7F1E38B2844200DA270023
:1058B0003AB20598089BC01800F0B2FA3FB20898B7
:1058C000C0190890E01B0B900598089941180E70BC
:1058D00028B2002803D42B2048708F1C03E02D220F
:1058E0004A708F1C4542002412A928000D0005E0D3
:1058F0000A21FFF75DFA2970641C6D1C00B20028B4
:10590000F6DC012C06DC20203043652802D1302053
:1059100038707F1C002C09D1302038707F1C07E0C4
:10592000641E12A8005D303038707F1C002CF7DC3C
:10593000059808994018381A09904AE038B229B2F7
:1059400088421CDA3AB213990598089BC01800F0F7
:1059500067FA3FB20898C0190890F11B0B91002C10
:1059600005DC02A9098F129AC9B2114205D02E2175
:10597000059A11540998401C09900C9429E02AB208
:1059800013990598089BC01800F04AFA08988019E6
:1059900008907D1B002C05DC02A9098F129AC9B260
:1059A000114204D0411C08912E21059A115428B2AD
:1059B000844200DA25002AB2139881190598089BC1
:1059C000C01800F02DFA2DB2089840190890601BFD
:1059D0000B9002A83821405C14210140102900D00E
:1059E000C6E00798089940180B9940180999401883
:1059F0000C9940180F99884200DBB9E0081A0A9008
:105A0000B6E002AA3A20105C622808D068280ED0BE
:105A10006A2814D06C281DD0712810D01AE0349850
:105A200001680868091D349B1960C0B218E03498F9
:105A300001680868091D349B196080B210E0349831
:105A40000068C31D072083433498036003CB349C54
:105A5000236006E0349801680868091D349B1960CA
:105A6000002102AB03C3108F1299C0B208425BD071
:105A700002A803C8002901D1002855D06846007843
:105A80002021014378294FD1079818A930220A54C0
:105A9000401C421C07926A4612780A5444E002AA4B
:105AA0003A20105C622808D068280ED06A2814D0EA
:105AB0006C281DD0712810D01AE03498016808684D
:105AC000091D349B196040B218E0349801680868D9
:105AD000091D349B196000B210E034980068C31DA2
