:020000040800F2
:10000000700A002029700008DD6E0008DF6E00080D
:1000100000000000000000000000000000000000E0
:10002000000000000000000000000000E16E000879
:100030000000000000000000E36E0008E56E00080C
:10004000FF270008000000002F360008B73900081D
:10005000BB3B0008F73B000883410008ED6E000839
:100060000000000013480008EB58000897590008EA
:10007000F7590008F76E0008975B000800000000C1
:100080005F5C00080000000000000000635C0008E6
:1000900000000000BB6D0008EB6F0008F76F000860
:1000A00000000000417000080000000043700008DC
:1000B000FA21490141430800411E0028FBD1704745
:1000C000C0000100481E0029FBD1704738B586B03A
:1000D0008020800225490A6802430A600A680240BB
:1000E0000092009A0A6802430A600A68024000927D
:1000F000009A0A6802430A600A6802400092009A65
:100100000A6802430A6009680840009000980124C8
:100110000294039403200490802001909025ED0523
:1001200001A9280002F0B2F94020019001A928009D
:1001300002F0ACF9019401A90D4802F0A7F92020C2
:10014000019001A9280002F0A1F907B030BD10B557
:100150004C4C2068202188432060322002F0EEFAC7
:10016000206820210143216010BD000014100240CE
:1001700000040048FCB5434A13684024A3431360BD
:100180008023DB4380240029116801D0214300E053
:100190001940116001215D4D2E680E432E60072627
:1001A00001960126F6436F46387001982F68374054
:1001B0002F606F463F78C7400F40176801D0274334
:1001C00000E01F4017602F680F432F60401EEDD5E1
:1001D000286806402E601068402101431160F3BD7D
:1001E00070B504000D000F2600210F222A40B02018
:1001F0001043FFF7BFFF002126403000FFF7BAFF92
:1002000000216006420F10201043FFF7B3FF404863
:100210000470457070BD000080B5FFF757FF3B4884
:10022000016801220A4302601648016840220A431D
:100230000260016820220A43026001688022914323
:100240000160FFF784FF0021E220FFF793FF0A20FF
:1002500002F074FA0021A420FFF78CFF0021A620F1
:10026000FFF788FF00212F20FFF784FF0A2002F00C
:1002700065FA00212F20FFF77DFF0021AF20FFF757
:1002800079FF01BD1400004830B5CB084907490F7C
:10029000204CC50028182018C45C01258D40002A78
:1002A00002D02543C55430BDAC43C45430BD00001A
:1002B00070B500210020FFF793FF0024154E0025A4
:1002C00001213019EAB2D3009A18805CFFF752FF7F
:1002D0006D1CE8B26028F3DB641C092CEFDB70BDF9
:1002E00070B500210020FFF77BFF00200021094AA4
:1002F00000235418DDB2EE00751960555B1CDCB2AA
:10030000602CF6DB491C0929F2DB70BD140400489F
:1003100068060020EC0100200EB4FFB507000020A5
:1003200001E00198401C019001980AA9498888427F
:1003300038D20AA90979484302900C980299405C86
:100340000026002400256946898C019A89186A468E
:1003500011706946487001E0012211E06846008D85
:100360008542DED27819694649788C4601230721F7
:100370006A07520F891A8B4061461942ECD000225D
:1003800069460978C0B2FFF77FFF641C082C07D3C9
:100390000024761C0C9802998919405C69464870C3
:1003A0006D1CDBE704B00498F0BC04B0004708B44F
:1003B000FFB5060024206844007802903018401EE3
:1003C000602834DA6846418009A840780190684680
:1003D000408801994018401E442828DA00276846C2
:1003E000427000E07F1C0198874220DA0B98694632
:1003F00049782039019A5143C919455C002468465F
:100400004088C0196946087001E0002207E00298A0
:100410008442E7DA30190A992940F6D00122694668
:100420000978C0B2FFF730FF6D00641CEFE7FFE70B
:1004300004B00498F0BC02B0004708B4FFB5002532
:10044000040068460181170012E009A881B06946DE
:100450000CC80CC102680A6008BC320068460189F9
:10046000A0B2FFF7A4FF24206844007824186D1C74
:10047000E8B23E5C002EE8D1DAE780B520215B4887
:1004800002F036F9012801D1B249C86001BD81B03E
:100490000100481E002908D00021009100990C2974
:1004A000F6DA00BF0099491CF7E701B0704710B5B4
:1004B000DC2802DB9620400010BD152802DA9620C9
:1004C000000110BD0022A449D300C9184B68834223
:1004D00002DBCB68984203DA521C052AF3D30BE007
:1004E0004A680C68801A8B681B1B5843C968891AB4
:1004F00002F038F9201810BD0020C04310BD10B51F
:10050000944CFFF7D4FF6061E068012812D100200D
:10051000E0606069FFF7BBFF344C012240212000FE
:1005200002F0ECF80A20FFF7B2FF00224021200081
:1005300002F0E4F810BD00B58DB00100684602F08D
:1005400041F9A7A102F046F9684602F051F9C82323
:1005500082B26946A34802F089F90DB000BD7FB5AB
:100560000500A14E300002F082FC300002F0CCFB0E
:100570000095012001906946300002F06CFD642571
:10058000300002F09BFE300002F0BBFC6421300022
:1005900002F0E0FC002808D1300002F059FD02F022
:1005A000F1FE210002F009FF0400012002F0C6F86C
:1005B0006D1EE5D12000B44902F08FFF0100B34861
:1005C000406F01280ED1B24802F0D9FFB14902F0C4
:1005D00084FF03F02DF8D3A20CCA03F042F803F015
:1005E00002F90100080004B070BD000000040048DA
:1005F000F8B58CB0A54CE26ABC4902A803F024F916
:10060000544881B069460CC80CC102680A6008BC35
:1006100002AA00210020FFF710FF00202063E06302
:10062000A089E062BD48FFF786FFBD4E80273F02EC
:100630009020C0050190E089216B88421EDB2000DC
:100640001C3003F04CF9E06AFFF759FF0821300035
:1006500002F04EF8002811D01021300002F048F8C6
:1006600000280BD08021300002F042F8002805D08D
:100670003900019802F03CF80028D9D1DC20A1898A
:10068000401A0090208A009902F06CF8206700253B
:1006900025630098E06620001C3003F020F9E06A32
:1006A000FFF72DFF206B216F884203DBE06A401CBF
:1006B000E0622563E06AD22818DA0821300002F0EF
:1006C00017F800283CD01021300002F011F8002863
:1006D00036D08021300002F00BF8002830D03900ED
:1006E000019802F005F80028D5D129E001206063C7
:1006F000256301224021300002F000F8E26A7B49C4
:1007000007A803F0A1F8134C81B068460ECC0EC0C8
:100710000C3C08BC07AA00210020FFF78EFE81B028
:1007200068460ECC0EC008BC0CA228210020FFF7A2
:1007300084FEFFF7BDFD00BF0BA0FFF7FCFE07E046
:1007400000224021300001F0D9FF012060632563C1
:100750000DB0F0BDCC000020AC6E000820202020A1
:100760002020202020200000736F667420737461A5
:10077000727420646F6E65007CB5444C0020606725
:10078000FFF7EDFE02F054FFA4A20CCA03F0B2F88A
:1007900003F029F8FF21890502F09FFE0600666537
:1007A00025009835E06C02F043FF00900191300085
:1007B00002F03EFF02000B000CA1280003F044F8F9
:1007C000B74881B069460CC80CC102680A6008BC11
:1007D0002A000A210020FFF730FEFFF769FD73BDF4
:1007E0000D0A000054050020240600204355523A0B
:1007F000252E31663E252E3166000000FEB5234DC4
:1008000001206867FFF7ABFEA04902F0B8FEA049DF
:1008100002F0D3FD040002F00BFF06000F009DA0C4
:1008200003C832003B0002F01CFF02F0DCFF9C49D1
:1008300008612C652C00983432003B009749200059
:1008400003F002F8964881B069460CC80CC10268F2
:100850000A6008BC220014210020FFF7EEFD6A8A1E
:100860000DA1200002F0F0FF8D4881B069460CC850
:100870000CC102680A6008BC22001E210020FFF79C
:10088000DCFDFFF715FDF7BD0000C84200000020A9
:100890000000604000F07F455365743A25642000F5
:1008A00010B51F4C0821200001F022FF002813D0B2
:1008B0001021200001F01CFF00280DD08021200015
:1008C00001F016FF002807D0802109029020C00502
:1008D00001F00EFF002807D10120A549086401227C
:1008E0000221200001F00AFF10BD0000206E000868
:1008F0003EB59F4D2C009834286D02F099FE009073
:100900000191686D02F094FE02000B00C5492000C1
:1009100002F09AFF2000FFF70EFE37BD306E000890
:1009200000040048D7A3703D0AD7F73FF0B587B061
:100930008F4C0120A0650025A564FFF7D1FCFFF7CF
:10094000B7FC574FB84EA08A002820D1A2893100A9
:1009500002A802F079FF81B068460ECF0EC00C3FAE
:1009600008BC02AA00210020FFF767FDAF4882B053
:1009700069460CC80CC102680A600CBC2D2100201D
:10098000FFF7CAFCFFF794FCBA48FFF7D4FDA08A32
:1009900001281ED16563A289310002A802F054FF2C
:1009A00081B068460ECF0EC00C3F08BC02AA0021E1
:1009B0000020FFF742FDB04882B069460CC80CC168
:1009C00002680A600CBC30210020FFF7A5FCFFF78D
:1009D0006FFCA08A02281FD1A289E262310002A81E
:1009E00002F032FF81B068460ECF0EC008BC02AAEA
:1009F00000210020FFF721FDFFF75AFCC84882B014
:100A000069460CC80CC102680A600CBC2D2100208C
:100A1000FFF782FCFFF74CFC07B0F0BDF0F7E8D918
:100A2000CABB51401CB5524C606B002801D1FFF786
:100A3000DFFDFFF7A1FEFFF7E1FEFFF759FF802181
:100A400009029020C00501F053FE00281CD1606B04
:100A5000012819D100206063114881B069460CC893
:100A60000CC102680A6008BCAE4A28210020FFF7CA
:100A7000E4FCFFF71DFC00224021BE4801F03EFED1
:100A8000FA20C00001F05AFE13BD00000AD7EC4264
:100A90009A9935C2A03F23C78CA6B13F3C6E00088F
:100AA000CC000020FEB5FFF767FEFFF7A7FEFFF7BB
:100AB0001FFF01262E4C608A218B401A02F072FC27
:100AC000216D02F079FF09D8A06FE16F014305D1D4
:100AD000A667606B002801D1FFF78AFDA54F0025AE
:100AE000608A02F04FFC216D02F07AFF10D2A06FF5
:100AF00001280DD16666A06E618B884208DBA56671
:100B0000A5676566E66700224021380001F0F6FD22
:100B1000E06F012807D1200080300168E28A91420D
:100B200001DBE5670560F1039020C00501F0E0FD01
:100B300000281BD1606B012818D165633C4881B047
:100B400069460CC80CC102680A6008BC09A22821C9
:100B50000020FFF772FCFFF7ABFB002240213800BA
:100B600001F0CCFDFA20C00001F0E8FDF7BD000067
:100B70000000002052657365742050756D70000090
:100B800078B587B00124A34D7A4E0821300001F0DA
:100B9000AFFD002803D1A889401DA8812C66102133
:100BA000300001F0A5FDA989002801D1491F2C665C
:100BB00088B2DC2801DBDC2102E00A2800DA0A2105
:100BC00088B2E862A981FFF79AFC286E012826D135
:100BD00000202866EA6A144902A802F035FE144C87
:100BE00081B068460ECC0EC00C3C08BC02AA0021A5
:100BF0000020FFF722FC62690EA102A802F024FE89
:100C000081B068460ECC0EC008BC02AA1421002098
:100C1000FFF713FCFFF74CFB642001F08FFD08B0D9
:100C200070BD00003C6F0008206E000874010020B9
:100C3000CC00002054696D653A2564200000000056
:100C400010B5FFF72DFE734CA06D002801D1FFF702
:100C50006DFEA08A002801D1FFF7E4FEA08A0128DA
:100C600001D1FFF71FFFA08A022801D1FFF788FFFB
:100C700010BD0000486E0008E400002070B586B08A
:100C80008020800264490A6802430A600A680240C0
:100C90000092009A0A6802430A60096808400090BE
:100CA0000098802080000190112402940025049572
:100CB0009026F60501A9300001F0E8FB80204000F5
:100CC00001900294049501A9300001F0DFFB06B009
:100CD00070BD10B5FA208000FFF7F2F9A54C20682E
:100CE00080218900014321606420FFF7E9F9206831
:100CF00080214900014321606420FFF7E1F9206869
:100D00009D49014021606420FFF7DAF920689B4982
:100D1000014021606420FFF7D3F910BD00000000FE
:100D20008C010020740B000810B56420FFF7C8F98F
:100D3000904C20689149014021606420FFF7C0F980
:100D400020688D49014021606420FFF7B9F92068CF
:100D500080214900014321606420FFF7B1F9206838
:100D60008021890001432160FA208000FFF7A8F963
:100D700010BD000000040048F2B582B00021804C94
:100D800062687E4B13406360802508266A461070B7
:100D900001917A4F68460078290001400029606877
:100DA00003DD80218900014301E073490140616056
:100DB0006420FFF785F96068F943014361606420AE
:100DC000FFF77EF96068384060602068800503D5D1
:100DD00001982900014301916D08761EDAD1019D29
:100DE0006846007A6168644A0A40626001280CD152
:100DF0006068F943014361606420FFF761F960684E
:100E0000074067606420FFF75BF96420FFF758F93B
:100E1000E8B2FEBD000000201410024038B5040006
:100E20000D00FFF756FF0121200A4200A0201043C9
:100E3000C0B2FFF7A1FF0121E0B2FFF79DFF012142
:100E40002800FFF799FFFFF76FFF0F20FFF730F93A
:100E5000002032BDFEB500246E460700002030554C
:100E6000380A45003555FFF734FF0121A0202843FB
:100E7000C0B2FFF781FF0121F8B2FFF77DFFFFF756
:100E800028FF0121A1202843C0B2FFF775FF0021F0
:100E9000FF20FFF771FF3055FFF746FF0120FFF7F6
:100EA00007F9002C05D0305D3119491E09788142BF
:100EB00003D0641C092CD1DB00E0FEBD3078FEBD00
:100EC00038B504000D00E1B22800FFF7A7FF210AA2
:100ED0006D1CA8B2FFF7A2FF002032BD38B5040098
:100EE000601C80B2FFF7B6FF05022000FFF7B2FFDB
:100EF000281832BD38B59025ED0580242401012243
:100F00002100280001F0FAFB0A2001F017FC002262
:100F10002100280001F0F2FB31BD1CB5FFF7E0F91C
:100F2000844C82B068460ECC0EC00C3C0CBC002138
:100F30002820FFF7F1F9804882B069460CC80CC13F
:100F400002680A600CBC32212820FFF7E5F9DF486F
:100F500082B069460CC80CC102680A600CBC002152
:100F60000020FFF7D9F9FFF7A3F9FA20400000F0BD
:100F70002AFD000014000048FFFDFFFFFFFEFFFFF9
:100F800010000048FEB5FFF7ABF96C4882B0694627
:100F90000CC80CC102680A600CBC00210020FFF7DD
:100FA000BBF9C14882B069460CC80CC102680A602E
:100FB0000CBC1E210520FFF7AFF95E4D82B06846DC
:100FC0000ECD0EC00C3D0CBC19214620FFF7A4F934
:100FD000594882B069460CC80CC102680A600CBC52
:100FE0002D214620FFF798F9E86C02F021FB020062
:100FF0000B00B3492800843002F026FCB14881B0D0
:1010000069460CC80CC102680A6008BC2A00843218
:1010100024211420FFF711FAFFF74AF9FA204000C3
:1010200001F08CFB002028660127A04E082130002B
:1010300001F05EFB00280DD1E86C02F0F9FA9CA2E9
:101040000CCA02F0E0FC02F0CEFBE8642F669620AA
:1010500001F074FB1021300001F04AFB00280DD193
:10106000E86C02F0E5FA94A20CCA02F0CCFC02F0A3
:10107000BAFBE8642F66962001F060FB286E012819
:1010800021D128001C3002F02AFC00202866FFF73E
:1010900031FF2C008434E86C02F0CAFA02000B0025
:1010A0008749200002F0D0FB864881B069460CC811
:1010B0000CC102680A6008BC220024211420FFF73A
:1010C000BCF9FFF7F5F88021300001F011FB002892
:1010D00007D0F9039020C00501F00AFB0028A5D134
:1010E00024E0FFF7FDF8784882B069460CC80CC1CF
:1010F00002680A600CBC1E210720FFF70DF9FFF7FC
:10110000D7F8CE4CE86C210002F039FAE86402F01E
:1011100055FD322180B2FFF7D3FEFA20800001F0A6
:101120000DFBE86C210002F0D8F9E864FFF7F5FE4A
:10113000F7BD000000000020F00000209801002012
:10114000FEB5FFF7CDF8BE4882B069460CC80CC1A9
:1011500002680A600CBC00210020FFF7DDF852484D
:1011600082B069460CC80CC102680A600CBC1E2122
:101170000520FFF7D1F8B34D82B068460ECD0EC002
:101180000C3D0CBC19214620FFF7C6F8AE4882B0D2
:1011900069460CC80CC102680A600CBC2D214620AF
:1011A000FFF7BAF86A8AA9A12800843002F04CFB44
:1011B000444881B069460CC80CC102680A6008BC8A
:1011C0002A00843224211420FFF737F9FFF770F842
:1011D000FA20400001F0B2FA002028660127334EC1
:1011E0000821300001F084FA002806D1688A401DE9
:1011F00068822F66962001F0A1FA1021300001F0DC
:1012000077FA002806D1688A401F68822F669620E8
:1012100001F094FA286E01281DD128001C3002F03C
:101220005EFB00202866FFF765FE2C0084346A8A86
:1012300086A1200002F008FB224881B069460CC854
:101240000CC102680A6008BC220024211420FFF7A8
:10125000F4F8FFF72DF88021300001F049FA00285A
:1012600007D0F9039020C00501F042FA0028B7D159
:1012700017E0FFF735F8144882B069460CC80CC176
:1012800002680A600CBC1E210720FFF745F8FFF733
:101290000FF81E21688AFFF713FEFA20800001F084
:1012A0004DFAFFF73AFEF7BD380100200004004870
:1012B0009A9999999999B93F9A9999999999B9BF90
:1012C000586E0008CC0000204401002014010020CA
:1012D000FEB5FFF705F8BF4882B069460CC80CC1DF
:1012E00002680A600CBC00210020FFF715F8BA481C
:1012F00082B069460CC80CC102680A600CBC1E2191
:101300000520FFF709F84F4D82B068460ECD0EC09C
:101310000C3D0CBC19214620FEF7FEFF4A4882B066
:1013200069460CC80CC102680A600CBC2D2146201D
:10133000FEF7F2FFAA89A9492800843002F084FA56
:10134000A74881B069460CC80CC102680A6008BC95
:101350002A00843224211420FFF76FF8FEF7A8FF3B
:10136000C82001F0EBF90020286601279D4E0821D6
:10137000300001F0BDF9002806D1A889401CA881E1
:101380002F66642001F0DAF91021300001F0B0F985
:10139000002806D1A889401EA8812F66642001F08C
:1013A000CDF9286E012820D128001C3002F097FAD0
:1013B00000202866FFF79EFD2C008434AA89874907
:1013C000200002F041FA864881B069460CC80CC181
:1013D00002680A6008BC220024211420FFF72DF8BF
:1013E000FEF766FF322001F0A9F98021300001F0FC
:1013F0007FF9002807D0F9039020C00501F078F9A3
:101400000028B4D117E0FEF76BFFDC4882B06946D4
:101410000CC80CC102680A600CBC1E210720FEF734
:101420007BFFFEF745FF0021A889FFF749FDFA2061
:10143000800001F083F9FFF770FDF7BD0000204147
:101440005C01002000000020F00000202564200046
:10145000FEB5FEF745FF644882B069460CC80CC172
:1014600002680A600CBC00210020FEF755FF5A48B4
:1014700082B069460CC80CC102680A600CBC1E210F
:101480000520FEF749FFBE4D82B068460ECD0EC066
:101490000C3D0CBC19214620FEF73EFFB94882B036
:1014A00069460CC80CC102680A600CBC2D2146209C
:1014B000FEF732FFEA89B4492800843002F0C4F90B
:1014C000474881B069460CC80CC102680A6008BC74
:1014D0002A00843224210F20FEF7AFFFFEF7E8FE3A
:1014E000FA20400001F02AF90020286601273D4E2D
:1014F0000821300001F0FCF8002806D1E8896430AA
:10150000E8812F66C82001F019F91021300001F0A0
:10151000EFF8002806D1E8896438E8812F66C820F2
:1015200001F00CF9E889642801DA6420E881286E6A
:1015300001281DD128001C3002F0D1F9FFF7DAFC98
:10154000002028662C008434EA898F49200002F0AC
:101550007BF9234881B069460CC80CC102680A6057
:1015600008BC220024210F20FEF767FFFEF7A0FE33
:101570008021300001F0BCF8002807D0F90390204A
:10158000C00501F0B5F80028B2D11FE0FEF7A8FEB3
:101590007A4882B069460CC80CC102680A600CBC6B
:1015A0001E210720FEF7B8FEFEF782FE0A21E88919
:1015B000FFF786FC642001F0C1F8FFF7AEFC802144
:1015C000300001F095F80028F9D0F7BDFFF7A5FC31
:1015D000F7BD00002001002038010020606E0008E7
:1015E000CC000020000400482C010020FEB5FEF7CE
:1015F00077FE664882B069460CC80CC102680A6072
:101600000CBC00210020FEF787FE614882B06946CD
:101610000CC80CC102680A600CBC1E210520FEF734
:101620007BFE574C82B068460ECC0EC00C3C0CBC06
:1016300019214620FEF770FE524882B069460CC858
:101640000CC102680A600CBC2D214620FEF764FE26
:10165000504E228A4C49300002F0F6F8C24881B060
:1016600069460CC80CC102680A6008BC320024211B
:101670000F20FEF7E2FEFEF71BFEFA2001F05EF8F7
:1016800000202066B94F9025ED050821380001F0B3
:101690002FF8002807D1208A64302082012020669C
:1016A000C82001F04BF81021380001F021F8002883
:1016B00007D1208A6438208201202066C82001F0EA
:1016C0003DF8208A642801DA64202082206E0128F7
:1016D0001BD120001C3002F002F9FFF70BFC0020A8
:1016E0002066228A2849300002F0AEF89E4881B078
:1016F00069460CC80CC102680A6008BC320024218B
:101700000F20FEF79AFEFEF7D3FD8021380000F08F
:10171000EFFF002807D080210902280000F0E8FF31
:101720000028B2D120E0FEF7DBFD144882B0694604
:101730000CC80CC102680A600CBC1E210720FEF711
:10174000EBFDFEF7B5FD1421208AFFF7B9FBFA2067
:10175000800000F0F3FFFFF7E0FB8021380000F08D
:10176000C7FF0028F9D0F7BDFFF7D7FB802109029A
:10177000280000F0BDFF0028F8D0F7BD440100208C
:1017800000000020F0000020686E000850010020DA
:101790003801002084000020FEB5FEF7A1FD8F4C2B
:1017A00082B068460ECC0EC00C3C0CBC0021282038
:1017B000FEF7B2FD8A4882B069460CC80CC10268C7
:1017C0000A600CBC32212820FEF7A6FD854882B0B5
:1017D00069460CC80CC102680A600CBC00210020DC
:1017E000FEF79AFD804882B069460CC80CC10268B9
:1017F0000A600CBC1C210020FEF78EFDFEF758FD90
:10180000FA20400000F09AFF0120E06500202066E9
:101810008021564800F06CFF0028F9D0534C012677
:101820006E4D0821200000F063FF002806D1E86D0E
:10183000401CE8652E66FA2000F080FF1021200091
:1018400000F056FF002806D1E86D401EE8652E66C0
:10185000FA2000F073FF9020C0050290F003694663
:101860008880002768468188029800F041FF0028A0
:1018700065D0E86D052863DD0520E865286E012840
:101880003BD128001C3002F02AF8FFF733FB2F660B
:10189000FEF726FD82B068460ECD0EC00C3D0CBC96
:1018A00000212820FEF738FD4D4882B069460CC85B
:1018B0000CC102680A600CBC32212820FEF72CFD06
:1018C000484882B069460CC80CC102680A600CBC6A
:1018D00000210020FEF720FDE86D012834D14248A8
:1018E00082B069460CC80CC102680A600CBC1C219D
:1018F0000020FEF711FDFEF7DBFC8021200000F048
:10190000F7FE00288AD1FFF7F5FAE86D012801D12A
:10191000FFF7DEFCE86D022801D1FFF799FDE86DC5
:10192000032801D1FFF762FEE86D042801D1FFF71B
:1019300007FCE86D052801D1FFF724FB6EE7B9E14C
:1019400000289BDCEE6599E7022801D17F48C7E7B4
:10195000032801D17E48C3E7042801D17D48BFE7B1
:101960000528C8D17C48BBE7CC0000200004004813
:101970001CB5FFF7BFFAFEF7B3FC184C82B06846FF
:101980000ECC0EC00C3C0CBC00212820FEF7C4FC81
:10199000134882B069460CC80CC102680A600CBCCE
:1019A00032212820FEF7B8FCC04882B069460CC836
:1019B0000CC102680A600CBC00210020FEF7ACFCE0
:1019C000FEF776FC962000F0B9FE0120206680210B
:1019D000B74800F08DFE0028F9D013BD00000020AC
:1019E000F00000201401002020010020F8B5FFF7CE
:1019F00081FAFEF775FCAD4882B069460CC80CC18F
:101A000002680A600CBC00210020FEF785FCC54C72
:101A1000A08A002801D1C44806E0012801D1C348AA
:101A200002E002280BD1C24882B069460CC80CC142
:101A300002680A600CBC1E210020FEF76DFCFEF758
:101A400037FCFA2000F07AFE002020660127984E2D
:101A50009025ED050821300000F04AFE002806D14F
:101A6000A08A401CA0822766C82000F067FE1021D3
:101A7000300000F03DFE002808D1A08A002805D0E3
:101A8000401EA0822766C82000F058FEA08A0328C6
:101A900001DB0220A082206E012820D120001C3012
:101AA00001F01DFFFFF726FA00202066A08A00281B
:101AB00001D19D4806E0012801D19C4802E002289E
:101AC0000BD19B4882B069460CC80CC102680A6001
:101AD0000CBC1E210020FEF71FFCFEF7E9FB802155
:101AE000300000F005FE002806D0F903280000F0C1
:101AF000FFFD0028AED120E0FEF7F2FB8D4882B05A
:101B000069460CC80CC102680A600CBC1E21072083
:101B1000FEF702FCFEF7CCFB2821A08AFFF7D0F9E4
:101B2000FA20800000F00AFEFFF722FF802130003B
:101B300000F0DEFD0028F9D0F1BDFFF719FFF90331
:101B4000280000F0D5FD0028F9D0F1BD2C010020BF
:101B5000500100205C01002098010020FEB5FEF736
:101B6000BFFB704C82B068460ECC0EC00C3C0CBC67
:101B700000212820FEF7D0FB6F4882B069460CC8D0
:101B80000CC102680A600CBC32212820FEF7C4FB9D
:101B9000464882B069460CC80CC102680A600CBC99
:101BA0001C210020FEF7B8FBFEF782FBFA20400064
:101BB00000F0C4FD0120E0650020206680213C4843
:101BC00000F096FD0028F9D0394C0126554D08212A
:101BD000200000F08DFD002806D1E86D401CE8656E
:101BE0002E66FA2000F0AAFD1021200000F080FDF2
:101BF000002806D1E86D401EE8652E66FA2000F048
:101C00009DFD9020C0050290F00369468880002762
:101C100068468188029800F06BFD002842D0E86D8C
:101C2000012840DDEE65286E01282FD128001C30E8
:101C300001F055FEFFF75EF92F66FEF751FB82B00B
:101C400068460ECD0EC00C3D0CBC00212820FEF7CE
:101C500063FB394882B069460CC80CC102680A604F
:101C60000CBC32212820FEF757FBE86D01280BD170
:101C70000E4882B069460CC80CC102680A600CBCF0
:101C80001C210020FEF748FBFEF712FB80212000FC
:101C900000F02EFD002897D1E86D012894D1FFF7C0
:101CA000A5FE91E706E00028BDDCBBE76801002047
:101CB00000040048FEF714FB82B068460ECD0EC04B
:101CC0000C3D0CBC00212820FEF726FB1A4882B0F0
:101CD00069460CC80CC102680A600CBC322128207D
:101CE000FEF71AFB9A4882B069460CC80CC102681C
:101CF0000A600CBC19210220FEF70EFBFEF7D8FA91
:101D0000FA20400000F01AFDEE652F66FA2000F080
:101D100015FD68468188029800F0EAFC0028F8D09A
:101D2000F7BD0000000000207401002080010020A9
:101D30008C01002044010020F0000020FEB580212D
:101D4000844800F0D5FC002800D0BDE0FFF7D2F8B1
:101D5000804C00224021200000F0D0FC0122022112
:101D6000200000F0CBFC7C4C0125A564322000F063
:101D7000E5FCFEF7B5FA82B068460ECC0EC00C3C0E
:101D80000CBC00212820FEF7C7FA744882B06946CF
:101D90000CC80CC102680A600CBC32212820FEF776
:101DA000BBFA6B4882B069460CC80CC102680A6075
:101DB0000CBC19210220FEF7AFFAFEF779FAFA20DF
:101DC000400000F0BBFCE56500202066A065614E88
:101DD0008021300000F08CFC0028F9D00821300070
:101DE00000F086FC002803D1E06D401CE06525660C
:101DF0001021300000F07CFC002803D1E06D401E73
:101E0000E0652566EF03FA2040000190390090203C
:101E1000C00500F06DFC00284CD0E06D022854DDB8
:101E20000220E065206E012833D120001C3001F033
:101E300056FDFFF75FF800202066FEF751FA82B0EA
:101E400068460ECC0EC00C3C0CBC00212820FEF7CE
:101E500063FA424882B069460CC80CC102680A6045
:101E60000CBC32212820FEF757FAE06D012830D152
:101E7000374882B069460CC80CC102680A600CBCC5
:101E800019210220FEF748FAFEF712FA019800F035
:101E900055FC8021300000F02BFC00289ED1E06D25
:101EA000012801D1FFF778FCE06D022896D1FFF7F9
:101EB00055FE93E7019800F041FC39009020C005E1
:101EC00000F016FC0028F8D0F7BD0028AADCE56574
:101ED000A8E70228D8D12248CBE7006821498842E8
:101EE00000D0704780B51C48416B002902D1016BBE
:101EF000491C0163816B491C8163FA229200914263
:101F000024DB00218163C26F012A04D102008032E8
:101F100013685B1C1360426E012A02D1826E521C50
:101F20008266026C012A05D1836C002B02D1436CBE
:101F30005B1C4364436C3C2B08DB012A06D1016423
:101F4000416400220221034800F0D8FB01BD0000DB
:101F5000FC0000200004004800000020F0000020E9
:101F600008010020002C0140F8B586B001F044FEC5
:101F700000F048FA1421684601F04EFE8020C003AC
:101F800096490A6802430A600A681040059005985D
:101F9000802080020A6802430A600A6810400590A7
:101FA00005988020C0020A6802430A600968084058
:101FB000059005980022FE2109019020C00500F03F
:101FC0009DFB00224121864800F098FB012202215E
:101FD000834800F093FBCE2000010090012601967B
:101FE00000240294039469469020C00500F04EFA44
:101FF000432000900196029403946946784800F0CB
:1020000045FAC020800000901120019002960394B0
:1020100069469020C00500F039FAF0030090019461
:10202000029469469020C00500F030FA9820009094
:102030000194029469466A4800F028FA2020009032
:1020400088204003019002946946654800F01EFA1A
:1020500000220121072001F004FE072001F005FE07
:1020600068460021002200230EC0D94DD9482860BF
:102070006C60AC60EC602E6104276F61AC61FF2086
:10208000C230E8612C6224216C54AE62280000F05A
:102090003BFE002801D000F0F2F9009430030190DB
:1020A00002966946280000F0D6FF002801D000F013
:1020B000E6F900976946280000F0CDFF002801D01E
:1020C00000F0DDF9C448C5490160962189014160ED
:1020D0008460C46004610C2141618461C461046254
:1020E000446200F08DFB002801D000F0C8F902A87E
:1020F00000210022002300252EC0684606C0B84DEE
:10210000B8482860FA2040006860AC606420E8604D
:102110002C616C61AC61280001F0CCFD002801D07D
:1021200000F0ADF93003029002A9280001F034FF5D
:10213000002801D000F0A3F900940194694628001A
:1021400002F020F8002801D000F099F9A64CA74829
:10215000E06106202062A648A062606220001C3078
:1021600001F092FB002801D000F089F9280001F06D
:10217000B0FD1B4E00224021300000F0BFFA0122CA
:102180000221300000F0BAFAFEF778FD052000F0D9
:10219000D5FA0020FEF7A2FEA081052000F0CEFABD
:1021A0000A20FEF79BFEE081052000F0C7FA14200C
:1021B000FEF794FE2082052000F0C0FA1E20FEF7F4
:1021C0008DFE6082052000F0B9FA2820FEF786FE19
:1021D000A082052000F0B2FA864F03E014100240FE
:1021E000000400483220FEF779FE01F0CBF83900F8
:1021F00001F073F9E064052000F0A0FA3C20FEF73E
:102200006DFEE082052000F099FA4620FEF766FE9A
:102210002083052000F092FA5020FEF75FFE6083D5
:10222000052000F08BFA80252D01A089DD2806DA33
:102230000821300000F05CFA002800D0A2E09026CF
:10224000F60501222900300000F058FA642000F061
:1022500075FA00222900300000F050FA642000F0E6
:102260006DFA01222900300000F048FAFA2000F04F
:1022700065FA00222900300000F040FA00216E20AB
:10228000FEF71EFE052000F059FA0A215A48FEF713
:1022900017FE052000F052FA1421FA200001FEF783
:1022A0000FFE052000F04AFA1E210A20FEF708FE64
:1022B000052000F043FA28210120FEF701FE052049
:1022C00000F03CFA32211920FEF7FAFD052000F05B
:1022D00035FA3C210520FEF7F3FD052000F02EFA2B
:1022E00046210520FEF7ECFD052000F027FA5021DD
:1022F0000A20FEF7E5FD052000F020FA0020FEF799
:10230000EDFDA081052000F019FA0A20FEF7E6FD98
:10231000E081052000F012FA1420FEF7DFFD208294
:10232000052000F00BFA1E20FEF7D8FD6082052084
:1023300000F004FA2820FEF7D1FDA082052000F06D
:10234000FDF93220FEF7CAFD01F01CF8390001F05A
:10235000C4F8E064052000F0F1F93C20FEF7BEFD72
:10236000E082052000F0EAF94620FEF7B7FD208361
:10237000052000F0E3F95020FEF7B0FD6083052052
:1023800000F0DCF9FDF748FF052000F0D7F9FDF774
:10239000A7FFFDF78DFF00BF18A0FEF7CCF8902631
:1023A000F60501222900300000F0A8F9642000F0B1
:1023B000C5F900222900300000F0A0F9FEF740FC2A
:1023C000FFF7BCFC20001C3001F089FAF6E70000A2
:1023D000240600200024014054050020003801405C
:1023E000DC050020002C01400000002000300040EF
:1023F000FF0F000000002041C409000073746172E7
:102400007400000070B594B0302108A801F004FCFD
:10241000684600210022002300241EC01EC01A208E
:10242000089001240B940D9410200C900E900F94A2
:102430000226109600251195A02080031290139576
:1024400008A801F0CBFE002801D000F018F8072002
:1024500000900196029503950121684602F084F8E8
:10246000002801D000F00BF80494069504A802F0AF
:102470004BF9002801D000F002F814B070BD72B61C
:10248000FEE70268531C036011707047FFB500221D
:102490000F2302932DE0052403E0A14CA042FAD1C2
:1024A00003246D462D78AC403443019D2C609D4C37
:1024B000A568DC4325404E68F60200D51D43994EC1
:1024C000B560F56825404F68BF0200D51D43F56033
:1024D000756825404F68BF0300D51D43756035689A
:1024E0002C404D68ED0302D525001C002C433460C0
:1024F000521C0B681C00D44000D18CE00125954093
:102500002B40F5D054000326A640F74301974E68B0
:10251000B707BF0F012F03D0B607B60F022E0ED19B
:102520008668019F3740CE68A6403E438660466875
:10253000AE434D68EF06FF0F974037434760950065
:102540006E4675700D79AD07AD0F032D26D0C568A9
:10255000019E2E408D68A5403543C5600D79AD07BD
:10256000AD0F022D1AD1D508AD0045192E6A03967C
:102570006E4676781C2737406E463770039EB44609
:10258000029F6E463678B7406646BE43B4460F6932
:102590006E463678B740664637432F620768032594
:1025A000019E3E404F682F40A740374307604C686C
:1025B0002E0426409CD001245B4E366826435A4F99
:1025C0003E603E46366826400196019E574E97086B
:1025D000BF00F6190196019E366803966E4676781E
:1025E0000C2737406E463770039EB446029F6E46F6
:1025F0003678B7406646BE439027FF05B84201D102
:1026000000244EE74A4FB842FBD04A4CA04200D0CB
:1026100043E7022445E7FFBDFFB5032302930123EF
:102620000193039100213EE0052703E03C4DA842C1
:10263000FAD1029F8D00B4460C262E40B740BC450F
:1026400015D1D643374A12683240364F3A603A467F
:10265000526832407A603A46D2683240FA603A466E
:10266000926816403A4696601A68A2431A60029B26
:102670004A009340DA43036813400360CB089B0091
:10268000C3181C6A0F261C272F40BE40B4431C628F
:10269000C3681340C3604368009CA34343608368DE
:1026A0001A408260491C039ACA4020D0019A8A408D
:1026B0000092039B1A40F5D01C4B8C08A4001B19F8
:1026C0001E680F248D000C272F40BC40264090250B
:1026D000ED05A84201D10027ACE7154DA84201D174
:1026E000019FA7E7134DA842A0D10227A2E7FFBD93
:1026F0000069084000D00120C0B27047002A01D014
:10270000816170478162704701000B4A13680B407A
:1027100000D1704780B51160FDF7AFFE01BD00002C
:10272000000C00480004014018100240080001405D
:1027300000040048000800481404014038B50400B3
:1027400002F060F805000020C043844202D0044833
:102750000078241802F056F8401BA042FAD331BD8D
:10276000A4010020CA0F00D0494203105A400DD0E6
:1027700004B500D3404200F009F8009AD20701D313
:102780004942124200D5404204BD0000094214D023
:1027900088420FD30122030C01D10004120400234C
:1027A00000185B418B4200D35B1A5241F8D31900E9
:1027B0001000704701000020704708B502F028F8AB
:1027C00008BD2E000023DB435B1CCA5C002AC254F8
:1027D000FAD17047020000E0521C1378002BFBD1A5
:1027E0000B781370002B02D0521C491CF8E770477D
:1027F000431C0178401C0942FBD1C01A7047FEE718
:1028000038B5040001D1012032BD25007835686853
:10281000002803D12870200002F061F824206860AD
:1028200020680168012291430160606A002802D09B
:10283000200000F008F9200000F085F8012811D0F0
:1028400020684168084A0A4042602068816808227E
:10285000914381602068016801220A4302602000E0
:1028600000F058F932BD0000FFF7FFFFF1B584B06A
:102870001F0006465036F06A202861D10C000FD0A8
:1028800068460280002A0BD00498806880214901A4
:10289000884207D104980069002803D1E00701D5D8
:1028A00001204EE0002575632120F06201F0AAFFAF
:1028B00001006846008830806846008870803A00D1
:1028C0000498806880235B01984209D104980069CC
:1028D000002805D12500049F0192029104001AE00E
:1028E0002000F8E721780185641C11E00198009030
:1028F000029B00228021380000F070F900281BD1D3
:102900003868002CEED12988C905C90D0185AD1C98
:102910007088401E708070880028E7D13800029BC4
:10292000019900910022402100F058F9002803D1BC
:102930002020F062002004E02020F062032000E06C
:10294000022005B0F0BDF8B5050000260024286877
:1029500001689C4A0A40A96811432A690A436969C7
:102960001143EA690A4302604168974A0A40E968EC
:10297000114341608168954A0A40A96911432A6A56
:102980000A438260924800688007800F05D00228C1
:1029900009D006D3032802D007E0002206E0022275
:1029A00004E0042202E0082200E01022894F8A4855
:1029B00080210902EB698B4220D1002A06D0022A2D
:1029C00008D0042A15D0082A16D037E001F06BFE93
:1029D000002834D0696840004A088018FFF7D6FE06
:1029E00001001039B94229D207400007400F38438F
:1029F0001CE001F03BFEEBE70800EBE7002A06D005
:102A0000022A16D0042A16D0082A04D016E001F0B3
:102A10004AFE010013D06A68500808181100FFF739
:102A2000B5FE01001039B94208D280B22968C860E9
:102A300005E00100EFE701F019FEEAE70124AE66C8
:102A4000EE662000F2BD2421415C090706D501682D
:102A50004A688B4B1340426B1A434A602421415C05
:102A6000C90706D501684A68864B1340826A1A4333
:102A70004A602421415C890706D501684A68824B77
:102A80001340C26A1A434A602421415C490706D5B3
:102A900001684A687D4B1340026B1A434A60242147
:102AA000415CC90606D501688A68794B1340826B80
:102AB0001A438A602421415C890606D501688A6828
:102AC000134B1340C26B1A438A602421415C4906B0
:102AD00011D501684A686F4B1340026C1A434A6073
:102AE000026C80235B039A4205D14A686A4B13400B
:102AF000426C1A434A602421415C090606D50168EC
:102B00004A68664B1340806C184348607047000069
:102B1000FFDFFFFFFEB50600370078370024FC60BA
:102B200001F070FE0190202530680068000717D57D
:102B30005B480090019B00222904300000F04EF811
:102B400000280DD0EFF31080012181F31088316847
:102B50000A6880239A430A6080F310887D6026E02B
:102B600030680068400725D54D480090019B002241
:102B70006904300000F032F800281BD0EFF3108019
:102B8000012181F3108831680A685E4B13400B60A5
:102B900080F31088EFF31080012181F310883168F1
:102BA0008A6801239A438A6080F31088BD603C7074
:102BB0000320FEBD7D60BD60346674663C700020FD
:102BC000FEBD0000F369FFFFFFCFFFFFFFF4FFFF33
:102BD00030100240F0FF000000127A00FEB580279E
:102BE0003F01082500260400019168460270029307
:102BF0002068C069019901400198814201D10120FA
:102C000000E0002069460978884236D10898002102
:102C1000C9438842ECD001F0F5FD0299401A0899A9
:102C2000814201D3002901D10320FEBD2068006844
:102C30004007DDD501988028DAD04028D8D0206818
:102C4000C0692840206803D1C0693840D0D009E06D
:102C50000562200000F026F820007830C56006707C
:102C60000120FEBD20680762200000F01BF8200054
:102C700078302021C1600670D6E70020FEBD00003C
:102C8000FF7FFFFFFFFFFDFFFFFFFEFFFFFFFBFFDB
:102C9000FFEFFFFFFFFFEFFFFFFF9FFFFFFFF7FFCC
:102CA000FFFFFF0110B5EFF31081012282F31088BE
:102CB00002681368134C1C40146081F31088EFF312
:102CC0001081012282F31088026893680124A343D3
:102CD000936081F31088016E01290BD1EFF310810D
:102CE000012282F31088026813681024A343136042
:102CF00081F31088202180228150002101668166A5
:102D000010BD0000DFFEFFFFF8B504000025002C19
:102D100001D10120F2BDA06B002805D1E063342170
:102D20006054200001F08BFD10210122A06B0840AF
:102D300003D12068042386681E4000D091E0A66B72
:102D4000834F374002263E43A6638668B607B60F18
:102D5000012E06D10646366816400FD1C6683604E5
:102D60000CD4C6681827BE43A7683743C7602068DD
:102D70000669B600B6086768374307612068C66809
:102D8000A84F3740C760A06A012801D0080200E0C0
:102D900000202669022E01D1009300E00095A37E59
:102DA000267EB603677EFF0337435E033E43304310
:102DB000E6680643009F37432420205C40003843E8
:102DC000E67E012E0CD1002B03D10300080318432B
:102DD00006E0A36B20261E43A663E36B1343E36365
:102DE000E369FF26C236B34202D00343206A184388
:102DF0002368DE680643DE60E36A0E06B3420DD048
:102E0000012B0BD0022B09D0032B07D0042B05D0AC
:102E1000052B03D0062B01D0072B0CD123685E694C
:102E20000727BE435E6123685E692C27E75D7F0745
:102E30007F0F37435F610223DB432668F6687A4FD2
:102E40003740874205D1E563A06B03401A43A26374
:102E50000BE0A06B03401943A163E06B1043E063F8
:102E600002E0A06B0143A16301252800F2BD70B50B
:102E7000040001D1012070BDA06B02210143A163B8
:102E8000200000F0E5F905000026280008D1200008
:102E900000F0A8F9050001282FD00120A06301E06F
:102EA000012D2AD0206841689F22914341609F20D4
:102EB000216808602068C1685F4A0A40C2602068D3
:102EC00001698900890801612068416907229143ED
:102ED00041612068016A594A0A4002622068816A99
:102EE000C90CC904816256480168564A0A4002600A
:102EF000200001F0CFFCE663A663342026542800AE
:102F000070BDF8B5040000250020042621688968FA
:102F100031401BD13421615C012917D0270034379F
:102F200001213970617E012904D0200000F00CF9E4
:102F300001000CD1A16B444A0A40B1011143A163C5
:102F4000E5633D701C21226811606FE00220F2BD34
:102F5000FFFEFFFFFEB504000D00002000900126DB
:102F60006069082801D108270DE02068C06830405A
:102F700008D0A06B20210143A16300983421605444
:102F80000120FEBD0C2701F03DFC01902068016886
:102F9000394018D10020C0438542F7D0002D05D01C
:102FA00001F030FC0199401A8542EFD22068006898
:102FB0003840EBD1A06B04210143A1630098342178
:102FC00060540320FEBDA16B72020A43A263216814
:102FD000C968C02212010A401CD1A17E002919D162
:102FE0000068000716D52068806840070BD4206869
:102FF00040680C21884321684860A06B1349014058
:103000000E43A66306E0A06B20210143A163E06BA1
:103010000643E663207E002802D10C202168086068
:103020000020FEBD1902FEFFE7FF3F8321688A688A
:1030300016438E60F2BD000000023E8300F000F0F7
:1030400008270140FFFF3FFFFEF1FFFFFFFEFFFFEC
:103050000068006C7047F8B5040000250026009554
:103060003420205C012801D10220F2BD012234234A
:10307000E254206883685B075CD40B689A40009236
:10308000564A4B68564FBB42836A009F44D01F4349
:103090008762E06A80235B0598421FD001281DD01B
:1030A00002281BD0032819D0042817D0052815D0D2
:1030B000062813D0072811D020688B6847697F073E
:1030C0007F0FBB420AD043690727BB434361206897
:1030D00043690F7A7F077F0F1F43476108681028F5
:1030E00017D011282BD18020C0031368184310601B
:1030F0000868102823D16C4800686C49FFF746FB2C
:103100000A21484300900098002818D00098401EDB
:10311000F8E780200004E8E7BB43836208681028D2
:1031200006D011280BD1624811680840106006E0F3
:103130006048F9E7A06B20210143A16301263420F8
:1031400025543000F2BD0000F8B5040000200090C6
:103150002068012182689207920F012A06D1024657
:1031600012680A4036D1C268120433D4102782682C
:10317000514B134006D0A06B0743A763E06B01439C
:10318000E16325E082681143816047480068474950
:10319000FFF7FCFA01E00098401E0090009800281C
:1031A000F9D101F02FFB01250600206800682840B6
:1031B00010D101F027FB801B0328F6D3206800689C
:1031C0002840F2D1A06B0743A763E06B0543E5639A
:1031D0000120F2BD0020F2BD0000000008270140E0
:1031E00001100000F8B504002068032182680A403D
:1031F000012A2BD10125024612682A4002D1C26859
:10320000120423D51026826805231340012B15D103
:1032100082680223134383602068016001F0F2FAA0
:10322000070020688068284010D001F0EBFAC01B2E
:103230000328F6D3206880682840F2D0A06B0643AC
:10324000A663E06B0543E5630120F2BD0020F2BDFB
:10325000F8B50400206804278168394022D0102581
:103260008168394005D08168890702D48168294383
:10327000816001F0C7FA060020688068384011D0EC
:1032800001F0C0FA801B0328F6D32068806838401C
:10329000F2D0A06B0543A563E06B01210143E1631C
:1032A0000120F2BD0020F2BDB001002040420F001D
:1032B000FFFFBFFFFFFF7FFF17000080FEB5040088
:1032C00000200190694608703420205C012801D15B
:1032D0000220FEBD0120342160542068032581684E
:1032E000294001290ED121680968C90702D4C168A3
:1032F000090407D5A06B20210143A1630120694681
:10330000087037E0A16B1E4A0A4002211143A163F5
:10331000C1680D40C16803229143C1602068816883
:10332000802212060A43826001F06CFA07002068CE
:10333000802636068168314013D001F063FAC01B45
:103340000328F4D3206880680640F0D0A06B0221E7
:10335000884310210143A163019834216054012066
:10336000FEBDC1680D43C560A06B022188430121E9
:103370000143A16301983421605468460078FEBD82
:10338000FFFEFFFF9D2102000AD002D4491E9218C1
:10339000FCD5C905100A1206524100D3012A484142
:1033A000704700009D210200EED55242F446FFF71F
:1033B000EBFF0122D207104360470122D20703002E
:1033C0004B402ED4431A01D2C01AC91830B44B183E
:1033D0000418240E1B0E22D0FF2C20D0E31A182B29
:1033E0001DDC09021143C40D641E00021043944603
:1033F0001925ED1A0A00AA40D940451801D36D08D5
:10340000A41CE405D209280A2D062A436546AA41D0
:10341000604103181B0EFF2B01D3C00DC00530BC4B
:103420007047514006E05140CCE70122D20703002B
:103430004B40F8D4431A03D2C01AC9185040514027
:1034400030B44B18090211430418240E1B0E40D04F
:10345000FF2C3AD025009D410BD31ED8C50D40024C
:10346000401A0BD3ED050100400AC905914168419E
:10347000D5E7C50D40024918401AD0D001214008B7
:10348000491C0018FCD58C4204D36D1A000AED05C6
:103490004019C4E7E8051040C1E7182DBFDCAC1C9B
:1034A0000D00E140E5414D40012D4941C40D0002B0
:1034B0001043451A01D46D199543641EE405280A8A
:1034C0002D069541604130BC7047FF2BA7D1D843F2
:1034D000A5E72442A3D10020A1E730B405004D4068
:1034E0000122D20715404B180418240E25D01B0EBC
:1034F0002CD0FF2C31D0FF2B34D0E41A000209026B
:103500001043114343084808D10D1B1A02D2641E10
:10351000DB181B18DB18834200D31B1A4941F9D36F
:103520007F3423DDFF2C05DAE40548086041284399
:1035300030BC7047FF20C005F9E728001B0E03D000
:10354000FF2BF5D14902F3D0D043F1E7FF2C01D195
:103550004002F9D1FF20C005E9E74002F4D1FF2B7A
:10356000F8D1F1E728004902E2D0EDE70B02002094
:103570002442DCD15B129B1CD9D9D805D7E730B4E3
:1035800005004D400122D20715404B180418240EA7
:103590002ED01B0E32D0FF2C34D0FF2B3AD0E418A3
:1035A0000002090210431143000A090A9446C2B2FC
:1035B0004A43000AC3B24B43000A4843110A5B184E
:1035C0001A43D2B2190A091801D44918641E080A0C
:1035D0007F3C23DBFE2C08DAE40509061143634631
:1035E00099416041284330BC7047FF20C005F9E78E
:1035F00028001B0EFF2BF6D1D043F4E72800FF2C48
:10360000F1D1F9E74002F7D1FF2B01D14902F3D103
:10361000E005E7E7D8054902E4D0EDE743020020E2
:10362000641CDFD15B129B1CDCD9D805DAE7FEE70E
:10363000012212060118CA420AD28A420DD8382243
:10364000120609098918C20FD207114340077047B3
:1036500000D049080909014301E0C10FC907002052
:103660007047F0B50E005E400125ED072E40B446D0
:10367000AE0ADF184C18F44208D2F7420ED2640D9D
:1036800001D07F0D12D100206146F0BD05D1F74277
:1036900001D87F0D05D10020C143F0BDFBD1640DE1
:1036A000F9D00020C143490549088FE0E419C90257
:1036B000DB0229432B43DB0A460DC00231438E4611
:1036C00030B487B295B27D432E0CADB2140C7C435E
:1036D000A419260C240425439CB27C43A419190C7C
:1036E0007943270CC919A4B20F043C43090C000C00
:1036F00097B247432E0CBE193543ADB2170C474362
:10370000360CBF19A6B2BF193E043543240C3E0C3B
:1037100036199FB24743BF19BCB23E0C89191F0C22
:1037200047437F183E043443390C704680B297B249
:1037300047432E0CBE193543ADB2170C4743360C28
:10374000BF19A6B2BF193E043543240C3E0C3619EE
:103750009FB24743BF19BCB23E0C89191F0C4743A7
:103760007F183E043443390C77463F0C90B27843BF
:103770002E0C80190604ADB22E43050CA0B22D18F4
:10378000120C7A435019020C80B2240CA4189AB27D
:103790007A43121914042043120C89181B0C7B4322
:1037A000C91830BCEF0A394203D1B619404149412A
:1037B000641E6F12BF0DE41B0BDBFF19BC4211DA54
:1037C000240500274208AE417841614166463143F5
:1037D000F0BD641C05D1401C6141CF0201D34908F2
:1037E000F4E750E75DE7012252054B18DA4201D9B0
:1037F000581570475B0D0722D2019B1A10D9FF2B79
:103800001DD2DB050122D2070A4013430903020D32
:103810001143490AC200524100D9491CC8187047D7
:103820000AD1800A0A0302435212921C04D9D30718
:103830000B40D00518437047C80FC0077047C80F2A
:103840000002FF30C00570470CB418B583B0040007
:103850000A0006A8029001940020009002AB01A982
:10386000084878441E3001F081F80021019A117057
:10387000002801D40198001B04B0019910BC03B0CA
:10388000084700BFFFEBFFFF70B5040001D1012026
:1038900070BD20681449016014490160616841608D
:1038A000A168816000F0AEFF072506002068C168AE
:1038B00029400AD000F0A6FF801B2828F6D32068F4
:1038C000C0682840F2D0032070BDE16802698A42D6
:1038D00001D0016101E006490160002070BD04498A
:1038E0000068016000207047CCCC000055550000F6
:1038F000AAAA0000F0B40E005E400125ED072E409C
:10390000B446AE0ADF184C18F4423BD2F74241D21B
:10391000640D43D07F0D38D0E41BC902DB0229437C
:103920002B43CF0ADB0A0600B61A9F4104D2641E5D
:10393000B6197F41B6185F416812800D241800182F
:10394000844222DCE80C0021B6197F41B61A9F415F
:1039500002D2B6185F413F1C40414941F4D3241CB8
:1039600021DD2405B6197F41B61A9F4105D337439F
:10397000C60737430026012F704161416646314337
:10398000F0BC7047FCD1F74205D20020C143490585
:103990004908F3E704D00020C143F1E77F0DFAD0D6
:1039A00000206146ECE72442FAD1401C61410F033C
:1039B000F6D30020E2E7FEE70CB40122120603185A
:1039C000DA4207D84B18DA4204D802000A439218A8
:1039D00002D281420CBC7047FCD088420CBC7047BC
:1039E0000CB4012212060318DA4207D84B18DA4247
:1039F00004D802000A43921802D288420CBC7047D5
:103A0000FCD08142FAE7F0B40125ED070F005F40DA
:103A10004FD48B4200D1824205D9844610006246C1
:103A20008C4619006346DF184C18640D7F0D3AD0A0
:103A3000661C760537D0E61B352E34DCDB022B43C3
:103A4000DB0A0C0DC9022943C912202E0DDB170019
:103A5000203E06D01F00F741F3405F400026012AB8
:103A60007741C01871410DD217E01700F741F240BD
:103A70005740F3415A40B340F3405A400026801863
:103A800059410AD3A21C52050FD0C207012F72411F
:103A900017004008CB0718434908641C2405420856
:103AA000AF4170416141F0BC7047641C21050020AA
:103AB000F9E76B4010E06B40ABE7F742F3D1E94325
:103AC000F1E72442EFD100200021ECE7F0B401251A
:103AD000ED070F005F40EED40C00871A9C4105D221
:103AE000C01BA141D219634169406B40AE0ADF1887
:103AF0004C18F442E1D2640D7F0DE2D0E61B362E65
:103B0000D1DCDB022B43DB0AA4460C0DC90229439E
:103B1000C90A012E28DC04D1D6075208DF073A4330
:103B20005B08EF0A76429041994114D039423BD16B
:103B3000B61940414941761C394204D1761C00181F
:103B400049413942FAD0B9436746B74208D9A41B64
:103B500024052143A7E70042EAD13642E8D1A2E793
:103B6000E40AE10700209EE7202E0BDD203E1F0027
:103B7000F340F7415F40012A002257417E429841BD
:103B800091410BE01700F741F2405740F3415A4092
:103B9000B340F3405A407E42904199410A0303D218
:103BA000641EB619404149410027641E240542089D
:103BB000AE4178416141F0BC7047FEE70122D20777
:103BC0000118090E7F3910D449421F310FD4001853
:103BD00005D2C0011043C84000D5D0437047C00192
:103BE0001043C84005D4404270470020704700424F
:103BF000F3D510007047FEE780B506480168102233
:103C00000A430260032001F071FE00F003FE002071
:103C100002BD000000200240002200BF094202D085
:103C2000491E4254FCD1704710B5C30018221A40F7
:103C3000FF249440E3438907090E9140020004D415
:103C4000184892089200801806E0174A0007000FF3
:103C5000083880088000101802681340194301607A
:103C600010BD80B5FFF7E0FF01BD010005D40121C3
:103C7000C006C00E81400D480160704710B5401E5F
:103C800080214904884201D3012010BD084C6060A6
:103C900003210020C043FFF7C7FF0020A0600721D9
:103CA000216010BD00E400E01CED00E000E100E058
:103CB00010E000E010B5040001D1012010BD3D204E
:103CC000205C002804D13C216054200000F0EFFD6E
:103CD00020E03D21415C012901D0012070470221F3
:103CE0003D22815402680121D3680B43D3600268EE
:103CF000174B9A4202D0174B9A4205D1926852074D
:103D0000520F062A04D0026812681143006801604D
:103D10000020704702203D216054211D206800F0E2
:103D2000A3F90120462160543E2160543F21605494
:103D30004021605441216054422160544321605429
:103D400044216054452160543D216054002010BD41
:103D5000002C01400004004004000E0000206946D1
:103D600008700125300006D0042E37D0082E3CD034
:103D70000C2E41D047E02068C1682E4A0A40C2603C
:103D8000606A01F0D5FD00223100206800F0ECF9F6
:103D900020682949294A244B984205D0234B984250
:103DA00002D0234B984209D1036A134006D1036A1B
:103DB0000B4003D1436C224F1F4047642068036AC5
:103DC0001A4007D1006A014004D120680068A84366
:103DD00021680860002E19D13E2020E02068C168CB
:103DE000184A0A40C260A06ACBE72068C168164A38
:103DF0000A40C260E06AC4E72068C168134A0A400A
:103E0000C260206BBDE76846057009E0042E01D151
:103E10003F2004E0082E01D1402000E0412025543D
:103E200068460078F2BD0000002C014000440140CB
:103E300000480140FFFDFFFF440400001111000095
:103E4000FF7FFFFFFFFBFFFFFFF7FFFFFFEFFFFF1E
:103E5000F8B504002068C1680091056900270226B2
:103E6000354214D0314012D00221C94301610121F1
:103E700021778069800703D0200001F07DFD05E0F7
:103E8000200001F07AFD200001F078FD2777680717
:103E900017D50098400714D520680421C943016153
:103EA00026778069C0218900014003D0200001F0FD
:103EB00063FD05E0200001F060FD200001F05EFDE3
:103EC00027770826354216D00098304013D0206856
:103ED0000821C943016104212177C069800703D00B
:103EE000200001F049FD05E0200001F046FD200022
:103EF00001F044FD27771020054217D000990840B3
:103F000014D020681021C94301612677C069C021FF
:103F10008900014003D0200001F02EFD05E02000C3
:103F200001F02BFD200001F029FD2777E807C00FE5
:103F30000099CA07D20F104206D00120C043216861
:103F400008612000FDF7C9FF8020054209D00099D3
:103F5000084006D08020C04321680861200001F09D
:103F60000EFD4020054209D00099084006D04020AF
:103F7000C04321680861200001F002FD20200540B7
:103F800009D00099084006D02020C043216808616C
:103F9000200001F0F6FCF1BDF8B5040000266846EB
:103FA00006703C20205C012801D10220F2BD2700D0
:103FB0003C3701253D7002203D22A05420688268D4
:103FC000284B13408360086802003FD010283DD082
:103FD00020283BD0302839D0402830D0502820D05D
:103FE000602825D0702806D02B03984235D05B007E
:103FF00098420AD02FE0CB684A688968206800F0B0
:10400000A5F820688168772208E0CB684A6889684B
:10401000206800F09BF820688168AA030A43826048
:104020001BE0CA684968206800F062F850210EE081
:10403000CA684968206800F06CF8602107E0CA6827
:104040004968206800F054F8402100E00100206831
:1040500000F074F801E0684605703D2025543E707C
:10406000FFF7DEFE8800FFFFF0B502681B4B1C4C1B
:104070001C4D1D4EB04201D0A84206D17027BA4354
:1040800017004A683A43B04208D0A84206D0174DFC
:10409000A84203D0A04201D0984203D1264D15403A
:1040A000CA682A438025AA434D69154305608A687A
:1040B000C2620A688262B04203D0A04201D0984234
:1040C00001D109690163012141610269114003D0F5
:1040D0000169012291430161F0BD000000480140E7
:1040E0000044014000040040002C0140002000403A
:1040F00030B5036A046A0125AC4304628469F02583
:10410000AC431201224382610A22934319430162A4
:1041100030BD30B5036A046A1025AC43046284697B
:104120000F4D254012032A438261A02293430901C7
:104130001943016230BD0000FFFCFFFF826870235D
:104140009A43114307220A438260704730B584685E
:10415000044D254029430A4319021143816030BDB3
:10416000FF0FFFFFFF00FFFF10B5C906C90E036A6E
:1041700001248C40A3430362036A8A401A4302620B
:1041800010BDFEE7F0B53C22825C012A01D102207D
:10419000F0BD02003C320123137002243D2544553A
:1041A00005686E68AC687027BE430F6837436F6060
:1041B0000568084EB54202D0074EB54204D18026AC
:1041C000B44349682143A9603D2143540020107045
:1041D000F0BD0000002C014000040040FEB50400CA
:1041E00019D0AD4D2078C00717D58027BF02686869
:1041F0000C210140042909D068680C2101400829DC
:1042000041D168687908084088423CD12868074055
:1042100003D06068002800D19BE1207880071AD580
:10422000F827FF4368680C21014007D068680C211B
:10423000014008295BD16868C00358D4286880070A
:1042400003D5E068012800D083E128680740206991
:10425000C000384328602078000779D50227E0693C
:104260000028686A65D001210143696200F0CAFA3A
:104270000600686A38406BD100F0C4FA801B02283F
:10428000F7D90320FEBD60687B0801280BD0B34935
:10429000B34A002801D1286809E00528286806D11A
:1042A000C94301432960286803432B6004E00240AE
:1042B0002A60286801402960606800280BD000F05F
:1042C000A1FA060028683840A7D100F09BFA801BAD
:1042D0006528F7D3D5E700F095FA0600286838403E
:1042E0009BD000F08FFA801B6528F7D3C9E7E06800
:1042F000002828680ED001210143296000F082FACD
:10430000060028688007A0D400F07CFA801B0228F1
:10431000F7D9B6E701218843286000F073FA060058
:104320002868800797D500F06DFA801B0228F7D91E
:10433000A7E701218843686200F064FA0600686A12
:10434000384005D000F05EFA801B0228F7D998E7C4
:1043500004272068384062D000200190B806E9693F
:10436000014008D1E9690143E961E9690840009029
:104370000098012001907B480068C00512D479485C
:104380000068A90D01437748016000F03BFA060080
:1043900074480068C00505D400F034FA801B652815
:1043A000F6D36EE7A068012808D0002801D1286A5A
:1043B00009E00528286A06D138432862286A0121C5
:1043C0000143296205E0012188432862286AB84335
:1043D0002862A4480090A06800280CD000F012FACF
:1043E0000600286A800713D400F00CFA801B00999D
:1043F0008842F6D345E700F005FA0600286A8007F0
:1044000006D500F0FFF9801B00998842F6D338E703
:104410000198002803D0E86993490140E9612078B8
:10442000C0061DD56069F826F643012836D1686BB1
:1044300007436F63686B01210143696300F0E2F990
:104440000700686B800705D400F0DCF9C01B022868
:10445000F7D916E7686B0640A069C000304368636F
:10446000206A002877D069680C220A40082A5BD0AD
:104470008027BF0491490228286847D1014029605C
:1044800000F0C0F906002868384021D000F0BAF9E1
:10449000801B0228F7D9F4E6001002400421C9432A
:1044A0008842686B02D101406963D3E707436F63B9
:1044B000686B01218843686300F0A4F90600686B0B
:1044C0008007CDD500F09EF9801B0228F7D9D8E6E9
:1044D000E86A0F218843E16A0143E9626868784924
:1044E0000140A06A0843616A01436960286879084D
:1044F0000143296000F086F90400286838402AD179
:1045000000F080F9001B0228F7D9BAE601402960C3
:1045100000F078F90400286838401CD000F072F9E7
:10452000001B0228F7D9ACE6012812D06868E96AB6
:10453000802252020240636A9A420AD10907090F97
:10454000E26A914205D1F02189030140A06A8142CB
:1045500001D00120FEBD0020FEBD0000FFFFFBFFDB
:10456000FFFFFEFF00700040F8B5040060D000912E
:1045700054480068C107C90F009881420CD25148C5
:10458000016801229143009A0A4302600068C10752
:10459000C90F009881424BD121684B4D0220014246
:1045A0000CD0490704D56968E022D2000A436A604A
:1045B0006968F0229143A2680A436A600127216872
:1045C000394025D06168012902D12868800303E0C1
:1045D000022903D12868800103D429E02A68104009
:1045E00026D06868032290430143696000F00AF90D
:1045F000060068680C21014060688000814207D095
:1046000000F000F9801B17498842F2D30320F2BD65
:104610002C48009902683A4091420BD20168B94394
:10462000009A0A430260006807400098874201D060
:104630000120F2BD2078400705D568682349014074
:10464000E0680843686000F011F821496A681206C2
:10465000120F895CC8401F490860032001F046F929
:104660000020F2BD89130000FFFFFFEF1A4A136814
:104670001A480C211940082900D0704730B50F2185
:1046800019A49D0C0D40645D926ADB0307D500BF41
:1046900019A31140595CFEF779F8604330BD200042
:1046A0000F49484330BD0B4800680E490A4A12685A
:1046B0005205520F895CC84070470000FFFFFFFEA3
:1046C000FFFFC2FF0020024000100240FFF8FFFF82
:1046D00018700008B00100200410024000127A0097
:1046E00000093D00387000080203040506070809A8
:1046F0000A0B0C0D0E0F101001020304050607082B
:10470000090A0B0C0D0E0F10F8B50400374D206888
:10471000C00356D500200090802040052968014044
:1047200008D1296801432960296808400090009851
:10473000012000902E4F3868C00510D43868A90DAC
:104740000143396000F05EF806003868C00506D401
:1047500000F058F8801B6528F7D30320F2BDC02075
:10476000800069680140234F00291ED06268104014
:1047700081421AD0686838406968802252020A4330
:104780006A6069681C4A0A406A606860C0070CD5A4
:1047900000F038F806006868800706D400F032F8A8
:1047A000801B16498842F6D3D7E7686807406068DF
:1047B000384368600098002803D0286810490140F9
:1047C00029602078C00705D5686903218843A1685E
:1047D000014369612078800605D568691021884306
:1047E000E168014369610020F2BD00001C10024035
:1047F00000700040FFFCFFFFFFFFFEFF8913000079
:10480000FFFFFFEF01484068704700BFA401002090
:104810007047FEE781B001204C490A6802430A60F4
:104820000A68104000900098802040054A680243C2
:104830004A60496808400090009801B0704710B580
:1048400086B004001421002201A8FFF7E7F92068D0
:104850003F4988421CD13F48410D42680A434260AB
:1048600042681140009100998021890202680A4340
:10487000026000680140009100981120019003201F
:1048800002900020039001A99020C005FDF7FEFDD5
:1048900006B010BD00682E49884200D0704780B530
:1048A0002A4801682C4A0A400260112147E000684A
:1048B0002A49884200D0704780B5C80C23490A684D
:1048C00002430A6009680840009000980022022113
:1048D0000D20FFF7C6F90D20FFF7C7F901BD10B590
:1048E00086B004001421002201A8FFF797F9206880
:1048F0001B49884221D117488021C90142680A43D7
:10490000426042681140009100998021890202684A
:104910000A43026000680140009100980C20019059
:1049200002200290002003900320049001200590B3
:1049300001A99020C005FDF7A9FD06B010BD90208B
:10494000C005FDF769FE01BD00000000181002401F
:104950000024014014100240FFFDFFFF002C014025
:10496000003801400100202008437047FDB5B2B077
:104970003A98049102A93B22885400200D9027A860
:10498000401C31900DE00498329A90470490002822
:1049900001D100F0D3FE0D98401C0D903398401CBF
:1049A00033903398017800290FD02529EBD10020CE
:1049B0000790089009900A900B900C900225012115
:1049C000149108211291339C05E00D9800F0B8FE77
:1049D000010014980843641C21782029F8D0232969
:1049E0000BD02B2904D02D2904D0302908D00AE07F
:1049F0002843F0E701000420ECE701000820E9E784
:104A000001001020E6E72A290FD134990A681168BD
:104A1000121D349B1A600F91002904D54A420F924F
:104A2000010004200843641C12E000210F91644B34
:104A300009E00F99994205DA8E007118490089182A
:104A400030390F91641C2278110030390A29F0D3D3
:104A500021782E2903D00021C9430E9126E0641C41
:104A600021782A2908D134990A681168121D349BCB
:104A70001A600E91641C19E02D2901D1641C00E01C
:104A8000002100220E920CE0002909D10E9A4C4E12
:104A9000B24205DA9600B2185200D218303A0E929D
:104AA000641C23781A00303A0A2AEDD302A9088739
:104AB0002678310040487844FF30401E00F062FF05
:104AC000002801D0641C00E0002602A83A214654C8
:104AD000682E04D1207868280BD1622005E06C2E66
:104AE00007D120786C2804D1712002A93A22885479
:104AF000641C18A80690207869460870601C3390E2
:104B0000684604782000253833D01C3800D1CDE128
:104B1000001F022800D8C9E1133801D100F036FD8A
:104B2000093800D1C2E1801E01D100F0CCFD401E49
:104B300001D100F079FD401E022800D8B6E1001F27
:104B400001D100F071FD401F00D109E1401E01D1EB
:104B500000F01CFD401E00D1F1E0C01E0ED0801EF2
:104B600001D100F013FDC01E01D100F00FFD00F0D7
:104B7000B6FD14980790252000F0ADFD349800682C
:104B80000468001D349908600594002C00D0C2E030
:104B900002A83B21405C002800D1B6E00024E44399
:104BA00006487844163000F0F7FE201A01D000F0D5
:104BB000C5FD00F0A2FD00BF98210000CC2100003F
:104BC000CBCCCC0C01236A4602A9280000F072FE6F
:104BD000002801D000F0B2FD641EF3D13295079D8C
:104BE00018AC002D0FD0329E21780498B047049065
:104BF000002801D100F0A2FD0D98401C0D90641C0E
:104C00006D1EF1D132963020694608700A9C002C46
:104C10000DDD329D01236A4602A9280000F04AFEFC
:104C2000002801D000F08AFD641EF3D13295059C66
:104C3000089D002D0FD0329E21780498B047049033
:104C4000002801D100F07AFD0D98401C0D90641CE5
:104C50006D1EF1D13296302769460F700B9C002CE7
:104C60000DDD329D01236A4602A9280000F022FED4
:104C7000002801D000F062FD641EF3D13295059842
:104C800008994418099D002D0FD0329E2178049870
:104C9000B0470490002801D100F050FD0D98401C51
:104CA0000D90641C6D1EF1D13296684607700C9C05
:104CB000002C0DDD329D01236A4602A9280000F078
:104CC000F9FD002801D000F039FD641EF3D13295C2
:104CD00002A83821405C400700D462E620206946E3
:104CE00008700198002800DC5BE6019C329D0123DE
:104CF0006A4602A9280000F0DDFD002801D000F07E
:104D00001DFD641EF3D132954BE61B487844683094
:104D1000059000F0F2FC0E9D002D03D52000FDF75C
:104D200067FD09E02A000021200000F059FE00285C
:104D300001D0001B00E02800089000F0DEFC349851
:104D400000680268001D349908600020C0430021FB
:104D5000104002AA03C218A80590782100F0AFFC09
:104D600002A83B21415C002908D00024E4434B48C1
:104D70007844FF30293016E72C2000003A21405CAF
:104D800062286AD0682819D06A2845D06C2806D0D5
:104D900071284FD0742831D07A2821D06FE0349810
:104DA00001680868091D349A116000287AD100242E
:104DB000E4433B487844FF301738F4E63498016800
:104DC0000868091D349A1160002805D10024E443C5
:104DD00033487844CA30E6E60D99018000F08DFC36
:104DE000349801680868091D349A1160002859D167
:104DF0000024E4432A487844A630D4E63498016875
:104E00000868091D349A116000284BD10024E4433E
:104E1000234878448A30C6E6349800680268001D4A
:104E200034990860002A13D10024E4431C487844D4
:104E30006E30B8E6349800680268001D3499086046
:104E4000002A05D10024E443154878445230AAE6EC
:104E50000D98C11703C200F050FC3498016808682F
:104E6000091D349A1160002805D10024E4430C4840
:104E700078442C3097E60D99017000F03EFC349890
:104E800001680868091D349A116000280AD10024BD
:104E9000E44303487844083085E600BFBC1E0000A8
:104EA000D01E00000D99016000F027FC34980068C6
:104EB000C21D072082433498026003CA349B1A60E3
:104EC00002AA03C22022C80F04D007982D2118AAD5
:104ED00011540DE002A8008F284204D007982B211E
:104EE00018AA115404E0C00704D5079818A90A5459
:104EF000401C079018A8079940181390059027ADFB
:104F000002A803C816AA03C26846007820210143FC
:104F100068464170612909D00E98002801D5062005
:104F200003E003D1672901D114980E9002A803C8A9
:104F30000F0006187F417E15FF17BBA20CCA9F42C7
:104F400012D1964210D10903020D1143000300292A
:104F500001D1002808D003200890613C1A2C19D3F5
:104F6000244979448E3110E002A803C808004100AA
:104F70004915994212D1000310D103200890613CD9
:104F80001A2C21D31C4979446E310322139800F066
:104F90004DFDB2E3194979446231F6E701AA02A84E
:104FA00003C800F050FD02AA03C268464078612899
:104FB00013D1059830210170811C0591694609784B
:104FC000612905D1782104E00D4979443231DCE7CB
:104FD000582141700798801C079002A803C894A22A
:104FE0000CCA02400B400DD1002A0BD10024002630
:104FF00069E100BFB81D0000BC1D0000AC1D000031
:10500000B01D000068464078612800D097E00E98F7
:10501000002801D5212000E0401C1390139F7F1C25
:1050200016A803C80022002300F022FD02A830C801
:1050300002D28020000645400198001F01909C216B
:1050400069440A7027A8461C002F31DD2000290082
:10505000002280235B0300F024FD29D81C2200F0ED
:1050600039FD04000D0000F06DFD1590FF1F002FAD
:1050700009DD00F0A1FD02000B0020002900FEF771
:1050800025FD04000D00F01D0722159900290ADDF9
:10509000521E08D4401E0B071B0F03700911F5E7C1
:1050A000401E00210170521EFAD5C61D002FCDDC16
:1050B00027A83199711A27AA551C139A0C009142FE
:1050C00000DD1400002C33D48C4205DA411C095D4C
:1050D000082901DB0F2100E00021220027AB9B18EB
:1050E00001E0641E5B1E521E1E788E42F9D00F290D
:1050F00004D1411C895C491C401C8154002A04D500
:1051000027AD641C0198001D0190611E10D46A181F
:105110006846007813783033DEB23A2E01DBC318CC
:10512000C6331370491E521E0029F3D56946087014
:105130000E98002800D4C5E0601E0E90C2E016A8AC
:1051400030C86D006D0801986C4948436C49FDF703
:1051500009FB019007200199401A002805DD020093
:105160002000290000F080FB0AE04242002066494E
:1051700000F07AFB02000B0020002900FEF7BAFBCA
:105180006A465278662A02D1019A0A3200E0062263
:105190000E9B9A18142A00DD142227AB30241C70B1
:1051A0005C1C02E016A803C8139A002A44DD16AB63
:1051B00003C3139216A803C800F0D6FC1590054649
:1051C0000834042628000A21FDF7E0FA0F00280021
:1051D0000A21FDF7DBFA05003037601E0770280052
:1051E0000A21FDF7D3FA0F0028000A21FDF7CEFAB5
:1051F0000500A41E30372770761EE3D108341398BB
:10520000083813900028CDDD159800F0C5FC020089
:105210000B0016A803C8FEF759FC00223B4BFEF713
:1052200020FA16AA03C2C5E7FFFFFFFFFFFFFFFF3B
:10523000FFFFFFFFFFFFFF7F3198201A27A94D1CBA
:1052400004E0401E0199491E01916D1C2978302906
:10525000F7D020216A46127811436A465170694698
:105260004978662902D10199491C06E069464978C6
:10527000652901D1149900E000210E9A5418A0422A
:1052800000DA441E002C1DD4844204DA285D342840
:1052900001DD392000E0302021006A1E531801E0B2
:1052A000641E5B1E491E1E788642F9D0392802D141
:1052B000685C401C6854002904D51500641C0198E2
:1052C000401C0190019E13956846007869468870DD
:1052D00000F07CFC406A0078694608700E9D20B2A0
:1052E000002804DC149C0748784418301390684662
:1052F000407866280CD1761C24E000BF977500002A
:10530000A0860100B41A00000000F03F84D7974146
:1053100068464078672846D130B20321C9438842A5
:1053200047DBA84245DA761C02A8008F1299C0B26A
:10533000084203D120B2A84200DC050030B22D1A89
:1053400000D5002537B2002F00DDBAE00898411CD7
:1053500008913021059A1154002D05DC02A8008F18
:105360001299C0B2084206D00898411C08916946BB
:105370000978059A11547842854200DA6E4236B2B5
:1053800070420B90AD1920B2854200DA2C0024B295
:105390000994220013990598089BC01800F046FB59
:1053A000281B0C90DAE068468078612818D17020BC
:1053B0001BE020B2A84206DA02A9098F129AC9B2EC
:1053C000114200D105006D1E00D500256846807889
:1053D000672802D16520694607E04520694604E058
:1053E00068468078412801D1502088700898411C77
:1053F000089113990978059A11541398411C002DAE
:1054000005DC02A8008F129AC0B2104219D0089889
:10541000421C08926A461278059B1A54002D10DD32
:10542000641E20B2854200DA2C0022B20598089B47
:10543000C01800F0FBFA24B2089800190890281B45
:105440000B9005980899411868468078087030B22A
:10545000002803D42B2048708F1C03E02D224A70B3
:105460008F1C4642002412AD300008E00A21FDF7EF
:1054700079F915AA03C229701598641C6D1C00B235
:105480000028F3DC012C08DC6846807820210143E9
:10549000652902D1302038707F1C002C09D13020C2
:1054A00038707F1C07E0641E12A8005D3030387031
:1054B0007F1C002CF7DC059808994018381A0990D1
:1054C0004CE020B231B288421DDA22B2139905981D
:1054D000089BC01800F0AAFA24B208980019089096
:1054E000391B0B91002D05DC02A9098F129AC9B254
:1054F000114206D069460978059A11540998401C52
:1055000009900C952AE032B213990598089BC018AF
:1055100000F08CFA0898C0190890A41B002D05DC37
:1055200002A9098F129AC9B2114205D0411C0891F3
:1055300069460978059A115420B2854200DA2C0098
:1055400022B21398C1190598089BC01800F06EFA92
:1055500024B2089800190890281B0B9002A8382143
:10556000405C14210140102900D0C6E0079808993A
:1055700040180B994018099940180C9940180F9938
:10558000884200DBB9E0081A0A90B6E002AA3A2085
:10559000105C622808D068280ED06A2814D06C28C5
:1055A0001DD0712810D01AE0349801680868091DD0
:1055B000349B1960C0B218E0349801680868091D6E
:1055C000349B196080B210E034980068C31D072036
:1055D00083433498036003CB349C236006E0349803
:1055E00001680868091D349B1960002102AB03C3E0
:1055F000108F1299C0B208425BD002A803C80029DC
:1056000001D1002855D0684600782021014378292F
:105610004FD1079818A930220A54401C421C079207
:105620006A4612780A5444E002AA3A20105C6228C2
:1056300008D068280ED06A2814D06C281DD0712894
:1056400010D01AE0349801680868091D349B19606D
:1056500040B218E0349801680868091D349B19604D
:1056600000B210E034980068C31D072083433498CB
:10567000036003CB349C236006E03498016808681B
:10568000091D349B1960C11702AB03C3002902DA5C
:1056900007982D2109E0108F284202D007982B216E
:1056A00003E0C00705D50798202118AA1154401C13
:1056B000079018A80799401805906846017802A835
:1056C00000F040F819E014980790349801680868D1
:1056D000091D349A11606021694408700DE0149826
:1056E00007902520602169440870684600780028EA
:1056F00003D007956846007848700F980799401ABC
:105700000A99401A0899401A0B99401A0999401AA7
:105710000C99401A019002A83821405C400701D53D
:10572000FFF75DFA2020694608700198002801DC27
:10573000FFF755FA019C329DFFF744FA0020C04361
:1057400035B0F0BDF2B586B0040025696F2901D1EE
:10575000082707E00846FFF705F9782801D00A274F
:1057600000E010273C2603CC083C04AA03C26A468A
:10577000127E642A03D06A46127E692A09D1002962
:1057800007DA04A803C800220023121A8B4104A8D8
:105790000CC004A803C800290DD100280BD1206B30
:1057A000002808D1082F3DD13820205C000739D5CA
:1057B0003B26302035E00294009504A830C8761EC0
:1057C0000196200029003A00002300F005FA30324B
:1057D000D0B23A280DDA00988255200029003A000C
:1057E000002300F0F9F904000D0007D1002C05D1C9
:1057F0000AE06846007E8218AF32ECE70298C06883
:10580000009989198842DAD3029C009D082F09D19A
:105810003820205C000705D5A85D302802D0761E10
:105820003020A8553C20801BA061A919E160216BA4
:10583000884206DA081A2062208F1C49014021871D
:1058400010E000290ED53821615C14220A40102A8C
:1058500008D1616B6269891A226A891A081A0028BC
:1058600000DD206207B0F0BDF8B50026104F04003F
:105870000D00009214E0C00707D532003B00200065
:105880002900FDF7EEFE04000D0000984010009086
:105890003000390032003B00FDF7E3FE06000F0048
:1058A00000980028E7D120002900F4BDEFFF000098
:1058B00000002440F8B50024002B11D007000E0092
:1058C00014001D002178B068B847B060002809D0E6
:1058D000F06A401CF0620020641C6D1EF2D10400CE
:1058E0002000F2BD0020C043F9E7FEE738B505000F
:1058F0000D4CFA2080002178FCF748FF01000B488E
:105900000068FCF743FFFEF7B9F900280AD1042D1F
:1059100008D2002229000020C043FEF7A2F9A560AA
:10592000002032BD012032BDA4010020B0010020C2
:1059300070B50021002401222123C35C022B03D077
:1059400004218163012415E003681D680E26B54318
:105950001D6003681D6895431D60036C01259D4013
:10596000C36B5D602123C25420228154416B002906
:1059700000D08847200070BD70477047704770475F
:1059800070477047C9B202788A4203D0401C002A8F
:10599000F9D100207047FEE780B5002801D100BF93
:1059A00007A006490B68002B03D02222002198474C
:1059B00001E000F04FF9222002BD00006406002043
:1059C000636F6E73747261696E742068616E646C6B
:1059D00065723A20626164206D657373616765006A
:1059E000C9B2521E05D30378401C8B42F9D1401E28
:1059F000704700207047FEE770B4103A03D378C9AF
:105A0000103A78C0FBD2530701D318C918C001D58A
:105A100008C908C0D20704D30B880380891C801CE6
:105A2000002A01D50B78037070BC70478B0701D139
:105A30008307E1D0124205D00B78491C0370401C4B
:105A4000521EF9D1704710B5144600F002F82260DA
:105A500010BD4A0053155B1C08D0520D06D003231D
:105A60001B02FE3AD21A1305C91A7047002270476A
:105A700030B4012464054D00EC420BD85D00EC42CB
:105A800008D80C001C4364000443144304D2994218
:105A900000D1904230BC7047FCD08B42FAD1824298
:105AA000F8E730B4012464054D00EC420BD85D00EA
:105AB000EC4208D80C001C4364000443144304D295
:105AC0008B4200D1824230BC7047FCD09942FAD15F
:105AD0009042F8E7124217D40023DB435B0D9C464B
