:020000040800F2
:10000000B0090020295B0008DD590008DF5900080D
:1000100000000000000000000000000000000000E0
:10002000000000000000000000000000E15900088E
:100030000000000000000000E3590008E559000836
:10004000671B0008000000009B2C0008C32C000860
:100050007332000803390008A7490008ED59000869
:1000600000000000534A0008B34A0008534C00083F
:10007000B74E0008F7590008BB4E0008000000000A
:100080003B5900080000000000000000EB5A000887
:1000900000000000F75A0008415B0008435B0008BD
:1000A00000000000455B000800000000475B0008FE
:1000B000FA21490141430800411E0028FBD1704745
:1000C000C0000100481E0029FBD1704710B586B062
:1000D000802080028C490A6802430A600A68024054
:1000E0000092009A0A6802430A600A68024000927D
:1000F000009A0A6802430A600A6802400092009A65
:100100000A6802430A6009680840009000980120CC
:1001100002900390032004908020C000019090245E
:10012000E40501A9200001F061FB8020800001901E
:1001300001A9200001F05AFB80200001019001A9D3
:10014000200001F053FB80204000019001A9200015
:1001500001F04CFB06B010BD10B5074C20680749F4
:1001600001402160322001F099FC20688021490083
:100170000143216010BD000014000048FFFEFFFF96
:10018000F0B5624A1368624C1C401460614BDC435A
:100190000029116801D0214300E01940116061007D
:1001A00015680D43156007255B4E176837401760CB
:1001B0000700EF40FF07176801D5274300E01F4005
:1001C000176017680F4317606D1EEED51068064064
:1001D00016601068890801431160F0BD70B5040015
:1001E0000D000F2600210F222A40B0201043FFF7F8
:1001F000C7FF002126403000FFF7C2FF0021600644
:10020000420F10201043FFF7BBFF444804704570B5
:1002100070BD000080B5FFF759FF3C48016880229F
:1002200012010A4302600168802292000A430260C0
:100230000168802252000A4302600168354A0A4080
:100240000260FFF789FF0021E220FFF799FF0A20F3
:1002500001F024FC0021A420FFF792FF0021A6203A
:10026000FFF78EFF00212F20FFF78AFF0A2001F001
:1002700015FC00212F20FFF783FF0021AF20FFF79F
:100280007FFF01BD30B5CB084907490F244CC5009D
:1002900028182018C45C01258D40002A02D025436F
:1002A000C55430BDAC43C45430BD70B500210020EE
:1002B000FFF794FF00241A4E002501213019EAB2FD
:1002C000D3009A18805CFFF75BFF6D1CE8B26028D2
:1002D000F3DB641C092CEFDB70BD70B5002100203E
:1002E000FFF77CFF002000210D4A00235418DDB2E7
:1002F000EE00751960555B1CDCB2602CF6DB491C06
:100300000929F2DB70BD00001410024014000048FF
:10031000FFFDFFFFFFFBFFFFFFF7FFFFAC05002026
:100320006C0100200EB4FFB50700002001E0019829
:10033000401C019001980AA94988884238D20AA92C
:100340000979484302900C980299405C00260024E9
:1003500000256946898C019A89186A461170694698
:10036000487001E0012211E06846008D8542DED22E
:100370007819694649788C46012307216A07520F8C
:10038000891A8B4061461942ECD0002269460978EF
:10039000C0B2FFF777FF641C082C07D30024761C3B
:1003A0000C9802998919405C694648706D1CDBE71E
:1003B00004B00498F0BC04B0004708B4FFB50600D0
:1003C00024206844007802903018401E602834DAF7
:1003D0006846418009A840780190684640880199A4
:1003E0004018401E442828DA00276846427000E082
:1003F0007F1C0198874220DA0B986946497820399A
:10040000019A5143C919455C002468464088C019C7
:100410006946087001E0002207E002988442E7DAAA
:1004200030190A992940F6D0012269460978C0B2EC
:10043000FFF728FF6D00641CEFE7FFE704B00498A6
:10044000F0BC02B0004708B4FFB5002504006846C0
:100450000181170012E009A881B069460CC80CC1DF
:1004600002680A6008BC320068460189A0B2FFF742
:10047000A4FF24206844007824186D1CE8B23E5C78
:10048000002EE8D1DAE710B51C00029B401A1B1BB6
:100490005843511A01F016FB001910BD80B54021D8
:1004A0009B4801F0D5FA012801D19A49086001BDA5
:1004B00081B00100481E002908D000210091009958
:1004C0000C29F6DA00BF0099491CF7E701B0704724
:1004D0001CB500210091904BDC22FFF7D4FF8D4921
:1004E0000A68012A11D100220A60FFF7E1FF884C57
:1004F00001228021200001F0B1FA0A20FFF7D8FF85
:1005000000228021200001F0A9FA13BD00B58DB0B2
:100510000100684601F00AFBAEA1684601F00EFB3F
:10052000684601F019FBC82382B26946D54801F03C
:1005300051FB0DB000BD7FB50500A74E300001F0A6
:100540004AFE300001F094FD0095012001906946BB
:10055000300001F034FF6425300002F063F8300011
:1005600001F083FE6421300001F0A8FE002808D1CC
:10057000300001F021FF02F0B9F8210002F0C6F8C6
:100580000400012001F08AFA6D1EE5D12000AE4979
:1005900002F04CF9AD49096801290AD102F098F935
:1005A000B6A20CCA02F0ADF902F06DFABE4902F033
:1005B0003DF904B070BDF0B587B0BC4C002020669A
:1005C000E066A089E065524E80273F029020C0057A
:1005D0000190E089216E88421ADBE06DFFF778FF19
:1005E0003900019801F034FA002811D008213000B8
:1005F00001F02EFA00280BD01021300001F028FA6B
:10060000002805D02021300001F022FA0028DDD199
:10061000DC20A189401A0090208A009901F052FA4A
:10062000E067002525660098A067206EE16F88428C
:1006300003DBE06D401CE0652566E06DFFF748FFD9
:10064000E06DDC2818DA3900019801F001FA002881
:100650002CD00821300001F0FBF9002826D0102111
:10066000300001F0F5F9002820D02021300001F001
:10067000EFF90028D9D119E0012060662566012232
:100680008021300001F0EAF9E26DC34902A802F0CE
:100690002BFA81B068460ECC0EC008BC02AA00211D
:1006A0000020FFF7D0FEFFF700FE07E000228021C8
:1006B000300001F0D3F901206066256607B0F0BD77
:1006C0003EB57A4C002080216050FFF734FF02F0E5
:1006D000FFF8AFA20CCA02F027FA02F0D4F9AF4932
:1006E00048602500843502F0F3F802000B0000BFDB
:1006F0000AA1280002F0F8F981B068460ECC0EC0BD
:1007000008BC2A000A210020FFF79DFE37BD00002B
:1007100000040048A4050020FC0800004355525284
:10072000454E543A252E326620202020000000003D
:100730007CB55E4D012080216850FFF7FCFE04006F
:100740004148210002F051FA0200BD4E2000310064
:1007500002F0A4FA04D2BB49100001F0D7FF020056
:100760002000310002F0AEFA04D8B749100001F0C1
:10077000CDFF0200B54802602E008436100002F062
:10078000A7F802000B0000BF14A1300002F0ACF982
:1007900081B068460ECD0EC00C3D08BC320014215D
:1007A0000020FFF750FE200002F092F802000B003C
:1007B0000EA1300002F098F981B068460ECD0EC04F
:1007C00008BC32001E210020FFF73DFEFFF76DFD43
:1007D00073BD00000D0A00005C0500205053493A2B
:1007E000252E326620202020000000004144433A9C
:1007F000252E3266202020200000000038B59024ED
:10080000E40580210902200001F022F9002812D01D
:100810008F4D0821280001F01BF900280BD0102172
:10082000280001F015F9002805D02021280001F04A
:100830000FF9002807D101201C4908670122010394
:10084000200001F00BF931BD0000C84280000020FB
:100850003EB5804C514D286802F03AF80090019165
:10086000686802F035F802000B007B49200002F0B6
:100870003BF92000FFF74AFE37BD0000666666665A
:1008800066660A40D404002080B50848406E0028FF
:1008900001D1FFF790FEFFF713FFFFF749FFFFF7C6
:1008A000D7FFFFF7ABFF01BD00F07F450000002040
:1008B00070B586B080208002B4490A6802430A609D
:1008C0000A6802400092009A0A6802430A600968B6
:1008D0000840009000980120019011240294002506
:1008E00004955B4E01A9300000F080FF02200190CA
:1008F0000294049501A9300000F078FF06B070BDA5
:1009000010B5FA208000FFF7DBFBA14C2068012125
:10091000014321606420FFF7D3FB206802210143DB
:1009200021606420FFF7CCFB206801218843206010
:100930006420FFF7C5FB2068022188432060642003
:10094000FFF7BEFB10BD10B56420FFF7B9FB904C5C
:1009500020680221884320606420FFF7B1FB2068F3
:100960000121884320606420FFF7AAFB2068022150
:10097000014321606420FFF7A3FB206801210143AC
:100980002160FA208000FFF79BFB10BD00000000F3
:10099000F0F7E8D9CABB5140DC1700089C050020DD
:1009A000F2B582B00021964C626802239A436260DD
:1009B000802508266A46107001910227FF43684689
:1009C0000078290001400029606803DD012101430E
:1009D000616002E00121884360606420FFF770FBE2
:1009E00060680221014361606420FFF769FB606871
:1009F000384060602068C00703D501982900014392
:100A000001916D08761EDAD1019D6846007A616811
:100A100001229143616001280CD1606802210143E9
:100A200061606420FFF74CFB6068074067606420EA
:100A3000FFF746FB6420FFF743FBE8B2FEBD000072
:100A40009A99993E000048C20000F0C19C05002020
:100A500000040048840000203C5A000838B5040017
:100A60000D00FFF74DFF0121200A4200A020104396
:100A7000C0B2FFF795FF0121E0B2FFF791FF01211E
:100A80002800FFF78DFFFFF75EFF0F20FFF710FB39
:100A9000002032BDFEB500246E4607000020305510
:100AA000380A45003555FFF72BFF0121A0202843C8
:100AB000C0B2FFF775FF0121F8B2FFF771FFFFF732
:100AC0001FFF0121A1202843C0B2FFF769FF0021C9
:100AD000FF20FFF765FF3055FFF735FF0120FFF7D7
:100AE000E7FA002C05D0305D3119491E09788142A2
:100AF00003D0641C092CD1DB00E0FEBD3078FEBDC4
:100B000038B504000D00E1B22800FFF7A7FF210A65
:100B10006D1CA8B2FFF7A2FF002032BD38B504005B
:100B2000601C80B2FFF7B6FF05022000FFF7B2FF9E
:100B3000281832BD18B587B0884CA089E065FFF74A
:100B4000CCFB874882B069460CC80CC102680A60B9
:100B50000CBC2D210020FFF7E5FBFFF7A6FBE26DA3
:100B6000DB4902A801F0C0FF81B068460ECC0EC080
:100B700008BC02AA00210020FFF765FCFFF795FBE7
:100B8000FA20400000F08AFF08B010BD14100240A7
:100B9000140400481CB5FFF7A0FB724C82B06846F5
:100BA0000ECC0EC00C3C0CBC00212820FFF7BAFB79
:100BB0006D4882B069460CC80CC102680A600CBC62
:100BC00032212820FFF7AEFBC24882B069460CC82C
:100BD0000CC102680A600CBC00210020FFF7A2FBD8
:100BE000FFF763FBFA20400000F058FF012060612E
:100BF0001021B94800F02CFF0028F9D013BD0000E7
:100C000010040048FEB5FFF768FBB44882B069469F
:100C10000CC80CC102680A600CBC00210520FFF75B
:100C200081FBAF4882B069460CC80CC102680A60FB
:100C30000CBC1E210520FFF775FB4A4D82B06846AB
:100C40000ECD0EC00C3D0CBC19214620FFF76AFBEF
:100C5000454882B069460CC80CC102680A600CBCE9
:100C60002D214620FFF75EFB3C4CA2893FA12800C6
:100C7000183001F039FF81B068460ECC0EC00C3C34
:100C800008BC2A00183224211420FFF7DCFBFFF7F0
:100C90000CFBFA20400000F001FF002068618E4E3E
:100CA0000127F9039020C00500F0D2FE002806D1EC
:100CB000A089401DA0816F61FA2000F0EFFE08219D
:100CC000300000F0C5FE002806D1A089401FA08199
:100CD0006F61FA2000F0E2FE6869012815D100205A
:100CE0006861A28921A12800183001F0FDFE81B0C1
:100CF00068460ECC0EC00C3C08BC2A0018322421D9
:100D00001420FFF7A0FBFFF7D0FA1021300000F00D
:100D10009FFE002806D02021300000F099FE002818
:100D2000BFD117E0FFF7D9FAC84882B069460CC8AE
:100D30000CC102680A600CBC1E210720FFF7F2FA02
:100D4000FFF7B3FA0021A089FFF7DAFEFA2080004E
:100D500000F0A4FEFFF71EFFF7BD0000000000201A
:100D6000E4000020B8000020F00000202564562098
:100D700000000000FEB5FFF7B0FAB54882B0694642
:100D80000CC80CC102680A600CBC00210520FFF7EA
:100D9000C9FA534882B069460CC80CC102680A609F
:100DA0000CBC1E210520FFF7BDFAAA4D82B0684693
:100DB0000ECD0EC00C3D0CBC19214620FFF7B2FA37
:100DC000A54882B069460CC80CC102680A600CBC18
:100DD0002D214620FFF7A6FAA04CE289A049280061
:100DE000183001F081FE81B068460ECC0EC00C3C7C
:100DF00008BC2A00183224210F20FFF724FBFFF73C
:100E000054FAFA20400000F049FE00206861324E9A
:100E10000127F9039020C00500F01AFE002806D132
:100E2000E0896430E0816F61C82000F037FE08215E
:100E3000300000F00DFE002806D1E0896438E08122
:100E40006F61C82000F02AFEE089642801DA64207E
:100E5000E0816869012815D100206861E289804934
:100E60002800183001F040FE81B068460ECC0EC05C
:100E70000C3C08BC2A00183224210F20FFF7E3FAAB
:100E8000FFF713FA1021300000F0E2FD002806D031
:100E90002021300000F0DCFD0028BAD115E0FFF77A
:100EA0001CFA6A4882B069460CC80CC102680A6024
:100EB0000CBC1E210720FFF735FAFFF7F6F90A21CF
:100EC000E089FFF71DFE6420D4E0FFF763FEF7BD65
:100ED000DC17000814010020000400482001002055
:100EE00038010020FEB5FFF7F8F95E4882B0694688
:100EF0000CC80CC102680A600CBC00210520FFF779
:100F000011FA594882B069460CC80CC102680A60DF
:100F10000CBC1E210520FFF705FA4E4D82B0684635
:100F20000ECD0EC00C3D0CBC19214620FFF7FAF97E
:100F3000494882B069460CC80CC102680A600CBC02
:100F40002D214620FFF7EEF9444C228A47A12800C4
:100F5000183001F0C9FD81B068460ECC0EC00C3CC3
:100F600008BC2A00183224210F20FFF76CFAFFF783
:100F70009CF9FA2000F092FD00206861BE4E012726
:100F8000F9039020C00500F063FD002806D1208AF7
:100F9000643020826F61C82000F080FD082130009D
:100FA00000F056FD002806D1208A643820826F6147
:100FB000C82000F073FD208A642801DA64202082B2
:100FC0006869012815D100206861228A27A12800BC
:100FD000183001F089FD81B068460ECC0EC00C3C83
:100FE00008BC2A00183224210F20FFF72CFAFFF743
:100FF0005CF91021300000F02BFD002806D02021E4
:10100000300000F025FD0028BAD116E0FFF765F9A1
:101010000E4882B069460CC80CC102680A600CBC5C
:101020001E210720FFF77EF9FFF73FF91421208AE0
:10103000FFF766FDFA2080001CE0FFF7ABFD2021E2
:10104000300000F005FD0028F9D0F7BD4401002074
:101050002C010020B8000020F0000020000000203B
:101060006C100008500100203801002025646D73C9
:101070002000000000F012FDFFF78CFD1021300071
:1010800000F0E6FC0028F9D0F7BDF8B5FFF725F928
:101090007A4C82B068460ECC0EC00C3C0CBC0021D1
:1010A0002820FFF73FF9764882B069460CC80CC18A
:1010B00002680A600CBC32212820FFF733F971481E
:1010C00082B069460CC80CC102680A600CBC0021E1
:1010D0000020FFF727F96C4882B069460CC80CC1A4
:1010E00002680A600CBC1C210520FFF71BF9FFF702
:1010F000DCF8FA20400000F0D1FC01202061002043
:10110000606110215C4800F0A3FC0028F9D00125A3
:10111000E9039020C00500F09BFC002806D120695F
:10112000401C20616561FA2000F0B8FC082152489B
:1011300000F08EFC002806D12069401E2061656108
:10114000FA2000F0ABFC00264D4F20214A4800F069
:101150007FFC002851D02069032800DC80E00320B8
:1011600020616069012832D16661FFF7B6F882B06C
:1011700068460ECC0EC00C3C0CBC00212820FFF7AA
:10118000D1F882B068460ECF0EC00CBC32212820A8
:10119000FFF7C8F83B4882B069460CC80CC102682A
:1011A0000A600CBC00210020FFF7BCF82069012870
:1011B0005AD1354882B069460CC80CC102680A6031
:1011C0000CBC1C210520FFF7ADF8FFF76EF81021CD
:1011D000294800F03DFC002899D12069012801D15F
:1011E000FFF710FD2069022801D1FFF7C3FD206938
:1011F00003288CD1FFF776FE89E7FFF76EF882B0FF
:1012000068460ECC0EC00C3C0CBC00212820FFF719
:1012100089F882B068460ECF0EC00CBC322128205F
:10122000FFF780F88E4882B069460CC80CC102688E
:101230000A600CBC1C211220FFF774F8FFF735F888
:10124000FA20400000F02AFC25616661FA2000F0D7
:1012500025FC2021084800F0FBFB0028F9D0F1BD57
:10126000002800DC25617CE7022801D17D48A1E748
:101270000328AAD17C489DE700040048B80000205C
:10128000F00000201401002020010020F8B5774F65
:101290001021380000F0DCFB002800D0A7E000227D
:1012A0008021380000F0DAFB714C0125E560322026
:1012B00000F0F4FBFFF711F882B068460ECC0EC0C8
:1012C0000C3C0CBC00212820FFF72CF8694882B0A8
:1012D00069460CC80CC102680A600CBC3221282087
:1012E000FFF720F85E4882B069460CC80CC102685E
:1012F0000A600CBC19210220FFF714F8FEF7D5FF95
:10130000FA20400000F0CAFB256100206061102136
:10131000380000F09DFB0028F9D0FA267600E9039A
:101320009020C00500F094FB002806D12069401CE5
:1013300020616561300000F0B1FB0821380000F049
:1013400087FB002806D12069401E206165613000BE
:1013500000F0A4FB2021380000F07AFB00283ED0EA
:101360002069022844DD02202061606901282AD119
:1013700000206061FEF7B1FF82B068460ECC0EC05F
:101380000C3C0CBC00212820FEF7CCFF394882B071
:1013900069460CC80CC102680A600CBC32212820C6
:1013A000FEF7C0FF2069012826D12D4882B069468A
:1013B0000CC80CC102680A600CBC19210220FEF79F
:1013C000B1FFFEF772FF1021380000F041FB00284A
:1013D000A3D120690128A0D1FFF757FE9DE7FFF7B1
:1013E000A9FB2021380000F033FB0028F9D0F1BD23
:1013F0000028BADC2561B8E70228E2D1CC48D5E75D
:101400000068CC49884200D0704780B5CA48416E18
:10141000002902D1016E491C0166816E491C81665A
:10142000FA229200914219DB00218166026F012AA3
:1014300006D10F4BDB68002B02D1436F5B1C436767
:10144000436F3C2B0ADB012A08D101674167002268
:10145000802149019020C00500F000FB01BD000083
:10146000FC0000202C010020500100200004004856
:10147000B8000020F0000020F0B587B001F036FC85
:1014800000F06AF914210022684601F03FFC802038
:10149000C003AA490A6802430A600A68104005901E
:1014A0000598802080020A6802430A600A6810409A
:1014B000059005988020C0020A6802430A60096806
:1014C0000840059005989E4D00228321280000F0D9
:1014D000C5FA0022F02109019020C00500F0BEFAF3
:1014E000012211039020C00500F0B8FA03200090FB
:1014F00011200190012602960024039469462800D9
:1015000000F074F9F82040010090019602940394D1
:1015100069469020C00500F069F9F003009001943D
:10152000029469469020C00500F060F938200090D0
:10153000019402946946280000F058F94020009078
:1015400088204003019002946946280000F04EF97B
:10155000802000900196029403946946280000F0D0
:1015600045F900220121072001F0F3FB072001F0DB
:10157000F4FB69460C604C608C60724D72482860C8
:101580006C60AC60EC602E6104276F61AC61FF2081
:10159000C230E8612C6224216C54AE62280000F055
:1015A00067FD002801D000F017F900943003019086
:1015B00002966946280000F002FF002801D000F0E2
:1015C0000BF900976946280000F0F9FE002801D0C9
:1015D00000F002F95D485E49016096218901416091
:1015E0008460C46004610C2141618461C46104624F
:1015F000446200F0B9FA002801D000F0EDF81021A3
:10160000002202A801F082FB69460C604C604A4D42
:1016100048486861FA204000A861EC6164202862B3
:101620006C62AC62EC622800143001F0BBFB002855
:1016300001D000F0D1F83703029702A92800143036
:1016400001F022FD002801D000F0C6F800940194BA
:1016500069462800143001F00DFE002801D000F08A
:10166000BBF82800143001F0ACFB354E002280217D
:10167000300000F0F3F9012239009020C00500F09D
:10168000EDF9FFF715F90020FFF748FAA8810A20C5
:1016900000F004FA0A20FFF741FAE8810A2000F07E
:1016A000FDF91420FFF73AFA28820A2000F0F6F933
:1016B000FEF7B0FDC82000F0F1F9FEF70EFE254858
:1016C00082B069460CC80CC102680A600CBC2D21AE
:1016D0000020FEF727FEFEF7E8FDAA893FA102A839
:1016E00001F002FA81B068460ECD0EC00C3D08BC78
:1016F00002AA00210020FEF7A6FEFEF7D6FDFFF7A6
:10170000C3F8FFF7C3FD2021300000F0A1F9002845
:10171000F5D1686E0128F2D16C660022802130007C
:1017200000F09CF9FA20C00000F0B8F9E7E70000EB
:1017300008010020002C014000000020141002408D
:10174000000400485C05002000240140D40400206F
:1017500000380140E400002070B594B03021002230
:1017600008A801F0D3FA10210022684601F0CEFA51
:101770001021002204A801F0C9FA122008900124C7
:101780000B940D9410200C900E90022610960025BC
:101790001195A02080031290139508A801F096FDE2
:1017A000002801D000F018F807200090019602955B
:1017B00003950121684601F04FFF002801D000F099
:1017C0000BF80494069504A802F016F8002801D03E
:1017D00000F002F814B070BD72B6FEE7566F6C747C
:1017E0006167653A2564562000000000FFB50022BD
:1017F0000F2302932DE0052403E0A14CA042FAD16F
:1018000003246D462D78AC403443019D2C609D4CE3
:10181000A568DC4325404E68F60200D51D43994E6D
:10182000B560F56825404F68BF0200D51D43F560DF
:10183000756825404F68BF0300D51D437560356846
:101840002C404D68ED0302D525001C002C4334606C
:10185000521C0B681C00D44000D18CE0012595403F
:101860002B40F5D054000326A640F74301974E685D
:10187000B707BF0F012F03D0B607B60F022E0ED148
:101880008668019F3740CE68A6403E438660466822
:10189000AE434D68EF06FF0F974037434760950012
:1018A0006E4675700D79AD07AD0F032D26D0C56856
:1018B000019E2E408D68A5403543C5600D79AD076A
:1018C000AD0F022D1AD1D508AD0045192E6A039629
:1018D0006E4676781C2737406E463770039EB446B6
:1018E000029F6E463678B7406646BE43B4460F69DF
:1018F0006E463678B740664637432F620768032541
:10190000019E3E404F682F40A740374307604C6818
:101910002E0426409CD001245B4E366826435A4F45
:101920003E603E46366826400196019E574E970817
:10193000BF00F6190196019E366803966E467678CA
:101940000C2737406E463770039EB446029F6E46A2
:101950003678B7406646BE439027FF05B84201D1AE
:1019600000244EE74A4FB842FBD04A4CA04200D078
:1019700043E7022445E7FFBDFFB50323029301239C
:101980000193039100213EE0052703E03C4DA8426E
:10199000FAD1029F8D00B4460C262E40B740BC45BC
:1019A00015D1D643374A12683240364F3A603A462C
:1019B000526832407A603A46D2683240FA603A461B
:1019C000926816403A4696601A68A2431A60029BD3
:1019D0004A009340DA43036813400360CB089B003E
:1019E000C3181C6A0F261C272F40BE40B4431C623C
:1019F000C3681340C3604368009CA343436083688B
:101A00001A408260491C039ACA4020D0019A8A4039
:101A10000092039B1A40F5D01C4B8C08A4001B19A4
:101A20001E680F248D000C272F40BC4026409025B7
:101A3000ED05A84201D10027ACE7154DA84201D120
:101A4000019FA7E7134DA842A0D10227A2E7FFBD3F
:101A50000069084000D00120C0B27047002A01D0C0
:101A6000816170478162704701000B4A13680B4027
:101A700000D1704780B51160FEF710FD01BD000078
:101A8000000C00480004014018100240080001400A
:101A900000040048000800481404014038B5040060
:101AA00001F028FF05000020C043844202D0044812
:101AB0000078241801F01EFF401BA042FAD331BD6C
:101AC0005C010020CA0F00D0494203105A400DD0DB
:101AD00004B500D3404200F009F8009AD20701D3C0
:101AE0004942124200D5404204BD0000094214D0D0
:101AF00088420FD30122030C01D1000412040023F9
:101B000000185B418B4200D35B1A5241F8D3190095
:101B10001000704701000020704708B501F0F0FE8A
:101B200008BD0268531C0360117070470023DB433B
:101B30005B1CCA5C002AC254FAD17047020000E064
:101B4000521C1378002BFBD10B781370002B02D0A2
:101B5000521C491CF8E77047431C0178401C09429D
:101B6000FBD1C01A7047FEE738B5040001D101204F
:101B700032BD250078356868002803D12870200020
:101B800001F025FF2420686020680168012291434C
:101B90000160606A002802D0200000F008F92000EF
:101BA00000F085F8012811D020684168084A0A40F1
:101BB0004260206881680822914381602068016842
:101BC00001220A430260200000F058F932BD0000F3
:101BD000FFF7FFFFF1B584B01F0006465036F06AEC
:101BE000202861D10C000FD068460280002A0BD05B
:101BF0000498806880214901884207D104980069CF
:101C0000002803D1E00701D501204EE000257563CF
:101C10002120F06201F06EFE0100684600883080ED
:101C20006846008870803A000498806880235B01D1
:101C3000984209D104980069002805D12500049F25
:101C40000192029104001AE02000F8E72178018552
:101C5000641C11E001980090029B00228021380052
:101C600000F070F900281BD13868002CEED12988CB
:101C7000C905C90D0185AD1C7088401E7080708833
:101C80000028E7D13800029B0199009100224021F1
:101C900000F058F9002803D12020F062002004E071
:101CA0002020F062032000E0022005B0F0BDF8B56E
:101CB000050000260024286801689C4A0A40A9689B
:101CC00011432A690A4369691143EA690A430260B8
:101CD0004168974A0A40E968114341608168954A22
:101CE0000A40A96911432A6A0A438260924800683F
:101CF0008007800F05D0022809D006D3032802D020
:101D000007E0002206E0022204E0042202E00822AA
:101D100000E01022894F8A4880210902EB698B423A
:101D200020D1002A06D0022A08D0042A15D0082A79
:101D300016D037E001F02FFD002834D0696840004C
:101D40004A088018FFF7D2FE01001039B94229D2A3
:101D500007400007400F38431CE001F0FFFCEBE7B1
:101D60000800EBE7002A06D0022A16D0042A16D073
:101D7000082A04D016E001F00EFD010013D06A68B5
:101D8000500808181100FFF7B1FE01001039B942E0
:101D900008D280B22968C86005E00100EFE701F0D1
:101DA000DDFCEAE70124AE66EE662000F2BD2421E8
:101DB000415C090706D501684A688B4B1340426BAA
:101DC0001A434A602421415CC90706D501684A6864
:101DD000864B1340826A1A434A602421415C89077A
:101DE00006D501684A68824B1340C26A1A434A60AA
:101DF0002421415C490706D501684A687D4B1340A0
:101E0000026B1A434A602421415CC90606D5016869
:101E10008A68794B1340826B1A438A602421415CA3
:101E2000890606D501688A68134B1340C26B1A43B2
:101E30008A602421415C490611D501684A686F4BCC
:101E40001340026C1A434A60026C80235B039A427F
:101E500005D14A686A4B1340426C1A434A602421F8
:101E6000415C090606D501684A68664B1340806CE0
:101E70001843486070470000FFDFFFFFFEB5060013
:101E8000370078370024FC6001F034FD01902025F4
:101E900030680068000717D55B480090019B00225E
:101EA0002904300000F04EF800280DD0EFF3108028
:101EB000012181F3108831680A6880239A430A60FF
:101EC00080F310887D6026E030680068400725D5E3
:101ED0004D480090019B00226904300000F032F868
:101EE00000281BD0EFF31080012181F310883168A6
:101EF0000A685E4B13400B6080F31088EFF310808C
:101F0000012181F3108831688A6801239A438A602D
:101F100080F31088BD603C700320FEBD7D60BD6015
:101F2000346674663C700020FEBD0000F369FFFF5C
:101F3000FFCFFFFFFFF4FFFF30100240F0FF000073
:101F400000127A00FEB580273F0108250026040014
:101F500001916846027002932068C06901990140AE
:101F60000198814201D1012000E0002069460978F2
:101F7000884236D108980021C9438842ECD001F04C
:101F8000B9FC0299401A0899814201D3002901D174
:101F90000320FEBD206800684007DDD50198802839
:101FA000DAD04028D8D02068C0692840206803D102
:101FB000C0693840D0D009E00562200000F026F862
:101FC00020007830C56006700120FEBD20680762E1
:101FD000200000F01BF8200078302021C16006703E
:101FE000D6E70020FEBD0000FF7FFFFFFFFFFDFFE3
:101FF000FFFFFEFFFFFFFBFFFFEFFFFFFFFFEFFF16
:10200000FFFF9FFFFFFFF7FFFFFFFF0110B5EFF39B
:102010001081012282F3108802681368134C1C405F
:10202000146081F31088EFF31081012282F310888D
:10203000026893680124A343936081F31088016EC2
:1020400001290BD1EFF31081012282F3108802687D
:1020500013681024A343136081F310882021802289
:10206000815000210166816610BD0000DFFEFFFF88
:10207000F8B504000025002C01D10120F2BDA06BB1
:10208000002805D1E06334216054200001F04FFCAA
:1020900010210122A06B084003D120680423866828
:1020A0001E4000D091E0A66B834F374002263E438E
:1020B000A6638668B607B60F012E06D106463668B7
:1020C00016400FD1C66836040CD4C6681827BE4324
:1020D000A7683743C76020680669B600B608676816
:1020E000374307612068C668A84F3740C760A06AB9
:1020F000012801D0080200E000202669022E01D14B
:10210000009300E00095A37E267EB603677EFF0362
:1021100037435E033E433043E6680643009F374340
:102120002420205C40003843E67E012E0CD1002B99
:1021300003D103000803184306E0A36B20261E43C7
:10214000A663E36B1343E363E369FF26C236B3423E
:1021500002D00343206A18432368DE680643DE602A
:10216000E36A0E06B3420DD0012B0BD0022B09D02F
:10217000032B07D0042B05D0052B03D0062B01D051
:10218000072B0CD123685E690727BE435E61236875
:102190005E692C27E75D7F077F0F37435F6102236E
:1021A000DB432668F6687A4F3740874205D1E563FE
:1021B000A06B03401A43A2630BE0A06B03401943DA
:1021C000A163E06B1043E06302E0A06B0143A163F5
:1021D00001252800F2BD70B5040001D1012070BDB9
:1021E000A06B02210143A163200000F0E5F9050086
:1021F0000026280008D1200000F0A8F905000128D9
:102200002FD00120A06301E0012D2AD02068416871
:102210009F22914341609F20216808602068C16827
:102220005F4A0A40C260206801698900890801612B
:10223000206841690722914341612068016A594A37
:102240000A4002622068816AC90CC904816256484A
:102250000168564A0A400260200001F093FBE663E1
:10226000A66334202654280070BDF8B5040000256C
:10227000002004262168896831401BD13421615C2B
:10228000012917D02700343701213970617E0129D7
:1022900004D0200000F00CF901000CD1A16B444ADD
:1022A0000A40B1011143A163E5633D701C2122681E
:1022B00011606FE00220F2BDFFFEFFFFFEB50400DB
:1022C0000D000020009001266069082801D1082730
:1022D0000DE02068C068304008D0A06B2021014389
:1022E000A1630098342160540120FEBD0C2701F049
:1022F00001FB019020680168394018D10020C043DB
:102300008542F7D0002D05D001F0F4FA0199401A6A
:102310008542EFD2206800683840EBD1A06B0421E1
:102320000143A1630098342160540320FEBDA16BDA
:1023300072020A43A2632168C968C02212010A40DE
:102340001CD1A17E002919D10068000716D520688C
:10235000806840070BD4206840680C2188432168BE
:102360004860A06B134901400E43A66306E0A06BD2
:1023700020210143A163E06B0643E663207E002831
:1023800002D10C20216808600020FEBD1902FEFF6A
:10239000E7FF3F8321688A6816438E60F2BD000024
:1023A00000023E8300F000F008270140FFFF3FFFDE
:1023B000FEF1FFFFFFFEFFFF0068006C7047F8B5FD
:1023C00004000025002600953420205C012801D15E
:1023D0000220F2BD01223423E254206883685B07A7
:1023E0005CD40B689A400092564A4B68564FBB42E9
:1023F000836A009F44D01F438762E06A80235B05A5
:1024000098421FD001281DD002281BD0032819D0C4
:10241000042817D0052815D0062813D0072811D076
:1024200020688B6847697F077F0FBB420AD04369EA
:102430000727BB434361206843690F7A7F077F0FFB
:102440001F4347610868102817D011282BD180201E
:10245000C0031368184310600868102823D16C4823
:1024600000686C49FFF742FB0A214843009000983E
:10247000002818D00098401EF8E780200004E8E704
:10248000BB4383620868102806D011280BD162482C
:1024900011680840106006E06048F9E7A06B202151
:1024A0000143A1630126342025543000F2BD000011
:1024B000F8B504000020009020680121826892078E
:1024C000920F012A06D1024612680A4036D1C2682C
:1024D000120433D410278268514B134006D0A06BEE
:1024E0000743A763E06B0143E16325E08268114382
:1024F0008160474800684749FFF7F8FA01E0009813
:10250000401E009000980028F9D101F0F3F9012550
:10251000060020680068284010D101F0EBF9801B0C
:102520000328F6D3206800682840F2D1A06B074347
:10253000A763E06B0543E5630120F2BD0020F2BD17
:10254000000000000827014001100000F8B5040059
:102550002068032182680A40012A2BD10125024606
:1025600012682A4002D1C268120423D5102682685C
:1025700005231340012B15D1826802231343836086
:102580002068016001F0B6F90700206880682840E3
:1025900010D001F0AFF9C01B0328F6D32068806883
:1025A0002840F2D0A06B0643A663E06B0543E563C9
:1025B0000120F2BD0020F2BDF8B504002068042718
:1025C0008168394022D010258168394005D0816862
:1025D000890702D481682943816001F08BF90600E4
:1025E00020688068384011D001F084F9801B0328EE
:1025F000F6D3206880683840F2D0A06B0543A5630D
:10260000E06B01210143E1630120F2BD0020F2BD36
:102610006801002040420F00FFFFBFFFFFFF7FFF68
:1026200017000080FEB50400002001906946087084
:102630003420205C012801D10220FEBD012034217C
:102640006054206803258168294001290ED1216842
:102650000968C90702D4C168090407D5A06B202105
:102660000143A16301206946087037E0A16B1E4A4F
:102670000A4002211143A163C1680D40C1680322D1
:102680009143C16020688168802212060A438260FB
:1026900001F030F907002068802636068168314055
:1026A00013D001F027F9C01B0328F4D320688068F9
:1026B0000640F0D0A06B0221884310210143A163A2
:1026C0000198342160540120FEBDC1680D43C560EE
:1026D000A06B0221884301210143A16301983421A9
:1026E000605468460078FEBDFFFEFFFF9D2102009A
:1026F0000AD002D4491E9218FCD5C905100A120648
:10270000524100D3012A4841704700000122D207FC
:1027100003004B402ED4431A01D2C01AC91830B45A
:102720004B180418240E1B0E22D0FF2C20D0E31AC5
:10273000182B1DDC09021143C40D641E0002104356
:1027400094461925ED1A0A00AA40D940451801D32C
:102750006D08A41CE405D209280A2D062A43654603
:10276000AA41604103181B0EFF2B01D3C00DC00509
:1027700030BC7047514006E05140CCE70122D207FF
:1027800003004B40F8D4431A03D2C01AC918504072
:10279000514030B44B18090211430418240E1B0E8B
:1027A00040D0FF2C3AD025009D410BD31ED8C50D3B
:1027B0004002401A0BD3ED050100400AC9059141C2
:1027C0006841D5E7C50D40024918401AD0D0012113
:1027D0004008491C0018FCD58C4204D36D1A000A2D
:1027E000ED054019C4E7E8051040C1E7182DBFDC2E
:1027F000AC1C0D00E140E5414D40012D4941C40DA7
:1028000000021043451A01D46D199543641EE40576
:10281000280A2D069541604130BC7047FF2BA7D197
:10282000D843A5E72442A3D10020A1E730B4050096
:102830004D400122D20715404B180418240E25D014
:102840001B0E2CD0FF2C31D0FF2B34D0E41A000209
:1028500009021043114343084808D10D1B1A02D244
:10286000641EDB181B18DB18834200D31B1A494176
:10287000F9D37F3423DDFF2C05DAE40548086041F5
:10288000284330BC7047FF20C005F9E728001B0E25
:1028900003D0FF2BF5D14902F3D0D043F1E7FF2C51
:1028A00001D14002F9D1FF20C005E9E74002F4D18F
:1028B000FF2BF8D1F1E728004902E2D0EDE70B0247
:1028C00000202442DCD15B129B1CD9D9D805D7E764
:1028D000012212060118CA420AD28A420DD83822B1
:1028E000120609098918C20FD20711434007704721
:1028F00000D049080909014301E0C10FC9070020C0
:102900007047F0B50E005E400125ED072E40B4463D
:10291000AE0ADF184C18F44208D2F7420ED2640D0A
:1029200001D07F0D12D100206146F0BD05D1F742E4
:1029300001D87F0D05D10020C143F0BDFBD1640D4E
:10294000F9D00020C143490549088FE0E419C902C4
:10295000DB0229432B43DB0A460DC00231438E467E
:1029600030B487B295B27D432E0CADB2140C7C43CB
:10297000A419260C240425439CB27C43A419190CE9
:102980007943270CC919A4B20F043C43090C000C6D
:1029900097B247432E0CBE193543ADB2170C4743CF
:1029A000360CBF19A6B2BF193E043543240C3E0CA9
:1029B00036199FB24743BF19BCB23E0C89191F0C90
:1029C00047437F183E043443390C704680B297B2B7
:1029D00047432E0CBE193543ADB2170C4743360C96
:1029E000BF19A6B2BF193E043543240C3E0C36195C
:1029F0009FB24743BF19BCB23E0C89191F0C474315
:102A00007F183E043443390C77463F0C90B278432C
:102A10002E0C80190604ADB22E43050CA0B22D1861
:102A2000120C7A435019020C80B2240CA4189AB2EA
:102A30007A43121914042043120C89181B0C7B438F
:102A4000C91830BCEF0A394203D1B6194041494197
:102A5000641E6F12BF0DE41B0BDBFF19BC4211DAC1
:102A6000240500274208AE41784161416646314362
:102A7000F0BD641C05D1401C6141CF0201D349085F
:102A8000F4E750E75DE7012252054B18DA4201D91D
:102A9000581570475B0D0722D2019B1A10D9FF2BE6
:102AA0001DD2DB050122D2070A4013430903020DA0
:102AB0001143490AC200524100D9491CC818704745
:102AC0000AD1800A0A0302435212921C04D9D30786
:102AD0000B40D00518437047C80FC0077047C80F98
:102AE0000002FF30C00570470CB418B583B0040075
:102AF0000A0006A8029001940020009002AB01A9F0
:102B0000084878441E3000F0A9FF0021019A117096
:102B1000002801D40198001B04B0019910BC03B037
:102B2000084700BFFFEFFFFFF0B40E005E40012535
:102B3000ED072E40B446AE0ADF184C18F4423BD2E3
:102B4000F74241D2640D43D07F0D38D0E41BC90257
:102B5000DB0229432B43CF0ADB0A0600B61A9F414A
:102B600004D2641EB6197F41B6185F416812800D09
:102B700024180018844222DCE80C0021B6197F4199
:102B8000B61A9F4102D2B6185F413F1C40414941ED
:102B9000F4D3241C21DD2405B6197F41B61A9F41C8
:102BA00005D33743C60737430026012F70416141E3
:102BB00066463143F0BC7047FCD1F74205D2002095
:102BC000C14349054908F3E704D00020C143F1E7B8
:102BD0007F0DFAD000206146ECE72442FAD1401C78
:102BE00061410F03F6D30020E2E730B405004D4009
:102BF0000122D20715404B180418240E2ED01B0EAC
:102C000032D0FF2C34D0FF2B3AD0E4180002090256
:102C100010431143000A090A9446C2B24A43000A0B
:102C2000C3B24B43000A4843110A5B181A43D2B29D
:102C3000190A091801D44918641E080A7F3C23DBCD
:102C4000FE2C08DAE4050906114363469941604108
:102C5000284330BC7047FF20C005F9E728001B0E51
:102C6000FF2BF6D1D043F4E72800FF2CF1D1F9E790
:102C70004002F7D1FF2B01D14902F3D1E005E7E78C
:102C8000D8054902E4D0EDE743020020641CDFD1FF
:102C90005B129B1CDCD9D805DAE7FEE70CB40122F5
:102CA00012060318DA4207D84B18DA4204D8020099
:102CB0000A43921802D288420CBC7047FCD0814271
:102CC000FAE7FEE70CB4012212060318DA4207D82D
:102CD0004B18DA4204D802000A43921802D2814209
:102CE0000CBC7047FCD088420CBC704780B50648CD
:102CF000016810220A430260032001F055FE00F033
:102D000001FE002002BD000000200240094202D066
:102D1000491E4254FCD1704710B5C30018221A4016
:102D2000FF249440E3438907090E9140020004D434
:102D3000184892089200801806E0174A0007000F12
:102D40000838800880001018026813401943016099
:102D500010BD80B5FFF7E0FF01BD010005D40121E2
:102D6000C006C00E81400D480160704710B5401E7E
:102D700080214904884201D3012010BD084C6060C5
:102D800003210020C043FFF7C7FF0020A0600721F8
:102D9000216010BD00E400E01CED00E000E100E077
:102DA00010E000E010B5040001D1012010BD3D206D
:102DB000205C002804D13C216054200000F0EFFD8D
:102DC00020E03D21415C012901D001207047022112
:102DD0003D22815402680121D3680B43D36002680D
:102DE000174B9A4202D0174B9A4205D1926852076C
:102DF000520F062A04D0026812681143006801606D
:102E00000020704702203D216054211D206800F001
:102E1000A3F90120462160543E2160543F216054B3
:102E20004021605441216054422160544321605448
:102E300044216054452160543D216054002010BD60
:102E4000002C01400004004004000E0000206946F0
:102E500008700125300006D0042E37D0082E3CD053
:102E60000C2E41D047E02068C1682E4A0A40C2605B
:102E7000606A01F0BBFD00223100206800F0ECF92F
:102E800020682949294A244B984205D0234B98426F
:102E900002D0234B984209D1036A134006D1036A3A
:102EA0000B4003D1436C224F1F4047642068036AE4
:102EB0001A4007D1006A014004D120680068A84385
:102EC00021680860002E19D13E2020E02068C168EA
:102ED000184A0A40C260A06ACBE72068C168164A57
:102EE0000A40C260E06AC4E72068C168134A0A4029
:102EF000C260206BBDE76846057009E0042E01D171
:102F00003F2004E0082E01D1402000E0412025545C
:102F100068460078F2BD0000002C014000440140EA
:102F200000480140FFFDFFFF4404000011110000B4
:102F3000FF7FFFFFFFFBFFFFFFF7FFFFFFEFFFFF3D
:102F4000F8B504002068C1680091056900270226D1
:102F5000354214D0314012D00221C9430161012110
:102F600021778069800703D0200001F063FD05E030
:102F7000200001F060FD200001F05EFD277768076A
:102F800017D50098400714D520680421C943016172
:102F900026778069C0218900014003D0200001F01C
:102FA00049FD05E0200001F046FD200001F044FD50
:102FB00027770826354216D00098304013D0206875
:102FC0000821C943016104212177C069800703D02A
:102FD000200001F02FFD05E0200001F02CFD200075
:102FE00001F02AFD27771020054217D000990840EC
:102FF00014D020681021C94301612677C069C0211F
:103000008900014003D0200001F014FD05E02000FC
:1030100001F011FD200001F00FFD2777E807C00F38
:103020000099CA07D20F104206D00120C043216880
:1030300008612000FEF7E4F98020054209D00099DC
:10304000084006D08020C04321680861200001F0BC
:10305000F4FC4020054209D00099084006D04020E9
:10306000C04321680861200001F0E8FC20200540F1
:1030700009D00099084006D02020C043216808618B
:10308000200001F0DCFCF1BDF8B504000026684624
:1030900006703C20205C012801D10220F2BD2700EF
:1030A0003C3701253D7002203D22A05420688268F3
:1030B000284B13408360086802003FD010283DD0A1
:1030C00020283BD0302839D0402830D0502820D07C
:1030D000602825D0702806D02B03984235D05B009D
:1030E00098420AD02FE0CB684A688968206800F0CF
:1030F000A5F820688168772208E0CB684A6889686B
:10310000206800F09BF820688168AA030A43826067
:103110001BE0CA684968206800F062F850210EE0A0
:10312000CA684968206800F06CF8602107E0CA6846
:103130004968206800F054F8402100E00100206850
:1031400000F074F801E0684605703D2025543E709B
:10315000FFF7DEFE8800FFFFF0B502681B4B1C4C3A
:103160001C4D1D4EB04201D0A84206D17027BA4373
:1031700017004A683A43B04208D0A84206D0174D1B
:10318000A84203D0A04201D0984203D1264D154059
:10319000CA682A438025AA434D69154305608A6899
:1031A000C2620A688262B04203D0A04201D0984253
:1031B00001D109690163012141610269114003D014
:1031C0000169012291430161F0BD00000048014006
:1031D0000044014000040040002C01400020004059
:1031E00030B5036A046A0125AC4304628469F025A2
:1031F000AC431201224382610A22934319430162C4
:1032000030BD30B5036A046A1025AC43046284699A
:103210000F4D254012032A438261A02293430901E6
:103220001943016230BD0000FFFCFFFF826870237C
:103230009A43114307220A438260704730B584687D
:10324000044D254029430A4319021143816030BDD2
:10325000FF0FFFFFFF00FFFF10B5C906C90E036A8D
:1032600001248C40A3430362036A8A401A4302622A
:1032700010BDFEE7F0B53C22825C012A01D102209C
:10328000F0BD02003C320123137002243D25445559
:1032900005686E68AC687027BE430F6837436F607F
:1032A0000568084EB54202D0074EB54204D18026CB
:1032B000B44349682143A9603D2143540020107064
:1032C000F0BD0000002C014000040040FEB50400E9
:1032D00019D0AD4D2078C00717D58027BF02686888
:1032E0000C210140042909D068680C2101400829FB
:1032F00041D168687908084088423CD12868074075
:1033000003D06068002800D19BE1207880071AD59F
:10331000F827FF4368680C21014007D068680C213A
:10332000014008295BD16868C00358D42868800729
:1033300003D5E068012800D083E1286807402069B0
:10334000C000384328602078000779D50227E0695B
:103350000028686A65D001210143696200F0CAFA59
:103360000600686A38406BD100F0C4FA801B02285E
:10337000F7D90320FEBD60687B0801280BD0B34954
:10338000B34A002801D1286809E00528286806D139
:10339000C94301432960286803432B6004E00240CD
:1033A0002A60286801402960606800280BD000F07E
:1033B000A1FA060028683840A7D100F09BFA801BCC
:1033C0006528F7D3D5E700F095FA0600286838405D
:1033D0009BD000F08FFA801B6528F7D3C9E7E0681F
:1033E000002828680ED001210143296000F082FAEC
:1033F000060028688007A0D400F07CFA801B022811
:10340000F7D9B6E701218843286000F073FA060077
:103410002868800797D500F06DFA801B0228F7D93D
:10342000A7E701218843686200F064FA0600686A31
:10343000384005D000F05EFA801B0228F7D998E7E3
:1034400004272068384062D000200190B806E9695E
:10345000014008D1E9690143E961E9690840009048
:103460000098012001907B480068C00512D479487B
:103470000068A90D01437748016000F03BFA06009F
:1034800074480068C00505D400F034FA801B652834
:10349000F6D36EE7A068012808D0002801D1286A79
:1034A00009E00528286A06D138432862286A0121E4
:1034B0000143296205E0012188432862286AB84354
:1034C0002862A4480090A06800280CD000F012FAEE
:1034D0000600286A800713D400F00CFA801B0099BC
:1034E0008842F6D345E700F005FA0600286A80070F
:1034F00006D500F0FFF9801B00998842F6D338E723
:103500000198002803D0E86993490140E9612078D7
:10351000C0061DD56069F826F643012836D1686BD0
:1035200007436F63686B01210143696300F0E2F9AF
:103530000700686B800705D400F0DCF9C01B022887
:10354000F7D916E7686B0640A069C000304368638E
:10355000206A002877D069680C220A40082A5BD0CC
:103560008027BF0491490228286847D1014029607B
:1035700000F0C0F906002868384021D000F0BAF900
:10358000801B0228F7D9F4E6001002400421C94349
:103590008842686B02D101406963D3E707436F63D8
:1035A000686B01218843686300F0A4F90600686B2A
:1035B0008007CDD500F09EF9801B0228F7D9D8E608
:1035C000E86A0F218843E16A0143E9626868784943
:1035D0000140A06A0843616A01436960286879086C
:1035E0000143296000F086F90400286838402AD198
:1035F00000F080F9001B0228F7D9BAE601402960E3
:1036000000F078F90400286838401CD000F072F906
:10361000001B0228F7D9ACE6012812D06868E96AD5
:10362000802252020240636A9A420AD10907090FB6
:10363000E26A914205D1F02189030140A06A8142EA
:1036400001D00120FEBD0020FEBD0000FFFFFBFFFA
:10365000FFFFFEFF00700040F8B5040060D000914D
:1036600054480068C107C90F009881420CD25148E4
:10367000016801229143009A0A4302600068C10771
:10368000C90F009881424BD121684B4D0220014265
:103690000CD0490704D56968E022D2000A436A6069
:1036A0006968F0229143A2680A436A600127216891
:1036B000394025D06168012902D12868800303E0E0
:1036C000022903D12868800103D429E02A68104028
:1036D00026D06868032290430143696000F00AF92C
:1036E000060068680C21014060688000814207D0B4
:1036F00000F000F9801B17498842F2D30320F2BD85
:103700002C48009902683A4091420BD20168B943B3
:10371000009A0A430260006807400098874201D07F
:103720000120F2BD2078400705D568682349014093
:10373000E0680843686000F011F821496A681206E1
:10374000120F895CC8401F490860032001F02CF962
:103750000020F2BD89130000FFFFFFEF1A4A136833
:103760001A480C211940082900D0704730B50F21A4
:1037700019A49D0C0D40645D926ADB0307D500BF60
:1037800019A31140595CFEF7B1F9604330BD200028
:103790000F49484330BD0B4800680E490A4A126879
:1037A0005205520F895CC84070470000FFFFFFFEC2
:1037B000FFFFC2FF0020024000100240FFF8FFFFA1
:1037C000185B0008680100200410024000127A0013
:1037D00000093D00385B00080203040506070809DC
:1037E0000A0B0C0D0E0F101001020304050607084A
:1037F000090A0B0C0D0E0F10F8B50400374D2068A8
:10380000C00356D500200090802040052968014063
:1038100008D1296801432960296808400090009870
:10382000012000902E4F3868C00510D43868A90DCB
:103830000143396000F05EF806003868C00506D420
:1038400000F058F8801B6528F7D30320F2BDC02094
:10385000800069680140234F00291ED06268104033
:1038600081421AD0686838406968802252020A434F
:103870006A6069681C4A0A406A606860C0070CD5C3
:1038800000F038F806006868800706D400F032F8C7
:10389000801B16498842F6D3D7E7686807406068FE
:1038A000384368600098002803D028681049014018
:1038B00029602078C00705D5686903218843A1687D
:1038C000014369612078800605D568691021884325
:1038D000E168014369610020F2BD00001C10024054
:1038E00000700040FFFCFFFFFFFFFEFF8913000098
:1038F000FFFFFFEF01484068704700BF5C010020F8
:103900007047FEE781B001204C490A6802430A6013
:103910000A68104000900098802040054A680243E1
:103920004A60496808400090009801B0704710B59F
:1039300086B004001421002201A8FFF7E7F92068EF
:103940003F4988421CD13F48410D42680A434260CA
:1039500042681140009100998021890202680A435F
:10396000026000680140009100981120019003203E
:1039700002900020039001A99020C005FDF736FFBA
:1039800006B010BD00682E49884200D0704780B54F
:103990002A4801682C4A0A400260112147E0006869
:1039A0002A49884200D0704780B5C80C23490A686C
:1039B00002430A6009680840009000980022022132
:1039C0000D20FFF7C6F90D20FFF7C7F901BD10B5AF
:1039D00086B004001421002201A8FFF797F920689F
:1039E0001B49884221D117488021C90142680A43F6
:1039F000426042681140009100998021890202686A
:103A00000A43026000680140009100980C20019078
:103A100002200290002003900320049001200590D2
:103A200001A99020C005FDF7E1FE06B010BD902071
:103A3000C005FDF7A1FF01BD000000001810024005
:103A40000024014014100240FFFDFFFF002C014044
:103A5000003801400100202008437047FDB5B2B096
:103A60003A98049102A93B22885400200D9027A87F
:103A7000401C31900DE00498329A90470490002841
:103A800001D100F0B8FE0D98401C0D903398401CF9
:103A900033903398017800290FD02529EBD10020ED
:103AA0000790089009900A900B900C900224012135
:103AB000149108211291339D05E00D9800F09DFEB0
:103AC0000100149808436D1C29782029F8D0232977
:103AD0000BD02B2904D02D2904D0302908D00AE09E
:103AE0002043F0E701000420ECE701000820E9E7AB
:103AF00001001020E6E72A290FD134990A681168DD
:103B0000121D349B1A600F91002904D54A420F926E
:103B10000100042008436D1C12E000210F91644B4A
:103B200009E00F99994205DA8E0071184900891849
:103B300030390F916D1C2A78110030390A29F0D3E1
:103B400029782E2903D00021C9430E9126E06D1C4F
:103B500029782A2908D134990A681168121D349BE2
:103B60001A600E916D1C19E02D2901D16D1C00E029
:103B7000002100220E920CE0002909D10E9A4C4E31
:103B8000B24205DA9600B2185200D218303A0E92BC
:103B90006D1C2B781A00303A0A2AEDD302A9088747
:103BA0002E78310040487844FF30401E00F048FF36
:103BB000002801D06D1C00E0002602A83A214654DE
:103BC000682E04D1287868280BD1622005E06C2E7D
:103BD00007D128786C2804D1712002A93A22885490
:103BE0006D1C18A80690287869460870681C3390E8
:103BF000684605782800253833D01C3800D1CDE13F
:103C0000001F022800D8C9E1133801D100F01BFDC4
:103C1000093800D1C2E1801E01D100F0B1FD401E83
:103C200001D100F05EFD401E022800D8B6E1001F61
:103C300001D100F056FD401F00D109E1401E01D125
:103C400000F001FD401E00D1F1E0C01E0ED0801E2C
:103C500001D100F0F8FCC01E01D100F0F4FC00F02E
:103C60009BFD14980790252000F092FD3498006881
:103C70000468001D349908600594002C00D0C2E04F
:103C800002A83B21405C002800D1B6E00024E443B8
:103C900006487844163000F0DDFE201A01D000F00E
:103CA000AAFD00F087FD00BF281C00005C1C00007E
:103CB000CBCCCC0C01236A4602A9280000F058FEA8
:103CC000002801D000F097FD641EF3D13295079DC6
:103CD00018AC002D0FD0329E21780498B047049084
:103CE000002801D100F087FD0D98401C0D90641C48
:103CF0006D1EF1D132963020694608700A9C002C66
:103D00000DDD329D01236A4602A9280000F030FE35
:103D1000002801D000F06FFD641EF3D13295059CA0
:103D2000089D002D0FD0329E21780498B047049052
:103D3000002801D100F05FFD0D98401C0D90641C1F
:103D40006D1EF1D13296302769460F700B9C002C06
:103D50000DDD329D01236A4602A9280000F008FE0D
:103D6000002801D000F047FD641EF3D1329505987C
:103D700008994418099D002D0FD0329E217804988F
:103D8000B0470490002801D100F035FD0D98401C8B
:103D90000D90641C6D1EF1D13296684607700C9C24
:103DA000002C0DDD329D01236A4602A9280000F097
:103DB000DFFD002801D000F01EFD641EF3D1329516
:103DC00002A83821405C400700D462E62020694602
:103DD00008700198002800DC5BE6019C329D0123FD
:103DE0006A4602A9280000F0C3FD002801D000F0B7
:103DF00002FD641EF3D132954BE61B4878446830CF
:103E0000059000F0D7FC0E9D002D03D52000FDF796
:103E1000A3FE09E02A000021200000F03FFE002858
:103E200001D0001B00E02800089000F0C3FC34988B
:103E300000680268001D349908600020C04300211A
:103E4000104002AA03C218A80590782100F094FC43
:103E500002A83B21415C002908D00024E4434B48E0
:103E60007844FF30293016E7BC1A00003A21405C44
:103E700062286AD0682819D06A2845D06C2806D0F4
:103E800071284FD0742831D07A2821D06FE034982F
:103E900001680868091D349A116000287AD100244D
:103EA000E4433B487844FF301738F4E6349801681F
:103EB0000868091D349A1160002805D10024E443E4
:103EC00033487844CA30E6E60D99018000F072FC70
:103ED000349801680868091D349A1160002859D186
:103EE0000024E4432A487844A630D4E63498016894
:103EF0000868091D349A116000284BD10024E4435E
:103F0000234878448A30C6E6349800680268001D69
:103F100034990860002A13D10024E4431C487844F3
:103F20006E30B8E6349800680268001D3499086065
:103F3000002A05D10024E443154878445230AAE60B
:103F40000D98C11703C200F035FC34980168086869
:103F5000091D349A1160002805D10024E4430C485F
:103F600078442C3097E60D99017000F023FC3498CA
:103F700001680868091D349A116000280AD10024DC
:103F8000E44303487844083085E600BF4C1900003C
:103F9000601900000D99016000F00CFC3498006875
:103FA000C21D072082433498026003CA349B1A6002
:103FB00002AA03C22022C80F04D007982D2118AAF4
:103FC00011540DE002A8008F204204D007982B2145
:103FD00018AA115404E0C00704D5079818A90A5478
:103FE000401C079018A8079940181390059027AC1B
:103FF00002A803C816AA03C268460078202101431C
:1040000068464170612909D00E98002801D5062024
:1040100003E003D1672901D114980E9002A803C8C8
:104020000F0006187F417E15FF17BBA20CCA9F42E6
:1040300012D1964210D10903020D11430003002949
:1040400001D1002808D003200890613D1A2D19D312
:10405000244979448E3110E002A803C808004100C9
:104060004915994212D1000310D103200890613DF7
:104070001A2D21D31C4979446E310322139800F084
:1040800033FD97E3194979446231F6E701AA02A8A2
:1040900003C800F036FD02AA03C2684640786128D2
:1040A00013D1059830210170811C0591694609786A
:1040B000612905D1782104E00D4979443231DCE7EA
:1040C000582141700798801C079002A803C894A249
:1040D0000CCA02400B400DD1002A0BD1002700254D
:1040E00069E100BF481800004C1800003C180000AF
:1040F0004018000068464078612800D097E00E988C
:10410000002801D5212000E0401C1390139F7F1C44
:1041100016A803C80022002300F008FD02A830C83A
:1041200002D28020000645400198001F01909C218A
:1041300069440A7027A8461C002F31DD20002900A1
:10414000002280235B0300F00AFD29D81C2200F026
:104150001FFD04000D0000F053FD1590FF1F002F00
:1041600009DD00F087FD02000B002000290000F0AF
:10417000E8FD04000D00F01D0722159900290ADD55
:10418000521E08D4401E0B071B0F03700911F5E7E0
:10419000401E00210170521EFAD5C61D002FCDDC35
:1041A00027A83199711A27AA541C139A0F0091421B
:1041B00000DD1700002F33D48F4205DA411CC95DA2
:1041C000082901DB0F2100E000213A0027AB9B18F2
:1041D00001E07F1E5B1E521E1D788D42F9D00F2913
:1041E00004D1411C895C491C401C8154002A04D51F
:1041F00027AC7F1C0198001D0190791E10D4621815
:104200006846007813783033DDB23A2D01DBC318ED
:10421000C6331370491E521E0029F3D56946087033
:104220000E98002800D4C5E0781E0E90C2E016A8B3
:1042300030C86D006D080198694948436949FDF728
:1042400041FC019007200199401A002805DD020079
:104250002000290000F065FB0AE04242002062498C
:1042600000F05FFB02000B0020002900FEF75CFC61
:104270006A465278662A02D1019A0A3200E0062282
:104280000E9B9A18142A00DD142227AB30241C70D0
:104290005C1C02E016A803C8139A002A44DD16AB82
:1042A00003C3139216A803C800F0BCFC1590054682
:1042B0000834042628000A21FDF718FC0F00280006
:1042C0000A21FDF713FC05003037601E0770280037
:1042D0000A21FDF70BFC0F0028000A21FDF706FC60
:1042E0000500A41E30372770761EE3D108341398DA
:1042F000083813900028CDDD159800F0ABFC0200C3
:104300000B0016A803C800F01CFD0022374BFEF777
:10431000F8FA16AA03C2C5E7FFFFFFFFFFFFFFFF82
:10432000FFFFFFFFFFFFFF7F3198201A27A94C1CDA
:1043300004E0401E0199491E0191641C2178302936
:10434000F7D020216A46127811436A4651706946B7
:104350004978662902D10199491C06E069464978E5
:10436000652901D1149900E000210E9A5718B8422E
:1043700000DA471E002F1DD4874204DAE05D34289E
:1043800001DD392000E030203900621E531801E0C1
:104390007F1E5B1E491E1D788542F9D0392802D147
:1043A000605C401C6054002904D514007F1C0198F7
:1043B000401C0190019D1394684606780E9C38B20B
:1043C000002804DC149F0548784410301390684698
:1043D000407866280CD16D1C24E000BF5C150000FD
:1043E00097750000A08601000000F03F84D7974138
:1043F00068464078672845D128B20321C9438842DE
:1044000044DBA04242DA6D1C02A8008F1299C0B2B0
:10441000084203D138B2A04200DC040028B2241ABA
:1044200000D500242EB2002E00DDA9E00898411C22
:1044300008913021059A1154002C05DC02A8008F48
:104440001299C0B2084205D00898411C08912E214B
:10445000059A11547042844200DA65422DB26842D6
:104460000B90641938B2844200DA27003FB20997F2
:104470003A0013990598089BC01800F035FBE01B23
:104480000C90C8E0612E14D1702615E038B2A0421D
:1044900006DA02A9098F129AC9B2114200D10400AA
:1044A000641E00D50024672E01D1652604E0452650
:1044B00002E0412E00D150260898411C0891139922
:1044C0000978059A11541398411C002C05DC02A8A8
:1044D000008F129AC0B2104218D00898421C08925D
:1044E0002E22059B1A54002C10DD7F1E38B2844208
:1044F00000DA27003AB20598089BC01800F0F4FAD9
:104500003FB20898C0190890E01B0B9005980899D5
:1045100041180E7028B2002803D42B2048708F1C3D
:1045200003E02D224A708F1C4542002412A9280066
:104530000D0005E00A21FDF7C5FA2970641C6D1C09
:1045400000B20028F6DC012C06DC20203043652870
:1045500002D1302038707F1C002C09D130203870F7
:104560007F1C07E0641E12A8005D303038707F1C8D
:10457000002CF7DC059808994018381A09904AE091
:1045800038B229B288421CDA3AB213990598089BCE
:10459000C01800F0A9FA3FB20898C0190890F11BA2
:1045A0000B91002C05DC02A9098F129AC9B21142A5
:1045B00005D02E21059A11540998401C09900C949D
:1045C00029E02AB213990598089BC01800F08CFACC
:1045D0000898801908907D1B002C05DC02A9098F22
:1045E000129AC9B2114204D0411C08912E21059A99
:1045F000115428B2844200DA25002AB21398811996
:104600000598089BC01800F06FFA2DB20898401961
:104610000890601B0B9002A83821405C14210140D7
:10462000102900D0C6E00798089940180B99401847
:10463000099940180C9940180F99884200DBB9E09D
:10464000081A0A90B6E002AA3A20105C622808D044
:1046500068280ED06A2814D06C281DD0712810D07C
:104660001AE0349801680868091D349B1960C0B2CB
:1046700018E0349801680868091D349B196080B2FD
:1046800010E034980068C31D07208343349803600A
:1046900003CB349C236006E0349801680868091D48
:1046A000349B1960002102AB03C3108F1299C0B272
:1046B00008425BD002A803C8002901D1002855D0C8
:1046C000684600782021014378294FD1079818A91E
:1046D00030220A54401C421C07926A4612780A543F
:1046E00044E002AA3A20105C622808D068280ED064
:1046F0006A2814D06C281DD0712810D01AE0349884
:1047000001680868091D349B196040B218E03498AC
:1047100001680868091D349B196000B210E03498E4
:104720000068C31D072083433498036003CB349D86
:104730002B6006E0349801680868091D349B1960F5
:10474000C11702AB03C3002902DA07982D2109E043
:10475000108F204202D007982B2103E0C00705D517
:104760000798202118AA1154401C079018A80799EF
:10477000401805906846017802A800F040F819E05A
:1047800014980790349801680868091D349A1160DC
:104790006021694408700DE014980790252060217D
:1047A0006944087068460078002803D0079468467A
:1047B000007848700F980799401A0A99401A08998A
:1047C000401A0B99401A0999401A0C99401A019005
:1047D00002A83821405C400701D5FFF778FA202075
:1047E000694608700198002801DCFFF770FA019C07
:1047F000329DFFF75FFA0020C04335B0F0BDF2B53F
:1048000086B0040025696F2901D1082707E0084612
:10481000FFF720F9782801D00A2700E010273C266E
:1048200003CC083C04AA03C26A46127E642A03D061
:104830006A46127E692A09D1002907DA04A803C84A
:1048400000220023121A8B4104A80CC004A803C83C
:1048500000290DD100280BD1206B002808D1082F8A
:104860003DD13820205C000739D53B26302035E08B
:104870000294009504A830C8761E019620002900F5
:104880003A00002300F0D4FA3032D0B23A280DDAE0
:1048900000988255200029003A00002300F0C8FA51
:1048A00004000D0007D1002C05D10AE06846007E07
:1048B0008218AF32ECE70298C068009989198842E3
:1048C000DAD3029C009D082F09D13820205C000714
:1048D00005D5A85D302802D0761E3020A8553C2092
:1048E000801BA061A919E160216B884206DA081AD1
:1048F0002062208F1C490140218710E000290ED53D
:104900003821615C14220A40102A08D1616B626967
:10491000891A226A891A081A002800DD206207B065
:10492000F0BDF8B50026114F04000D00009214E010
:10493000C00707D532003B0020002900FDF7E1FF4A
:1049400004000D0000984010009030003900320043
:104950003B00FDF7D6FF06000F0000980028E7D1C6
:1049600020002900F4BD0000EFFF000000002440FB
:10497000F8B50024002B11D007000E0014001D0014
:104980002178B068B847B060002809D0F06A401CB0
:10499000F0620020641C6D1EF2D104002000F2BD04
:1049A0000020C043F9E7FEE738B505000D4CFA20BA
:1049B00080002178FDF79AF801000B480068FDF7A8
:1049C00095F8FEF7D3F900280AD1042D08D2002269
:1049D00029000020C043FEF7BCF9A560002032BDCD
:1049E000012032BD5C0100206801002070B500216B
:1049F000002401222123C35C022B03D00421816304
:104A0000012415E003681D680E26B5431D60036888
:104A10001D6895431D60036C01259D40C36B5D605F
:104A20002123C25420228154416B002900D08847A1
:104A3000200070BD704770477047704770477047DF
:104A4000C9B202788A4203D0401C002AF9D1002062
:104A50007047FEE780B5002801D100BF07A00649D6
:104A60000B68002B03D022220021984701E000F0C0
:104A70001DFA222002BD0000A8050020636F6E739E
:104A8000747261696E742068616E646C65723A203C
:104A9000626164206D65737361676500C9B2521EFF
:104AA00005D30378401C8B42F9D1401E704700208B
:104AB0007047FEE770B4103A03D378C9103A78C053
:104AC000FBD2530701D318C918C001D508C908C0C3
:104AD000D20704D30B880380891C801C002A01D5CF
:104AE0000B78037070BC70478B0701D18307E1D04E
:104AF000124205D00B78491C0370401C521EF9D19C
:104B0000704710B5144600F002F8226010BD4A004C
:104B100053155B1C08D0520D06D003231B02FE3A2E
:104B2000D21A1305C91A70470022704730B4012405
:104B300064054D00EC420BD85D00EC4208D80C0037
:104B40001C4364000443144304D2994200D19042B0
:104B500030BC7047FCD08B42FAD18242F8E730B4C7
:104B6000012464054D00EC420BD85D00EC4208D8EE
:104B70000C001C4364000443144304D28B4200D154
:104B8000824230BC7047FCD09942FAD19042F8E79B
:104B9000124217D40023DB435B0D9C464B005B0D98
:104BA00006D0634504D09B18634502D212058918CC
:104BB00070476246090D11430905002000B500BF8A
:104BC00000BF00BD52424B005B0DF1D05B1C5B058A
:104BD000EED25B0D934102D91205891A70470BD1B1
:104BE0000B031B13C90FC907821C00204341134349
:104BF000E4D912051143E1E7C90FC9070020DDE739
:104C0000F4464A1805D200F00FF801D58017400885
:104C1000604700F009F80121C907884200D908005F
:104C2000404260474A1812D2400DC9020843012190
:104C3000C9070843520D40210901521A521C06D4DB
:104C400052421F3201D4D0407047C0177047002035
:104C50007047FEE7010042221201D21E004207D037
:104C600002D4521E0018FCD5C10A4005120589184D
:104C7000704700000100EED54042F446FFF7EBFF1D
:104C80000122D207114360478B4200D1824205D9ED
:104C90008446100062468C4619006346DF184C18A3
:104CA000640D7F0D3AD0661C760537D0E61B352E95
:104CB00034DCDB022B43DB0A0C0DC9022943C91289
:104CC000202E0DDB1700203E06D01F00F741F340D9
:104CD0005F400026012A7741C01871410DD217E0CC
:104CE0001700F741F2405740F3415A40B340F340B8
:104CF0005A400026801859410AD3A21C52050FD0F1
:104D0000C207012F724117004008CB07184349081A
:104D1000641C24054208AF4170416141F0BC7047FA
:104D2000641C21050020F9E76B4010E06B40ABE705
:104D3000F742F3D1E943F1E72442EFD1002000210B
:104D4000ECE7F0B40125ED070F005F40EED40C0056
:104D5000871A9C4105D2C01BA141D2196341694009
:104D60006B40AE0ADF184C18F442E1D2640D7F0D9F
:104D7000E2D0E61B362ED1DCDB022B43DB0AA44655
:104D80000C0DC9022943C90A012E28DC04D1D6071B
:104D90005208DF073A435B08EF0A76429041994197
:104DA00014D039423BD1B61940414941761C3942B1
:104DB00004D1761C001849413942FAD0B9436746FC
:104DC000B74208D9A41B24052143A7E70042EAD132
:104DD0003642E8D1A2E7E40AE10700209EE7202E50
:104DE0000BDD203E1F00F340F7415F40012A002207
:104DF00057417E42984191410BE01700F741F24044
:104E00005740F3415A40B340F3405A407E429041EC
:104E100099410A0303D2641EB61940414941002753
:104E2000641E24054208AE4178416141F0BC7047E0
:104E300012422DD0994231D970B500251B4209D0BC
:104E40000C00002112E01100FCF750FE0A000021C6
:104E5000002370BD0942F6D00024012649186441A0
:104E6000944200D3A41A7641F8D33100012601E020
:104E7000764109D2001864416D41A41A9D41F7D2D0
:104E8000A4185D41B619F5D3300022002B0070BD87
:104E90001B42CFD108B500F00FF808BD01D19042F8
:104EA000CAD202000B0000210020704780B501200B
:104EB00000F004F801BDFEE77047FEE780B500BFD3
:104EC00000BF024A11001820ABBEFBE7260002001B
:104ED0000000000000000000000000101010101082
:104EE000101000100000282828000000000000001A
:104EF00014147E2428FE284810103C5450701C14B2
:104F000054780002046468081016262000386C4C9F
:104F1000383A4E46463900101010000000000000DC
:104F200000306040404040406030003018080808C1
:104F300008081830001074187410000000000000F9
:104F400000101010FE1010100000000000001818D3
:104F500010200000000000003800000000000000E9
:104F60000000181800000404080808181010102089
:104F70000038644444444444643800103010101035
:104F80001010107C007C4404040C1830607E007CFF
:104F9000440404180406447800040C1434247E04E9
:104FA0000404007C6060780406044478001C2060DF
:104FB0007C6446466438007E0404080810102060B3
:104FC000003C6446643C4646643C003864444666A3
:104FD0003C040C380000001010000000101000000D
:104FE0000030300000303040000000020C30C03093
:104FF0000C020000000000FE00FE0000000000C0E7
:10500000701C061C70C000784C0C0C18302000304E
:10501000003CC3BD25646425BFC00018182C24249F
:10502000667E42C3007C4446447C4646467C001E65
:10503000226040404060221E00F88C848686868470
:105040008CF800FC808080F8808080FC00FC8080F0
:1050500080F880808080003C40C0809E86C6463CB0
:105060000084848484FC84848484007C1010101068
:105070001010107C00380808080808080870008420
:105080008890A0E0B0988C8600404040404040406E
:10509000407C00C2C6E6A6BA9A92828200C4E4E4CA
:1050A000B4949C8C8C84003C46C2828282C2463C72
:1050B000007C4446464478404040003C46C28282E0
:1050C0009ACE463D00F8888C88F098888C86003C03
:1050D0006040603C0606467C00FE10101010101068
:1050E00010100042424242424242623C00868484A6
:1050F000C848487030300000009292BAAAAC6C44A4
:1051000000C2642C3818182C64C200C24624281827
:1051100010101010007E040C08103020407E00702B
:1051200040404040404070000020202010101018E7
:1051300008080070101010101010700000001028E7
:105140004CC6000000000000000000000000FE004F
:105150000000000000000000FE0000000000380C0D
:105160003C4C4C3C004040407C644444447800004B
:105170000000386040406038000404043C6444444B
:10518000643C0000000038447C40643C001820204F
:1051900078202020202000003C644444643C0438F3
:1051A0000040404078684C4C4C4C000010001010FF
:1051B000101010100C001C0C0C0C0C0C08380040CB
:1051C00040404C506050484C00202020202020209F
:1051D000202000000000F6DB9B9B9B9B0000000052
:1051E00078684C4C4C4C00000000386444446438EF
:1051F00000007C6444444478404000003C644444E3
:10520000643C04040000000038302020202000000E
:1052100000003C24300C243C000010103C10101006
:10522000101C000000004C4C4C4C4C3C000000009A
:105230004448282830100000000092B2AAAC6C4408
:1052400000000000642C18182C6400000066243450
:105250001C181830000000003C0C1810207C0C18A2
:1052600010101020101010180C1810101020101012
:105270001018301818080804080818180000000052
:1052800062968C0000000000FFFFEFFFFFFFFFFFB2
:10529000FFFFFFC0FFF00FFFFFFFFFFFFFFFFFC09B
:1052A000FFE03FFFFFFFFFFFFFFFFFC0FFE7FFFF44
:1052B000FFFFFFFCFFFFF8C0FFFCFFFFFFFFFFFC4D
:1052C000FFFFF1C0FFFCFFFFFFFFFFFCFC0CE3C092
:1052D000FFFCFFFFFFFFFFFCFC0CE3C0FFFCFFFF38
:1052E000E07FFFFCFFFFE1C03FCCF9FE603C7FFCAC
:1052F000E738F0C03FCCF9FE601C7CFCE738FC408E
:105300003FCCF9FE731C7CFCE738FC40000CF80035
:1053100000007CFCE0000040800CFC0000007C7879
:10532000E0000040C01CFE010040FC70E00201C033
:10533000FFFFFFFFFFFFFE01C7FFFFC0F9FFFF9365
:10534000FFF27F03C7FFFFC0F9FFFF93FFF27FCF9C
:105350000FFFFFC0FFFFFFFFFFFFFFFF9FFFFFC02B
:10536000FFFFFFCFFFFCFFFFFFFFFFC0FFFFFFCFEF
:10537000FFFCFFFFFFFFFFC0FFFFFFFFFFFFFFFF7F
:10538000FFFFFFC0FFFFFFFFFFFFFFFFFFFFFFC0AB
:10539000FFFFFFFFFFFFFFFFFFFFFFC0FFFFFFFF5C
:1053A000FFFFFFFFE27FE4C0FFFC4FFFFFFFFFFFB7
:1053B000E27E64C0FFFC4FFFFFFFFFFFE3FE64C01F
:1053C000FFFFFFFFE3FFFFFFE27FFFC0FFFFFFF8EC
:1053D000C1FF007FE01FFCC0FFFF1888F07E00388F
:1053E000E01C7CC0FFFF1888F87E2638C18C7CC08A
:1053F000CFFF1888FE7E6638C78C7CC0CE000000C8
:10540000C07E6000000000C0CE000000C07E6000D2
:10541000000000C0CE000220C0FE7080002001C04D
:10542000C7E3FFFFFFFE7FFFFFFFFFC0C003FFFFDB
:10543000FFFE7FE27FFFFFC0E007FFFFFFFE7FE28E
:105440007FFFFFC0F00FFFFFFFFE7FE27FFFFFC087
:10545000FFFFFFFFFFFFFFFFFFFFFFC0FFFFFFFF9B
:10546000FFFFFFFFFFFFFFC0FFFFFFFFFFFFFFFF8B
:10547000FFFFFFC0FFFFFFFFFFFFFFFFFFFFFFC0BA
:10548000FFFFFFFFFFFFFFFFFFFFFFC0FFFFFFFF6B
:10549000FFFFFFFFFFFFFFC0FE7FFFFFFFFFFFFFDC
:1054A000FFFFFFC0FC7F867FFFC33FFFFF27F84061
:1054B000F8FF867FFFC33FFFFF279840F8FFFE7F7E
:1054C000FFFF3FFFFF3F9FC0F87FE660F8733F019B
:1054D000FF03FE403E38E66070733E00C7018E4019
:1054E0003F18E66232333E48C6398E401F18E662E6
:1054F00032333E48C6718E400000060070033E40C5
:105500000000004080400F08F8073E60000400C023
:10551000FFFFFFFFFE3FFE7FFFFFFFC0FFF27FFFA9
:10552000FC7FFE7F93FFFFC0FFF27FFFF8FFFE7F4F
:1055300093FFFFC0FFFFFFFFFBFFFFFFFFFFFFC069
:10554000FFFFFFFFFFFFFFFFFFFFFFC0FFFFFFFFAA
:10555000FFFFFFFFFFFFFFC0FC0000000000003F57
:10556000E3FFFFFFFFFFFFC79FFFFFFFFFFFFFF905
:105570007FFFFFFFFFFFFFFE7FFFFFFFFFFFFFFE3D
:105580007FFFFFFFFFFFFFFE7FFFFFFFFFFFFFFE2D
:105590007FFFFFFFFFFFFFFE7FFFFFFFFFFFFFFE1D
:1055A0007FFFFFFFFFFFFFFE7FFFFFFFFFFFFFFE0D
:1055B0007FFFFFFFFFFFFFFE7FFFFFFFFFFFFFFEFD
:1055C0007FFFFFFFFFFFFFFE7FFFFFFFFFFFFFFEED
:1055D0007FFFFFFFFFFFFFFE7FFFFFFFFFFFFFFEDD
:1055E0007FFFFFFFFFFFFFFE7FFFFFFFFFFFFFFECD
:1055F0007FFFFFFFFFFFFFFE7FFFFFFFFFFFFFFEBD
:105600007FFFFFFFFFFFFFFE3FFFFFFFFFFFFFFEEC
:10561000DFFFFFFFFFFFFFF9E0FFFFFFFFFFFF07D7
:10562000FF000000000000FFFFFFFFFFFFFFFFFF84
:10563000FFFFC0FFFFFFFF7FFFFFFFFFFFC0FFFF78
:10564000FFFF3FFFFFFFFFFFC0FFE4BFCEA4A7FFA8
:10565000FFE1E400D3E53FCE9227FFFFE7EFC0C7AD
:10566000F7FF4FE7E67C0FF0FE807C86602F366404
:105670003C066067007E92652726653926666700CE
:105680000000000F300039000000408198004F30CA
:105690000E1D80000040FF9FFFFF3FFF39FFFFFF0F
:1056A000C0FF3FFFFE7FFC39FD3FFFC0FE7FFFFED6
:1056B000FFFEFDFFFFFFC000FFFFFFFFFFFFFFFF3B
:1056C000FFFFF8FFDFFFFFFFFFFFFFFFFFF8FF9F78
:1056D000FFFE7CFFFFFFFFFFF8FF2FFFFFFFFFFC38
:1056E000FFF87908EF8F9FFE7FFF4CFFF9FBF8E78B
:1056F000F3CFFC1C7F1E43FC3FA8E60784C9063994
:10570000F0819819C8E25320CF8F19F2C99999C82E
:1057100000030400383C00000000188003CC00782F
:105720003E0600000018FFFFFCFFFFFFFFFFFFFF2A
:10573000F8FFFFF197FFFFFFFF4FFFF8FFFFFBF7B9
:10574000FFFFFFFFFFFFF800FFFFFFFFFFFFFFFF6F
:10575000FFFEFFFFFFFFFFF3FFFFFFFEFFFFFFFF67
:10576000FFFFFFFFFFFEFFF25FE7FFE27FFFF3F8BF
:10577000E9F29FE7E9E27FFFF3FCE3FBFFA7E3C960
:105780003F7E7A0E3E4330173E606033C200BF4911
:1057900032933E71453BCB208000000780000033F0
:1057A000C00080CC0027C00300399808FFCFFFFF5E
:1057B000FFFFFFF81FF8FF9FFFFFFFFFFFFC3FF217
:1057C000FF3FFFFFFFFFFFFFFFF6FFFFFFFFFFFFB2
:1057D000FFFFFFFEF1B401684118436858080A183A
:1057E00000988068DB0701D54B46C01891422DD048
:1057F0000D78491C032403262E4002D10E78F61C96
:10580000491C2B090F2B07D10B780F33491C03E0E0
:105810000F78491C0770401C761EF9D1002BE5D08B
:105820000E78491CAD082C40032C01D10C78491C82
:1058300024023419654244190025AE1E9E42D5D07B
:105840002678641C0670401C6D1CF6E700980C302E
:10585000F2BC7047FFFFFFFFFFFFFFFFFFFFC0FF2E
:10586000F25FE7FF3F9FFFE1E400E9F29FE7FF3FC0
:10587000DFFFE7EFC0E3FBFFA7E7A0FE0FF0FF406D
:105880003E4330173C201C06606700BF4932933C02
:10589000B2192666660080000007BC001D000000EB
:1058A0004080CC002789809980000040FFCFFFFF17
:1058B00081FF9CFFFFFFC0FF9FFFFFC7FF39FD3F38
:1058C000FFC0FF3FFFFFFFFF7DFFFFFFC0000000A5
:1058D000686A6C747A4C00007072696E74665F73EB
:1058E0003A20256E20646973616C6C6F7765640083
:1058F0007072696E74663A2062616420256E206160
:105900007267756D656E74007072696E74665F7330
:105910003A2062616420257320617267756D656E3F
:1059200074000000000000006E616E004E414E00E9
:10593000696E6600494E46003000FEE7FFFFFF80BB
:10594000FFFFFF80FFEBFF80FFD5FF80FFD5FF80CB
:10595000FFAAFF80F3555780F4AAAB80EB55578020
:10596000D4A2A980EB5AAB80FABEAF80FA3EA780E2
:10597000FABEAF80F57E5780EA955780D5495580AD
:10598000EAB55780F54AAB80F56AD780FFAAFF8059
:10599000FFD5FF80FFD5FF80FFD5FF80FFFFFF8091
:1059A00070B40121002213E00368001D0B4202D0F5
:1059B0004D46EB185B1E1A601B1D241F042CFAD2E7
:1059C0001D00A60701D51A80AD1C0C4000D02A701E
:1059D0000468001D002CE7D170BC7047FEE7FEE7AD
:1059E0007047704780B500F00DF801BD80B54020CC
:1059F000FCF73AF801BD80B50148FDF7A1FA01BDF9
:105A000014000020024841680278891841607047FC
:105A10005C01002010B5074979441831064C7C44DC
:105A2000163404E0081D0A68891888470100A1425D
:105A3000F8D110BD2C000000480000004355525220
:105A4000454E543A252E3266202F205072657373CE
:105A50007572653A252E3266202020200000000055
:105A600041FFFFFF440400006C0100200000000023
:105A700065FDFFFFD40000001201000000000020BF
:105A8000FEFEFD7EFBBEF7DEEFEEDFF6BFFA0FE0B7
:105A9000EFEEEFEEEFEEEFEEEFEEEFEEEFEEE00E0D
:105AA000E00EEFEEEFEEEFEEEFEEEFEEEFEEEFEEFD
:105AB0000FE0BFFADFF6EFEEF7DEFBBEFD7EFEFE87
:105AC00000F00DF8002801D0FFF7A4FF00BF00BFD1
:105AD000002000BF00BFFBF7CFFC00F002F8012060
