:020000040800F2
:10000000780D0020257D0008657B0008677B0008CF
:1000100000000000000000000000000000000000E0
:10002000000000000000000000000000697B0008E4
:1000300000000000000000006B7B00086D7B0008E2
:10004000757B000800000000774500087B4700082A
:10005000C3490008634A0008EF4F00087F7B00088F
:1000600000000000C3560008DB680008F3680008C1
:1000700007690008897B00083F6B0008000000004A
:100080003B6C000800000000000000003F6C00080E
:1000900000000000137B0008A37C0008D57C00084A
:1000A000000000003D7D000800000000937B000878
:1000B000FA21490141430800411E0028FBD1704745
:1000C000C0000100481E0029FBD1704738B586B03A
:1000D0008020800225490A6802430A600A680240BB
:1000E0000092009A0A6802430A600A68024000927D
:1000F000009A0A6802430A600A6802400092009A65
:100100000A6802430A6009680840009000980124C8
:100110000294039403200490802001909025ED0523
:1001200001A9280002F0E0FC4020019001A928006C
:1001300002F0DAFC019401A90D4802F0D5FC202060
:10014000019001A9280002F0CFFC07B030BD10B526
:100150004C4C2068202188432060322002F01CFE95
:10016000206820210143216010BD000014100240CE
:1001700000040048FCB5434A13684024A3431360BD
:100180008023DB4380240029116801D0214300E053
:100190001940116001215D4D2E680E432E60072627
:1001A00001960126F6436F46387001982F68374054
:1001B0002F606F463F78C7400F40176801D0274334
:1001C00000E01F4017602F680F432F60401EEDD5E1
:1001D000286806402E601068402101431160F3BD7D
:1001E00070B504000D000F2600210F222A40B02018
:1001F0001043FFF7BFFF002126403000FFF7BAFF92
:1002000000216006420F10201043FFF7B3FF404863
:100210000470457070BD000080B5FFF757FF3B4884
:10022000016801220A4302601648016840220A431D
:100230000260016820220A43026001688022914323
:100240000160FFF784FF0021E220FFF793FF0A20FF
:1002500002F0A2FD0021A420FFF78CFF0021A620C0
:10026000FFF788FF00212F20FFF784FF0A2002F00C
:1002700093FD00212F20FFF77DFF0021AF20FFF726
:1002800079FF01BD1400004830B5CB084907490F7C
:10029000204CC50028182018C45C01258D40002A78
:1002A00002D02543C55430BDAC43C45430BD00001A
:1002B00070B500210020FFF793FF0024154E0025A4
:1002C00001213019EAB2D3009A18805CFFF752FF7F
:1002D0006D1CE8B26028F3DB641C092CEFDB70BDF9
:1002E00070B500210020FFF77BFF00200021094AA4
:1002F00000235418DDB2EE00751960555B1CDCB2AA
:10030000602CF6DB491C0929F2DB70BD140400489F
:10031000700900206C0300200EB4FFB50700002018
:1003200001E00198401C019001980AA9498888427F
:1003300038D20AA90979484302900C980299405C86
:100340000026002400256946898C019A89186A468E
:1003500011706946487001E0012211E06846008D85
:100360008542DED27819694649788C4601230721F7
:100370006A07520F891A8B4061461942ECD000225D
:1003800069460978C0B2FFF77FFF641C082C07D3C9
:100390000024761C0C9802998919405C69464870C3
:1003A0006D1CDBE704B00498F0BC04B0004708B44F
:1003B000FFB5060024206844007802903018401EE3
:1003C000602834DA6846418009A840780190684680
:1003D000408801994018401E442828DA00276846C2
:1003E000427000E07F1C0198874220DA0B98694632
:1003F00049782039019A5143C919455C002468465F
:100400004088C0196946087001E0002207E00298A0
:100410008442E7DA30190A992940F6D00122694668
:100420000978C0B2FFF730FF6D00641CEFE7FFE70B
:1004300004B00498F0BC02B0004708B4FFB5002532
:10044000040068460181170012E009A881B06946DE
:100450000CC80CC102680A6008BC320068460189F9
:10046000A0B2FFF7A4FF24206844007824186D1C74
:10047000E8B23E5C002EE8D1DAE780B5202168487A
:1004800002F064FC012801D1BD49086001BD81B0C2
:100490000100481E002908D00021009100990C2974
:1004A000F6DA00BF0099491CF7E701B0704710B5B4
:1004B000DC2802DB9620400010BD152802DA9620C9
:1004C000000110BD0022B849D300C9184B6883420F
:1004D00002DBCB68984203DA521C052AF3D30BE007
:1004E0004A680C68801A8B681B1B5843C968891AB4
:1004F00002F066FC201810BD0020C04310BD10B5EE
:100500009F4CFFF7D4FF60602068012812D10020C3
:1005100020606068FFF7BBFFA24C01224021200051
:1005200002F01AFC0A20FFF7B2FF0022402120004F
:1005300002F012FC10BD10B5040092A102F06FFC95
:10054000200002F07FFCFA239B0082B22100974832
:1005500002F0B6FC10BD38B586B08B4D2C00983437
:10056000286F0590E86D0490686C03F0ADF9029077
:100570000391A86C03F0A8F9009001912A6B8C49B3
:10058000200003F0BBF92000FFF7D5FF07B030BD16
:100590007FB505007D4E300003F083FA300003F094
:1005A000CDF90095012001906946300003F06DFB04
:1005B0009625300003F09CFC300003F0BCFA642167
:1005C000300003F0E1FA002808D1300003F05AFBB4
:1005D00003F0F2FC210003F00AFD0400012002F008
:1005E000DBFB6D1EE5D12000694903F090FD0100A1
:1005F0006548806D01280ED1664803F0DAFD664932
:1006000003F085FD03F060F96AA20CCA03F029FE2D
:1006100003F0E9FE0100080004B070BD0000000016
:1006200000040048F8B58CB0574CA28922635B499E
:1006300002A803F063F981B068460ECC0EC00C3CF2
:1006400008BC02AA00210020FFF7F7FE544D00204D
:10065000E8606861534F8020000269460880E089A5
:10066000E968884220DB2000203003F018FF206B6F
:10067000FFF745FF0821380002F068FB002813D07F
:100680001021380002F062FB00280DD080213800D4
:1006900002F05CFB002807D0684601889020C00566
:1006A00002F054FB0028D6D1DC20A189401A019029
:1006B000208A019902F084FB28630026EE600198ED
:1006C000E8622000203003F0EAFE206BFFF717FFFE
:1006D000E868296B884203DB206B401C2063EE60D6
:1006E000206BD2281ADA0821380002F02FFB0028EC
:1006F0003BD01021380002F029FB002835D08021A2
:10070000380002F023FB00282FD068460188902093
:10071000C00502F01BFB0028D3D126E0DC202063BB
:1007200001206063EE6001224021380002F014FBDA
:10073000226B1A4907A803F0E1F881B068460ECC95
:100740000EC00C3C08BC07AA00210020FFF775FE74
:1007500081B068460ECC0EC008BCBD4A28210020DE
:10076000FFF76BFEFFF7A4FD07E0002240213800F1
:1007700002F0F2FA01206063EE600DB0F0BD0000FF
:10078000600900200D0A000000000020EC08002095
:10079000000016430000604000F07F45287000080C
:1007A0002402002000040048F47B0008F807002021
:1007B0000C700008D7A3703D0AD7F73FFEB5B64CC2
:1007C0000025A5650020FFF7E3FE03F07DF8B3A246
:1007D0000CCA03F06FFE03F006FEFF21890503F04B
:1007E00096FCA06426009836206C03F06DF800900B
:1007F0000191A06C03F068F802000B00A9493000D9
:1008000003F07CF881B068460ECC0EC00C3C08BCEE
:1008100032000A210020FFF710FEFFF749FDE26ECB
:10082000A36C80273F0101261800E16B03F0A4FEB2
:1008300006D8002A04D1606B012821D1E66601E0C8
:10084000012A1DD1206C190003F0AAFE09D218005C
:10085000E16B03F0A5FE04D2A566E5662567656732
:1008600035E0A06E05280BDB002240218E4802F007
:1008700073FA6563E5662667A566E565A66702E027
:10088000206F012823D19026F6050122390030007F
:1008900002F062FA642002F07FFA00223900300090
:1008A00002F05AFA322002F077FA012239003000C1
:1008B00002F052FA642002F06FFA00223900300090
:1008C00002F04AFA606F142801DB65672567E26E63
:1008D000A36C0226206C190003F04EFE10D8002AEB
:1008E0000ED1A06BB10503F047FE2BD8606B012839
:1008F00028D11800B44903F03FFE23D8E66601E092
:10090000022A1FD1206C190003F04AFE0AD21800F7
:10091000E16B03F045FE05D2E566A5662567A56790
:10092000656742E0A06EA18B88420BDB002240216C
:100930005D4802F011FA6563E5662667A566A6675D
:10094000E56502E0206F022825D1012239009020C0
:10095000C00502F001FA322002F01EFA002239002E
:100960009020C00502F0F8F91E2002F015FA0122CD
:1009700039009020C00502F0EFF9322002F00CFAA5
:10098000002239009020C00502F0E6F9606F1E28B1
:1009900001DB65672567A06F022807D1E06FE18B57
:1009A000884203DBA5672566E565E567F7BD3EB5CB
:1009B000394C0120A065FFF7EBFDAF4903F0F9FBCF
:1009C000AE4903F014FB002103F0EAFD00D2002041
:1009D000606425009835618A009102F075FF02007D
:1009E0000B00BD49280002F089FF81B068460ECC9B
:1009F0000EC008BC2A0014210020FFF71EFDFFF7DF
:100A000057FC37BD10B5284C0821200002F09EF994
:100A1000002813D01021200002F098F900280DD0F2
:100A20008021200002F092F9002807D080210902DD
:100A30009020C00502F08AF9002807D10120BB49A7
:100A4000886101220221200002F086F910BD000019
:100A50003470000830B587B0B448012141620025E8
:100A60000562FFF73DFCFFF723FC0B4CA08A012831
:100A70000FD16563A289C14902A802F03FFF81B08E
:100A800068460ECC0EC008BC02AA00210020FFF769
:100A9000D4FC07B030BD000000000020F0F7E8D91A
:100AA000CABB51404070000800040048FEB5FFF783
:100AB00085FEFFF77CFFFFF74EFDB14C0126208B32
:100AC00003F07AFA616C03F057FD2ED8E06D216EC9
:100AD0000143A06F084328D1E665F50201222900F1
:100AE0009020C00502F038F90A2002F055F90022E2
:100AF00029009020C00502F02FF9A249200098306B
:100B000002F0FCFE81B068460ECC0EC00C3C08BC66
:100B1000220098321E210020FFF78FFCFFF7C8FB50
:100B2000606B002801D1FFF77DFD6C4F0025608AC6
:100B300003F042FA616C03F033FD24D2E06D01282A
:100B400021D1A06F00281ED12665606D618B88427F
:100B500019DB6565E565256526666563B14EB249B5
:100B6000300002F0CBFE81B068460ECC0EC00C3CCB
:100B700008BC32001E210020FFF75FFC002240214C
:100B8000380002F0E9F8206E012805D1606EE18A94
:100B9000884201DB25666566802109029020C00538
:100BA00002F0D4F800280DD1656325662567E56558
:100BB000A56700224021380002F0CEF8FA2080001C
:100BC00002F0EAF8F7BD00009A99993E7CB501253C
:100BD0006B4C424E0821300002F0B8F8002803D1D7
:100BE000A089401DA081E5641021300002F0AEF81C
:100BF000A189002801D1491FE56488B2DC2801DB06
:100C0000DC2102E00A2800DA0A2188B22063A181EF
:100C1000FFF775FCE06C012817D10020E064250087
:100C20009835226B8149280002F068FE81B0684641
:100C30000ECC0EC008BC2A0000210020FFF7FDFBEF
:100C4000FFF736FB642002F0A7F873BD10B5FFF77D
:100C5000D9FE3648406A002801D1FFF7FBFE484C18
:100C6000A08A012801D1FFF721FFA08A022801D123
:100C7000FFF7ACFF10BD00000AD7EC429A9935C2CD
:100C800070B586B08020800269490A6802430A6014
:100C90000A6802400092009A0A6802430A600968E2
:100CA0000840009000988020800001901124029458
:100CB000002504959026F60501A9300001F014FFE7
:100CC0008020400001900294049501A9300001F0B9
:100CD0000BFF06B070BD0000507000080004004813
:100CE00010B5FA208000FFF7EBF99C4C20688021BA
:100CF0008900014321606420FFF7E2F92068802128
:100D00004900014321606420FFF7DAF92068944923
:100D1000014021606420FFF7D3F920689149014028
:100D200021606420FFF7CCF910BD000024020020F0
:100D300010B56420FFF7C4F9884C20688949014048
:100D400021606420FFF7BCF92068854901402160DB
:100D50006420FFF7B5F92068802149000143216034
:100D60006420FFF7ADF920688021890001432160EC
:100D7000FA208000FFF7A4F910BD000060700008A1
:100D80000000002070700008F2B582B00021764C9F
:100D90006268744B13406360802508266A461070B1
:100DA0000191704F68460078290001400029606871
:100DB00003DD80218900014301E069490140616050
:100DC0006420FFF77DF96068F943014361606420A6
:100DD000FFF776F96068384060602068800503D5C9
:100DE00001982900014301916D08761EDAD1019D19
:100DF0006846007A61685A4A0A40626001280CD14C
:100E00006068F943014361606420FFF759F9606845
:100E1000074067606420FFF753F96420FFF750F93B
:100E2000E8B2FEBD980000207C7000082870000821
:100E30001410024038B504000D00FFF751FF0121E6
:100E4000200A4200A0201043C0B2FFF79DFF0121FD
:100E5000E0B2FFF799FF01212800FFF795FFFFF7A8
:100E600067FF0F20FFF724F9002032BDFEB50024F4
:100E70006E46070000203055380A45003555FFF70B
:100E80002FFF0121A0202843C0B2FFF77DFF0121E1
:100E9000F8B2FFF779FFFFF723FF0121A1202843D4
:100EA000C0B2FFF771FF0021FF20FFF76DFF305543
:100EB000FFF73EFF0120FFF7FBF8002C05D0305D67
:100EC0003119491E0978814203D0641C092CD1DBF9
:100ED00000E0FEBD3078FEBD38B504000D00E1B283
:100EE0002800FFF7A7FF210A6D1CA8B2FFF7A2FF99
:100EF000002032BD38B50400601C80B2FFF7B6FF99
:100F000005022000FFF7B2FF281832BD38B5902542
:100F1000ED058024240101222100280001F01CFF9E
:100F20000A2001F039FF00222100280001F014FFFF
:100F300031BD80B5FFF7D4F9FFF7BAF9FA204000C8
:100F4000FFE701F029FF01204F49C86480214F4885
:100F500001F0FCFE0028F9D001BD0000140000489B
:100F6000FFFDFFFFFFFEFFFF10000048FEB5FFF78B
:100F7000B7F9944882B069460CC80CC102680A608F
:100F80000CBC00210020FFF7C7F93F4DAA8B8EA1B2
:100F90002800843002F0B2FC81B068460ECD0EC04D
:100FA0000C3D08BC2A00843224211420FFF745FAA6
:100FB000FFF77EF9FA20400001F0EEFE0020E86421
:100FC0000127324E0821300001F0C0FE002806D172
:100FD000A88B401CA883EF64962001F0DDFE102151
:100FE000300001F0B3FE002806D1A88B401EA88374
:100FF000EF64962001F0D0FEE86C01281BD1280098
:10100000203003F04CFA0020E864FFF77FFF2C004B
:101010008434AA8B6CA1200002F070FC81B0684679
:101020000ECD0EC00C3D08BC220024211420FFF779
:1010300004FAFFF73DF98021300001F087FE002817
:1010400007D0F9039020C00501F080FE0028B9D137
:1010500017E0FFF745F95A4882B069460CC80CC141
:1010600002680A600CBC1E210720FFF755F9FFF744
:101070001FF96E21A88BFFF72FFFFA20800001F0E7
:101080008BFEFFF756FFF7BD00000020000400486C
:10109000FEB5FFF725F9A64882B069460CC80CC119
:1010A00002680A600CBC00210020FFF735F9A14D51
:1010B000E88B3C2101F084FEE883EA8B42A1280002
:1010C000843002F01BFC81B068460ECD0EC00C3D92
:1010D00008BC2A00843224211420FFF7AEF9FFF760
:1010E000E7F8FA20400001F057FE0020E8640127ED
:1010F000914E0821300001F029FE002806D1E88B2E
:10110000401CE883EF64962001F046FE1021300079
:1011100001F01CFE002806D1E88B401EE883EF6436
:10112000962001F039FEE86C01281BD12800203000
:1011300003F0B5F90020E864FFF7E8FE2C008434E2
:10114000EA8B21A1200002F0D9FB81B068460ECDC8
:101150000EC00C3D08BC220024211420FFF76DF9BD
:10116000FFF7A6F88021300001F0F0FD002807D03D
:10117000F9039020C00501F0E9FD0028B9D11BE07A
:10118000FFF7AEF80E4882B069460CC80CC1026881
:101190000A600CBC1E210720FFF7BEF8FFF788F895
:1011A0007821E88BFFF798FEE88B3C214843E883E1
:1011B000FA20800001F0F0FDFFF7BBFEF7BD000054
:1011C00064020020C402002025642000FEB5FFF761
:1011D00087F8B34882B069460CC80CC102680A603F
:1011E0000CBC00210020FFF797F8524DE86B02F08D
:1011F0006BFB02000B00AF492800843002F07EFB3D
:1012000081B068460ECD0EC00C3D08BC2A00843269
:1012100024211420FFF711F9FFF74AF8FA204000C3
:1012200001F0BAFD0020E8640127434E0821300098
:1012300001F08CFD00280DD1E86B02F045FB99A26E
:101240000CCA03F0C0F903F0CEF8E863EF6496200F
:1012500001F0A2FD1021300001F078FD00280DD131
:10126000E86B02F031FB91A20CCA03F0ACF903F079
:10127000BAF8E863EF64962001F08EFDE86C01286F
:101280001FD12800203003F00AF90020E864FFF79E
:101290003DFE2C008434E86B02F016FB02000B00CC
:1012A0008449200002F02AFB81B068460ECD0EC0B2
:1012B0000C3D08BC220024211420FFF7BEF8FEF7E5
:1012C000F7FF8021300001F041FD002807D0F9032D
:1012D0009020C00501F03AFD0028A7D124E0FEF7D8
:1012E000FFFFBC4882B069460CC80CC102680A60A6
:1012F0000CBC1E210720FFF70FF8FEF7D9FFB64CF4
:10130000E86B210002F055FFE86303F037FA322161
:1013100080B2FFF7E1FDFA20800001F03DFDE86BAF
:10132000210002F0F4FEE863FFF703FEF7BD0000C2
:10133000D00200200000002000040048FEB5FEF7A7
:10134000CFFFA64882B069460CC80CC102680A608B
:101350000CBC00210020FEF7DFFFA14D286C02F03D
:10136000B3FA02000B0053492800843002F0C6FA99
:1013700081B068460ECD0EC00C3D08BC2A008432F8
:1013800024211420FFF759F8FEF792FFFA204000BD
:1013900001F002FD0020E8640127924E0821300090
:1013A00001F0D4FC00280DD1286C02F08DFA3DA28A
:1013B0000CCA03F008F903F016F82864EF649620CD
:1013C00001F0EAFC1021300001F0C0FC00280DD132
:1013D000286C02F079FA35A20CCA03F0F4F803F095
:1013E00002F82864EF64962001F0D6FCE86C01282E
:1013F0001FD12800203003F052F80020E864FFF7E6
:1014000085FD2C008434286C02F05EFA02000B008B
:101410002849200002F072FA81B068460ECD0EC055
:101420000C3D08BC220024211420FFF706F8FEF72B
:101430003FFF8021300001F089FC002807D0F9032C
:101440009020C00501F082FC0028A7D124E0FEF71F
:1014500047FF604882B069460CC80CC102680A6048
:101460000CBC1E210720FEF757FFFEF721FF5A4C48
:10147000286C210002F09DFE286403F07FF96421AE
:1014800080B2FFF729FDFA20800001F085FC286C6E
:10149000210002F03CFE2864FFF74BFDF7BD000081
:1014A000880200209A9999999999B93F9A9999999E
:1014B0009999B9BF88700008FEB5FEF711FF9148F1
:1014C00082B069460CC80CC102680A600CBC0021DD
:1014D0000020FEF721FF424D6A8B8BA1280084304B
:1014E00002F00CFA81B068460ECD0EC00C3D08BC6F
:1014F0002A00843224211420FEF79FFFFEF7D8FE35
:10150000FA20400001F048FC0020E8640127354E35
:101510000821300001F01AFC002806D1688B401C1D
:101520006883EF64962001F037FC1021300001F051
:101530000DFC002806D1688B401E6883EF6496205E
:1015400001F02AFCE86C01281BD12800203002F0B1
:10155000A6FF0020E864FFF7D9FC2C0084346A8BD6
:1015600069A1200002F0CAF981B068460ECD0EC014
:101570000C3D08BC220024211420FEF75EFFFEF77C
:1015800097FE8021300001F0E1FB002807D0F9032D
:101590009020C00501F0DAFB0028B9D117E0FEF772
:1015A0009FFE0C4882B069460CC80CC102680A60F4
:1015B0000CBC1E210720FEF7AFFEFEF779FE50217E
:1015C000688BFFF789FCFA20800001F0E5FBFFF74C
:1015D000B0FCF7BD6402002000002041B8020020EA
:1015E0000000002000040048FEB5FEF779FE8E489A
:1015F00082B069460CC80CC102680A600CBC0021AC
:101600000020FEF789FE894DEA8A3FA12800843038
:1016100002F074F981B068460ECD0EC00C3D08BCD6
:101620002A00843224211420FEF707FFFEF740FE33
:10163000FA20400001F0B0FB0020E8640127C34E0F
:101640000821300001F082FB002806D1E88A401C06
:10165000E882EF64962001F09FFB1021300001F03A
:1016600075FB002806D1E88A401EE882EF649620C8
:1016700001F092FBE86C01281BD12800203002F019
:101680000EFF0020E864FFF741FC2C008434EA8A56
:101690001DA1200002F032F981B068460ECD0EC0C7
:1016A0000C3D08BC220024211420FEF7C6FEFEF7E4
:1016B000FFFD8021300001F049FB002807D0F9032D
:1016C0009020C00501F042FB0028B9D117E0FEF7D9
:1016D00007FE9F4882B069460CC80CC102680A60C8
:1016E0000CBC1E210720FEF717FEFEF7E1FD3C2192
:1016F000E88AFFF7F1FBFA20800001F04DFBFFF7CD
:1017000018FCF7BDA002002025642000FEB5FEF7FE
:10171000E7FD904882B069460CC80CC102680A60B7
:101720000CBC00210020FEF7F7FD404D6A8A8AA11B
:101730002800843002F0E2F881B068460ECD0EC079
:101740000C3D08BC2A00843224211420FEF775FECB
:10175000FEF7AEFDFA20400001F01EFB0020E86419
:1017600001277A4E0821300001F0F0FA002806D156
:10177000688A401C6882EF64962001F00DFB1021FE
:10178000300001F0E3FA002806D1688A401E688222
:10179000EF64962001F000FBE86C01281BD12800C3
:1017A000203002F07CFE0020E864FFF7AFFB2C0045
:1017B00084346A8A68A1200002F0A0F881B06846EB
:1017C0000ECD0EC00C3D08BC220024211420FEF7D3
:1017D00034FEFEF76DFD8021300001F0B7FA0028DD
:1017E00007D0F9039020C00501F0B0FA0028B9D164
:1017F00017E0FEF775FD564882B069460CC80CC16B
:1018000002680A600CBC1E210720FEF785FDFEF76A
:101810004FFD1E21688AFFF75FFBFA20800001F070
:10182000BBFAFFF786FBF7BDAC02002000000020EA
:10183000FEB5FEF755FD914882B069460CC80CC153
:1018400002680A600CBC00210020FEF765FD8C4D8B
:101850002A8B41A12800843002F050F881B06846FC
:101860000ECD0EC00C3D08BC2A0084322421142069
:10187000FEF7E3FDFEF71CFDFA20400001F08CFAB4
:101880000020E8640127314E0821300001F05EFAA3
:10189000002806D1288B401C2883EF64962001F095
:1018A0007BFA1021300001F051FA002806D1288B74
:1018B000401E2883EF64962001F06EFAE86C012840
:1018C0001BD12800203002F0EAFD0020E864FFF779
:1018D0001DFB2C0084342A8B1FA1200002F00EF87F
:1018E00081B068460ECD0EC00C3D08BC22002421FC
:1018F0001420FEF7A2FDFEF7DBFC8021300001F092
:1019000025FA002807D0F9039020C00501F01EFA3F
:101910000028B9D117E0FEF7E3FC0D4882B0694614
:101920000CC80CC102680A600CBC1E210720FEF71F
:10193000F3FCFEF7BDFC4621288BFFF7CDFAFA2019
:10194000800001F029FAFFF7F4FAF7BD000400481F
:10195000640200207C02002025642000FEB5FEF712
:10196000BFFC964882B069460CC80CC102680A6088
:101970000CBC00210020FEF7CFFC414DAA89904904
:101980002800843001F0BAFF81B068460ECD0EC049
:101990000C3D08BC2A00843224211420FEF74DFDA2
:1019A000FEF786FCC82001F0F7F90020E864012763
:1019B000844E0821300001F0C9F9002806D1A88919
:1019C000401CA881EF64642001F0E6F9102130008A
:1019D00001F0BCF9002806D1A889401EA881EF6457
:1019E000642001F0D9F9E86C01281ED128002030CC
:1019F00002F055FD0020E864FFF788FA2C008434DB
:101A0000AA896F49200001F079FF81B068460ECDA8
:101A10000EC00C3D08BC220024211420FEF70DFD51
:101A2000FEF746FC322001F0B7F98021300001F0CA
:101A30008DF9002807D0F9039020C00501F086F940
:101A40000028B6D117E0FEF74BFCB04882B06946DB
:101A50000CC80CC102680A600CBC1E210720FEF7EE
:101A60005BFCFEF725FC0021A889FFF735FAFA2078
:101A7000800001F091F9FFF75CFAF7BD94020020B5
:101A800000000020FEB5FEF72BFCA14882B069469D
:101A90000CC80CC102680A600CBC00210020FEF7D3
:101AA0003BFC9C4DEA899C492800843001F026FFCC
:101AB00081B068460ECD0EC00C3D08BC2A008432B1
:101AC00024210F20FEF7B9FCFEF7F2FBFA204000BC
:101AD00001F062F90020E86401273A4E0821300045
:101AE00001F034F9002806D1E8896430E881EF6418
:101AF000C82001F051F91021300001F027F9002829
:101B000006D1E8896438E881EF64C82001F044F91F
:101B1000E889642801DA6420E881E86C01281BD197
:101B20002800203002F0BBFCFFF7F0F90020E86449
:101B30002C008434EA897849200001F0DFFE81B06E
:101B400068460ECD0EC00C3D08BC220024210F209B
:101B5000FEF773FCFEF7ACFB8021300001F0F6F8D5
:101B6000002807D0F9039020C00501F0EFF8002805
:101B7000B4D11FE0FEF7B4FB644882B069460CC8DC
:101B80000CC102680A600CBC1E210720FEF7C4FBD2
:101B9000FEF78EFB0A21E889FFF79EF9642001F029
:101BA000FBF8FFF7C6F98021300001F0CFF80028DC
:101BB000F9D0F7BDFFF7BDF9F7BD00002402002002
:101BC0009070000800040048FEB5FEF789FB5348FA
:101BD00082B069460CC80CC102680A600CBC0021C6
:101BE0000020FEF799FB4B4C4D4E228A4A493000AB
:101BF00001F084FE81B068460ECC0EC00C3C08BCDF
:101C0000320024210F20FEF718FCFEF751FBFA20CA
:101C100001F0C2F80020E064424F9025ED05082154
:101C2000380001F093F8002807D1208A6430208220
:101C30000120E064C82001F0AFF81021380001F065
:101C400085F8002807D1208A643820820120E064CA
:101C5000C82001F0A1F8208A642801DA64202082DB
:101C6000E06C012819D12000203002F018FCFFF7A9
:101C70004DF90020E064228A2749300001F03EFE41
:101C800081B068460ECC0EC00C3C08BC320024214A
:101C90000F20FEF7D2FBFEF70BFB8021380001F08E
:101CA00055F8002807D080210902280001F04EF8DD
:101CB0000028B4D120E0FEF713FB144882B0694637
:101CC0000CC80CC102680A600CBC1E210720FEF77C
:101CD00023FBFEF7EDFA1421208AFFF7FDF8FA2026
:101CE000800001F059F8FFF724F98021380001F055
:101CF0002DF80028F9D0F7BDFFF71BF98021090264
:101D0000280001F023F80028F8D0F7BD6402002075
:101D10005802002000000020987000087002002087
:101D20008400002000040048FEB5FEF7D9FAAC4C50
:101D300082B068460ECC0EC00C3C0CBC1C210020AE
:101D4000FEF7EAFAFEF7B4FAFA20400001F024F8B0
:101D50000120A0620020A349C8640F468021A24848
:101D600000F0F4FF0028F9D096256D009E4C01206C
:101D700000909B4E0821200000F0E8FF002807D1CA
:101D8000B06A401CB0620098F864280001F004F8C2
:101D90001021200000F0DAFF002807D1B06A401EB1
:101DA000B0620098F864280000F0F6FF9020C005AB
:101DB000019080252D02290000F0C8FF002860D086
:101DC000B06A0B2875DD0B20B062F86C012818D1C1
:101DD0003800203002F063FBFFF798F80020F86429
:101DE000FEF77EFAB06A012867D182B068460ECE4F
:101DF0000EC00C3E0CBC1C210020FEF78DFAFEF735
:101E000057FA8021200000F0A1FF0028ACD1FFF795
:101E10007DF8B06A012801D1FFF7A0FDB06A022861
:101E200001D1FFF72FFEB06A032801D1FFF7CCFEE6
:101E3000B06A042801D1FFF769FCB06A052801D116
:101E4000FFF7F6FCB06A062801D1FFF735FBB06A50
:101E5000072801D1FFF7C8FBB06A082801D1FFF7B6
:101E6000B5F9B06A092801D1FFF768FAB06A0A2803
:101E700001D1FFF77BF8B06A0B2801D1FFF708F911
:101E800072E7FEF72DFAFEF713FA642000F084FFE4
:101E90000098B0620020F8642900019800F056FF15
:101EA0000028F9D00021796339663967F965B96787
:101EB000F7BD002889DC009886E7022807D14B4847
:101EC00082B069460CC80CC102680A6092E7032818
:101ED00001D14748F4E7042801D14648F0E7052836
:101EE00001D14548ECE7062801D14448E8E7072836
:101EF00001D14348E4E708280AD1424882B0694644
:101F00000CC80CC102680A600CBC1C210D2074E7CF
:101F100009280AD13C4882B069460CC80CC1026845
:101F20000A600CBC1C210A2067E70A280AD137483E
:101F300082B069460CC80CC102680A600CBC1C2146
:101F400005205AE70B2800D059E73148E3E770B580
:101F5000254C8021200000F0F9FE002821D1FEF759
:101F6000D5FF00224021200000F0F6FE01220221D0
:101F7000200000F0F1FE1A4D01262E62FEF798F9BE
:101F8000FA20400000F008FFAE6200201549C86446
:101F900068628021200000F0D9FE0028F9D0FFF708
:101FA000C3FE70BD70B5040007221A4902F003FC9D
:101FB000002814D118A63100E01D02F013FC002403
:101FC000164D08E002F0DFFCA1006850310000204F
:101FD00002F008FC641C002801D00D2CF2DB70BD5F
:101FE00024020020000000200004004858020020C5
:101FF000700200207C02002094020020A002002039
:10200000AC02002088020020B8020020C402002098
:10201000D0020020A07000082F0000002C09002032
:10202000F8B5A4B0E74C9027FF0580263601E649B5
:102030002000FC3002F0AEFC002862D0012231000A
:10204000380000F089FEC82000F0A6FE0022310012
:10205000380000F081FEDD48210098310CC80CC129
:10206000E08B3C2100F0ACFEE083216CD84802F00C
:10207000A0F82064E16BD64802F09BF8E063A16B06
:10208000D34802F096F80500A563A08A0A90E08B79
:102090000990A08B0890206C02F070FB0790E06B19
:1020A00002F06CFB0690280002F068FB0590E08AC5
:1020B0000490608B0390208B0290608A0190208AAC
:1020C0000090E389A289D3490BA801F017FC0BA962
:1020D0002000983000F0A3FEFEF72DFAA06BBC495B
:1020E00002F015F8A063E06BB94902F010F8E06364
:1020F000206CB74902F00BF82064E08B3C21484388
:10210000E083C5492000FC3002F044FC002800D1E7
:1021100047E12000FC30FFF745FFC04D2869E96822
:10212000884202DA686A296A884200DBF6E0012206
:102130003100380000F010FE642000F02DFE002277
:102140003100380000F008FE962000F025FE012244
:102150003100380000F000FEFA2000F01DFE0022E1
:102160003100380000F0F8FD2868A081052000F05B
:1021700013FE6868E081052000F00EFEA86820824A
:10218000052000F009FEE8686082052000F004FEEA
:1021900028692083052000F0FFFD68696083052021
:1021A00000F0FAFDA869E082052000F0F5FD884EF8
:1021B000E86901F011FF310001F0A9FFA0630520DB
:1021C00000F0EAFD286A01F007FF310001F09FFFEF
:1021D000E063052000F0E0FD686A01F0FDFE3100DB
:1021E00001F095FF2064052000F0D6FDA86AA083C9
:1021F000052000F0D1FDE86AE083052000F0CCFD69
:10220000286BA082052000F0C7FD0021286880B25D
:10221000FEF762FE052000F0BFFD0A21686880B26B
:10222000FEF75AFE052000F0B7FD1421A86880B221
:10223000FEF752FE052000F0AFFD1E21E86880B2D7
:10224000FEF74AFE052000F0A7FD2821286B80B28A
:10225000FEF742FE052000F09FFD3221E86980B2C2
:10226000FEF73AFE052000F097FD3C21A86980B2F8
:10227000FEF732FE052000F08FFD4621286980B26E
:10228000FEF72AFE052000F087FD5021686980B224
:10229000FEF722FE052000F07FFD5A21286A80B259
:1022A000FEF71AFE052000F077FD6421686A80B20F
:1022B000FEF712FE052000F06FFD6E21A86A80B2C5
:1022C000FEF70AFE052000F067FD7821E86A80B27B
:1022D000FEF702FE052000F05FFDFEF701F8FDF7B6
:1022E000E7FF8E4D8E49280001F008FB81B068465B
:1022F0000ECC0EC00C3C08BC2A0000210020FEF7CA
:102300009CF8FDF7D5FF874800F046FD01208021AD
:102310006050FA20400000F03FFD42E00122310011
:10232000380000F019FD322000F036FD00223100A7
:10233000380000F011FD322000F02EFD01223100A6
:10234000380000F009FD322000F026FD00223100A7
:10235000380000F001FD322000F01EFD01223100A6
:10236000380000F0F9FC322000F016FD00223100A8
:10237000380000F0F1FC322000F00EFD01223100A7
:10238000380000F0E9FC322000F006FD00223100A8
:10239000380000F0E1FC322000F0FEFC6248FEF75D
:1023A000CAF862492000FC3002F0F4FA002806D096
:1023B000012080216050FA20400000F0EDFC25B0A3
:1023C000F0BD000000000020A8700008A070000808
:1023D0000000204100685649884200D0704710B57F
:1023E0000020FF22223253494B88934201DB002315
:1023F0004B804B88934208DA4A88531C4B800B78F9
:102400004D4CA35488660120086601224B4800F019
:10241000C4FD10BD247C0008B47000082C09002005
:102420007CB502F0CFFA43494A6E821A642A03D37C
:102430004866886E401C8866886E012822DD086E1A
:1024400001281FD1002088663B4C00943C4E3DA5DE
:1024500008E003003200FF2128313B4802F0B8FABF
:10246000FFF7DEFD6A462900009802F0D7FA00283F
:10247000EFD100262F4D2E6691214900200002F059
:10248000F1FA6E8073BD00683049884200D0704711
:1024900010B52F482F494A6B002A02D1C268521C3E
:1024A000C2600269521C0261FA239B009A4233DB2C
:1024B000002202610B6E012B02D14B6E5B1C4B663E
:1024C0000B6D012B02D14B6D5B1C4B658369012B9E
:1024D00005D1046A002C02D1C469641CC461CC6EAD
:1024E000002C02DD8C6E641C8C660C6F002C02DDEF
:1024F0004C6F641C4C678C6F022C02D1CC6F641C37
:10250000CC67C1693C2907DB012B05D18261C2611F
:102510000221114800F020FC10BD000098000020AE
:10252000BC700008DC050000C4700008CC70000816
:102530000038014080080020D4060020F807002061
:10254000D87000080D0A0000FC000020002C01409B
:10255000240200200000002000040048F8B586B0E6
:1025600002F088FA00F068FA1421684602F07AFA5C
:102570008020C003B0490A6802430A600A6810401C
:1025800005900598802080020A6802430A600A6864
:102590001040059005988020C0020A6802430A6036
:1025A00009680840059005980022FF210901902044
:1025B000C00500F0D1FB00224121A04800F0CCFB77
:1025C000012202219D4800F0C7FBCF2000010090AE
:1025D0000120019000240294039469469020C005D4
:1025E00000F082FA432000900120019002940394AD
:1025F0006946924800F078FAC020800000901120CF
:10260000019001200290039469469020C00500F0DB
:102610006BFA802000020090019402946946902099
:10262000C00500F061FA9820009001940294694678
:10263000824800F059FA2020009088204003019041
:10264000029469467D4800F04FFA002200210720DD
:1026500002F03DFA072002F03EFA6846002100220F
:1026600000230EC0EC4D764828606C60AC60EC60D6
:102670000120286104206861AC61FF20C230E8615C
:102680002C6224216C540120A862280001F056F924
:10269000002801D000F026FA0094802676010196E9
:1026A000012002906946280001F0EFFA002801D0CD
:1026B00000F018FAD94FDA483860962000027860A6
:1026C000BC60FC603C610C207861BC61FC613C62D8
:1026D0007C62380000F0BEFB002801D000F002FA56
:1026E00002A800210022002300252EC0684606C053
:1026F000CC4DCD486860FA204000A860EC606420B2
:1027000028616C61AC61EC61281D02F009FA0028B7
:1027100001D000F0E7F9029602A9281D02F072FB31
:10272000002801D000F0DEF9009401946946281DCC
:1027300002F05EFC002801D000F0D4F9BB4EBC488A
:10274000306206207062BB48F062B0623000203018
:1027500001F07AFE002801D000F0C4F9D948E864FD
:102760002C65402068657F20A86580208000E86592
:1027700028004C3002F068FC002801D000F0B2F9CB
:10278000281D02F0DCF901222900380000F005FCC8
:102790002A4C00224021200000F0DEFA0122022112
:1027A000200000F0D9FAFEF76BFA80273F010821DC
:1027B000200000F0CBFA002800D09BE09024E40534
:1027C00001221021200000F0C7FA01223900200068
:1027D00000F0C2FAFA20C00000F0DEFA0022390050
:1027E000200000F0B9FAB84800F0D6FAB7A42000EB
:1027F000FDF7A1FEFA25AD00280000F0CDFA20007B
:10280000FDF799FE280000F0C7FAB148FDF793FEE6
:10281000280000F0C1FAAF48FDF78DFE280000F057
:10282000BBFA00216E20FEF757FB052000F0B4FA3A
:102830000A21A94806E000BF141002400004004825
:1028400000240140FEF748FB052000F0A5FA142102
:10285000A800FEF741FB052000F09EFA1E21322061
:10286000FEF73AFB052000F097FA28210120FEF739
:1028700033FB052000F090FA32211920FEF72CFBE3
:10288000052000F089FA3C210520FEF725FB0520F4
:1028900000F082FA46212D20FEF71EFB052000F0F5
:1028A0007BFA50210A20FEF717FB052000F074FA8E
:1028B0005A213C20FEF710FB052000F06DFA642140
:1028C0002320FEF709FB052000F066FA6E210F2099
:1028D000FEF702FB052000F05FFA78210120FEF7E9
:1028E000FBFA052000F058FA01208021705068089A
:1028F00000F052FA0020FEF7FDFA3063B0810520A7
:1029000000F04AFA0A20FEF7F5FAF081052000F0FF
:1029100043FA1420FEF7EEFA3082052000F03CFA6C
:102920001E20FEF7E7FA7082052000F035FA282015
:10293000FEF7E0FAB082052000F02EFA674C322054
:10294000FEF7D8FA01F038FB210001F0E0FBB0639C
:10295000052000F021FA3C20FEF7CCFAF082052099
:1029600000F01AFA4620FEF7C5FA3083052000F081
:1029700013FA5020FEF7BEFA7083052000F00CFA1F
:102980005A20FEF7B7FA01F017FB210001F0BFFB58
:10299000F063052000F000FA6420FEF7ABFA01F0C6
:1029A0000BFB210001F0B3FB3064052000F0F4F9CB
:1029B0006E20FEF79FFAB083052000F0EDF9782035
:1029C000FEF798FA3C214843F083052000F0E4F933
:1029D000FDF722FC052000F0DFF9FDF781FCFDF793
:1029E00067FC9024E40501223900200000F0B4F9CE
:1029F000642000F0D1F900223900200000F0ACF989
:102A0000FEF724F9FFF7A3FAFFF70AFD30002030A4
:102A100001F045FDF4E700BFEC080020F8070020B6
:102A20000038014080080020002C014000000020F8
:102A300000300040FF0F000070B594B0302108A8AE
:102A400002F010F8684600210022002300241EC076
:102A50001EC01A20089001240B940D9410200C9095
:102A60000E900F940226109600251195A020800349
:102A70001290139508A802F00FFB002801D000F077
:102A800031F80720009001960295039501216846D0
:102A900002F0C8FC002801D000F024F80494069548
:102AA00004A802F08FFD002801D000F01BF814B03C
:102AB00070BD0B490968002900D0704780B502F04D
:102AC000D7FA01BD002C00408813000041540000DB
:102AD000E0700008F4700008C40900000000204104
:102AE0008000002072B6FEE7FFB500220F2302939C
:102AF0002DE0052403E0A14CA042FAD103246D4649
:102B00002D78AC403443019D2C609D4CA568DC437E
:102B100025404E68F60200D51D43994EB560F56814
:102B200025404F68BF0200D51D43F56075682540FC
:102B30004F68BF0300D51D43756035682C404D6854
:102B4000ED0302D525001C002C433460521C0B6899
:102B50001C00D44000D18CE0012595402B40F5D0DD
:102B600054000326A640F74301974E68B707BF0FEE
:102B7000012F03D0B607B60F022E0ED18668019F33
:102B80003740CE68A6403E4386604668AE434D68F7
:102B9000EF06FF0F97403743476095006E4675700C
:102BA0000D79AD07AD0F032D26D0C568019E2E40CF
:102BB0008D68A5403543C5600D79AD07AD0F022D79
:102BC0001AD1D508AD0045192E6A03966E4676785F
:102BD0001C2737406E463770039EB446029F6E46F0
:102BE0003678B7406646BE43B4460F696E463678BF
:102BF000B740664637432F6207680325019E3E4073
:102C00004F682F40A740374307604C682E0426408A
:102C10009CD001245B4E366826435A4F3E603E46A8
:102C2000366826400196019E574E9708BF00F61958
:102C30000196019E366803966E4676780C273740DB
:102C40006E463770039EB446029F6E463678B74094
:102C50006646BE439027FF05B84201D100244EE7E7
:102C60004A4FB842FBD04A4CA04200D043E702246E
:102C700045E7FFBDFFB503230293012301930391B1
:102C800000213EE0052703E03C4DA842FAD1029F17
:102C90008D00B4460C262E40B740BC4515D1D64316
:102CA000374A12683240364F3A603A4652683240EC
:102CB0007A603A46D2683240FA603A4692681640E4
:102CC0003A4696601A68A2431A60029B4A009340F3
:102CD000DA43036813400360CB089B00C3181C6AE7
:102CE0000F261C272F40BE40B4431C62C36813400C
:102CF000C3604368009CA343436083681A408260BA
:102D0000491C039ACA4020D0019A8A400092039B32
:102D10001A40F5D01C4B8C08A4001B191E680F2408
:102D20008D000C272F40BC4026409025ED05A84281
:102D300001D10027ACE7154DA84201D1019FA7E7BB
:102D4000134DA842A0D10227A2E7FFBD00690840A9
:102D500000D00120C0B27047002A01D081617047C5
:102D60008162704701000B4A13680B4000D1704725
:102D700080B51160FDF781FB01BD0000000C00482B
:102D800000040140181002400800014000040048FF
:102D9000000800481404014038B5040001F012FE98
:102DA00005000020C043844202D004480078241863
:102DB00001F008FE401BA042FAD331BDDC02002026
:102DC000CA0F00D0494203105A400DD004B500D3B9
:102DD000404200F009F8009AD20701D3494212425A
:102DE00000D5404204BD0000094214D088420FD3F0
:102DF0000122030C01D100041204002300185B41DE
:102E00008B4200D35B1A5241F8D31900100070476F
:102E100001000020704708B502F052FC08BD020016
:102E200000E0521C1378002BFBD10B781370002BA1
:102E300002D0521C491CF8E770470268531C03601B
:102E400011707047431C0178401C0942FBD1C01A25
:102E500070472E0038B5040001D1012032BD250095
:102E600078356868002803D12870200002F093FCB0
:102E70002420686020680168012291430160606A33
:102E8000002802D0200000F0A5FA200000F022FA6D
:102E9000012811D020684168084A0A404260206831
:102EA00081680822914381602068016801220A43F9
:102EB0000260200000F0F4FA32BD0000FFF7FFFFCF
:102EC000F1B584B01F0006465036F06A202861D163
:102ED0000C000FD068460280002A0BD0049880684E
:102EE00080214901884207D104980069002803D154
:102EF000E00701D501204EE0002575632120F06236
:102F000001F060FD01006846008830806846008856
:102F100070803A000498806880235B01984209D150
:102F200004980069002805D12500049F01920291B0
:102F300004001AE02000F8E721780185641C11E004
:102F400001980090029B00228021380000F00CFBC9
:102F500000281BD13868002CEED12988C905C90D7D
:102F60000185AD1C7088401E708070880028E7D1F4
:102F70003800029B019900910022402100F0F4FAF0
:102F8000002803D12020F062002004E02020F0621D
:102F9000032000E0022005B0F0BD70B58023C358C7
:102FA000202B25D100290BD0130009D08368802461
:102FB0006401A34206D10369002B03D1CB0701D5DD
:102FC000012070BD0023036603685B681B020CD5FB
:102FD000EFF31083012484F31088046825688026A9
:102FE000F6042E43266083F3108800F00EFB70BDBC
:102FF000022070BDF8B584B0040020680190C0695B
:1030000021680968019A92680092250058352022AB
:103010000A40029220220240039200264027A84A3A
:1030200002400BD1039A002A0DD0029A002A0AD03E
:103030002969002901D0200088473EE1009AD20783
:1030400002D4A04A0A407AD0C20707D5CA0505D5DE
:103050000122019B1A62EB6A1A43EA62820709D5D0
:10306000009AD20706D5022223681A62EA6A04236C
:103070001343EB620422104208D0009BDB0705D506
:1030800023681A62EA6A02231343EB6208221042A1
:103090000AD0029B002B02D1009BDB0704D52368DA
:1030A0001A62EB6A1A43EA627A01104007D04801BB
:1030B00005D520680262E86A20210143E962E86AD6
:1030C000002832D00398002807D00298002804D0A6
:1030D0002969002901D020008847E86A21688968A9
:1030E000394002D12821014024D0200000F0F2FA1A
:1030F00020688068074019D0EFF31080012181F328
:10310000108821688A6840239A438A6080F3108877
:10311000E86900280AD06C494163E86902F0BDFB08
:10312000002802D0E869416B8847C6E0200002F021
:10313000D8FBC2E0200002F0D4FBEE62BDE0AA683A
:10314000012A00D098E01022104200D0114200D194
:1031500092E0019802621020C0430121C943226815
:10316000926817404BD0EA6913685B689BB2002BEA
:10317000E4D05827E75BBB42E0DA6B809269202AF3
:1031800035D0EFF310820092012282F3108822687A
:1031900013684E4F1F401760009A82F31088EFF3B8
:1031A0001082012383F3108823689F683940996057
:1031B00082F31088EFF31081012282F310882268D5
:1031C00093684027BB43936081F310882021A96254
:1031D000AE60EFF31081012282F310882268136839
:1031E0001840106081F31088E86902F035FB022076
:1031F000E8605820205A6988411A89B238E058227C
:10320000A25A6B88D21A6B461A806A88002A54D058
:103210006A461288002A50D0EFF3108201920122F0
:1032200082F3108822681368294F1F401760019AA3
:1032300082F31088EFF31082012383F31088236850
:103240009F683940996082F310882021A962AE609E
:103250002E61EFF31081012282F310882268136837
:103260001840106081F310880220E86068460188E9
:10327000200002F037FB20E08022104207D00A40F5
:1032800005D06969002918D02000884715E038402A
:1032900013D00F4011D0EFF31080012181F310887B
:1032A00021680A6840239A430A6080F3108820202E
:1032B00068626E61200002F016FB05B0F0BD0000F0
:1032C0000F0800002001000445370008FFFEFFFF43
:1032D000DFFEFFFFF8B5050000260024286801681E
:1032E0009B4A0A40A96811432A690A436969114344
:1032F000EA690A4302604168964A0A40E968114354
:1033000041608168944A0A40A96911432A6A0A43C4
:103310008260924800688007800F05D0022809D09B
:1033200006D3032802D007E0002206E0022204E0D0
:10333000042202E0082200E01022894F89488021FF
:103340000902EB698B4220D1002A06D0022A08D05C
:10335000042A15D0082A16D037E002F002F9002816
:1033600034D0696840004A088018FFF73DFD01002D
:103370001039B94229D207400007400F38431CE0FA
:1033800002F0D2F8EBE70800EBE7002A06D0022AA9
:1033900016D0042A16D0082A04D016E002F0E1F86C
:1033A000010013D06A68500808181100FFF71CFDCF
:1033B00001001039B94208D280B22968C86005E01E
:1033C0000100EFE702F0B0F8EAE70124AE66EE662E
:1033D0002000F2BD2421415C090706D501684A6836
:1033E000B04B1340426B1A434A602421415CC90729
:1033F00006D501684A68AC4B1340826A1A434A609A
:103400002421415C890706D501684A68A74B13400F
:10341000C26A1A434A602421415C490706D5016803
:103420004A68A34B1340026B1A434A602421415C53
:10343000C90606D501688A689E4B1340826B1A4301
:103440008A602421415C890606D501688A68134B8D
:103450001340C26B1A438A602421415C490611D58E
:1034600001684A68974B1340026C1A434A60026C29
:1034700080235B039A4205D14A68934B1340426C08
:103480001A434A602421415C090606D501684A684E
:103490008E4B1340806C184348607047FFDFFFFF7E
:1034A000FEB50600370078370024FC6001F08AFA88
:1034B0000190202530680068000717D584480090E7
:1034C000019B00222904300000F04EF800280DD0A6
:1034D000EFF31080012181F3108831680A6880239E
:1034E0009A430A6080F310887D6026E030680068A7
:1034F000400725D576480090019B002269043000E2
:1035000000F032F800281BD0EFF31080012181F386
:10351000108831680A68874B13400B6080F310886D
:10352000EFF31080012181F3108831688A6801234C
:103530009A438A6080F31088BD603C700320FEBD12
:103540007D60BD60346674663C700020FEBD000086
:10355000F369FFFFFFCFFFFFFFF4FFFF30100240D2
:10356000F0FF000000127A00FEB580273F01082519
:103570000026040001916846027002932068C06929
:10358000019901400198814201D1012000E0002011
:1035900069460978884236D108980021C943884293
:1035A000ECD001F00FFA0299401A0899814201D338
:1035B000002901D10320FEBD206800684007DDD549
:1035C00001988028DAD04028D8D02068C0692840E7
:1035D000206803D1C0693840D0D009E005622000DE
:1035E00000F078F820007830C56006700120FEBD3C
:1035F00020680762200000F06DF82000783020215C
:10360000C1600670D6E70020FEBD70B541650100BF
:1036100058310A804A8000230B618468FF2580228C
:103620005201944204D10469002C06D1424C07E0B7
:10363000002C07D10469002C01D18D8003E07F2488
:103640008C8000E08B80CB6222238B62EFF31083AF
:10365000012484F310880468A56801262E43A6601F
:1036600083F31088836893420DD10269002A0AD13E
:10367000324A0A61EFF31081012282F31088006858
:103680000268202318E02E4A0A6101690029F1D05E
:10369000EFF31081012282F3108800680268902302
:1036A0005B00EFE7FF7FFFFFFFFFFDFFFFFFFEFF78
:1036B000FFFFFBFFFFEFFFFF1343036081F3108861
:1036C000002070BDFFFFEFFFFFFF9FFFFFFFF7FF31
:1036D000FFFFFF0110B5EFF31081012282F3108884
:1036E00002681368134C1C40146081F31088EFF3D8
:1036F0001081012282F31088026893680124A34399
:10370000936081F31088016E01290BD1EFF31081D2
:10371000012282F31088026813681024A343136007
:1037200081F310882021802281500021016681666A
:1037300010BD0000DFFEFFFFFF010000F5370008AD
:103740005937000880B5406A0100523100220A81D1
:103750000A8002F0C6F801BD70B501005831026858
:103760008B6A222B41D1928C8B881340426D13704F
:10377000426D521C42654A88521E4A804A88002A7D
:1037800037D1EFF31082012383F3108803681C689C
:103790003F4D25401D6082F31088EFF31082012316
:1037A00083F3108803689C680125AC439C6082F316
:1037B000108820228A6200220A61CA6003685B685E
:1037C0001B020BD5EFF31083012484F310880468E7
:1037D0002568304E2E40266083F310888B68012BBD
:1037E00000D159E0FEF7F6FD70BD90690821014354
:1037F000916170BD70B50100583102688B6A222B4F
:1038000041D1928C8B881340426D1380426D921C83
:1038100042654A88521E4A804A88002A37D1EFF30F
:103820001082012383F3108803681C68184D25401B
:103830001D6082F31088EFF31082012383F3108858
:1038400003689C680125AC439C6082F310882022A9
:103850008A6200220A61CA6003685B681B020BD59A
:10386000EFF31083012484F3108804682568094E5F
:103870002E40266083F310888B68012B00D10BE06B
:10388000FEF7A8FD70BD906908210143916170BDEC
:10389000DFFEFFFFFFFFFFFB8A60EFF310810122D5
:1038A00082F31088026813681024A343136081F325
:1038B000108801681022CB69134000D00A62582199
:1038C000415A02F00FF870BD012212060118CA42D7
:1038D0000AD28A420DD83822120609098918C20F65
:1038E000D20711434007704700D049080909014336
:1038F00001E0C10FC9070020704743000CB418B5A0
:1039000083B004000A0006A80290019400200090F1
:1039100002AB01A9084878441E3001F0E9FF0021FC
:10392000019A1170002801D40198001B04B001997C
:1039300010BC03B0084700BF03F5FFFFF8B5040053
:103940000025002C01D10120F2BDA06B002805D17B
:10395000E06334216054200001F0C9FE10210122EF
:10396000A06B084003D12068042386681E4000D065
:1039700091E0A66B834F374002263E43A6638668DC
:10398000B607B60F012E06D10646366816400FD18F
:10399000C66836040CD4C6681827BE43A7683743E8
:1039A000C76020680669B600B608676837430761D4
:1039B0002068C668A84F3740C760A06A012801D0B8
:1039C000080200E000202669022E01D1009300E0E9
:1039D0000095A37E267EB603677EFF0337435E0312
:1039E0003E433043E6680643009F37432420205C73
:1039F00040003843E67E012E0CD1002B03D103009A
:103A00000803184306E0A36B20261E43A663E36B5E
:103A10001343E363E369FF26C236B34202D0034394
:103A2000206A18432368DE680643DE60E36A0E06F8
:103A3000B3420DD0012B0BD0022B09D0032B07D0A2
:103A4000042B05D0052B03D0062B01D0072B0CD15E
:103A500023685E690727BE435E6123685E692C2781
:103A6000E75D7F077F0F37435F610223DB432668F3
:103A7000F6687A4F3740874205D1E563A06B034073
:103A80001A43A2630BE0A06B03401943A163E06BF0
:103A90001043E06302E0A06B0143A163012528000D
:103AA000F2BD70B5040001D1012070BDA06B0221F0
:103AB0000143A163200000F0E5F90500002628007D
:103AC00008D1200000F0A8F9050001282FD001201E
:103AD000A06301E0012D2AD0206841689F22914314
:103AE00041609F20216808602068C1685F4A0A40E1
:103AF000C260206801698900890801612068416904
:103B00000722914341612068016A594A0A400262D2
:103B10002068816AC90CC904816256480168564A06
:103B20000A400260200001F00DFEE663A663342027
:103B30002654280070BDF8B5040000250020042696
:103B40002168896831401BD13421615C012917D07B
:103B50002700343701213970617E012904D020000B
:103B600000F00CF901000CD1A16B444A0A40B101EC
:103B70001143A163E5633D701C21226811606FE071
:103B80000220F2BDFFFEFFFFFEB504000D00002085
:103B9000009001266069082801D108270DE02068FF
:103BA000C068304008D0A06B20210143A163009879
:103BB000342160540120FEBD0C2700F003FF01906A
:103BC00020680168394018D10020C0438542F7D0F1
:103BD000002D05D000F0F6FE0199401A8542EFD283
:103BE000206800683840EBD1A06B04210143A16339
:103BF0000098342160540320FEBDA16B72020A4379
:103C0000A2632168C968C02212010A401CD1A17EAA
:103C1000002919D10068000716D520688068400780
:103C20000BD4206840680C21884321684860A06B51
:103C3000134901400E43A66306E0A06B2021014317
:103C4000A163E06B0643E663207E002802D10C20CE
:103C5000216808600020FEBD1902FEFFE7FF3F83D8
:103C600021688A6816438E60F2BD000000023E8320
:103C700000F000F008270140FFFF3FFFFEF1FFFFCB
:103C8000FFFEFFFF0068006C7047F8B504000025D8
:103C9000002600953420205C012801D10220F2BDCD
:103CA00001223423E254206883685B075CD40B68EC
:103CB0009A400092564A4B68564FBB42836A009F17
:103CC00044D01F438762E06A80235B0598421FD07F
:103CD00001281DD002281BD0032819D0042817D092
:103CE000052815D0062813D0072811D020688B6826
:103CF00047697F077F0FBB420AD043690727BB4351
:103D00004361206843690F7A7F077F0F1F43476134
:103D10000868102817D011282BD18020C003136801
:103D2000184310600868102823D16C4800686C495B
:103D3000FFF75AF80A21484300900098002818D04D
:103D40000098401EF8E780200004E8E7BB43836248
:103D50000868102806D011280BD162481168084065
:103D6000106006E06048F9E7A06B20210143A163E1
:103D70000126342025543000F2BD0000F8B50400BF
:103D8000002000902068012182689207920F012A8A
:103D900006D1024612680A4036D1C268120433D4F2
:103DA00010278268514B134006D0A06B0743A763CE
:103DB000E06B0143E16325E082681143816047487D
:103DC00000684749FFF710F801E00098401E009096
:103DD00000980028F9D100F0F5FD012506002068C3
:103DE0000068284010D100F0EDFD801B0328F6D3B9
:103DF000206800682840F2D1A06B0743A763E06BFE
:103E00000543E5630120F2BD0020F2BD0000000083
:103E10000827014001100000F8B5040020680321C4
:103E200082680A40012A2BD10125024612682A40E5
:103E300002D1C268120423D51026826805231340DC
:103E4000012B15D18268022313438360206801602F
:103E500000F0B8FD070020688068284010D000F00E
:103E6000B1FDC01B0328F6D3206880682840F2D03B
:103E7000A06B0643A663E06B0543E5630120F2BD3A
:103E80000020F2BDF8B5040020680427816839409D
:103E900022D010258168394005D08168890702D475
:103EA00081682943816000F08DFD060020688068EC
:103EB000384011D000F086FD801B0328F6D320681F
:103EC00080683840F2D0A06B0543A563E06B012108
:103ED0000143E1630120F2BD0020F2BDE8020020B1
:103EE00040420F00FFFFBFFFFFFF7FFF1700008072
:103EF000FEB5040000200190694608703420205C63
:103F0000012801D10220FEBD012034216054206827
:103F100003258168294001290ED121680968C90754
:103F200002D4C168090407D5A06B20210143A16315
:103F300001206946087037E0A16B1E4A0A40022141
:103F40001143A163C1680D40C16803229143C16060
:103F500020688168802212060A43826000F032FDE8
:103F600007002068802636068168314013D000F0B3
:103F700029FDC01B0328F4D3206880680640F0D0D8
:103F8000A06B0221884310210143A16301983421D1
:103F900060540120FEBDC1680D43C560A06B0221C5
:103FA000884301210143A16301983421605468468C
:103FB0000078FEBDFFFEFFFF9D2102000AD002D463
:103FC000491E9218FCD5C905100A1206524100D3A9
:103FD000012A4841704700009D210200EED552425F
:103FE000F446FFF7EBFF0122D2071043604701229E
:103FF000D20703004B402ED4431A01D2C01AC9186D
:1040000030B44B180418240E1B0E22D0FF2C20D0E5
:10401000E31A182B1DDC09021143C40D641E0002B3
:10402000104394461925ED1A0A00AA40D9404518B4
:1040300001D36D08A41CE405D209280A2D062A43E1
:104040006546AA41604103181B0EFF2B01D3C00D2A
:10405000C00530BC7047514006E05140CCE701221A
:10406000D20703004B40F8D4431A03D2C01AC91830
:104070005040514030B44B18090211430418240E2B
:104080001B0E40D0FF2C3AD025009D410BD31ED8EB
:10409000C50D4002401A0BD3ED050100400AC905C9
:1040A00091416841D5E7C50D40024918401AD0D06A
:1040B00001214008491C0018FCD58C4204D36D1A1C
:1040C000000AED054019C4E7E8051040C1E7182DC6
:1040D000BFDCAC1C0D00E140E5414D40012D4941E4
:1040E000C40D00021043451A01D46D199543641E96
:1040F000E405280A2D069541604130BC7047FF2B2E
:10410000A7D1D843A5E72442A3D10020A1E730B42A
:1041100005004D400122D20715404B180418240E0B
:1041200025D01B0E2CD0FF2C31D0FF2B34D0E41A1D
:10413000000209021043114343084808D10D1B1A1D
:1041400002D2641EDB181B18DB18834200D31B1A33
:104150004941F9D37F3423DDFF2C05DAE405480813
:104160006041284330BC7047FF20C005F9E72800B4
:104170001B0E03D0FF2BF5D14902F3D0D043F1E75A
:10418000FF2C01D14002F9D1FF20C005E9E7400230
:10419000F4D1FF2BF8D1F1E728004902E2D0EDE796
:1041A0000B0200202442DCD15B129B1CD9D9D8051C
:1041B000D7E730B405004D400122D20715404B1817
:1041C0000418240E2ED01B0E32D0FF2C34D0FF2B1F
:1041D0003AD0E4180002090210431143000A090A08
:1041E0009446C2B24A43000AC3B24B43000A484352
:1041F000110A5B181A43D2B2190A091801D44918D6
:10420000641E080A7F3C23DBFE2C08DAE40509065D
:104210001143634699416041284330BC7047FF20F9
:10422000C005F9E728001B0EFF2BF6D1D043F4E7B9
:104230002800FF2CF1D1F9E74002F7D1FF2B01D183
:104240004902F3D1E005E7E7D8054902E4D0EDE7FC
:1042500043020020641CDFD15B129B1CDCD9D80513
:10426000DAE7F0B50E005E400125ED072E40B446BA
:10427000AE0ADF184C18F44208D2F7420ED2640D91
:1042800001D07F0D12D100206146F0BD05D1F7426B
:1042900001D87F0D05D10020C143F0BDFBD1640DD5
:1042A000F9D00020C143490549088FE0E419C9024B
:1042B000DB0229432B43DB0A460DC00231438E4605
:1042C00030B487B295B27D432E0CADB2140C7C4352
:1042D000A419260C240425439CB27C43A419190C70
:1042E0007943270CC919A4B20F043C43090C000CF4
:1042F00097B247432E0CBE193543ADB2170C474356
:10430000360CBF19A6B2BF193E043543240C3E0C2F
:1043100036199FB24743BF19BCB23E0C89191F0C16
:1043200047437F183E043443390C704680B297B23D
:1043300047432E0CBE193543ADB2170C4743360C1C
:10434000BF19A6B2BF193E043543240C3E0C3619E2
:104350009FB24743BF19BCB23E0C89191F0C47439B
:104360007F183E043443390C77463F0C90B27843B3
:104370002E0C80190604ADB22E43050CA0B22D18E8
:10438000120C7A435019020C80B2240CA4189AB271
:104390007A43121914042043120C89181B0C7B4316
:1043A000C91830BCEF0A394203D1B619404149411E
:1043B000641E6F12BF0DE41B0BDBFF19BC4211DA48
:1043C000240500274208AE417841614166463143E9
:1043D000F0BD641C05D1401C6141CF0201D34908E6
:1043E000F4E750E75DE7012252054B18DA4201D9A4
:1043F000581570475B0D0722D2019B1A10D9FF2B6D
:104400001DD2DB050122D2070A4013430903020D26
:104410001143490AC200524100D9491CC8187047CB
:104420000AD1800A0A0302435212921C04D9D3070C
:104430000B40D00518437047C80FC0077047C80F1E
:104440000002FF30C005704770B5040001D10120A3
:1044500070BD2068144901601449016061684160C1
:10446000A168816000F0AEFA072506002068C168E7
:1044700029400AD000F0A6FA801B2828F6D320682D
:10448000C0682840F2D0032070BDE16802698A420A
:1044900001D0016101E006490160002070BD0449BE
:1044A0000068016000207047CCCC0000555500002A
:1044B000AAAA0000F0B40E005E400125ED072E40D0
:1044C000B446AE0ADF184C18F4423BD2F74241D250
:1044D000640D43D07F0D38D0E41BC902DB022943B1
:1044E0002B43CF0ADB0A0600B61A9F4104D2641E92
:1044F000B6197F41B6185F416812800D2418001864
:10450000844222DCE80C0021B6197F41B61A9F4193
:1045100002D2B6185F413F1C40414941F4D3241CEC
:1045200021DD2405B6197F41B61A9F4105D33743D3
:10453000C60737430026012F70416141664631436B
:10454000F0BC7047FCD1F74205D20020C1434905B9
:104550004908F3E704D00020C143F1E77F0DFAD00A
:1045600000206146ECE72442FAD1401C61410F0370
:10457000F6D30020E2E7FEE70CB40122120603188E
:10458000DA4207D84B18DA4204D802000A439218DC
:1045900002D281420CBC7047FCD088420CBC7047F0
:1045A0000CB4012212060318DA4207D84B18DA427B
:1045B00004D802000A43921802D288420CBC704709
:1045C000FCD08142FAE7F0B40125ED070F005F400F
:1045D0004FD48B4200D1824205D9844610006246F6
:1045E0008C4619006346DF184C18640D7F0D3AD0D5
:1045F000661C760537D0E61B352E34DCDB022B43F8
:10460000DB0A0C0DC9022943C912202E0DDB17004D
:10461000203E06D01F00F741F3405F400026012AEC
:104620007741C01871410DD217E01700F741F240F1
:104630005740F3415A40B340F3405A400026801897
:1046400059410AD3A21C52050FD0C207012F724153
:1046500017004008CB0718434908641C240542088A
:10466000AF4170416141F0BC7047641C21050020DE
:10467000F9E76B4010E06B40ABE7F742F3D1E94359
:10468000F1E72442EFD100200021ECE7F0B401254E
:10469000ED070F005F40EED40C00871A9C4105D255
:1046A000C01BA141D219634169406B40AE0ADF18BB
:1046B0004C18F442E1D2640D7F0DE2D0E61B362E99
:1046C000D1DCDB022B43DB0AA4460C0DC9022943D3
:1046D000C90A012E28DC04D1D6075208DF073A4365
:1046E0005B08EF0A76429041994114D039423BD1A0
:1046F000B61940414941761C394204D1761C001854
:1047000049413942FAD0B9436746B74208D9A41B98
:1047100024052143A7E70042EAD13642E8D1A2E7C7
:10472000E40AE10700209EE7202E0BDD203E1F005B
:10473000F340F7415F40012A002257417E429841F1
:1047400091410BE01700F741F2405740F3415A40C6
:10475000B340F3405A407E42904199410A0303D24C
:10476000641EB619404149410027641E24054208D1
:10477000AE4178416141F0BC7047FEE70122D207AB
:104780000118090E7F3910D449421F310FD4001887
:1047900005D2C0011043C84000D5D0437047C001C6
:1047A0001043C84005D44042704700207047004283
:1047B000F3D51000704710B4002A10D00B7804789D
:1047C0009C4206D1002C0AD0401C491C521EF5D137
:1047D00005E002D20020C04302E0012000E00020FA
:1047E00010BC704738B505000AD00C00280002F054
:1047F0003EF82D182878002808D10C49086032BDF1
:104800000A480568002DF0D1002032BD21002800A3
:1048100002F03FF828180178002902D00021017029
:10482000401C02490860280032BD00BF6809002012
:10483000FCB587B00C001500002B01D000211960D9
:104840000390064600E0761C307802F034F8002829
:10485000F9D1300001782D2901D02B2903D16A46E6
:104860001170401C02E02B216A4611700194002D4A
:1048700003D4012D01D0252D04DB002C55D0039845
:10488000206052E0002D0ADD102D16D1017830296C
:1048900013D1417820220A43782A0ED10AE0017808
:1048A000302901D00A2508E0417820220A43782ADD
:1048B00002D11025801C00E00825069000E0401C75
:1048C00001783029FBD0002405902B4A7A44A83285
:1048D00028326B465A700295049F05000494264EB8
:1048E0007E44943608E0049469464978471AFFB23A
:1048F00002984443E4196D1C287801F0E5FF029A00
:1049000001003000283001F0E9FF0028EBD10299C6
:1049100038002F002500049C069ABA4207D101985E
:10492000002802D0039801990860002022E0059A2F
:10493000BA1A735CD21A002A11D405DC281A03D3E0
:10494000FEF752FAA0420AD000BF00BF0898002824
:1049500002D00120089908600025ED4305E0684673
:1049600000782D2801D1684205000198002800D068
:104970000760280009B0F0BD9C31000080B500231D
:10498000FFF756FF02BD80B5FFE70A220021FFF7BF
:10499000F5FF02BD70B50D78002D11D00C0004E0BC
:1049A000491C0E78964207D0401C290001F0A2FF56
:1049B000002805D0010023005B1C1A78002AEFD1E3
:1049C00070BDFEE701484068704700BFDC02002070
:1049D00008B410B585B007AB0493002403940029F4
:1049E00002D10194029402E00190491E02910094C8
:1049F00004AB01A9084878441E3000F079FF019902
:104A0000002900D00C70002800D4039805B001994B
:104A100010BC02B0084700BFDD32000070B51400C2
:104A2000002801D0050000E025680E00280001F0F4
:104A30001EFF2D182878002804D100BF08A0206090
:104A4000002070BD3100280001F023FF28180178F4
:104A5000002902D000210170401C2060280070BD98
:104A60000000FEE7002200BF094202D0491E425466
:104A7000FCD1704780B50648016810220A430260E5
:104A8000032001F041FF00F01DFE002002BD0000E8
:104A90000020024010B5C30018221A40FF249440A1
:104AA000E3438907090E9140020004D41848920894
:104AB0009200801806E0174A0007000F08388008A7
:104AC00080001018026813401943016010BD80B5C2
:104AD000FFF7E0FF01BD010005D40121C006C00EB3
:104AE00081400D480160704710B5401E8021490487
:104AF000884201D3012010BD084C606003210020D2
:104B0000C043FFF7C7FF0020A0600721216010BD50
:104B100000E400E01CED00E000E100E010E000E057
:104B200010B5040001D1012010BD3D20205C0028FB
:104B300004D13C216054200000F015FE20E03D210E
:104B4000415C012901D00120704702213D2281549E
:104B500002680121D3680B43D3600268174B9A4265
:104B600002D0174B9A4205D192685207520F062A7B
:104B700004D0026812681143006801600020704789
:104B800002203D216054211D206800F0A3F901207E
:104B9000462160543E2160543F21605440216054BE
:104BA00041216054422160544321605444216054A7
:104BB000452160543D216054002010BD002C01406F
:104BC0000004004004000E00002069460870012522
:104BD000300006D0042E37D0082E3CD00C2E41D009
:104BE00047E02068C1682E4A0A40C260606A00F04F
:104BF00054FE00223100206800F0ECF920682949B9
:104C0000294A244B984205D0234B984202D0234B8B
:104C1000984209D1036A134006D1036A0B4003D1BD
:104C2000436C224F1F4047642068036A1A4007D133
:104C3000006A014004D120680068A8432168086028
:104C4000002E19D13E2020E02068C168184A0A4091
:104C5000C260A06ACBE72068C168164A0A40C260F9
:104C6000E06AC4E72068C168134A0A40C260206B4A
:104C7000BDE76846057009E0042E01D13F2004E03D
:104C8000082E01D1402000E04120255468460078DC
:104C9000F2BD0000002C01400044014000480140EA
:104CA000FFFDFFFF4404000011110000FF7FFFFF24
:104CB000FFFBFFFFFFF7FFFFFFEFFFFFF8B504006B
:104CC0002068C1680091056900270226354214D08A
:104CD000314012D00221C94301610121217780694D
:104CE000800703D0200001F031FE05E0200001F034
:104CF0002EFE200001F02CFE2777680717D50098BC
:104D0000400714D520680421C943016126778069D2
:104D1000C0218900014003D0200001F017FE05E00A
:104D2000200001F014FE200001F012FE2777082673
:104D3000354216D00098304013D020680821C9436E
:104D4000016104212177C069800703D0200001F0B0
:104D5000FDFD05E0200001F0FAFD200001F0F8FD66
:104D600027771020054217D00099084014D02068FA
:104D70001021C94301612677C069C0218900014023
:104D800003D0200001F0E2FD05E0200001F0DFFD8E
:104D9000200001F0DDFD2777E807C00F0099CA0762
:104DA000D20F104206D00120C043216808612000C4
:104DB000FDF769FB8020054209D00099084006D024
:104DC0008020C04321680861200001F0C2FD40201E
:104DD000054209D00099084006D04020C043216810
:104DE0000861200001F0B6FD2020054009D000999F
:104DF000084006D02020C04321680861200001F04F
:104E0000AAFDF1BDF8B504000026684606703C20F6
:104E1000205C012801D10220F2BD27003C3701258A
:104E20003D7002203D22A05420688268284B134028
:104E30008360086802003FD010283DD020283BD076
:104E4000302839D0402830D0502820D0602825D0B4
:104E5000702806D02B03984235D05B0098420AD0C8
:104E60002FE0CB684A688968206800F0A5F82068C0
:104E70008168772208E0CB684A688968206800F07A
:104E80009BF820688168AA030A4382601BE0CA6815
:104E90004968206800F062F850210EE0CA6849684D
:104EA000206800F06CF8602107E0CA684968206853
:104EB00000F054F8402100E00100206800F074F890
:104EC00001E0684605703D2025543E70FFF7DEFE88
:104ED0008800FFFFF0B502681B4B1C4C1C4D1D4E9B
:104EE000B04201D0A84206D17027BA4317004A68E1
:104EF0003A43B04208D0A84206D0174DA84203D08A
:104F0000A04201D0984203D1264D1540CA682A43D9
:104F10008025AA434D69154305608A68C2620A6804
:104F20008262B04203D0A04201D0984201D1096907
:104F30000163012141610269114003D0016901222D
:104F400091430161F0BD0000004801400044014070
:104F500000040040002C01400020004030B5036AEE
:104F6000046A0125AC4304628469F025AC43120154
:104F7000224382610A2293431943016230BD30B556
:104F8000036A046A1025AC43046284690F4D25400E
:104F900012032A438261A02293430901194301624B
:104FA00030BD0000FFFCFFFF826870239A4311436D
:104FB00007220A438260704730B58468044D25405B
:104FC00029430A4319021143816030BDFF0FFFFFDF
:104FD000FF00FFFF10B5C906C90E036A01248C400B
:104FE000A3430362036A8A401A43026210BDFEE7CC
:104FF000F0B53C22825C012A01D10220F0BD020002
:105000003C320123137002243D25445505686E6827
:10501000AC687027BE430F6837436F600568084E61
:10502000B54202D0074EB54204D18026B443496848
:105030002143A9603D21435400201070F0BD0000C1
:10504000002C01400004004010B5040001D10120F3
:1050500010BD00F0D8FB2068E16880220A4302609E
:10506000216962680A43A16811434160002010BDB4
:10507000C168006801600020704701684A689205B5
:1050800000D4704780B58A68D20704D50122D24384
:105090008A60FDF70EFD01BDFEB5040019D0AD4DCF
:1050A0002078C00717D58027BF0268680C2101400F
:1050B000042909D068680C210140082941D1686899
:1050C0007908084088423CD12868074003D06068CE
:1050D000002800D19BE1207880071AD5F827FF43EC
:1050E00068680C21014007D068680C21014008293C
:1050F0005BD16868C00358D42868800703D5E0688E
:10510000012800D083E1286807402069C0003843A7
:1051100028602078000779D50227E0690028686AAE
:1051200065D0012101436962FFF74CFC0600686A03
:1051300038406BD1FFF746FC801B0228F7D90320CB
:10514000FEBD60687B0801280BD0B349B34A002834
:1051500001D1286809E00528286806D1C943014320
:105160002960286803432B6004E002402A60286815
:1051700001402960606800280BD0FFF723FC06007F
:1051800028683840A7D1FFF71DFC801B6528F7D39E
:10519000D5E7FFF717FC0600286838409BD0FFF7DB
:1051A00011FC801B6528F7D3C9E7E0680028286850
:1051B0000ED0012101432960FFF704FC0600286896
:1051C0008007A0D4FFF7FEFB801B0228F7D9B6E7C3
:1051D000012188432860FFF7F5FB06002868800757
:1051E00097D5FFF7EFFB801B0228F7D9A7E701212E
:1051F00088436862FFF7E6FB0600686A384005D01E
:10520000FFF7E0FB801B0228F7D998E70427206806
:10521000384062D000200190B806E969014008D109
:10522000E9690143E961E9690840009000980120BB
:1052300001907B480068C00512D479480068A90D28
:10524000014377480160FFF7BDFB06007448006822
:10525000C00505D4FFF7B6FB801B6528F6D36EE7C3
:10526000A068012808D0002801D1286A09E0052893
:10527000286A06D138432862286A0121014329623D
:1052800005E0012188432862286AB8432862A448BF
:105290000090A06800280CD0FFF794FB0600286A55
:1052A000800713D4FFF78EFB801B00998842F6D34A
:1052B00045E7FFF787FB0600286A800706D5FFF75A
:1052C00081FB801B00998842F6D338E701980028BB
:1052D00003D0E86993490140E9612078C0061DD5F3
:1052E0006069F826F643012836D1686B07436F637F
:1052F000686B012101436963FFF764FB0700686B7A
:10530000800705D4FFF75EFBC01B0228F7D916E71C
:10531000686B0640A069C00030436863206A0028BB
:1053200077D069680C220A40082A5BD08027BF0426
:1053300091490228286847D101402960FFF742FBC4
:1053400006002868384021D0FFF73CFB801B02286C
:10535000F7D9F4E6001002400421C9438842686B83
:1053600002D101406963D3E707436F63686B012192
:1053700088436863FFF726FB0600686B8007CDD57E
:10538000FFF720FB801B0228F7D9D8E6E86A0F2137
:105390008843E16A0143E962686878490140A06A8C
:1053A0000843616A014369602868790801432960FC
:1053B000FFF708FB0400286838402AD1FFF702FBFA
:1053C000001B0228F7D9BAE601402960FFF7FAFA74
:1053D0000400286838401CD0FFF7F4FA001B0228AC
:1053E000F7D9ACE6012812D06868E96A8022520237
:1053F0000240636A9A420AD10907090FE26A9142A0
:1054000005D1F02189030140A06A814201D0012029
:10541000FEBD0020FEBD0000FFFFFBFFFFFFFEFF03
:1054200000700040F8B5040060D000915448006856
:10543000C107C90F009881420CD25148016801226E
:105440009143009A0A4302600068C107C90F00989F
:1054500081424BD121684B4D022001420CD04907BB
:1054600004D56968E022D2000A436A606968F022C4
:105470009143A2680A436A6001272168394025D018
:105480006168012902D12868800303E0022903D161
:105490002868800103D429E02A68104026D0686873
:1054A0000322904301436960FFF78CFA06006868A5
:1054B0000C21014060688000814207D0FFF782FA2A
:1054C000801B17498842F2D30320F2BD2C48009973
:1054D00002683A4091420BD20168B943009A0A43EC
:1054E0000260006807400098874201D00120F2BDA9
:1054F0002078400705D5686823490140E0680843E3
:10550000686000F011F821496A681206120F895C80
:10551000C8401F490860032001F0F6F90020F2BDE1
:1055200089130000FFFFFFEF1A4A13681A480C2185
:105530001940082900D0704730B50F2119A49D0CDF
:105540000D40645D926ADB0307D500BF19A31140CB
:10555000595CFDF749FC604330BD20000F494843CA
:1055600030BD0B4800680E490A4A12685205520FB6
:10557000895CC84070470000FFFFFFFEFFFFC2FFCD
:105580000020024000100240FFF8FFFF147D0008D9
:10559000E80200200410024000127A0000093D00D9
:1055A000347D000802030405060708090A0B0C0DE8
:1055B0000E0F10100102030405060708090A0B0C60
:1055C0000D0E0F10F8B50400374D2068C00356D5F6
:1055D00000200090802040052968014008D12968FA
:1055E000014329602968084000900098012000903C
:1055F0002E4F3868C00510D43868A90D01433960B2
:10560000FFF7E0F906003868C00506D4FFF7DAF9BD
:10561000801B6528F7D30320F2BDC0208000696895
:105620000140234F00291ED06268104081421AD0E9
:10563000686838406968802252020A436A60696873
:105640001C4A0A406A606860C0070CD5FFF7BAF9C7
:1056500006006868800706D4FFF7B4F9801B164976
:105660008842F6D3D7E768680740606838436860C7
:105670000098002803D0286810490140296020784C
:10568000C00705D5686903218843A16801436961A2
:105690002078800605D5686910218843E1680143B8
:1056A00069610020F2BD00001C1002400070004043
:1056B000FFFCFFFFFFFFFEFF89130000FFFFFFEF6E
:1056C0007047FEE781B001205B490A6802430A6027
:1056D0000A68104000900098802040054A68024304
:1056E0004A60496808400090009801B0704710B5C2
:1056F00086B004001421002201A8FFF7B5F9206844
:105700004E4988421CD14E48410D42680A434260CE
:1057100042681140009100998021890202680A4381
:105720000260006801400091009801200190032070
:1057300002900020039001A99020C005FDF7D4F944
:1057400006B010BD00683D49884200D0704780B562
:10575000394801683B4A0A40026001219020C00597
:10576000FDF788FA01BD00683749884200D07047CC
:1057700080B5C80C30490A6802430A6009680840CD
:1057800000900098002200210D20FFF7A0F90D20C5
:10579000FFF7A1F901BD10B586B004001421002265
:1057A00001A8FFF761F920682849884229D12448D7
:1057B0008021C90142680A43426042681140009159
:1057C00000998021890202680A4302600068014052
:1057D000009100980C20019002200290002003907C
:1057E000032004900120059001A99020C005FDF739
:1057F0007BF9002200211B20FFF769F91B20FFF72E
:105800006AF906B010BD00681149884200D070479F
:1058100080B5C80C0F490A6802430A60096808404D
:1058200000900098002200210020FFF750F900208E
:10583000FFF751F901BD000018100240002401409B
:1058400014100240FFFDFFFF002C01400038014012
:10585000002C00401C10024010B500212122825C67
:10586000022A05D00422826320228154012010BD27
:10587000026813680E24A3431360026813680124AE
:10588000A34313600122036C9C40C36B5C60212323
:10589000C25420228154002010BD70B50021002484
:1058A00001222123C35C022B03D004218163012444
:1058B00015E003681D680E26B5431D6003681D686A
:1058C00095431D60036C01259D40C36B5D602123E2
:1058D000C25420228154416B002900D08847200007
:1058E00070BD704770477047010020200843704723
:1058F000FDB5B2B03A98049102A93B228854002029
:105900000D9027A8401C31900DE00498329A9047E2
:105910000490002801D100F0D3FE0D98401C0D909A
:105920003398401C33903398017800290FD02529F3
:10593000EBD100200790089009900A900B900C90F2
:1059400002250121149108211291339C05E00D9844
:1059500000F0B8FE010014980843641C2178202947
:10596000F8D023290BD02B2904D02D2904D030299D
:1059700008D00AE02843F0E701000420ECE701002A
:105980000820E9E701001020E6E72A290FD1349921
:105990000A681168121D349B1A600F91002904D502
:1059A0004A420F92010004200843641C12E00021C7
:1059B0000F91644B09E00F99994205DA8E00711836
:1059C0004900891830390F91641C22781100303950
:1059D0000A29F0D321782E2903D00021C9430E9142
:1059E00026E0641C21782A2908D134990A681168B4
:1059F000121D349B1A600E91641C19E02D2901D1EF
:105A0000641C00E0002100220E920CE0002909D164
:105A10000E9A4C4EB24205DA9600B2185200D218D5
:105A2000303A0E92641C23781A00303A0A2AEDD3D9
:105A300002A908872678310040487844FF30401E8C
:105A400000F058FF002801D0641C00E0002602A8E6
:105A50003A214654682E04D1207868280BD1622060
:105A600005E06C2E07D120786C2804D1712002A9A2
:105A70003A228854641C18A8069020786946087059
:105A8000601C3390684604782000253833D01C38D9
:105A900000D1CDE1001F022800D8C9E1133801D19F
:105AA00000F036FD093800D1C2E1801E01D100F0BE
:105AB000CCFD401E01D100F079FD401E022800D827
:105AC000B6E1001F01D100F071FD401F00D109E1D6
:105AD000401E01D100F01CFD401E00D1F1E0C01EAF
