:020000040800F2
:100000007809002041550008195400081B540008C5
:1000100000000000000000000000000000000000E0
:100020000000000000000000000000001D54000857
:1000300000000000000000001F54000821540008C8
:10004000DB2A0008000000006B310008BF400008F8
:100050008F420008E7420008FF42000829540008C8
:1000600000000000534800081F5300080355000813
:100070000F550008335400085955000800000000CF
:100080005B55000800000000000000005D550008FE
:10009000000000005F550008615500086355000826
:1000A00000000000655500080000000067550008CA
:1000B000FA21490141430800411E0028FBD1704745
:1000C000C0000100481E0029FBD1704710B586B062
:1000D000802080028C490A6802430A600A68024054
:1000E0000092009A0A6802430A600A68024000927D
:1000F000009A0A6802430A600A6802400092009A65
:100100000A6802430A6009680840009000980120CC
:1001100002900390032004908020C000019090245E
:10012000E40501A9200001F021FB8020800001905E
:1001300001A9200001F01AFB80200001019001A913
:10014000200001F013FB80204000019001A9200055
:1001500001F00CFB06B010BD10B5074C2068074934
:1001600001402160322001F0EDFB20688021490030
:100170000143216010BD000014000048FFFEFFFF96
:10018000F0B5624A1368624C1C401460614BDC435A
:100190000029116801D0214300E01940116061007D
:1001A00015680D43156007255B4E176837401760CB
:1001B0000700EF40FF07176801D5274300E01F4005
:1001C000176017680F4317606D1EEED51068064064
:1001D00016601068890801431160F0BD70B5040015
:1001E0000D000F2600210F222A40B0201043FFF7F8
:1001F000C7FF002126403000FFF7C2FF0021600644
:10020000420F10201043FFF7BBFF444804704570B5
:1002100070BD000080B5FFF759FF3C48016880229F
:1002200012010A4302600168802292000A430260C0
:100230000168802252000A4302600168354A0A4080
:100240000260FFF789FF0021E220FFF799FF0A20F3
:1002500001F078FB0021A420FFF792FF0021A620E7
:10026000FFF78EFF00212F20FFF78AFF0A2001F001
:1002700069FB00212F20FFF783FF0021AF20FFF74C
:100280007FFF01BD30B5CB084907490F244CC5009D
:1002900028182018C45C01258D40002A02D025436F
:1002A000C55430BDAC43C45430BD70B500210020EE
:1002B000FFF794FF00241A4E002501213019EAB2FD
:1002C000D3009A18805CFFF75BFF6D1CE8B26028D2
:1002D000F3DB641C092CEFDB70BD70B5002100203E
:1002E000FFF77CFF002000210D4A00235418DDB2E7
:1002F000EE00751960555B1CDCB2602CF6DB491C06
:100300000929F2DB70BD00001410024014000048FF
:10031000FFFDFFFFFFFBFFFFFFF7FFFF740500205E
:10032000F40000200EB4FFB50700002001E00198A2
:10033000401C019001980AA94988884238D20AA92C
:100340000979484302900C980299405C00260024E9
:1003500000256946898C019A89186A461170694698
:10036000487001E0012211E06846008D8542DED22E
:100370007819694649788C46012307216A07520F8C
:10038000891A8B4061461942ECD0002269460978EF
:10039000C0B2FFF777FF641C082C07D30024761C3B
:1003A0000C9802998919405C694648706D1CDBE71E
:1003B00004B00498F0BC04B0004708B4FFB50600D0
:1003C00024206844007802903018401E602834DAF7
:1003D0006846418009A840780190684640880199A4
:1003E0004018401E442828DA00276846427000E082
:1003F0007F1C0198874220DA0B986946497820399A
:10040000019A5143C919455C002468464088C019C7
:100410006946087001E0002207E002988442E7DAAA
:1004200030190A992940F6D0012269460978C0B2EC
:10043000FFF728FF6D00641CEFE7FFE704B00498A6
:10044000F0BC02B0004708B4FFB5002504006846C0
:100450000181170012E009A881B069460CC80CC1DF
:1004600002680A6008BC320068460189A0B2FFF742
:10047000A4FF24206844007824186D1CE8B23E5C78
:10048000002EE8D1DAE710B51C00029B401A1B1BB6
:100490005843511A01F06AFA001910BD80B5402185
:1004A000A64801F029FA012801D1BA49086001BD26
:1004B00081B00100481E002908D000210091009958
:1004C0000C29F6DA00BF0099491CF7E701B0704724
:1004D0001CB500210091B04BDC22FFF7D4FFAD49E1
:1004E0000A68012A11D100220A60FFF7E1FF934C4C
:1004F00001228021200001F005FA0A20FFF7D8FF31
:1005000000228021200001F0FDF913BDF0B587B075
:10051000B44C0020A0616062A0896061874E802792
:100520003F029020C0050190E089A16988421ADB52
:100530006069FFF7CDFF3900019801F0DDF900286F
:1005400011D00821300001F0D7F900280BD010217C
:10055000300001F0D1F9002805D02021300001F051
:10056000CBF90028DDD1DC20A189401A0090208A37
:10057000009901F0FBF960630025A56100982063F4
:10058000A069616B884203DB6069401C6061A56102
:100590006069FFF79DFF6069DC2818DA390001986F
:1005A00001F0AAF9002837D00821300001F0A4F9A1
:1005B000002831D01021300001F09EF900282BD006
:1005C0002021300001F098F90028D9D124E0012041
:1005D000E061A56101228021300001F093F9626998
:1005E000BA4902A801F010FA81B068460ECC0EC0DC
:1005F0000C3C08BC02AA00210020FFF724FF81B0B8
:1006000068460ECC0EC008BCB34A0A210020FFF792
:100610001AFFFFF74AFE07E000228021300001F0B8
:1006200071F90120E061A56107B0F0BD70B58AB035
:10063000002002A90860486088600024012003901F
:100640000490A34D280001F072FB002801D001F0B6
:1006500077F8644EF463B4636424280001F0A7FAC9
:100660006421280001F0EAFA280001F05DFBB16B7B
:100670000818B063280001F0C1FA012001F062F906
:10068000641EEAD1B06B642101F084F9B06301F01B
:1006900081FC92A20CCA01F097FC01F0F6FC01F07B
:1006A00025FD02000B0000BF08A105A801F0ACF970
:1006B00081B068460ECE0EC008BC05AA14210020E9
:1006C000FFF7C1FEFFF7F1FD0AB070BD43553A25B3
:1006D0002E3266202020200038B59024E4058021A9
:1006E0000902200001F008F9002812D0134D08215A
:1006F000280001F001F900280BD01021280001F09A
:10070000FBF8002805D02021280001F0F5F800288A
:1007100007D101203349886201220103200001F042
:10072000F1F831BD80B52F48C069002801D1FFF72D
:10073000EDFEFFF77BFFFFF7CFFF01BD0004004890
:1007400070B586B08020800262490A6802430A6060
:100750000A6802400092009A0A6802430A60096827
:100760000840009000980120019011240294002577
:100770000495AE4E01A9300000F0F8FF0220019070
:100780000294049501A9300000F0F0FF06B070BD9E
:10079000000000006C050020FC08000010B5FA20E5
:1007A0008000FFF78DFCA24C2068012101432160ED
:1007B0006420FFF785FC206802210143216064204A
:1007C000FFF77EFC20680121884320606420FFF74A
:1007D00077FC20680221884320606420FFF770FCCA
:1007E00010BD00000000002010B56420FFF768FC79
:1007F0008F4C20680221884320606420FFF760FC52
:1008000020680121884320606420FFF759FC20689C
:100810000221014321606420FFF752FC206801217E
:1008200001432160FA208000FFF74AFC10BDF2B5B9
:1008300082B000219A4C626802239A43626080254C
:1008400008266A46107001910227FF436846007827
:10085000290001400029606803DD01210143616036
:1008600002E00121884360606420FFF729FC606892
:100870000221014361606420FFF722FC6068384078
:1008800060602068C00703D50198290001430191E9
:100890006D08761EDAD1019D6846007A61680122F2
:1008A0009143616001280CD16068022101436160BD
:1008B0006420FFF705FC6068074067606420FFF76D
:1008C000FFFB6420FFF7FCFBE8B2FEBD4417000805
:1008D0002C0500201410024054170008F0F7E8D946
:1008E000CABB514038B504000D00FFF757FF012186
:1008F000200A4200A0201043C0B2FFF798FF012158
:10090000E0B2FFF794FF01212800FFF790FFFFF707
:100910006BFF0F20FFF7CCFB002032BDFEB500249B
:100920006E46070000203055380A45003555FFF760
:1009300035FF0121A0202843C0B2FFF778FF012135
:10094000F8B2FFF774FFFFF729FF0121A120284328
:10095000C0B2FFF76CFF0021FF20FFF768FF3055A2
:10096000FFF742FF0120FFF7A3FB002C05D0305D0D
:100970003119491E0978814203D0641C092CD1DB4E
:1009800000E0FEBD3078FEBD38B504000D00E1B2D8
:100990002800FFF7A7FF210A6D1CA8B2FFF7A2FFEE
:1009A000002032BD38B50400601C80B2FFF7B6FFEE
:1009B00005022000FFF7B2FF281832BD18B587B036
:1009C0008E4CA0896061FFF788FC8D4882B0694633
:1009D0000CC80CC102680A600CBC00210020FFF7A3
:1009E000A1FCFFF762FC6269864902A801F00CF8DD
:1009F00081B068460ECC0EC00C3C08BC02AA002197
:100A00000020FFF720FD81B068460ECC0EC008BC68
:100A1000D94A0A210020FFF716FDFFF746FCFA200D
:100A2000400000F08FFF08B010BD00000004004837
:100A3000140400481CB5FFF750FC734C82B06846A4
:100A40000ECC0EC00C3C0CBC00212820FFF76AFC29
:100A50006E4882B069460CC80CC102680A600CBCC2
:100A600032212820FFF75EFCC44882B069460CC8DA
:100A70000CC102680A600CBC00210020FFF752FC88
:100A8000FFF713FCFA20400000F05CFF01206061DA
:100A90001021BB4800F030FF0028F9D013BD000042
:100AA00010040048FEB5FFF718FCB64882B069464E
:100AB0000CC80CC102680A600CBC00210520FFF7BD
:100AC00031FCB14882B069460CC80CC102680A60AA
:100AD0000CBC1E210520FFF725FC4B4D82B068465B
:100AE0000ECD0EC00C3D0CBC19214620FFF71AFCA0
:100AF000464882B069460CC80CC102680A600CBC4A
:100B00002D214620FFF70EFC3C4CA28940A1280075
:100B1000183000F079FF81B068460ECC0EC00C3C56
:100B200008BC2A00183224211420FFF78CFCFFF7A0
:100B3000BCFBFA20400000F005FF00206861904EE9
:100B40000127F9039020C00500F0D6FE002806D149
:100B5000A089401DA0816F61FA2000F0F3FE0821FA
:100B6000300000F0C9FE002806D1A089401FA081F6
:100B70006F61FA2000F0E6FE6869012815D10020B7
:100B80006861A28922A12800183000F03DFF81B0E1
:100B900068460ECC0EC00C3C08BC2A00183224213A
:100BA0001420FFF750FCFFF780FB1021300000F00D
:100BB000A3FE002806D02021300000F09DFE002872
:100BC000BFD117E0FFF789FBCA4882B069460CC85D
:100BD0000CC102680A600CBC1E210720FFF7A2FBB3
:100BE000FFF763FB0021A089FFF7CEFEFA2080000B
:100BF00000F0A8FEFFF71EFFF7BD00000000002078
:100C00006C000020441700084000002078000020FD
:100C10002564562000000000FEB5FFF75EFBB648D5
:100C200082B069460CC80CC102680A600CBC002185
:100C30000520FFF777FB544882B069460CC80CC109
:100C400002680A600CBC1E210520FFF76BFBAB4D50
:100C500082B068460ECD0EC00C3D0CBC192146205A
:100C6000FFF760FBA64882B069460CC80CC1026859
:100C70000A600CBC2D214620FFF754FBA14CE289F1
:100C8000A1492800183000F0BFFE81B068460ECCA4
:100C90000EC00C3C08BC2A00183224210F20FFF79C
:100CA000D2FBFFF702FBFA20400000F04BFE0020D1
:100CB0006861334E0127F9039020C00500F01CFE47
:100CC000002806D1E0896430E0816F61C82000F01F
:100CD00039FE0821300000F00FFE002806D1E0891F
:100CE0006438E0816F61C82000F02CFEE089642840
:100CF00001DA6420E0816869012816D1002068616A
:100D0000E28900BF83A12800183000F07DFE81B089
:100D100068460ECC0EC00C3C08BC2A0018322421B8
:100D20000F20FFF790FBFFF7C0FA1021300000F012
:100D3000E3FD002806D02021300000F0DDFD002872
:100D4000B9D115E0FFF7C9FA6A4882B069460CC804
:100D50000CC102680A600CBC1E210720FFF7E2FAF2
:100D6000FFF7A3FA0A21E089FFF70EFE6420D5E021
:100D7000FFF760FEF7BD0000601700089C00002030
:100D800000040048A8000020C0000020FEB5FFF7C6
:100D9000A4FA5E4882B069460CC80CC102680A60B9
:100DA0000CBC00210520FFF7BDFA594882B0694606
:100DB0000CC80CC102680A600CBC1E210520FFF79C
:100DC000B1FA4E4D82B068460ECD0EC00C3D0CBC43
:100DD00019214620FFF7A6FA494882B069460CC897
:100DE0000CC102680A600CBC2D214620FFF79AFA5C
:100DF000444C228A47A12800183000F005FE81B03B
:100E000068460ECC0EC00C3C08BC2A0018322421C7
:100E10000F20FFF718FBFFF748FAFA2000F092FDC9
:100E200000206861BE4E0127F9039020C00500F044
:100E300063FD002806D1208A643020826F61C820BB
:100E400000F080FD0821300000F056FD002806D19A
:100E5000208A643820826F61C82000F073FD208AE8
:100E6000642801DA642020826869012815D10020F5
:100E70006861228A27A12800183000F0C5FD81B0E2
:100E800068460ECC0EC00C3C08BC2A001832242147
:100E90000F20FFF7D8FAFFF708FA1021300000F012
:100EA0002BFD002806D02021300000F025FD002871
:100EB000BAD116E0FFF711FA0E4882B069460CC8A5
:100EC0000CC102680A600CBC1E210720FFF72AFA39
:100ED000FFF7EBF91421208AFFF756FDFA20800076
:100EE0001CE0FFF7A7FD2021300000F005FD0028E1
:100EF000F9D0F7BDCC000020B40000204000002055
:100F00007800002000000020140F0008D800002006
:100F1000C000002025646D732000000000F012FD69
:100F2000FFF788FD1021300000F0E6FC0028F9D022
:100F3000F7BDF8B5FFF7D1F97A4C82B068460ECC10
:100F40000EC00C3C0CBC00212820FFF7EBF97648C2
:100F500082B069460CC80CC102680A600CBC322120
:100F60002820FFF7DFF9714882B069460CC80CC130
:100F700002680A600CBC00210020FFF7D3F96C481E
:100F800082B069460CC80CC102680A600CBC1C2106
:100F90000520FFF7C7F9FFF788F9FA20400000F0B5
:100FA000D1FC012020610020606110215C4800F02C
:100FB000A3FC0028F9D00125E9039020C00500F02A
:100FC0009BFC002806D12069401C20616561FA2045
:100FD00000F0B8FC0821524800F08EFC002806D131
:100FE0002069401E20616561FA2000F0ABFC0026FC
:100FF0004D4F20214A4800F07FFC002851D0206945
:10100000032800DC80E0032020616069012832D1E0
:101010006661FFF762F982B068460ECC0EC00C3CE8
:101020000CBC00212820FFF77DF982B068460ECF66
:101030000EC00CBC32212820FFF774F93B4882B067
:1010400069460CC80CC102680A600CBC0021002073
:10105000FFF768F9206901285AD1354882B06946FE
:101060000CC80CC102680A600CBC1C210520FFF7EB
:1010700059F9FFF71AF91021294800F03DFC002822
:1010800099D12069012801D1FFF70CFD20690228C0
:1010900001D1FFF7C1FD206903288CD1FFF776FE4F
:1010A00089E7FFF71AF982B068460ECC0EC00C3CF7
:1010B0000CBC00212820FFF735F982B068460ECF1E
:1010C0000EC00CBC32212820FFF72CF9924882B0C8
:1010D00069460CC80CC102680A600CBC1C211220B5
:1010E000FFF720F9FFF7E1F8FA20400000F02AFCB2
:1010F00025616661FA2000F025FC2021084800F0F7
:10110000FBFB0028F9D0F1BD002800DC25617CE75D
:10111000022801D18148A1E70328AAD180489DE790
:101120000004004840000020780000209C000020BF
:10113000A8000020F8B57B4F1021380000F0DCFB40
:10114000002800D0A7E000228021380000F0DAFB60
:10115000754C0125E560322000F0F4FBFFF7BDF887
:1011600082B068460ECC0EC00C3C0CBC002128207E
:10117000FFF7D8F86D4882B069460CC80CC1026808
:101180000A600CBC32212820FFF7CCF8624882B0FC
:1011900069460CC80CC102680A600CBC1C211220F4
:1011A000FFF7C0F8FFF781F8FA20400000F0CAFB13
:1011B0002561002060611021380000F09DFB0028AF
:1011C000F9D0FA267600E9039020C00500F094FBE0
:1011D000002806D12069401C20616561300000F0C4
:1011E000B1FB0821380000F087FB002806D12069F8
:1011F000401E20616561300000F0A4FB2021380012
:1012000000F07AFB00283ED02069022844DD02204D
:101210002061606901282AD100206061FFF75DF834
:1012200082B068460ECC0EC00C3C0CBC00212820BD
:10123000FFF778F83D4882B069460CC80CC10268D7
:101240000A600CBC32212820FFF76CF820690128C5
:1012500026D1314882B069460CC80CC102680A60C8
:101260000CBC1C211220FFF75DF8FFF71EF81021BF
:10127000380000F041FB0028A3D120690128A0D14B
:10128000FFF757FE9DE7FFF799FB2021380000F09C
:1012900033FB0028F9D0F1BD0028BADC2561B8E79E
:1012A0000228E2D1224882B069460CC80CC102680B
:1012B0000A600CBC1C210E20D5E700681D4988423D
:1012C00000D0704780B51C48C169002902D18169EE
:1012D000491C8161016A491C0162FA229200914213
:1012E00019DB00210162826A012A06D10E4BDB68FC
:1012F000002B02D1C36A5B1CC362C36A782B0ADB72
:10130000012A08D18162C162002280214901902016
:10131000C00500F0F7FA01BD84000020B4000020F1
:10132000D800002000040048400000207800002081
:1013300090000020002C014000000020F8B58CB087
:1013400000F0F2FE00F0BCF914210022684600F023
:10135000FBFE8020C003D1490A6802430A600A6884
:10136000104005900598802080020A6802430A60B8
:101370000A681040059005988020C0020A68024360
:101380000A600968084005900598C54F002283212E
:10139000380000F0B7FA0022F02109019020C005C2
:1013A00000F0B0FA012211039020C00500F0AAFA63
:1013B000032000901120019001260296002403943E
:1013C0006946380000F0D2F9F820400100900196FB
:1013D0000294039469469020C00500F0C7F9F00319
:1013E00000900194029469469020C00500F0BEF977
:1013F00038200090019402946946380000F0B6F954
:1014000040200090882040030190029469463800F3
:1014100000F0ACF980200090019602940394694694
:10142000380000F0A3F900220121072000F0AFFEF0
:10143000072000F0B0FE69460C604C608C60994D4E
:10144000994828606C60AC60EC602E610420686193
:101450002C83AE76EC76FF20C230E8612C6224212A
:101460006C54AE62280000F0EFFA002801D000F0C2
:1014700067F900943003019002966946280000F055
:1014800056FC002801D000F05BF9884D88482860A0
:10149000962000026860AC60EC602C610C206861F2
:1014A000AC61EC612C626C62280000F099FE0028AF
:1014B00001D000F045F91021002202A800F044FEFE
:1014C00069460C604C6088357A482860FA204000F4
:1014D0006860AC606420E8602C616C61AC612800DD
:1014E00001F094F8002801D000F02AF936030296A2
:1014F00002A9280001F0FCF9002801D000F020F931
:10150000009401946946280001F0E8FA002801D00F
:1015100000F016F9280001F088F800228021380038
:1015200000F0F0F9012231009020C00500F0EAF946
:10153000FFF706F9604D0020FFF734FAA8810A2072
:1015400000F000FA0A20FFF72DFAE8810A2000F0E7
:10155000F9F91420FFF726FA28820A2000F0F2F9A0
:10156000FEF758FEC82000F0EDF9FEF7B6FE53482E
:1015700082B069460CC80CC102680A600CBC00212C
:101580000020FEF7CFFEFEF790FE00BF6DA6AA89F1
:10159000310002A800F038FA81B068460ECD0EC0C6
:1015A0000C3D08BC02AA00210020FEF74CFF81B0D0
:1015B00068460ECD0EC00C3D08BC00BF68A20A21D3
:1015C0000020FEF740FFFEF770FEFFF7ABF8FFF7D5
:1015D000B1FD802109029020C00500F08DF900289E
:1015E0001AD16869401CDC2800DDDC2068610A2013
:1015F00000F0A8F96A69310007A800F005FA81B087
:1016000068460ECD0EC00C3D08BC07AA0021002084
:10161000FEF719FFFEF749FE0821380000F06CF9CB
:1016200000281AD16869401E1E2800DA1E20686151
:101630000A2000F087F96A69310007A800F0E4F990
:1016400081B068460ECD0EC00C3D08BC07AA002133
:101650000020FEF7F8FEFEF728FE2021380000F0FB
:101660004BF90028B1D181B068460ECD0EC00C3DBB
:1016700008BC00BF37A20A210020FEF7E4FE0022CA
:101680008021380000F03EF9FEF70FFEEC6150209B
:101690006861FA20C00000F055F996E71410024086
:1016A000000400482C050020002401405C040020B8
:1016B00000380140002C0140000000206C00002098
:1016C00070B594B03021002208A800F03DFD102133
:1016D0000022684600F038FD1021002204A800F026
:1016E00033FD1220089001240B940D9410200C90CF
:1016F0000E900226109600251195A02080031290CE
:10170000139508A801F016FA002801D000F018F887
:10171000072000900196029503950121684601F08B
:10172000CFFB002801D000F00BF80494069504A824
:1017300001F096FC002801D000F002F814B070BD52
:1017400072B6FEE7566F6C746167653A2564562081
:101750000000000052657365742050756D700000C4
:10176000536F66742053746172740000FFB50022D9
:101770000F2302932DE0052403E06B4CA042FAD125
:1017800003246D462D78AC403443019D2C60674C9A
:10179000A568DC4325404E68F60200D51D43634E24
:1017A000B560F56825404F68BF0200D51D43F56060
:1017B000756825404F68BF0300D51D4375603568C7
:1017C0002C404D68ED0302D525001C002C433460ED
:1017D000521C0B681C00D44000D18CE001259540C0
:1017E0002B40F5D054000326A640F74301974E68DE
:1017F000B707BF0F012F03D0B607B60F022E0ED1C9
:101800008668019F3740CE68A6403E4386604668A2
:10181000AE434D68EF06FF0F974037434760950092
:101820006E4675700D79AD07AD0F032D26D0C568D6
:10183000019E2E408D68A5403543C5600D79AD07EA
:10184000AD0F022D1AD1D508AD0045192E6A0396A9
:101850006E4676781C2737406E463770039EB44636
:10186000029F6E463678B7406646BE43B4460F695F
:101870006E463678B740664637432F6207680325C1
:10188000019E3E404F682F40A740374307604C6899
:101890002E0426409CD00124254E36682643244F32
:1018A0003E603E46366826400196019E214E9708CE
:1018B000BF00F6190196019E366803966E4676784B
:1018C0000C2737406E463770039EB446029F6E4623
:1018D0003678B7406646BE439027FF05B84201D12F
:1018E00000244EE7144FB842FBD0144CA04200D065
:1018F00043E7022445E7FFBD0069084000D001200E
:10190000C0B27047002A01D0816170478162704780
:1019100001000B4A13680B4000D1704780B511607D
:10192000FEF7BCFD01BD0000000C004800040140B2
:101930001810024008000140000400480008004858
:101940001404014038B5040001F008FC0500002033
:10195000C043844202D004480078241801F0FEFB02
:10196000401BA042FAD331BDE4000020CA0F00D0D2
:10197000494203105A400DD004B500D3404200F054
:1019800009F8009AD20701D34942124200D54042D9
:1019900004BD0000094214D088420FD30122030C79
:1019A00001D100041204002300185B418B4200D3D4
:1019B0005B1A5241F8D31900100070470100002053
:1019C000704708B501F0D0FB08BD30B5016841187B
:1019D000446862088A188368E40704D54C461B19DA
:1019E00001E0641C09D1914203D00C7864B2491C17
:1019F00001E00C3030BD0D78491C1D705B1C002CC3
:101A0000EFD4641EF7D5EEE70CB418B583B004002C
:101A10000A0006A8029001940020009002AB01A9E0
:101A2000084878441E3001F0A5FB0021019A11708E
:101A3000002801D40198001B04B0019910BC03B028
:101A4000084700BFDB060000F8B504000025002CA5
:101A500001D10120F2BDA06B002805D1E063342143
:101A60006054200002F041FB10210122A06B0840CD
:101A700003D12068042386681E4000D091E0A66B45
:101A80006D4F374002263E43A6638668B607B60F01
:101A9000012E06D10646366816400FD1C6683604B8
:101AA0000CD4C6681827BE43A7683743C7602068B0
:101AB0000669B600B6086768374307612068C668DC
:101AC000924F3740C760A06A012801D0080200E0A9
:101AD00000202669022E01D1009300E00095A37E2C
:101AE000267EB603677EFF0337435E033E433043E3
:101AF000E6680643009F37432420205C40003843BB
:101B0000E67E012E0CD1002B03D1030008031843FD
:101B100006E0A36B20261E43A663E36B1343E36337
:101B2000E369FF26C236B34202D00343206A18435A
:101B30002368DE680643DE60E36A0E06B3420DD01A
:101B4000012B0BD0022B09D0032B07D0042B05D07F
:101B5000052B03D0062B01D0072B0CD123685E691F
:101B60000727BE435E6123685E692C27E75D7F0718
:101B70007F0F37435F610223DB432668F668644FBB
:101B80003740874205D1E563A06B03401A43A26347
:101B90000BE0A06B03401943A163E06B1043E063CB
:101BA00002E0A06B0143A16301252800F2BDF8B556
:101BB00004000025002004262168896831401BD1DB
:101BC0003421615C012917D0270034370121397095
:101BD000617E012904D0200000F022F901000CD11F
:101BE000A16B4F4A0A40B1011143A163E5633D7007
:101BF0001C21226811608DE00220F2BD70B5040046
:101C00003420205C012801D1022070BD250034352C
:101C100001262E70200000F087F9010009D1200074
:101C200000F04CF9010004D1A16B034A0A401643AD
:101C3000A6630021297070BDFFFEFFFFFEB5040002
:101C40000D000020009001266069082801D10827B6
:101C50000DE02068C068304008D0A06B202101430F
:101C6000A1630098342160540120FEBD0C2701F0CF
:101C700075FA019020680168394018D10020C043EE
:101C80008542F7D0002D05D001F068FA0199401A7D
:101C90008542EFD2206800683840EBD1A06B042168
:101CA0000143A1630098342160540320FEBDA16B61
:101CB00072020A43A2632168C968C02212010A4065
:101CC0001CD1A17E002919D10068000716D5206813
:101CD000806840070BD4206840680C218843216845
:101CE0004860A06B0F4901400E43A66306E0A06B5D
:101CF00020210143A163E06B0643E663207E0028B8
:101D000002D10C20216808600020FEBD1902FEFFF0
:101D1000E7FF3F8321688A6816438E60F2BD0000AA
:101D2000FEF1FFFFFFFEFFFF0068006C7047F8B593
:101D300004000025002600953420205C012801D1F4
:101D40000220F2BD01223423E254206883685B073D
:101D50005CD40B689A400092564A4B68564FBB427F
:101D6000836A009F44D01F438762E06A80235B053B
:101D700098421FD001281DD002281BD0032819D05B
:101D8000042817D0052815D0062813D0072811D00D
:101D900020688B6847697F077F0FBB420AD0436981
:101DA0000727BB434361206843690F7A7F077F0F92
:101DB0001F4347610868102817D011282BD18020B5
:101DC000C0031368184310600868102823D16C48BA
:101DD00000686C49FFF7DEFD0A2148430090009837
:101DE000002818D00098401EF8E780200004E8E79B
:101DF000BB4383620868102806D011280BD16248C3
:101E000011680840106006E06048F9E7A06B2021E7
:101E10000143A1630126342025543000F2BD0000A7
:101E2000F8B5040000200090206801218268920724
:101E3000920F012A06D1024612680A4036D1C268C2
:101E4000120433D410278268514B134006D0A06B84
:101E50000743A763E06B0143E16325E08268114318
:101E60008160474800684749FFF794FD01E000980A
:101E7000401E009000980028F9D101F06FF901256B
:101E8000060020680068284010D101F067F9801B27
:101E90000328F6D3206800682840F2D1A06B0743DE
:101EA000A763E06B0543E5630120F2BD0020F2BDAE
:101EB000000000000827014001100000F8B50400F0
:101EC0002068032182680A40012A2BD1012502469D
:101ED00012682A4002D1C268120423D510268268F3
:101EE00005231340012B15D182680223134383601D
:101EF0002068016001F032F90700206880682840FE
:101F000010D001F02BF9C01B0328F6D3206880689D
:101F10002840F2D0A06B0643A663E06B0543E5635F
:101F20000120F2BD0020F2BDF8B5040020680427AE
:101F30008168394022D010258168394005D08168F8
:101F4000890702D481682943816001F007F90600FE
:101F500020688068384011D001F000F9801B032808
:101F6000F6D3206880683840F2D0A06B0543A563A3
:101F7000E06B01210143E1630120F2BD0020F2BDCD
:101F8000F000002040420F00FFFFBFFFFFFF7FFF78
:101F900017000080010042221201D21E004207D029
:101FA00002D4521E0018FCD5C10A4005120589183A
:101FB000704700000100EED54042F446FFF7EBFF0A
:101FC0000122D20711436047F0B40E005E400125A4
:101FD000ED072E40B446AE0ADF184C18F4423BD24F
:101FE000F74241D2640D43D07F0D38D0E41BC902C3
:101FF000DB0229432B43CF0ADB0A0600B61A9F41B6
:1020000004D2641EB6197F41B6185F416812800D74
:1020100024180018844222DCE80C0021B6197F4104
:10202000B61A9F4102D2B6185F413F1C4041494158
:10203000F4D3241C21DD2405B6197F41B61A9F4133
:1020400005D33743C60737430026012F704161414E
:1020500066463143F0BC7047FCD1F74205D2002000
:10206000C14349054908F3E704D00020C143F1E723
:102070007F0DFAD000206146ECE72442FAD1401CE3
:1020800061410F03F6D30020E2E7012252054B180D
:10209000DA4201D9581570475B0D0722D2019B1A0D
:1020A00010D9FF2B1DD2DB050122D2070A401343B2
:1020B0000903020D1143490AC200524100D9491CCB
:1020C000C81870470AD1800A0A0302435212921CB0
:1020D00004D9D3070B40D00518437047C80FC00779
:1020E0007047C80F0002FF30C0057047012212067A
:1020F0000118CA420AD28A420DD8382212060909AA
:102100008918C20FD20711434007704700D0490811
:102110000909014301E0C10FC907002070470268A7
:10212000531C03601170704780B506480168102287
:102130000A430260032002F055F801F0C1FF0020BD
:1021400002BD000000200240094202D0491E425454
:10215000FCD1704710B5C30018221A40FF249440E8
:10216000E3438907090E9140020004D418489208FD
:102170009200801806E0174A0007000F0838800810
:1021800080001018026813401943016010BD80B52B
:10219000FFF7E0FF01BD010005D40121C006C00E1C
:1021A00081400D480160704710B5401E80214904F0
:1021B000884201D3012010BD084C6060032100203B
:1021C000C043FFF7C7FF0020A0600721216010BDBA
:1021D00000E400E01CED00E000E100E010E000E0C1
:1021E00038B5040001D1012032BD2500783568687A
:1021F000002803D12870200001F0BAFF2420686075
:1022000020680168012291430160606A002802D0C1
:10221000200000F09BF8200000F018F8012811D0F1
:1022200020684168084A0A404260206881680822A4
:10223000914381602068016801220A430260200006
:1022400000F0EAF832BD0000FFF7FFFFF8B5050027
:1022500000260024286801689B4A0A40A9681143A7
:102260002A690A4369691143EA690A4302604168BD
:10227000964A0A40E968114341608168944A0A40DD
:10228000A96911432A6A0A4382609248006880075C
:10229000800F05D0022809D006D3032802D007E01A
:1022A000002206E0022204E0042202E0082200E00C
:1022B0001022894F894880210902EB698B4220D185
:1022C000002A06D0022A08D0042A15D0082A16D0DF
:1022D00037E000F094FE002834D0696840004A08D6
:1022E0008018FFF757FB01001039B94229D2074087
:1022F0000007400F38431CE000F064FEEBE70800E5
:10230000EBE7002A06D0022A16D0042A16D0082AA3
:1023100004D016E000F073FE010013D06A68500884
:1023200008181100FFF736FB01001039B94208D236
:1023300080B22968C86005E00100EFE700F042FEC6
:10234000EAE70124AE66EE662000F2BD2421415C7E
:10235000090706D501684A688A4B1340426B1A4345
:102360004A602421415CC90706D501684A68864B4A
:102370001340826A1A434A602421415C890706D5CA
:1023800001684A68814B1340C26A1A434A6024219B
:10239000415C490706D501684A687D4B1340026BD2
:1023A0001A434A602421415CC90606D501688A683F
:1023B000784B1340826B1A438A602421415C890662
:1023C00006D501688A68134B1340C26B1A438A60B2
:1023D0002421415C490611D501684A686E4B1340BF
:1023E000026C1A434A60026C80235B039A4205D157
:1023F0004A686A4B1340426C1A434A602421415C8C
:10240000090606D501684A68654B1340806C18437D
:1024100048607047FFDFFFFFFEB5060037007837E2
:102420000024FC6000F09AFE0190202530680068CE
:10243000000717D55B480090019B0022290430005B
:1024400000F04EF800280DD0EFF31080012181F349
:10245000108831680A6880239A430A6080F31088E4
:102460007D6026E030680068400725D54D48009023
:10247000019B00226904300000F032F800281BD0D4
:10248000EFF31080012181F3108831680A685E4BF8
:1024900013400B6080F31088EFF31080012181F36B
:1024A000108831688A6801239A438A6080F3108813
:1024B000BD603C700320FEBD7D60BD603466746607
:1024C0003C700020FEBD0000F369FFFFFFCFFFFF5F
:1024D000FFF4FFFF30100240F0FF000000127A000E
:1024E000FEB580273F0108250026040001916846BB
:1024F000027002932068C0690199014001988142ED
:1025000001D1012000E0002069460978884236D1D7
:1025100008980021C9438842ECD000F01FFE0299C0
:10252000401A0899814201D3002901D10320FEBD40
:10253000206800684007DDD501988028DAD040285F
:10254000D8D02068C0692840206803D1C0693840CD
:10255000D0D009E00562200000F026F82000783095
:10256000C56006700120FEBD20680762200000F0F3
:102570001BF8200078302021C1600670D6E70020CB
:10258000FEBD0000FF7FFFFFFFFFFDFFFFFFFEFF1F
:10259000FFFFFBFFFFEFFFFFFFFFEFFFFFFF9FFFCF
:1025A000FFFFF7FFFFFFFF0110B5EFF310810122DE
:1025B00082F3108802681368134C1C40146081F386
:1025C0001088EFF31081012282F31088026893686B
:1025D0000124A343936081F31088016E01290BD17C
:1025E000EFF31081012282F310880268136810242F
:1025F000A343136081F310882021802281500021A1
:102600000166816610BD0000DFFEFFFF10B504000B
:1026100001D1012010BD3D20205C002804D13C21C7
:102620006054200001F08CFD20E03D21415C012937
:1026300001D00120704702213D228154026801210E
:10264000D3680B43D3600268174B9A4202D0174BF2
:102650009A4205D192685207520F062A04D00268A6
:1026600012681143006801600020704702203D217C
:102670006054211D206800F0A3F901204621605418
:102680003E2160543F2160544021605441216054F8
:1026900042216054432160544421605445216054D8
:1026A0003D216054002010BD002C0140000400407A
:1026B00004000E000020694608700125300006D095
:1026C000042E37D0082E3CD00C2E41D047E0206895
:1026D000C1682E4A0A40C260606A01F0A5FD00226E
:1026E0003100206800F0ECF920682949294A244B80
:1026F000984205D0234B984202D0234B984209D1EF
:10270000036A134006D1036A0B4003D1436C224F86
:102710001F4047642068036A1A4007D1006A0140DD
:1027200004D120680068A84321680860002E19D1F0
:102730003E2020E02068C168184A0A40C260A06AB2
:10274000CBE72068C168164A0A40C260E06AC4E765
:102750002068C168134A0A40C260206BBDE7684622
:10276000057009E0042E01D13F2004E0082E01D1BC
:10277000402000E04120255468460078F2BD00006A
:10278000002C01400044014000480140FFFDFFFFD4
:102790004404000011110000FF7FFFFFFFFBFFFF5B
:1027A000FFF7FFFFFFEFFFFFF8B504002068C168E7
:1027B0000091056900270226354214D0314012D01D
:1027C0000221C9430161012121778069800703D07B
:1027D000200001F04DFD05E0200001F04AFD200041
:1027E00001F048FD2777680717D50098400714D5F2
:1027F00020680421C943016126778069C0218900CE
:10280000014003D0200001F033FD05E0200001F07D
:1028100030FD200001F02EFD27770826354216D026
:102820000098304013D020680821C9430161042179
:102830002177C069800703D0200001F019FD05E071
:10284000200001F016FD200001F014FD2777102074
:10285000054217D00099084014D020681021C943C0
:1028600001612677C069C0218900014003D02000A2
:1028700001F0FEFC05E0200001F0FBFC200001F06F
:10288000F9FC2777E807C00F0099CA07D20F10425A
:1028900006D00120C043216808612000FEF70DFD2D
:1028A0008020054209D00099084006D08020C0430E
:1028B00021680861200001F0DEFC4020054209D0BB
:1028C0000099084006D04020C043216808612000DC
:1028D00001F0D2FC2020054009D00099084006D024
:1028E0002020C04321680861200001F0C6FCF1BD32
:1028F000F8B504000026684606703C20205C0128DC
:1029000001D10220F2BD27003C3701253D70022095
:102910003D22A05420688268284B134083600868D9
:1029200002003FD010283DD020283BD0302839D09D
:10293000402830D0502820D0602825D0702806D0DC
:102940002B03984235D05B0098420AD02FE0CB6829
:102950004A688968206800F0A5F8206881687722B5
:1029600008E0CB684A688968206800F09BF8206816
:102970008168AA030A4382601BE0CA68496820682C
:1029800000F062F850210EE0CA684968206800F043
:102990006CF8602107E0CA684968206800F054F8C4
:1029A000402100E00100206800F074F801E0684672
:1029B00005703D2025543E70FFF7DEFE8800FFFFC6
:1029C000F0B502681B4B1C4C1C4D1D4EB04201D093
:1029D000A84206D17027BA4317004A683A43B0426A
:1029E00008D0A84206D0174DA84203D0A04201D07B
:1029F000984203D1264D1540CA682A438025AA4330
:102A00004D69154305608A68C2620A688262B042F5
:102A100003D0A04201D0984201D10969016301218C
:102A200041610269114003D00169012291430161B2
:102A3000F0BD000000480140004401400004004097
:102A4000002C01400020004030B5036A046A0125D3
:102A5000AC4304628469F025AC43120122438261D5
:102A60000A2293431943016230BD30B5036A046AF8
:102A70001025AC43046284690F4D254012032A439C
:102A80008261A022934309011943016230BD000015
:102A9000FFFCFFFF826870239A43114307220A4319
:102AA0008260704730B58468044D254029430A434D
:102AB00019021143816030BDFF0FFFFFFF00FFFFD0
:102AC00010B5C906C90E036A01248C40A3430362F2
:102AD000036A8A401A43026210BDFEE7F0B53C2249
:102AE000825C012A01D10220F0BD02003C320123A8
:102AF000137002243D25445505686E68AC68702744
:102B0000BE430F6837436F600568084EB54202D078
:102B1000074EB54204D18026B44349682143A960D9
:102B20003D21435400201070F0BD0000002C0140F6
:102B300000040040FEB5040019D0AD4D2078C00758
:102B400017D58027BF0268680C210140042909D0ED
:102B500068680C210140082941D16868790808405B
:102B600088423CD12868074003D06068002800D123
:102B70009BE1207880071AD5F827FF4368680C216D
:102B8000014007D068680C21014008295BD16868C2
:102B9000C00358D42868800703D5E068012800D016
:102BA00083E1286807402069C00038432860207806
:102BB000000779D50227E0690028686A65D00121FD
:102BC0000143696200F0CAFA0600686A38406BD1B6
:102BD00000F0C4FA801B0228F7D90320FEBD60680C
:102BE0007B0801280BD0B349B34A002801D12868DB
:102BF00009E00528286806D1C943014329602868EF
:102C000003432B6004E002402A60286801402960E9
:102C1000606800280BD000F0A1FA06002868384050
:102C2000A7D100F09BFA801B6528F7D3D5E700F009
:102C300095FA0600286838409BD000F08FFA801B78
:102C40006528F7D3C9E7E068002828680ED001217D
:102C50000143296000F082FA060028688007A0D4AA
:102C600000F07CFA801B0228F7D9B6E701218843DF
:102C7000286000F073FA06002868800797D500F0F6
:102C80006DFA801B0228F7D9A7E701218843686203
:102C900000F064FA0600686A384005D000F05EFA79
:102CA000801B0228F7D998E704272068384062D0B3
:102CB00000200190B806E969014008D1E9690143A3
:102CC000E961E969084000900098012001907B4883
:102CD0000068C00512D479480068A90D01437748FF
:102CE000016000F03BFA060074480068C00505D496
:102CF00000F034FA801B6528F6D36EE7A06801283F
:102D000008D0002801D1286A09E00528286A06D1E0
:102D100038432862286A01210143296205E0012124
:102D200088432862286AB8432862A4480090A068B3
:102D300000280CD000F012FA0600286A800713D48D
:102D400000F00CFA801B00998842F6D345E700F0AA
:102D500005FA0600286A800706D500F0FFF9801BF7
:102D600000998842F6D338E70198002803D0E86933
:102D700093490140E9612078C0061DD56069F826B5
:102D8000F643012836D1686B07436F63686B0121F6
:102D90000143696300F0E2F90700686B800705D41E
:102DA00000F0DCF9C01B0228F7D916E7686B064073
:102DB000A069C00030436863206A002877D0696842
:102DC0000C220A40082A5BD08027BF0491490228C0
:102DD000286847D10140296000F0C0F90600286842
:102DE000384021D000F0BAF9801B0228F7D9F4E668
:102DF000001002400421C9438842686B02D101409F
:102E00006963D3E707436F63686B01218843686395
:102E100000F0A4F90600686B8007CDD500F09EF99C
:102E2000801B0228F7D9D8E6E86A0F218843E16AB7
:102E30000143E962686878490140A06A0843616A11
:102E400001436960286879080143296000F086F928
:102E50000400286838402AD100F080F9001B0228BD
:102E6000F7D9BAE60140296000F078F90400286833
:102E700038401CD000F072F9001B0228F7D9ACE6EC
:102E8000012812D06868E96A802252020240636A0F
:102E90009A420AD10907090FE26A914205D1F0214D
:102EA00089030140A06A814201D00120FEBD0020BB
:102EB000FEBD0000FFFFFBFFFFFFFEFF00700040B4
:102EC000F8B5040060D0009154480068C107C90FEC
:102ED000009881420CD25148016801229143009A26
:102EE0000A4302600068C107C90F009881424BD1B4
:102EF00021684B4D022001420CD0490704D5696876
:102F0000E022D2000A436A606968F0229143A26815
:102F10000A436A6001272168394025D06168012988
:102F200002D12868800303E0022903D128688001C8
:102F300003D429E02A68104026D068680322904311
:102F40000143696000F00AF9060068680C2101403D
:102F500060688000814207D000F000F9801B1749AB
:102F60008842F2D30320F2BD2C48009902683A400F
:102F700091420BD20168B943009A0A43026000688B
:102F800007400098874201D00120F2BD2078400719
:102F900005D5686823490140E0680843686000F08F
:102FA00011F821496A681206120F895CC8401F494E
:102FB0000860032001F016F90020F2BD891300001B
:102FC000FFFFFFEF1A4A13681A480C21194008291D
:102FD00000D0704730B50F2119A49D0C0D40645DE1
:102FE000926ADB0307D500BF19A31140595CFEF7B5
:102FF000D1FC604330BD20000F49484330BD0B4831
:1030000000680E490A4A12685205520F895CC8408E
:1030100070470000FFFFFFFEFFFFC2FF00200240DD
:1030200000100240FFF8FFFF30550008F0000020BC
:103030000410024000127A0000093D0050550008BB
:1030400002030405060708090A0B0C0D0E0F1010E9
:103050000102030405060708090A0B0C0D0E0F10E8
:10306000F8B50400374D2068C00356D50020009005
:10307000802040052968014008D129680143296062
:103080002968084000900098012000902E4F386871
:10309000C00510D43868A90D0143396000F05EF80E
:1030A00006003868C00506D400F058F8801B652873
:1030B000F7D30320F2BDC020800069680140234F90
:1030C00000291ED06268104081421AD068683840DA
:1030D0006968802252020A436A6069681C4A0A4091
:1030E0006A606860C0070CD500F038F806006868B0
:1030F000800706D400F032F8801B16498842F6D3C8
:10310000D7E768680740606838436860009800281F
:1031100003D028681049014029602078C00705D5F0
:10312000686903218843A1680143696120788006AA
:1031300005D5686910218843E16801436961002071
:10314000F2BD00001C10024000700040FFFCFFFFB9
:10315000FFFFFEFF89130000FFFFFFEF01484068FB
:10316000704700BFE40000207047FEE70100202008
:1031700008437047FDB5B2B03A98049102A93B22CA
:10318000885400200D9027A8401C31900DE0049831
:10319000329A90470490002801D100F0B8FE0D98B3
:1031A000401C0D903398401C3390339801780029CF
:1031B0000FD02529EBD100200790089009900A90A4
:1031C0000B900C9002240121149108211291339D3F
:1031D00005E00D9800F09DFE0100149808436D1C59
:1031E00029782029F8D023290BD02B2904D02D2988
:1031F00004D0302908D00AE02043F0E70100042081
:10320000ECE701000820E9E701001020E6E72A29A1
:103210000FD134990A681168121D349B1A600F91FE
:10322000002904D54A420F920100042008436D1C76
:1032300012E000210F91644B09E00F99994205DAE1
:103240008E0071184900891830390F916D1C2A7849
:10325000110030390A29F0D329782E2903D0002112
:10326000C9430E9126E06D1C29782A2908D134998A
:103270000A681168121D349B1A600E916D1C19E0CA
:103280002D2901D16D1C00E0002100220E920CE0DE
:10329000002909D10E9A4C4EB24205DA9600B218B6
:1032A0005200D218303A0E926D1C2B781A00303A28
:1032B0000A2AEDD302A908872E78310040487844C5
:1032C000FF30401E00F0DAFF002801D06D1C00E046
:1032D000002602A83A214654682E04D1287868288E
:1032E0000BD1622005E06C2E07D128786C2804D120
:1032F000712002A93A2288546D1C18A806902878DB
:1033000069460870681C339068460578280025389F
:1033100033D01C3800D1CDE1001F022800D8C9E10C
:10332000133801D100F01BFD093800D1C2E1801E25
:1033300001D100F0B1FD401E01D100F05EFD401E44
:10334000022800D8B6E1001F01D100F056FD401F51
:1033500000D109E1401E01D100F001FD401E00D165
:10336000F1E0C01E0ED0801E01D100F0F8FCC01E9E
:1033700001D100F0F4FC00F09BFD1498079025208B
:1033800000F092FD349800680468001D34990860CC
:103390000594002C00D0C2E002A83B21405C00282C
:1033A00000D1B6E00024E44306487844163000F02B
:1033B0006FFF201A01D000F0AAFD00F087FD00BFCA
:1033C000F41E0000281F0000CBCCCC0C01236A4661
:1033D00002A9280000F058FE002801D000F097FD57
:1033E000641EF3D13295079D18AC002D0FD0329E8C
:1033F00021780498B0470490002801D100F087FD9F
:103400000D98401C0D90641C6D1EF1D13296302039
:10341000694608700A9C002C0DDD329D01236A4626
:1034200002A9280000F030FE002801D000F06FFD56
:10343000641EF3D13295059C089D002D0FD0329E5D
:1034400021780498B0470490002801D100F05FFD76
:103450000D98401C0D90641C6D1EF1D132963027E2
:1034600069460F700B9C002C0DDD329D01236A46CE
:1034700002A9280000F008FE002801D000F047FD56
:10348000641EF3D13295059808994418099D002DC2
:103490000FD0329E21780498B0470490002801D1C3
:1034A00000F035FD0D98401C0D90641C6D1EF1D18F
:1034B0003296684607700C9C002C0DDD329D01236E
:1034C0006A4602A9280000F0DFFD002801D000F0C4
:1034D0001EFD641EF3D1329502A83821405C4007DE
:1034E00000D462E62020694608700198002800DCBC
:1034F0005BE6019C329D01236A4602A9280000F088
:10350000C3FD002801D000F002FD641EF3D1329506
:103510004BE61B4878446830059000F0D7FC0E9DC0
:10352000002D03D5200000F0D7FE09E02A0000217D
:10353000200000F0D9FE002801D0001B00E0280088
:10354000089000F0C3FC349800680268001D3499AC
:1035500008600020C0430021104002AA03C218A83E
:103560000590782100F094FC02A83B21415C0029E1
:1035700008D00024E4434B487844FF30293016E754
:10358000881D00003A21405C62286AD0682819D062
:103590006A2845D06C2806D071284FD0742831D0C5
:1035A0007A2821D06FE0349801680868091D349AA0
:1035B000116000287AD10024E4433B487844FF306E
:1035C0001738F4E6349801680868091D349A1160C8
:1035D000002805D10024E44333487844CA30E6E6A5
:1035E0000D99018000F072FC349801680868091D8B
:1035F000349A1160002859D10024E4432A487844C1
:10360000A630D4E6349801680868091D349A116020
:1036100000284BD10024E443234878448A30C6E68E
:10362000349800680268001D34990860002A13D19C
:103630000024E4431C4878446E30B8E634980068AF
:103640000268001D34990860002A05D10024E44373
:10365000154878445230AAE60D98C11703C200F00D
:1036600035FC349801680868091D349A11600028F7
:1036700005D10024E4430C4878442C3097E60D999A
:10368000017000F023FC349801680868091D349A21
:10369000116000280AD10024E4430348784408302C
:1036A00085E600BF181C00002C1C00000D9901606D
:1036B00000F00CFC34980068C21D07208243349847
:1036C000026003CA349B1A6002AA03C22022C80FF8
:1036D00004D007982D2118AA11540DE002A8008FDC
:1036E000204204D007982B2118AA115404E0C007E7
:1036F00004D5079818A90A54401C079018A80799E0
:1037000040181390059027AC02A803C816AA03C25C
:10371000684600782021014368464170612909D03C
:103720000E98002801D5062003E003D1672901D1B6
:1037300014980E9002A803C80F0006187F417E154A
:10374000FF17BBA20CCA9F4212D1964210D10903A7
:10375000020D11430003002901D1002808D00320E5
:103760000890613D1A2D19D3244979448E3110E017
:1037700002A803C8080041004915994212D100036C
:1037800010D103200890613D1A2D21D31C497944A2
:103790006E310322139800F0CDFD97E31949794467
:1037A0006231F6E701AA02A803C800F0D0FD02AA20
:1037B00003C268464078612813D105983021017012
:1037C000811C059169460978612905D1782104E0B9
:1037D0000D4979443231DCE7582141700798801C4B
:1037E000079002A803C894A20CCA02400B400DD156
:1037F000002A0BD10027002569E100BF141B00003F
:10380000181B0000081B00000C1B000068464078D5
:10381000612800D097E00E98002801D5212000E013
:10382000401C1390139F7F1C16A803C8002200237E
:1038300000F0A2FD02A830C802D280200006454058
:103840000198001F01909C2169440A7027A8461C1A
:10385000002F31DD20002900002280235B0300F0CF
:10386000A4FD29D81C2200F0B9FD04000D0000F0D1
:10387000EDFD1590FF1F002F09DDFEF79BFB0200F9
:103880000B002000290000F067FE04000D00F01D71
:103890000722159900290ADD521E08D4401E0B0785
:1038A0001B0F03700911F5E7401E00210170521E25
:1038B000FAD5C61D002FCDDC27A83199711A27AA89
:1038C000541C139A0F00914200DD1700002F33D4CF
:1038D0008F4205DA411CC95D082901DB0F2100E098
:1038E00000213A0027AB9B1801E07F1E5B1E521E91
:1038F0001D788D42F9D00F2904D1411C895C491CE7
:10390000401C8154002A04D527AC7F1C0198001D5F
:103910000190791E10D4621868460078137830330D
:10392000DDB23A2D01DBC318C6331370491E521E97
:103930000029F3D5694608700E98002800D4C5E028
:10394000781E0E90C2E016A830C86D006D08019870
:10395000694948436949FEF709F801900720019930
:10396000401A002805DD02002000290000F065FB58
:103970000AE042420020624900F05FFB02000B00B7
:1039800020002900FEF720FB6A465278662A02D101
:10399000019A0A3200E006220E9B9A18142A00DDD2
:1039A000142227AB30241C705C1C02E016A803C84C
:1039B000139A002A44DD16AB03C3139216A803C85A
:1039C00000F056FD159005460834042628000A210B
:1039D000FDF7E0FF0F0028000A21FDF7DBFF0500DF
:1039E0003037601E077028000A21FDF7D3FF0F0053
:1039F00028000A21FDF7CEFF0500A41E30372770EE
:103A0000761EE3D108341398083813900028CDDDD2
:103A10001598FEF7BFFA02000B0016A803C800F0C5
:103A20009BFD0022374B00F00EFE16AA03C2C5E72D
:103A3000FFFFFFFFFFFFFFFFFFFFFFFFFFFFFF7F16
:103A40003198201A27A94C1C04E0401E0199491EF8
:103A50000191641C21783029F7D020216A46127820
:103A600011436A46517069464978662902D1019925
:103A7000491C06E069464978652901D1149900E09E
:103A800000210E9A5718B84200DA471E002F1DD4A5
:103A9000874204DAE05D342801DD392000E030207F
:103AA0003900621E531801E07F1E5B1E491E1D78FF
:103AB0008542F9D0392802D1605C401C605400294D
:103AC00004D514007F1C0198401C0190019D1394A3
:103AD000684606780E9C38B2002804DC149F05481E
:103AE0007844103013906846407866280CD16D1CDD
:103AF00024E000BF2818000097750000A086010090
:103B00000000F03F84D7974168464078672845D148
:103B100028B20321C943884244DBA04242DA6D1C2B
:103B200002A8008F1299C0B2084203D138B2A04255
:103B300000DC040028B2241A00D500242EB2002E86
:103B400000DDA9E00898411C08913021059A115424
:103B5000002C05DC02A8008F1299C0B2084205D0E3
:103B60000898411C08912E21059A115470428442F4
:103B700000DA65422DB268420B90641938B2844273
:103B800000DA27003FB209973A0013990598089B7D
:103B9000C01800F0CFFBE01B0C90C8E0612E14D1E0
:103BA000702615E038B2A04206DA02A9098F129AEF
:103BB000C9B2114200D10400641E00D50024672E52
:103BC00001D1652604E0452602E0412E00D15026B1
:103BD0000898411C089113990978059A1154139873
:103BE000411C002C05DC02A8008F129AC0B21042C2
:103BF00018D00898421C08922E22059B1A54002CBB
:103C000010DD7F1E38B2844200DA27003AB20598F0
:103C1000089BC01800F08EFB3FB20898C0190890AE
:103C2000E01B0B900598089941180E7028B20028E7
:103C300003D42B2048708F1C03E02D224A708F1C68
:103C40004542002412A928000D0005E00A21FDF7D5
:103C50008DFE2970641C6D1C00B20028F6DC012C5E
:103C600006DC20203043652802D1302038707F1CCC
:103C7000002C09D1302038707F1C07E0641E12A888
:103C8000005D303038707F1C002CF7DC05980899F7
:103C90004018381A09904AE038B229B288421CDA32
:103CA0003AB213990598089BC01800F043FB3FB245
:103CB0000898C0190890F11B0B91002C05DC02A993
:103CC000098F129AC9B2114205D02E21059A1154BA
:103CD0000998401C09900C9429E02AB21399059880
:103CE000089BC01800F026FB0898801908907D1BDF
:103CF000002C05DC02A9098F129AC9B2114204D026
:103D0000411C08912E21059A115428B2844200DAF0
:103D100025002AB2139881190598089BC01800F055
:103D200009FB2DB2089840190890601B0B9002A85F
:103D30003821405C14210140102900D0C6E00798CA
:103D4000089940180B994018099940180C99401887
:103D50000F99884200DBB9E0081A0A90B6E002AA7F
:103D60003A20105C622808D068280ED06A2814D047
:103D70006C281DD0712810D01AE0349801680868AA
:103D8000091D349B1960C0B218E0349801680868B6
:103D9000091D349B196080B210E034980068C31D7F
:103DA000072083433498036003CB349C236006E0F0
:103DB000349801680868091D349B1960002102AB22
:103DC00003C3108F1299C0B208425BD002A803C887
:103DD000002901D1002855D06846007820210143F0
:103DE00078294FD1079818A930220A54401C421C48
:103DF00007926A4612780A5444E002AA3A20105CFC
:103E0000622808D068280ED06A2814D06C281DD0EB
:103E1000712810D01AE0349801680868091D349B95
:103E2000196040B218E0349801680868091D349B95
:103E3000196000B210E034980068C31D0720834366
:103E40003498036003CB349D2B6006E034980168FE
:103E50000868091D349B1960C11702AB03C3002910
:103E600002DA07982D2109E0108F204202D007982E
:103E70002B2103E0C00705D50798202118AA11546B
:103E8000401C079018A807994018059068460178CB
:103E900002A800F040F819E01498079034980168DF
:103EA0000868091D349A11606021694408700DE0AA
:103EB00014980790252060216944087068460078AE
:103EC000002803D007946846007848700F98079937
:103ED000401A0A99401A0899401A0B99401A0999F0
:103EE000401A0C99401A019002A83821405C400702
:103EF00001D5FFF778FA202069460870019800285C
:103F000001DCFFF770FA019C329DFFF75FFA002099
:103F1000C04335B0F0BDF2B586B0040025696F2905
:103F200001D1082707E00846FFF720F9782801D0DB
:103F30000A2700E010273C2603CC083C04AA03C251
:103F40006A46127E642A03D06A46127E692A09D123
:103F5000002907DA04A803C800220023121A8B41A3
:103F600004A80CC004A803C800290DD100280BD157
:103F7000206B002808D1082F3DD13820205C000795
:103F800039D53B26302035E00294009504A830C88E
:103F9000761E0196200029003A00002300F015FC4F
:103FA0003032D0B23A280DDA00988255200029002C
:103FB0003A00002300F009FC04000D0007D1002C9A
:103FC00005D10AE06846007E8218AF32ECE702981D
:103FD000C068009989198842DAD3029C009D082F95
:103FE00009D13820205C000705D5A85D302802D013
:103FF000761E3020A8553C20801BA061A919E160E5
:10400000216B884206DA081A2062208F1C49014081
:10401000218710E000290ED53821615C14220A4066
:10402000102A08D1616B6269891A226A891A081AF2
:10403000002800DD206207B0F0BDF8B50026114F62
:1040400004000D00009214E0C00707D532003B00C9
:104050002000290000F0F7FA04000D00009840103D
:1040600000903000390032003B0000F0ECFA06000E
:104070000F0000980028E7D120002900F4BD0000BF
:10408000EFFF000000002440F8B50024002B11D001
:1040900007000E0014001D002178B068B847B0601A
:1040A000002809D0F06A401CF0620020641C6D1EDC
:1040B000F2D104002000F2BD0020C043F9E7FEE782
:1040C00081B0012042490A6802430A600A68104030
:1040D00000900098802040054A6802434A60496881
:1040E00008400090009801B0704710B586B00400F9
:1040F0001421002201A8FEF727F8206835498842DC
:104100001CD13548410D42680A4342604268114063
:10411000009100998021890202680A4302600068C8
:10412000014000910098112001900320029000208E
:10413000039001A99020C005FDF718FB06B010BD43
:1041400000682649884200D0704780B5C80C2049D5
:104150000A6802430A60096808400090009800223B
:1041600002210D20FEF713F80D20FEF714F801BD13
:1041700010B586B004001421002201A8FDF7E4FF69
:1041800020681749884221D113488021C90142681B
:104190000A434260426811400091009980218902DF
:1041A00002680A43026000680140009100980C20F8
:1041B000019002200290002003900320049001202F
:1041C000059001A99020C005FDF7D0FA06B010BDFA
:1041D000181002400024014014100240002C01403D
:1041E0000038014038B505000D4CFA2080002178D8
:1041F000FDF7D0FB01000B480068FDF7CBFBFDF796
:10420000D3FF00280AD1042D08D200222900002063
:10421000C043FDF7BCFFA560002032BD012032BDC8
:10422000E4000020F000002070B5002100240122ED
:104230002123C35C022B03D004218163012415E0F8
:1042400003681D680E26B5431D6003681D6895430D
:104250001D60036C01259D40C36B5D602123C2542A
:1042600020228154416B002900D08847200070BD76
:10427000704770477047704770477047C9B20278FF
:104280008A4203D0401C002AF9D100207047FEE783
:1042900080B5002801D100BF07A006490B68002B9C
:1042A00003D022220021984701E000F0CCFA22201E
:1042B00002BD000070050020636F6E737472616947
:1042C0006E742068616E646C65723A20626164206D
:1042D0006D65737361676500431C0178401C09427A
:1042E000FBD1C01A7047FEE7C9B2521E05D303784E
:1042F000401C8B42F9D1401E704700207047FEE7FA
:1043000070B4103A03D378C9103A78C0FBD253077F
:1043100001D318C918C001D508C908C0D20704D3F1
:104320000B880380891C801C002A01D50B78037040
:1043300070BC70478B0701D18307E1D0124205D0D2
:104340000B78491C0370401C521EF9D1704710B500
:10435000144600F002F8226010BD4A0053155B1CA1
:1043600008D0520D06D003231B02FE3AD21A1305C1
:10437000C91A70470022704730B4012464054D000B
:10438000EC420BD85D00EC4208D80C001C436400E2
:104390000443144304D2994200D1904230BC704788
:1043A000FCD08B42FAD18242F8E730B40124640594
:1043B0004D00EC420BD85D00EC4208D80C001C43C9
:1043C00064000443144304D28B4200D1824230BCC7
:1043D0007047FCD09942FAD19042F8E7124217D4C4
:1043E0000023DB435B0D9C464B005B0D06D0634511
:1043F00004D09B18634502D21205891870476246A3
:10440000090D11430905002000B500BF00BF00BD24
:1044100052424B005B0DF1D05B1C5B05EED25B0D95
:10442000934102D91205891A70470BD10B031B1354
:10443000C90FC907821C002043411343E4D9120568
:104440001143E1E7C90FC9070020DDE7F4464A1828
:1044500005D200F00FF801D580174008604700F042
:1044600009F80121C907884200D908004042604785
:104470004A1812D2400DC90208430121C907084356
:10448000520D40210901521A521C06D452421F32C9
:1044900001D4D0407047C0177047002070478B424E
:1044A00000D1824205D98446100062468C4619002C
:1044B0006346DF184C18640D7F0D3AD0661C7605F4
:1044C00037D0E61B352E34DCDB022B43DB0A0C0D28
:1044D000C9022943C912202E0DDB1700203E06D049
:1044E0001F00F741F3405F400026012A7741C018C2
:1044F00071410DD217E01700F741F2405740F341E8
:104500005A40B340F3405A400026801859410AD31C
:10451000A21C52050FD0C207012F7241170040089C
:10452000CB0718434908641C24054208AF41704179
:104530006141F0BC7047641C21050020F9E76B4025
:1045400010E06B40ABE7F742F3D1E943F1E72442D7
:10455000EFD100200021ECE7F0B40125ED070F00BA
:104560005F40EED40C00871A9C4105D2C01BA141CC
:10457000D219634169406B40AE0ADF184C18F4420F
:10458000E1D2640D7F0DE2D0E61B362ED1DCDB02DA
:104590002B43DB0AA4460C0DC9022943C90A012E8C
:1045A00028DC04D1D6075208DF073A435B08EF0A3C
:1045B00076429041994114D039423BD1B6194041DD
:1045C0004941761C394204D1761C001849413942D0
:1045D000FAD0B9436746B74208D9A41B2405214342
:1045E000A7E70042EAD13642E8D1A2E7E40AE107B0
:1045F00000209EE7202E0BDD203E1F00F340F741F8
:104600005F40012A002257417E42984191410BE0D0
:104610001700F741F2405740F3415A40B340F3408E
:104620005A407E42904199410A0303D2641EB61952
:10463000404149410027641E24054208AE417841AB
:104640006141F0BC7047F0B50E005E400125ED07FA
:104650002E40B446AE0ADF184C18F44208D2F74296
:104660000ED2640D01D07F0D12D100206146F0BD45
:1046700005D1F74201D87F0D05D10020C143F0BD1F
:10468000FBD1640DF9D00020C143490549088FE0F2
:10469000E419C902DB0229432B43DB0A460DC002A1
:1046A00031438E4630B487B295B27D432E0CADB205
:1046B000140C7C43A419260C240425439CB27C438F
:1046C000A419190C7943270CC919A4B20F043C434F
:1046D000090C000C97B247432E0CBE193543ADB2FE
:1046E000170C4743360CBF19A6B2BF193E04354319
:1046F000240C3E0C36199FB24743BF19BCB23E0C86
:1047000089191F0C47437F183E043443390C704607
:1047100080B297B247432E0CBE193543ADB2170C89
:104720004743360CBF19A6B2BF193E043543240CCB
:104730003E0C36199FB24743BF19BCB23E0C8919D3
:104740001F0C47437F183E043443390C77463F0C17
:1047500090B278432E0C80190604ADB22E43050C9E
:10476000A0B22D18120C7A435019020C80B2240CFE
:10477000A4189AB27A43121914042043120C89180F
:104780001B0C7B43C91830BCEF0A394203D1B61960
:1047900040414941641E6F12BF0DE41B0BDBFF1942
:1047A000BC4211DA240500274208AE41784161413C
:1047B00066463143F0BD641C05D1401C6141CF0207
:1047C00001D34908F4E750E75DE712422DD0994242
:1047D00031D970B500251B4209D00C00002112E030
:1047E0001100FDF7D7F80A000021002370BD09422F
:1047F000F6D00024012649186441944200D3A41A3B
:104800007641F8D33100012601E0764109D2001843
:1048100064416D41A41A9D41F7D2A4185D41B619B7
:10482000F5D3300022002B0070BD1B42CFD108B55C
:1048300000F00EF808BD01D19042CAD202000B0070
:1048400000210020704780B5012000F003F801BD71
:104850007047FEE780B500BF00BF024A1100182074
:10486000ABBEFBE7260002000000000000000000D5
:104870000000001010101010101000100000282868
:10488000280000000000000014147E2428FE2848A0
:1048900010103C5450701C145478000204646808D2
:1048A0001016262000386C4C383A4E464639001017
:1048B0001010000000000000003060404040404008
:1048C0006030003018080808080818300010741804
:1048D000741000000000000000101010FE101010F6
:1048E0000000000000001818102000000000000068
:1048F0003800000000000000000018180000040448
:104900000808081810101020003864444444444437
:1049100064380010301010101010107C007C44041B
:10492000040C1830607E007C4404041804064478AB
:1049300000040C1434247E040404007C60607804B9
:1049400006044478001C20607C6446466438007E7F
:104950000404080810102060003C6446643C46468D
:10496000643C0038644446663C040C380000001087
:104970001000000010100000003030000030304007
:10498000000000020C30C0300C020000000000FEED
:1049900000FE0000000000C0701C061C70C0007803
:1049A0004C0C0C1830200030003CC3BD256464253D
:1049B000BFC00018182C2424667E42C3007C4446E5
:1049C000447C4646467C001E226040404060221ED9
:1049D00000F88C84868686848CF800FC808080F8C1
:1049E000808080FC00FC808080F880808080003C9B
:1049F00040C0809E86C6463C0084848484FC8484B7
:104A00008484007C101010101010107C00380808EE
:104A100008080808087000848890A0E0B0988C8688
:104A20000040404040404040407C00C2C6E6A6BA3C
:104A30009A92828200C4E4E4B4949C8C8C84003CFE
:104A400046C2828282C2463C007C4446464478404C
:104A50004040003C46C282829ACE463D00F8888C97
:104A600088F098888C86003C6040603C0606467C56
:104A700000FE10101010101010100042424242426E
:104A80004242623C00868484C8484870303000004E
:104A9000009292BAAAAC6C4400C2642C3818182C4C
:104AA00064C200C24624281810101010007E040CA6
:104AB00008103020407E0070404040404040700070
:104AC000002020201010101808080070101010107E
:104AD00010107000000010284CC6000000000000FC
:104AE000000000000000FE000000000000000000C8
:104AF000FE0000000000380C3C4C4C3C00404040A4
:104B00007C644444447800000000386040406038D1
:104B1000000404043C644444643C00000000384445
:104B20007C40643C001820207820202020200000B9
:104B30003C644444643C04380040404078684C4C39
:104B40004C4C000010001010101010100C001C0C29
:104B50000C0C0C0C0838004040404C506050484C45
:104B60000020202020202020202000000000F6DB54
:104B70009B9B9B9B0000000078684C4C4C4C0000B9
:104B8000000038644444643800007C644444447841
:104B9000404000003C644444643C040400000000C5
:104BA000383020202020000000003C24300C243C21
:104BB000000010103C101010101C000000004C4CA5
:104BC0004C4C4C3C000000004448282830100000A9
:104BD000000092B2AAAC6C4400000000642C1818CB
:104BE0002C640000006624341C18183000000000FB
:104BF0003C0C1810207C0C181010102010101018ED
:104C00000C18101010201010101830181808080474
:104C1000080818180000000062968C0000000000D0
:104C20000000000000000000000000007FFFFFFF08
:104C3000FFFFFFFFFFFFFFFE7FFFFFFFFFFFFFFF05
:104C4000FFFFFFFE7FFFFFFFFFFFFFFFFFFFFFFEF6
:104C50007FFFFFFFFFFFFFFFFFFFFFFE7FFFFFFF65
:104C6000FFFFFFFFFFFFFFFE7FFFFFFFFFFFFFFFD5
:104C7000FFFFFFFE7FFFFFFFFFFFFFFFFFFFFFFEC6
:104C80007FFFFFFFFFFFFFFFFFFFFFFE7FFFFFFF35
:104C9000FFFFFFFFFFFFFFFE7FFFFFFFFFFFFFFFA5
:104CA000FFFFFFFE7FFFFFFFFFFFFFFFFFFFFFFE96
:104CB0007FFFFFFFFFFFFFFFFFFFFFFE7FFFFFFF05
:104CC000FFFFFFFFFFFFFFFE7FFFFFFFFFFFFFFF75
:104CD000FFFFFFFE7FFFFFFFFFFFFFFFFFFFFFFE66
:104CE0007FFFFFFFFFFFFFFFFFFFFFFE7FFFFFFFD5
:104CF000FFFFFFFFFFFFFFFE7FFFFFFFFFFFFFFF45
:104D0000FFFFFFFE7FFFFFFFFFFFFFFFFFFFFFFE35
:104D10007FFFFFFFFFFFFFFFFFFFFFFE7FFFFFFFA4
:104D2000FFFFFFFFFFFFFFFE7FFFFFFFFFFFFFFF14
:104D3000FFFFFFFE7FFFFFFFFFFFFFFFFFFFFFFE05
:104D40007FFFFFFFFFFFFFFFFFFFFFFE7FFFFFFF74
:104D5000FFFFFFFFFFFFFFFE7FFFFFFFFFFFFFFFE4
:104D6000FFFFFFFE7FFFFFFFFFFFFFFFFFFFFFFED5
:104D70007FFFFFFFFFFFFFFFFFFFFFFE7FFFFFFF44
:104D8000FFFFFFFFFFFFFFFE7FFFFFFFFFFFFFFFB4
:104D9000FFFFFFFE7FFFFFFFFFFFFFFFFFFFFFFEA5
:104DA0007FFFFFFFFFFFFFFFFFFFFFFE7FFFFFFF14
:104DB000FFFFFFFFFFFFFFFE7FFFFFFF3FFFFFFF44
:104DC000FFFFFFFE7FFFFFFFFFFFFFFE7FFF9FFE56
:104DD0007FFF9FFE1FFFFFFE7C931FFE7FF39FFE62
:104DE0005FFFFFFE7C323FFE7FF1F87FEE3AAFFEC1
:104DF0007FFF1FFE7FF19019043007BE673387FEE7
:104E00007FF998992098131E6633C7FE7FF898980B
:104E10000488831E627347FE7F8000000400039EA7
:104E200060000FFE7FC202000600078C70001FFEAC
:104E30007FFFFFFFFF1FFF80E7FFFFFE7FFFFFFFFA
:104E4000FE1FFFE1C7FFFFFE7FFFFFFFFE7FFFFFAB
:104E5000CFFFFFFE7FFFFFFFFFFFFFFFDFFFFFFE34
:104E60007FFFFFFFFFFFFFFFFFFFFFFE7FFFFFFF53
:104E7000E0FFFFFFFFFFFFFE7FFFFFFFC5FFFFFF1C
:104E8000FFFFFFFE7FFFFFFFFFFFFFFFFFFFFFFEB4
:104E90007FFFFFFFF1FFFFFFFFFFFFFE7FFFFFFF31
:104EA000F1FFFFFFFFFFFFFE7FFFFFFFF3FFF83F74
:104EB0007FFFFFFE7FFFFF8FC98FCC0E7FFFFFFEBE
:104EC0007FFFFF9F81CF8C4E7FFFFFFE7FFFFFCBD9
:104ED00093CECA4E7FFFFFFE7FFFFFC011C00000D0
:104EE0007FFFFFFE7FFFFFE019E00000FFFFFFFEF6
:104EF0007FFFFFFFFFFFFFFFFFFFFFFE7FFFFFFCC6
:104F0000FFF87FF87FFFFFFE7FFFFFFCFFF97FF9CF
:104F10003FFFFFFE7FFFFFFFFFFFFFFEFFFFFFFEE4
:104F20007FFFFFFFFFFCFFFCFFFFFFFE7FFFFFFF98
:104F3000FFFEFFFFFFFFFFFE7FFFFFFFFFFFFFFF03
:104F4000FFFFFFFE00000000000000000000000066
:104F5000FC0000000000003FE3FFFFFFFFFFFFC772
:104F60009FFFFFFFFFFFFFF97FFFFFFFFFFFFFFE38
:104F70007FFFFFFFFFFFFFFE7FFFFFFFFFFFFFFE43
:104F80007FFFFFFFFFFFFFFE7FFFFFFFFFFFFFFE33
:104F90007FFFFFFFFFFFFFFE7FFFFFFFFFFFFFFE23
:104FA0007FFFFFFFFFFFFFFE7FFFFFFFFFFFFFFE13
:104FB0007FFFFFFFFFFFFFFE7FFFFFFFFFFFFFFE03
:104FC0007FFFFFFFFFFFFFFE7FFFFFFFFFFFFFFEF3
:104FD0007FFFFFFFFFFFFFFE7FFFFFFFFFFFFFFEE3
:104FE0007FFFFFFFFFFFFFFE7FFFFFFFFFFFFFFED3
:104FF0007FFFFFFFFFFFFFFE7FFFFFFFFFFFFFFEC3
:105000003FFFFFFFFFFFFFFEDFFFFFFFFFFFFFF997
:10501000E0FFFFFFFFFFFF07FF000000000000FFB1
:10502000FFFFFFFFFFFFFFFFFFFFC0FFFFFFFF7F4F
:10503000FFFFFFFFFFC0FFFFFFFF3FFFFFFFFFFF7F
:10504000C0FFE4BFCEA4A7FFFFE1E400D3E53FCE5D
:105050009227FFFFE7EFC0C7F7FF4FE7E67C0FF0AF
:10506000FE807C86602F36643C066067007E926519
:1050700027266539266667000000000F30003900DA
:105080000000408198004F300E1D80000040FF9FBF
:10509000FFFF3FFF39FFFFFFC0FF3FFFFE7FFC39EF
:1050A000FD3FFFC0FE7FFFFEFFFEFDFFFFFFC000D4
:1050B000FFFFFFFFFFFFFFFFFFFFF8FFDFFFFFFF27
:1050C000FFFFFFFFFFF8FF9FFFFE7CFFFFFFFFFFDB
:1050D000F8FF2FFFFFFFFFFCFFF87908EF8F9FFE1F
:1050E0007FFF4CFFF9FBF8E7F3CFFC1C7F1E43FC6E
:1050F0003FA8E60784C90639F0819819C8E2532011
:10510000CF8F19F2C99999C800030400383C0000F8
:105110000000188003CC00783E0600000018FFFF56
:10512000FCFFFFFFFFFFFFFFF8FFFFF197FFFFFF0F
:10513000FF4FFFF8FFFFFBF7FFFFFFFFFFFFF80048
:10514000FFFFFFFFFFFFFFFFFFFEFFFFFFFFFFF37C
:10515000FFFFFFFEFFFFFFFFFFFFFFFFFFFEFFF26E
:105160005FE7FFE27FFFF3F8E9F29FE7E9E27FFF05
:10517000F3FCE3FBFFA7E3C93F7E7A0E3E43301703
:105180003E606033C200BF4932933E71453BCB2045
:105190008000000780000033C00080CC0027C003DF
:1051A00000399808FFCFFFFFFFFFFFF81FF8FF9FB0
:1051B000FFFFFFFFFFFC3FF2FF3FFFFFFFFFFFFF8F
:1051C000FFF6FFFFFFFFFFFFFFFFFFFEFFFFFFFFF9
:1051D000FFFFFFFFFFFFC0FFF25FE7FF3F9FFFE121
:1051E000E400E9F29FE7FF3FDFFFE7EFC0E3FBFFEB
:1051F000A7E7A0FE0FF0FF403E4330173C201C06FF
:10520000606700BF4932933CB21926666600800091
:105210000007BC001D0000004080CC002789809959
:1052200080000040FFCFFFFF81FF9CFFFFFFC0FF1A
:105230009FFFFFC7FF39FD3FFFC0FF3FFFFFFFFF9D
:105240007DFFFFFFC0000000FFFFFFFFFFFFFFFF2C
:10525000FCF9FFFFFFFFFFFFFFFCF3F81FFF03FF59
:10526000FE1E40E3FFDFFFF9FFFE7EFCF1FE8873C8
:10527000A3C0FF0FF47CCE1021CBC06606707CCC9F
:105280009909CB926666600000802011D00000046E
:105290008000E0601398000004FFFFFFF9FF9FFF0C
:1052A000FFFCFF97FFE1FFCFD3FFFCFFF7FFF7FF06
:1052B0009FFFFFFC686A6C747A4C00007072696E24
:1052C00074665F733A20256E20646973616C6C6F3D
:1052D000776564007072696E74663A20626164205A
:1052E000256E20617267756D656E74007072696EEF
:1052F00074665F733A20626164202573206172676F
:10530000756D656E74000000000000006E616E0037
:105310004E414E00696E6600494E46003000FEE781
:10532000FFFFFF80FFFFFF80FFEBFF80FFD5FF80C7
:10533000FFD5FF80FFAAFF80F3555780F4AAAB800A
:10534000EB555780D4A2A980EB5AAB80FABEAF8050
:10535000FA3EA780FABEAF80F57E5780EA95578067
:10536000D5495580EAB55780F54AAB80F56AD780B4
:10537000FFAAFF80FFD5FF80FFD5FF80FFD5FF800C
:10538000FFFFFF80FFFFFFFFFFFFFFC0FFA7FFFF43
:10539000FFE1E400FF97FFFFFFE7EFC0FFFFEC7CBA
:1053A0000FF0FF40FFCC063C066067003FCCA7191A
:1053B00026666600A000043D00000040200004397D
:1053C000800000401CFFFFF9FFFFFFC080FFFFFDD2
:1053D000FD3FFFC0E1FFFFF9FFFFFFC070B40121F7
:1053E000002213E00368001D0B4202D04D46EB186B
:1053F0005B1E1A601B1D241F042CFAD21D00A60779
:1054000001D51A80AD1C0C4000D02A700468001D24
:10541000002CE7D170BC7047FEE7FEE7704770478D
:1054200080B500F00DF801BD80B54020FCF770FAA2
:1054300001BD80B50148FDF7B7F901BDE4040020C6
:10544000024841680278891841607047E4000020F2
:1054500010B5074979441831064C7C44163404E0F1
:10546000081D0A68891888470100A142F8D110BDBB
:10547000080000002400000065FFFFFF8404000016
:10548000F40000200000000043C5FFFFDC00000026
:105490005401000000000020FEFEFD7EFBBEF7DE92
:1054A000EFEEDFF6BFFA0FE0EFEEEFEEEFEEEFEE2E
:1054B000EFEEEFEEEFEEE00EE00EEFEEEFEEEFEEE2
:1054C000EFEEEFEEEFEEEFEE0FE0BFFADFF6EFEE0E
:1054D000F7DEFBBEFD7EFEFE00F00DF8002801D0D9
:1054E000FFF7B6FF00BF00BF002000BF00BFFBF703
:1054F00025FF00F002F80120704780B500F002F8A7
:1055000001BDFEE707463846FFF7A4F9FBE7FEE7D3
:105510000548014603B4684680F3098800BF00BF10
:1055200000BF00BFFFF7D8FFA5EDF5FE70470000F4
:105530000000000000000000010203040607080943
:1055400001488047014800472D55000811550008C3
:105550000000000001020304FEE7FEE7FEE7FEE7AD
:10556000FEE7FEE7FEE7FEE704080A000080FD0014
:105570000368480008F8000050ED000001E900044D
:105580000F00100002FD000398540008E0000460C2
:105590000044000CFD0008204C00080F0010000221
:1055A000FD0008B85400083A000B0008FD0008840C
:1055B00053000846000C0009FD0008485200081975
:1055C00000190004FD00082053000852000D000BD4
:1055D000FD00082050000852000B000BFD0008CC15
:1055E00051000840001A0008FD0008504F000855FF
:1055F000000D000BFD0008B05000084F000E000A1F
:10560000FD00044051000801F9000004FC000212F2
:025610007A001E
:040000050800551189
:00000001FF
