:020000040800F2
:10000000800D0020857E0008D17C0008D37C00088C
:1000100000000000000000000000000000000000E0
:10002000000000000000000000000000D57C000877
:100030000000000000000000D77C0008D97C000808
:10004000E17C000800000000C33900083F460008BA
:10005000434800088B4A00082B4B0008EB7C000843
:1000600000000000B75000088B570008A369000883
:10007000BB690008F57C0008CF690008000000009B
:10008000676B00080000000000000000BB6B000868
:1000900000000000B76C0008BB6C00087F7C000803
:1000A000000000002B7E000800000000FF7C00081C
:1000B000FA21490141430800411E0028FBD1704745
:1000C000C0000100481E0029FBD1704738B586B03A
:1000D0008020800225490A6802430A600A680240BB
:1000E0000092009A0A6802430A600A68024000927D
:1000F000009A0A6802430A600A6802400092009A65
:100100000A6802430A6009680840009000980124C8
:100110000294039403200490802001909025ED0523
:1001200001A9280002F014FD4020019001A9280037
:1001300002F00EFD019401A90D4802F009FD2020F6
:10014000019001A9280002F003FD07B030BD10B5F1
:100150004C4C2068202188432060322002F050FE61
:10016000206820210143216010BD000014100240CE
:1001700000040048FCB5434A13684024A3431360BD
:100180008023DB4380240029116801D0214300E053
:100190001940116001215D4D2E680E432E60072627
:1001A00001960126F6436F46387001982F68374054
:1001B0002F606F463F78C7400F40176801D0274334
:1001C00000E01F4017602F680F432F60401EEDD5E1
:1001D000286806402E601068402101431160F3BD7D
:1001E00070B504000D000F2600210F222A40B02018
:1001F0001043FFF7BFFF002126403000FFF7BAFF92
:1002000000216006420F10201043FFF7B3FF404863
:100210000470457070BD000080B5FFF757FF3B4884
:10022000016801220A4302601648016840220A431D
:100230000260016820220A43026001688022914323
:100240000160FFF784FF0021E220FFF793FF0A20FF
:1002500002F0D6FD0021A420FFF78CFF0021A6208C
:10026000FFF788FF00212F20FFF784FF0A2002F00C
:10027000C7FD00212F20FFF77DFF0021AF20FFF7F2
:1002800079FF01BD1400004830B5CB084907490F7C
:10029000204CC50028182018C45C01258D40002A78
:1002A00002D02543C55430BDAC43C45430BD00001A
:1002B00070B500210020FFF793FF0024154E0025A4
:1002C00001213019EAB2D3009A18805CFFF752FF7F
:1002D0006D1CE8B26028F3DB641C092CEFDB70BDF9
:1002E00070B500210020FFF77BFF00200021094AA4
:1002F00000235418DDB2EE00751960555B1CDCB2AA
:10030000602CF6DB491C0929F2DB70BD140400489F
:100310007C090020780300200EB4FFB50700002000
:1003200001E00198401C019001980AA9498888427F
:1003300038D20AA90979484302900C980299405C86
:100340000026002400256946898C019A89186A468E
:1003500011706946487001E0012211E06846008D85
:100360008542DED27819694649788C4601230721F7
:100370006A07520F891A8B4061461942ECD000225D
:1003800069460978C0B2FFF77FFF641C082C07D3C9
:100390000024761C0C9802998919405C69464870C3
:1003A0006D1CDBE704B00498F0BC04B0004708B44F
:1003B000FFB5060024206844007802903018401EE3
:1003C000602834DA6846418009A840780190684680
:1003D000408801994018401E442828DA00276846C2
:1003E000427000E07F1C0198874220DA0B98694632
:1003F00049782039019A5143C919455C002468465F
:100400004088C0196946087001E0002207E00298A0
:100410008442E7DA30190A992940F6D00122694668
:100420000978C0B2FFF730FF6D00641CEFE7FFE70B
:1004300004B00498F0BC02B0004708B4FFB5002532
:10044000040068460181170012E009A881B06946DE
:100450000CC80CC102680A6008BC320068460189F9
:10046000A0B2FFF7A4FF24206844007824186D1C74
:10047000E8B23E5C002EE8D1DAE780B520216E4874
:1004800002F098FC012801D1C349086001BD81B088
:100490000100481E002908D00021009100990C2974
:1004A000F6DA00BF0099491CF7E701B0704710B5B4
:1004B000DC2802DB9620400010BD152802DA9620C9
:1004C000000110BD0022BF49D300C9184B68834208
:1004D00002DBCB68984203DA521C052AF3D30BE007
:1004E0004A680C68801A8B681B1B5843C968891AB4
:1004F00002F09AFC201810BD0020C04310BD10B5BA
:10050000A54CFFF7D4FF60602068012812D10020BD
:1005100020606068FFF7BBFFA94C0122402120004A
:1005200002F04EFC0A20FFF7B2FF0022402120001B
:1005300002F046FC10BD00B599B00100684602F01B
:10054000A7FC96A102F0ACFC684602F0B7FCFA23C7
:100550009B0082B269469C4802F0EEFC19B000BDD7
:1005600030B59FB08E4D2C00983407228D49200065
:1005700003F0E6F9286F0590E86D0490686C03F0CD
:1005800007FA02900391A86C03F002FA009001911F
:100590002A6B8E4906A803F015FA06A9200002F07E
:1005A0007FFCFFF7C8FF1FB030BD7FB505007E4E52
:1005B000300003F0DAFA300003F024FA009501204D
:1005C00001906946300003F0C4FB9625300003F02B
:1005D000F3FC300003F013FB6421300003F038FB20
:1005E000002808D1300003F0B1FB03F049FD2100E1
:1005F00003F061FD0400012002F002FC6D1EE5D154
:1006000020006A4903F0E7FD01006548806D01287C
:100610000ED1674803F031FE664903F0DCFD03F0BC
:10062000B7F96BA20CCA03F080FE03F040FF010093
:10063000080004B070BD000000040048F8B58CB09C
:10064000574CA28922635C4902A803F0BBF981B030
:1006500068460ECC0EC00C3C08BC02AA002100204B
:10066000FFF7EBFE554D0020E8606861544F802095
:10067000000269460880E089E968884220DB2000A2
:10068000203003F070FF206BFFF739FF082138009E
:1006900002F090FB002813D01021380002F08AFBF2
:1006A00000280DD08021380002F084FB002807D0FC
:1006B000684601889020C00502F07CFB0028D6D156
:1006C000DC20A189401A0190208A019902F0ACFB3C
:1006D00028630026EE600198E8622000203003F0D5
:1006E00042FF206BFFF70BFFE868296B884203DBB2
:1006F000206B401C2063EE60206BD2281ADA0821A0
:10070000380002F057FB00283BD01021380002F0DF
:1007100051FB002835D08021380002F04BFB002827
:100720002FD0684601889020C00502F043FB0028C6
:10073000D3D126E0DC20206301206063EE6001223B
:100740004021380002F03CFB226B1B4907A803F054
:1007500039F981B068460ECC0EC00C3C08BC07AA23
:1007600000210020FFF769FE81B068460ECC0EC064
:1007700008BCD04A28210020FFF75FFEFFF798FD54
:1007800007E000224021380002F01AFB01206063DC
:10079000EE600DB0F0BD00006C0900200D0A0000F5
:1007A0000000002088700008F808002000001643B0
:1007B0000000604000F07F45A47000082402002083
:1007C00000040048607D00080408002090700008C4
:1007D000D7A3703D0AD7F73FFEB5B34C0025A565FA
:1007E0000020FFF7E2FE03F0D3F8B0A20CCA03F03A
:1007F000C5FE03F05CFEFF21890503F0ECFC06005A
:10080000A664206C03F0C4F800900191300003F05E
:10081000BFF802000B00B9492000983003F0D2F86D
:1008200081B068460ECC0EC00C3C08BC2200983249
:100830000A210020FFF701FEFFF73AFDE26EA36CEC
:1008400080273F0101261800E16B03F0F9FE06D86E
:10085000002A04D1606B012830D1E66601E0012A4C
:100860002CD1206C190003F0FFFE09D21800E16BB7
:1008700003F0FAFE04D2A566E5662567656744E0E5
:10088000A06E05281ADB002240219D4802F098FA4C
:100890006563E5662667A566E565A667994E9A498C
:1008A000300003F08FF881B068460ECC0EC00C3CCF
:1008B00008BC32001E210020FFF7BFFD206F012879
:1008C00023D19026F60501223900300002F078FA93
:1008D000642002F095FA00223900300002F070FA2C
:1008E000322002F08DFA01223900300002F068FA5D
:1008F000642002F085FA00223900300002F060FA2C
:10090000606F142801DB65672567E26EA36C022621
:10091000206C190003F094FE10D8002A0ED1A06BB1
:10092000B10503F08DFE3AD8606B012837D118006D
:10093000764903F085FE32D8E66601E0022A2ED120
:10094000206C190003F090FE0AD21800E16B03F04E
:100950008BFE05D2E566A5662567A567656751E04C
:10096000A06EA18B88421ADB00224021644802F06D
:1009700027FA6563E5662667A566A667E565614EA5
:10098000B049300003F01EF881B068460ECC0EC0AE
:100990000C3C08BC32001E210020FFF74EFD206FEA
:1009A000022825D1012239009020C00502F008FA62
:1009B000322002F025FA002239009020C00502F012
:1009C000FFF91E2002F01CFA012239009020C00518
:1009D00002F0F6F9322002F013FA002239009020DA
:1009E000C00502F0EDF9606F1E2801DB6567256721
:1009F000A06F022807D1E06FE18B884203DBA56777
:100A00002566E565E567F7BD3EB5274C0120A06585
:100A1000FFF7CBFD8C4903F030FC8C4903F04BFB16
:100A2000002103F021FE00D20020606425009835EB
:100A3000618A009102F0ACFF02000B00A24928007D
:100A400002F0C0FF81B068460ECC0EC008BC2A0080
:100A500014210020FFF7F1FCFFF72AFC37BD10B589
:100A6000274C0821200002F0A5F9002813D01021FE
:100A7000200002F09FF900280DD08021200002F014
:100A800099F9002807D0802109029020C00502F0C2
:100A900091F9002807D101208C49886101220221A7
:100AA000200002F08DF910BD00000020F0F7E8D919
:100AB000CABB5140B470000830B587B083480121EB
:100AC000416200250562FFF70BFCFFF7F1FB804C4C
:100AD000A08A01280FD16563A289A34902A802F068
:100AE00071FF81B068460ECC0EC008BC02AA00217E
:100AF0000020FFF7A2FC07B030BD0000C070000866
:100B00000004004898000020D07000089A99993E8F
:100B1000FEB5FFF761FEFFF777FFFFF721FD6C4C95
:100B20000126208B03F0ACFA616C03F089FD2ED80E
:100B3000E06D216E0143A06F084328D1E665F50200
:100B4000012229009020C00502F03AF90A2002F0A3
:100B500057F9002229009020C00502F031F983499D
:100B60002000983002F02EFF81B068460ECC0EC0F7
:100B70000C3C08BC220098321E210020FFF75DFCCF
:100B8000FFF796FB606B002801D1FFF757FD784F08
:100B90000025608A03F074FA616C03F065FD24D2CD
:100BA000E06D012821D1A06F00281ED12665606D5F
:100BB000618B884219DB6565E56525652666656399
:100BC0006C4E9449300002F0FDFE81B068460ECCB8
:100BD0000EC00C3C08BC32001E210020FFF72DFC8B
:100BE00000224021380002F0EBF8206E012805D1E8
:100BF000606EE18A884201DB256665668021090214
:100C00009020C00502F0D6F8002819D1656325664A
:100C10002567E565A56781B068460ECC0EC008BCA7
:100C20007D4A1E210020FFF708FCFFF741FB002250
:100C30004021380002F0C4F8FA20800002F0E0F809
:100C4000F7BD0000E07000080AD7EC429A9935C25F
:100C500080B5FFF704FF1D48406A002801D1FFF767
:100C60002BFF1B48808A012801D1FFF751FF01BDEE
:100C700070B586B08020800268490A6802430A6025
:100C80000A6802400092009A0A6802430A600968F2
:100C90000840009000988020800001901124029468
:100CA000002504959026F60501A9300001F050FFBB
:100CB0008020400001900294049501A9300001F0C9
:100CC00047FF06B070BD0000F0700008240200204D
:100CD0000000002010B5FA208000FFF7F1F99A4CCF
:100CE000206880218900014321606420FFF7E8F932
:100CF000206880214900014321606420FFF7E0F96A
:100D000020689249014021606420FFF7D9F92068EA
:100D10008F49014021606420FFF7D2F910BD10B562
:100D20006420FFF7CDF9884C206889490140216093
:100D30006420FFF7C5F920688449014021606420E0
:100D4000FFF7BEF92068802149000143216064203B
:100D5000FFF7B6F920688021890001432160FA205D
:100D60008000FFF7ADF910BDA47000080071000805
:100D70000004004898000020F2B582B00021754CB4
:100D80006268734B13406360802508266A461070C2
:100D900001916F4F68460078290001400029606882
:100DA00003DD80218900014301E068490140616061
:100DB0006420FFF785F96068F943014361606420AE
:100DC000FFF77EF96068384060602068800503D5D1
:100DD00001982900014301916D08761EDAD1019D29
:100DE0006846007A6168594A0A40626001280CD15D
:100DF0006068F943014361606420FFF761F960684E
:100E0000074067606420FFF75BF96420FFF758F93B
:100E1000E8B2FEBD0C710008187100081410024001
:100E200038B504000D00FFF755FF0121200A4200EC
:100E3000A0201043C0B2FFF79FFF0121E0B2FFF7EF
:100E40009BFF01212800FFF797FFFFF768FF0F20A6
:100E5000FFF72EF9002032BDFEB500246E460700D4
:100E600000203055380A45003555FFF733FF012182
:100E7000A0202843C0B2FFF77FFF0121F8B2FFF79F
:100E80007BFFFFF727FF0121A1202843C0B2FFF716
:100E900073FF0021FF20FFF76FFF3055FFF73FFF83
:100EA0000120FFF705F9002C05D0305D3119491EEE
:100EB0000978814203D0641C092CD1DB00E0FEBD1F
:100EC0003078FEBD38B504000D00E1B22800FFF710
:100ED000A7FF210A6D1CA8B2FFF7A2FF002032BDB8
:100EE00038B50400601C80B2FFF7B6FF0502200091
:100EF000FFF7B2FF281832BD38B59025ED058024E4
:100F0000240101222100280001F05AFF0A2001F0EB
:100F100077FF00222100280001F052FF31BD80B58B
:100F2000FFF7DEF9FFF7C4F9FA204000FFE701F010
:100F300067FF0120A449C8648021A44801F03AFF5A
:100F40000028F9D001BD000014000048FFFDFFFF9C
:100F5000FFFEFFFF10000048FEB5FFF7C1F99C48F7
:100F600082B069460CC80CC102680A600CBC002142
:100F70000020FFF7D1F9974882B069460CC80CC130
:100F800002680A600CBC1E210520FFF7C5F98E4DD2
:100F9000AA8B91A12800843002F014FD81B068462C
:100FA0000ECD0EC00C3D08BC2A0084322421142032
:100FB000FFF743FAFFF77CF9FA20400001F020FF29
:100FC0000020E8640127814E0821300001F0F2FE84
:100FD000002806D1A88B401CA883EF64962001F05E
:100FE0000FFF1021300001F0E5FE002806D1A88B8C
:100FF000401EA883EF64962001F002FFE86C0128F0
:101000001BD12800203003F0AEFA0020E864FFF77F
:1010100073FF2C008434AA8B6FA1200002F0D2FC55
:1010200081B068460ECD0EC00C3D08BC22002421C4
:101030001420FFF702FAFFF73BF98021300001F09E
:10104000B9FE002807D0F9039020C00501F0B2FED8
:101050000028B9D117E0FFF743F9BF4882B06946CD
:101060000CC80CC102680A600CBC1E210720FFF7E7
:1010700053F9FFF71DF96E21A88BFFF723FFFA2024
:10108000800001F0BDFEFFF74AFFF7BDFEB5FFF798
:1010900027F9B24882B069460CC80CC102680A60E0
:1010A0000CBC00210020FFF737F94A4882B069469E
:1010B0000CC80CC102680A600CBC1E210520FFF799
:1010C0002BF9414DEA8B44A12800843002F07AFCD0
:1010D00081B068460ECD0EC00C3D08BC2A0084329B
:1010E00024211420FFF7A9F9FFF7E2F8FA204000C5
:1010F00001F086FE0020E8640127344E082130000C
:1011000001F058FE002806D1E88B401CE883EF640C
:10111000962001F075FE1021300001F04BFE0028F2
:1011200006D1E88B401EE883EF64962001F068FE4C
:10113000E86C01281BD12800203003F014FA0020AD
:10114000E864FFF7D9FE2C008434EA8B22A120004A
:1011500002F038FC81B068460ECD0EC00C3D08BCD4
:10116000220024211420FFF768F9FFF7A1F880215D
:10117000300001F01FFE002807D0F9039020C005C1
:1011800001F018FE0028B9D11BE0FFF7A9F8DC48F0
:1011900082B069460CC80CC102680A600CBC1E21F2
:1011A0000720FFF7B9F8FFF783F87821E88BFFF7FE
:1011B00089FEE88B3C214843E883FA20800001F057
:1011C0001FFEFFF7ACFEF7BD000000200004004842
:1011D000D00200206402002025642000FEB5FFF745
:1011E0007FF8BE4882B069460CC80CC102680A602C
:1011F0000CBC00210020FFF78FF8B94882B0694687
:101200000CC80CC102680A600CBC1E210520FFF747
:1012100083F8B44DE86B02F0BBFB02000B00B7494A
:101220002800843002F0CEFB81B068460ECD0EC09F
:101230000C3D08BC2A00843224211420FFF7FDF85D
:10124000FFF736F8FA20400001F0DAFD0020E864EC
:101250000127A54E0821300001F0ACFD00280DD17A
:10126000E86B02F095FBA1A20CCA03F010FA03F0A0
:101270001EF9E863EF64962001F0C2FD10213000F2
:1012800001F098FD00280DD1E86B02F081FB99A2D6
:101290000CCA03F0FCF903F00AF9E863EF64962046
:1012A00001F0AEFDE86C01281FD12800203003F0CA
:1012B0005AF90020E864FFF71FFE2C008434E86B25
:1012C00002F066FB02000B008C49200002F07AFB62
:1012D00081B068460ECD0EC00C3D08BC2200242112
:1012E0001420FFF7AAF8FEF7E3FF8021300001F099
:1012F00061FD002807D0F9039020C00501F05AFDD8
:101300000028A7D124E0FEF7EBFF134882B069461E
:101310000CC80CC102680A600CBC1E210720FEF735
:10132000FBFFFEF7C5FFC44CE86B210002F0A5FFF0
:10133000E86303F087FA322180B2FFF7C3FDFA2099
:10134000800001F05DFDE86B210002F044FFE863DE
:10135000FFF7E5FDF7BD000070020020DC02002071
:10136000FEB5FEF7BDFFB54882B069460CC80CC19A
:1013700002680A600CBC00210020FEF7CDFF58482F
:1013800082B069460CC80CC102680A600CBC1E2100
:101390000520FEF7C1FF534D286C02F0F9FA020058
:1013A0000B0056492800843002F00CFB81B06846DF
:1013B0000ECD0EC00C3D08BC2A008432242114201E
:1013C000FFF73BF8FEF774FFFA20400001F018FD2C
:1013D0000020E8640127444E0821300001F0EAFCB7
:1013E00000280DD1286C02F0D3FA40A20CCA03F0F9
:1013F0004EF903F05CF82864EF64962001F000FDDC
:101400001021300001F0D6FC00280DD1286C02F02C
:10141000BFFA38A20CCA03F03AF903F048F828647E
:10142000EF64962001F0ECFCE86C01281FD1280045
:10143000203003F098F80020E864FFF75DFD2C00F1
:101440008434286C02F0A4FA02000B002B4920001F
:1014500002F0B8FA81B068460ECD0EC00C3D08BC53
:10146000220024211420FEF7E8FFFEF721FF80214F
:10147000300001F09FFC002807D0F9039020C00540
:1014800001F098FC0028A7D124E0FEF729FF1C48B2
:1014900082B069460CC80CC102680A600CBC1E21EF
:1014A0000720FEF739FFFEF703FF634C286C21008D
:1014B00002F0E3FE286403F0C5F9642180B2FFF76F
:1014C00001FDFA20800001F09BFC286C210002F055
:1014D00082FE2864FFF723FDF7BD00009402002080
:1014E0006402002000000020000400489A999999A5
:1014F0009999B93F9A9999999999B9BF2871000812
:1015000070020020FEB5FEF7EBFE9A4882B06946F5
:101510000CC80CC102680A600CBC00210020FEF758
:10152000FBFE954882B069460CC80CC102680A608F
:101530000CBC1E210520FEF7EFFE904D6A8B90A19A
:101540002800843002F03EFA81B068460ECD0EC00D
:101550000C3D08BC2A00843224211420FEF76DFFC4
:10156000FEF7A6FEFA20400001F04AFC0020E864E5
:101570000127844E0821300001F01CFC002806D110
:10158000688B401C6883EF64962001F039FC1021C1
:10159000300001F00FFC002806D1688B401E6883E4
:1015A000EF64962001F02CFCE86C01281BD1280088
:1015B000203002F0D8FF0020E864FFF79DFC2C00EB
:1015C00084346A8B6EA1200002F0FCF981B0684679
:1015D0000ECD0EC00C3D08BC220024211420FEF7C5
:1015E0002CFFFEF765FE8021300001F0E3FB0028B0
:1015F00007D0F9039020C00501F0DCFB0028B9D129
:1016000017E0FEF76DFEAD4882B069460CC80CC10C
:1016100002680A600CBC1E210720FEF77DFEFEF763
:1016200047FE5021688BFFF74DFCFA20800001F047
:10163000E7FBFFF774FCF7BD00002041C402002067
:10164000FEB5FEF74DFE9E4882B069460CC80CC13F
:1016500002680A600CBC00210020FEF75DFE4648CF
:1016600082B069460CC80CC102680A600CBC1E211D
:101670000520FEF751FE414DEA8A41A12800843041
:1016800002F0A0F981B068460ECD0EC00C3D08BC3A
:101690002A00843224211420FEF7CFFEFEF708FE34
:1016A000FA20400001F0ACFB0020E8640127354E31
:1016B0000821300001F07EFB002806D1E88A401C9A
:1016C000E882EF64962001F09BFB1021300001F0CE
:1016D00071FB002806D1E88A401EE882EF6496205C
:1016E00001F08EFBE86C01281BD12800203002F0AD
:1016F0003AFF0020E864FFF7FFFB2C008434EA8AFD
:101700001FA1200002F05EF981B068460ECD0EC028
:101710000C3D08BC220024211420FEF78EFEFEF7AB
:10172000C7FD8021300001F045FB002807D0F903F8
:101730009020C00501F03EFB0028B9D117E0FEF76C
:10174000CFFD5E4882B069460CC80CC102680A60D1
:101750000CBC1E210720FEF7DFFDFEF7A9FD3C2192
:10176000E88AFFF7AFFBFA20800001F049FBFFF7A2
:10177000D6FBF7BDAC020020640200200000002070
:101780002564200000040048FEB5FEF7A9FD9A4834
:1017900082B069460CC80CC102680A600CBC00210A
:1017A0000020FEF7B9FD954882B069460CC80CC10F
:1017B00002680A600CBC1E210520FEF7ADFD904DAD
:1017C0006A8A90A12800843002F0FCF881B0684653
:1017D0000ECD0EC00C3D08BC2A00843224211420FA
:1017E000FEF72BFEFEF764FDFA20400001F008FB37
:1017F0000020E8640127844E0821300001F0DAFA65
:10180000002806D1688A401C6882EF64962001F0A7
:10181000F7FA1021300001F0CDFA002806D1688ACD
:10182000401E6882EF64962001F0EAFAE86C012815
:101830001BD12800203002F096FE0020E864FFF75C
:101840005BFB2C0084346A8A6EA1200002F0BAF897
:1018500081B068460ECD0EC00C3D08BC220024218C
:101860001420FEF7EAFDFEF723FD8021300001F091
:10187000A1FA002807D0F9039020C00501F09AFAD8
:101880000028B9D117E0FEF72BFD0C4882B069465D
:101890000CC80CC102680A600CBC1E210720FEF7B0
:1018A0003BFDFEF705FD1E21688AFFF70BFBFA20C2
:1018B000800001F0A5FAFFF732FBF7BD70020020AF
:1018C000B8020020FEB5FEF70BFD9E4882B06946C7
:1018D0000CC80CC102680A600CBC00210020FEF795
:1018E0001BFD464882B069460CC80CC102680A60FC
:1018F0000CBC1E210520FEF70FFD414D2A8B41A196
:101900002800843002F05EF881B068460ECD0EC02B
:101910000C3D08BC2A00843224211420FEF78DFDE2
:10192000FEF7C6FCFA20400001F06AFA0020E864E5
:101930000127354E0821300001F03CFA002806D17D
:10194000288B401C2883EF64962001F059FA10215F
:10195000300001F02FFA002806D1288B401E288382
:10196000EF64962001F04CFAE86C01281BD12800A6
:10197000203002F0F8FD0020E864FFF7BDFA2C00EB
:1019800084342A8B1FA1200002F01CF881B0684625
:101990000ECD0EC00C3D08BC220024211420FEF701
:1019A0004CFDFEF785FC8021300001F003FA002891
:1019B00007D0F9039020C00501F0FCF90028B9D147
:1019C00017E0FEF78DFCB44882B069460CC80CC124
:1019D00002680A600CBC1E210720FEF79DFCFEF782
:1019E00067FC4621288BFFF76DFAFA20800001F092
:1019F00007FAFFF794FAF7BD88020020640200207E
:101A0000000000202564200000040048FEB5FEF719
:101A100067FCA24882B069460CC80CC102680A6023
:101A20000CBC00210020FEF777FC9D4882B069467F
:101A30000CC80CC102680A600CBC1E210520FEF710
:101A40006BFC984DAA8998492800843001F0BAFFB0
:101A500081B068460ECD0EC00C3D08BC2A00843211
:101A600024211420FEF7E9FCFEF722FCC82001F037
:101A7000C7F90020E86401278C4E0821300001F0EE
:101A800099F9002806D1A889401CA881EF64642038
:101A900001F0B6F91021300001F08CF9002806D1D0
:101AA000A889401EA881EF64642001F0A9F9E86CC0
:101AB00001281ED12800203002F055FD0020E864E6
:101AC000FFF71AFA2C008434AA897749200001F024
:101AD00079FF81B068460ECD0EC00C3D08BC2200D7
:101AE00024211420FEF7A9FCFEF7E2FB322001F0CE
:101AF00087F98021300001F05DF9002807D0F90353
:101B00009020C00501F056F90028B6D117E0FEF785
:101B1000E7FB614882B069460CC80CC102680A60E4
:101B20000CBC1E210720FEF7F7FBFEF7C1FB0021CE
:101B3000A889FFF7C7F9FA20800001F061F9FFF7E3
:101B4000EEF9F7BDA0020020FEB5FEF7C9FBAF48D5
:101B500082B069460CC80CC102680A600CBC002146
:101B60000020FEF7D9FB4E4882B069460CC80CC174
:101B700002680A600CBC1E210520FEF7CDFB494D12
:101B8000EA89A3492800843001F01CFF81B068462F
:101B90000ECD0EC00C3D08BC2A00843224210F203B
:101BA000FEF74BFCFEF784FBFA20400001F028F919
:101BB0000020E86401273D4E0821300001F0FAF8CA
:101BC000002806D1E8896430E881EF64C82001F07C
:101BD00017F91021300001F0EDF8002806D1E8894E
:101BE0006438E881EF64C82001F00AF9E8896428C4
:101BF00001DA6420E881E86C01281BD1280020303C
:101C000002F0B1FCFFF778F90020E8642C0084347E
:101C1000EA897F49200001F0D5FE81B068460ECDEB
:101C20000EC00C3D08BC220024210F20FEF705FC4D
:101C3000FEF73EFB8021300001F0BCF8002807D001
:101C4000F9039020C00501F0B5F80028B4D11FE0D9
:101C5000FEF746FB104882B069460CC80CC102680A
:101C60000A600CBC1E210720FEF756FBFEF720FB86
:101C70000A21E889FFF726F9642001F0C1F8FFF78F
:101C80004EF98021300001F095F80028F9D0F7BD19
:101C9000FFF745F9F7BD0000700200202402002084
:101CA0006402002000000020307100080004004899
:101CB000FEB5FEF715FB574882B069460CC80CC14B
:101CC00002680A600CBC00210020FEF725FB524888
:101CD00082B069460CC80CC102680A600CBC1E21A7
:101CE0000520FEF719FB4D4C4D4E228A4849300025
:101CF00001F068FE81B068460ECC0EC00C3C08BCFA
:101D0000320024210F20FEF798FBFEF7D1FAFA20CB
:101D100001F076F80020E064424F9025ED0508219F
:101D2000380001F047F8002807D1208A643020826B
:101D30000120E064C82001F063F81021380001F0B0
:101D400039F8002807D1208A643820820120E06415
:101D5000C82001F055F8208A642801DA6420208226
:101D6000E06C012819D12000203002F0FCFBFFF7C5
:101D7000C3F80020E064228A2549300001F022FEE9
:101D800081B068460ECC0EC00C3C08BC3200242149
:101D90000F20FEF752FBFEF78BFA8021380001F08E
:101DA00009F8002807D080210902280001F002F874
:101DB0000028B4D120E0FEF793FABA4882B0694611
:101DC0000CC80CC102680A600CBC1E210720FEF77B
:101DD000A3FAFEF76DFA1421208AFFF773F8FA20B0
:101DE000800001F00DF8FFF79AF88021380000F02C
:101DF000E1FF0028F9D0F7BDFFF791F88021090233
:101E0000280000F0D7FF0028F8D0F7BD58020020C6
:101E1000387100087C0200206402002000000020CD
:101E20008400002000040048FEB5FEF759FAAD4CCE
:101E300082B068460ECC0EC00C3C0CBC1C210020AD
:101E4000FEF76AFAFEF734FAFA20400000F0D8FFF5
:101E50000120A0620020A449C8640F468021A34845
:101E600000F0A8FF0028F9D096256D009F4C0120B6
:101E700000909C4E0821200000F09CFF002807D114
:101E8000B06A401CB0620098F864280000F0B8FF07
:101E90001021200000F08EFF002807D1B06A401EFC
:101EA000B0620098F864280000F0AAFF9020C005F6
:101EB000019080252D02290000F07CFF002860D0D1
:101EC000B06A0B2875DD0B20B062F86C012818D1C0
:101ED0003800203002F047FBFFF70EF80020F864CE
:101EE000FEF7FEF9B06A012867D182B068460ECECF
:101EF0000EC00C3E0CBC1C210020FEF70DFAFEF7B4
:101F0000D7F98021200000F055FF0028ACD1FEF762
:101F1000F3FFB06A012801D1FFF778FDB06A02280B
:101F200001D1FFF711FEB06A032801D1FFF7C0FE0F
:101F3000B06A042801D1FFF727FCB06A052801D157
:101F4000FFF7C0FCB06A062801D1FFF7DBFAB06AE0
:101F5000072801D1FFF774FBB06A082801D1FFF709
:101F60003DF9B06A092801D1FFF7FAF9B06A0A28E9
:101F700001D1FEF7F1FFB06A0B2801D1FFF786F817
:101F800072E7FEF7ADF9FEF793F9642000F038FF31
:101F90000098B0620020F8642900019800F00AFF60
:101FA0000028F9D00021796339663967F965B96786
:101FB000F7BD002889DC009886E7022807D14C4845
:101FC00082B069460CC80CC102680A6092E7032817
:101FD00001D14848F4E7042801D14748F0E7052833
:101FE00001D14648ECE7062801D14548E8E7072833
:101FF00001D14448E4E708280AD1434882B0694641
:102000000CC80CC102680A600CBC1C210D2074E7CE
:1020100009280AD13D4882B069460CC80CC1026843
:102020000A600CBC1C210A2067E70A280AD138483C
:1020300082B069460CC80CC102680A600CBC1C2145
:1020400005205AE70B2800D059E73248E3E770B57E
:10205000264C8021200000F0ADFE002821D1FEF7A3
:102060004BFF00224021200000F0AAFE01220221A5
:10207000200000F0A5FE1B4D01262E62FEF718F988
:10208000FA20400000F0BCFEAE620020E649C864C1
:1020900068628021200000F08DFE0028F9D0FFF753
:1020A000C3FE70BD7002002070B5040007221A49FB
:1020B00002F0E5FB002814D118A63100E01D02F063
:1020C000F5FB0024D94D08E002F0C1FCA1006850E6
:1020D0003100002002F0EAFB641C002801D00D2C26
:1020E000F2DB70BD24020020000000200004004844
:1020F000580200207C02002088020020A00200205C
:10210000AC020020B802002094020020C40200208B
:10211000D0020020DC020020407100082F000000E7
:10212000F8B5A4B0C04C9026F60580252D01D04905
:102130002000FC3002F092FC002862D0012229002D
:10214000300000F03DFEC82000F05AFE00222900B9
:10215000300000F035FEC748210098310CC80CC192
:10216000E08B3C2100F060FEE083216CC24802F06D
:1021700084F82064E16BC04802F07FF8E063A16B53
:10218000BD4802F07AF80700A763A08A0A90E08BA6
:102190000990A08B0890206C02F054FB0790E06B34
:1021A00002F050FB0690380002F04CFB0590E08AEC
:1021B0000490608B0390208B0290608A0190208AAB
:1021C0000090E389A289C7490BA801F0FBFB0BA98A
:1021D0002000983000F064FEFEF7ADF9A06BA64930
:1021E00001F0F9FFA063E06BA34901F0F4FFE063A5
:1021F000206CA14901F0EFFF2064E08B3C214843B3
:10220000E0830127B8492000FC3002F027FC0028B9
:1022100000D1F9E001222900300000F0D1FD642056
:1022200000F0EEFD00222900300000F0C9FD9620EC
:1022300000F0E6FD01222900300000F0C1FDFA2087
:1022400000F0DEFD00222900300000F0B9FD200082
:10225000FC30FFF729FF754D2868A081052000F0AC
:10226000CFFD6868E081052000F0CAFDA8682082E3
:10227000052000F0C5FDE8686082052000F0C0FD83
:1022800028692083052000F0BBFD68696083052074
:1022900000F0B6FDA869E082052000F0B1FD764EA1
:1022A000E86901F0FDFE310001F095FFA063052013
:1022B00000F0A6FD286A01F0F3FE310001F08BFF6B
:1022C000E063052000F09CFD686A01F0E9FE310042
:1022D00001F081FF2064052000F092FDA86AA08330
:1022E000052000F08DFDE86AE083052000F088FD00
:1022F000286BA082052000F083FD0021286880B2B1
:10230000FEF7E0FD052000F07BFD0A21686880B241
:10231000FEF7D8FD052000F073FD1421A86880B2F7
:10232000FEF7D0FD052000F06BFD1E21E86880B2AD
:10233000FEF7C8FD052000F063FD2821286B80B260
:10234000FEF7C0FD052000F05BFD3221E86980B298
:10235000FEF7B8FD052000F053FD3C21A86980B2CE
:10236000FEF7B0FD052000F04BFD4621286980B244
:10237000FEF7A8FD052000F043FD5021686980B2FA
:10238000FEF7A0FD052000F03BFD5A21286A80B22F
:10239000FEF798FD052000F033FD6421686A80B2E5
:1023A000FEF790FD052000F02BFD6E21A86A80B29B
:1023B000FEF788FD052000F023FD7821E86A80B251
:1023C000FEF780FD052000F01BFDFDF789FFFDF7FE
:1023D0006FFF6B4D6B49280001F0F4FA81B068463D
:1023E0000ECC0EC00C3C08BC2A0000210020FEF7D9
:1023F00024F8FDF75DFF644800F002FD80202750BF
:10240000FA20400000F0FCFC60492000FC3002F0A3
:1024100025FB002805D080202750FA20400000F03E
:10242000EFFC25B0F0BD00000000002038090020BE
:1024300000685749884200D0704710B50020FF223D
:10244000223254494B88934201DB00234B804B8856
:10245000934208DA4A88531C4B800B784E4CA354A5
:1024600088660120086601224C4800F0D2FD10BDAC
:102470004871000840710008000020417CB502F05E
:1024800005FB44494A6E821A642A03D34866886E63
:10249000401C8866886E052822DB086E01281FD143
:1024A000002088663C4C00943D4E3EA508E00300A9
:1024B0003200FF2128313C4802F0EEFAFFF730FEEF
:1024C0006A462900009802F00DFB0028EFD1002693
:1024D000304D2E6691214900200002F027FB6E80CE
:1024E00073BD0000907D00085471000800682F49FA
:1024F000884200D0704710B52D482E494A6B002AFB
:1025000002D1C268521CC2600269521C0261FA23E5
:102510009B009A4233DB002202610B6E012B02D139
:102520004B6E5B1C4B660B6D012B02D14B6D5B1C24
:102530004B658369012B05D1046A002C02D1C46963
:10254000641CC461CC6E002C02DD8C6E641C8C6635
:102550000C6F002C02DD4C6F641C4C678C6F022CDE
:1025600002D1CC6F641CCC67C1693C2907DB012B0D
:1025700005D18261C26102210F4800F021FC10BD2B
:10258000980000205C710008DC05000068710008FC
:10259000003801408C080020E006002004080020DC
:1025A000747100080D0A0000FC000020002C01409E
:1025B000240200200000002000040048F8B586B086
:1025C00002F0BCFA00F06CFA1421684602F0AEFA90
:1025D0008020C003B1490A6802430A600A681040BB
:1025E00005900598802080020A6802430A600A6804
:1025F0001040059005988020C0020A6802430A60D6
:1026000009680840059005980022FF2109019020E3
:10261000C00500F0D5FB00224121A14800F0D0FB0D
:10262000012202219E4800F0CBFBCF200001009048
:102630000120019000240294039469469020C00573
:1026400000F086FA43200090012001900294039448
:102650006946934800F07CFAC02080000090112069
:10266000019001200290039469469020C00500F07B
:102670006FFA802000020090019402946946902035
:10268000C00500F065FA9820009001940294694614
:10269000834800F05DFA20200090882040030190DC
:1026A000029469467E4800F053FA00220021072078
:1026B00002F071FA072002F072FA68460021002247
:1026C00000230EC0774D784828606C60AC60EC60E9
:1026D0000120286104206861AC61FF20C230E861FC
:1026E0002C6224216C540120A862280001F08AF990
:1026F000002801D000F02AFA009480267601019685
:10270000012002906946280001F023FB002801D037
:1027100000F01CFADB4FDC4838609620000278603D
:10272000BC60FC603C610C207861BC61FC613C6277
:102730007C62380000F0CAFB002801D000F006FAE5
:1027400002A800210022002300252EC0684606C0F2
:10275000CE4DCF486860FA204000A860EC6064204D
:1027600028616C61AC61EC61281D02F03DFA002823
:1027700001D000F0EBF9029602A9281D02F0A6FB99
:10278000002801D000F0E2F9009401946946281D68
:1027900002F092FC002801D000F0D8F9BD4EBE48EE
:1027A000306206207062BD48F062B06230002030B6
:1027B00001F0AEFE002801D000F0C8F9DB48E86463
:1027C0002C65402068657F20A86580208000E86532
:1027D00028004C3002F09CFC002801D000F0B6F933
:1027E000281D02F010FA01222900380000F011FC27
:1027F0002B4C00224021200000F0E2FA01220221AD
:10280000200000F0DDFAFEF733FA0821200000F086
:10281000D1FA002800D0A1E09027FF050122102165
:10282000380000F0CDFA0122D102380000F0C8FAD9
:10283000BF4800F0E5FABFA52800FDF77CFEFA24AA
:10284000A400200000F0DCFA2800FDF774FE200050
:1028500000F0D6FAB848FDF76EFE200000F0D0FA7E
:10286000B648FDF768FE200000F0CAFA0122D10246
:10287000380000F0A5FA642000F0C2FA002280219E
:102880000901380000F09CFA00216E20FEF71AFBC7
:10289000052000F0B5FA0A21A94807E0141002400B
:1028A00000040048F808002000240140FEF70AFB5D
:1028B000052000F0A5FA1421A000FEF703FB052077
:1028C00000F09EFA1E213220FEF7FCFA052000F0EF
:1028D00097FA28210120FEF7F5FA052000F090FA7A
:1028E00032211920FEF7EEFA052000F089FA3C218A
:1028F0000520FEF7E7FA052000F082FA46212D2098
:10290000FEF7E0FA052000F07BFA50210A20FEF7DE
:10291000D9FA052000F074FA5A213C20FEF7D2FAC9
:10292000052000F06DFA64212320FEF7CBFA052084
:1029300000F066FA6E210F20FEF7C4FA052000F0C1
:102940005FFA78217820FEF7BDFA052000F058FAEA
:10295000012080217050200000F052FA0020FEF784
:10296000BFFA3063B081052000F04AFA0A20FEF772
:10297000B7FAF081052000F043FA1420FEF7B0FA10
:102980003082052000F03CFA1E20FEF7A9FA708282
:10299000052000F035FA2820FEF7A2FAB0820520C3
:1029A00000F02EFA674C3220FEF79AFA01F068FB2D
:1029B000210001F010FCB063052000F021FA3C205A
:1029C000FEF78EFAF082052000F01AFA4620FEF794
:1029D00087FA3083052000F013FA5020FEF780FAC2
:1029E0007083052000F00CFA5A20FEF779FA01F006
:1029F00047FB210001F0EFFBF063052000F000FA37
:102A00006420FEF76DFA01F03BFB210001F0E3FBCF
:102A10003064052000F0F4F96E20FEF761FAB0830F
:102A2000052000F0EDF97820FEF75AFA3C214843E2
:102A3000F083052000F0E4F9FDF7EEFB052000F03F
:102A4000DFF9FDF74DFCFDF733FC80252D019024C7
:102A5000E40501222900200000F0B2F9642000F012
:102A6000CFF900222900200000F0AAF9FEF7F0F8C3
:102A7000FFF7EDFAFFF702FD3000203001F073FDA3
:102A8000F4E7000004080020003801408C08002012
:102A9000002C01400000002000300040FF0F00002B
:102AA00070B594B0302108A802F040F868460021C3
:102AB0000022002300241EC01EC01A2008900124FA
:102AC0000B940D9410200C900E900F9402261096EB
:102AD00000251195A02080031290139508A802F0FC
:102AE0003FFB002801D000F031F80720009001964C
:102AF000029503950121684602F0F8FC002801D0F8
:102B000000F024F80494069504A802F0BFFD002804
:102B100001D000F01BF814B070BD0B490968002902
:102B200000D0704780B502F007FB01BD002C0040CB
:102B300088130000415400007C7100089071000867
:102B4000C4090000000020418000002072B6FEE7AA
:102B5000FFB500220F2302932DE0052403E0A14CD2
:102B6000A042FAD103246D462D78AC403443019D38
:102B70002C609D4CA568DC4325404E68F60200D5CC
:102B80001D43994EB560F56825404F68BF0200D5DA
:102B90001D43F560756825404F68BF0300D51D4390
:102BA000756035682C404D68ED0302D525001C008A
:102BB0002C433460521C0B681C00D44000D18CE0C4
:102BC000012595402B40F5D054000326A640F7433D
:102BD00001974E68B707BF0F012F03D0B607B60F96
:102BE000022E0ED18668019F3740CE68A6403E4334
:102BF00086604668AE434D68EF06FF0F9740374347
:102C0000476095006E4675700D79AD07AD0F032DC9
:102C100026D0C568019E2E408D68A5403543C5600D
:102C20000D79AD07AD0F022D1AD1D508AD004519AC
:102C30002E6A03966E4676781C2737406E463770AC
:102C4000039EB446029F6E463678B7406646BE4342
:102C5000B4460F696E463678B740664637432F62F2
:102C600007680325019E3E404F682F40A740374329
:102C700007604C682E0426409CD001245B4E3668C9
:102C800026435A4F3E603E46366826400196019ED6
:102C9000574E9708BF00F6190196019E36680396B5
:102CA0006E4676780C2737406E463770039EB446E2
:102CB000029F6E463678B7406646BE439027FF05B2
:102CC000B84201D100244EE74A4FB842FBD04A4CEB
:102CD000A04200D043E7022445E7FFBDFFB5032330
:102CE000029301230193039100213EE0052703E0B5
:102CF0003C4DA842FAD1029F8D00B4460C262E40CE
:102D0000B740BC4515D1D643374A12683240364FDA
:102D10003A603A46526832407A603A46D268324067
:102D2000FA603A46926816403A4696601A68A2439C
:102D30001A60029B4A009340DA4303681340036021
:102D4000CB089B00C3181C6A0F261C272F40BE40CF
:102D5000B4431C62C3681340C3604368009CA34330
:102D6000436083681A408260491C039ACA4020D09D
:102D7000019A8A400092039B1A40F5D01C4B8C08A4
:102D8000A4001B191E680F248D000C272F40BC4087
:102D900026409025ED05A84201D10027ACE7154D4E
:102DA000A84201D1019FA7E7134DA842A0D1022755
:102DB000A2E7FFBD0069084000D00120C0B2704703
:102DC000002A01D0816170478162704701000B4A7F
:102DD00013680B4000D1704780B51160FDF74DFBC3
:102DE00001BD0000000C0048000401401810024022
:102DF0000800014000040048000800481404014095
:102E000038B5040001F042FE05000020C0438442B2
:102E100002D004480078241801F038FE401BA0427C
:102E2000FAD331BDE8020020CA0F00D04942031096
:102E30005A400DD004B500D3404200F009F8009A82
:102E4000D20701D34942124200D5404204BD0000DE
:102E5000094214D088420FD30122030C01D100048F
:102E60001204002300185B418B4200D35B1A5241CD
:102E7000F8D319001000704701000020704708B512
:102E800002F082FC08BD0268531C03601170704799
:102E90000023DB435B1CCA5C002AC254FAD1704792
:102EA000020000E0521C1378002BFBD10B7813704A
:102EB000002B02D0521C491CF8E77047431C0178D4
:102EC000401C0942FBD1C01A70472E0038B50400DF
:102ED00001D1012032BD250078356868002803D172
:102EE0002870200002F0BBFC242068602068016884
:102EF000012291430160606A002802D0200000F0A6
:102F0000A5FA200000F022FA012811D020684168BB
:102F1000084A0A4042602068816808229143816023
:102F20002068016801220A430260200000F0F4FAE0
:102F300032BD0000FFF7FFFFF1B584B01F00064669
:102F40005036F06A202861D10C000FD0684602800C
:102F5000002A0BD00498806880214901884207D15B
:102F600004980069002803D1E00701D501204EE054
:102F7000002575632120F06201F088FD010068469C
:102F8000008830806846008870803A000498806825
:102F900080235B01984209D104980069002805D17B
:102FA0002500049F0192029104001AE02000F8E736
:102FB00021780185641C11E001980090029B002299
:102FC0008021380000F00CFB00281BD13868002C51
:102FD000EED12988C905C90D0185AD1C7088401E38
:102FE000708070880028E7D13800029B0199009119
:102FF0000022402100F0F4FA002803D12020F062E2
:10300000002004E02020F062032000E0022005B050
:10301000F0BD70B58023C358202B25D100290BD0DB
:10302000130009D0836880246401A34206D1036998
:10303000002B03D1CB0701D5012070BD002303660F
:1030400003685B681B020CD5EFF31083012484F343
:103050001088046825688026F6042E43266083F3D2
:10306000108800F00EFB70BD022070BDF8B584B072
:10307000040020680190C06921680968019A92687B
:1030800000922500583520220A4002922022024058
:10309000039200264027A84A02400BD1039A002A37
:1030A0000DD0029A002A0AD02969002901D02000F7
:1030B00088473EE1009AD20702D4A04A0A407AD05B
:1030C000C20707D5CA0505D50122019B1A62EB6A22
:1030D0001A43EA62820709D5009AD20706D502226E
:1030E00023681A62EA6A04231343EB620422104243
:1030F00008D0009BDB0705D523681A62EA6A022321
:103100001343EB62082210420AD0029B002B02D12B
:10311000009BDB0704D523681A62EB6A1A43EA6254
:103120007A01104007D0480105D520680262E86A9C
:1031300020210143E962E86A002832D00398002880
:1031400007D00298002804D02969002901D0200066
:103150008847E86A21688968394002D128210140FE
:1031600024D0200000F0F2FA20688068074019D0CF
:10317000EFF31080012181F3108821688A684023D1
:103180009A438A6080F31088E86900280AD06C4965
:103190004163E86902F0E5FB002802D0E869416B71
:1031A0008847C6E0200002F000FCC2E0200002F0E8
:1031B000FCFBEE62BDE0AA68012A00D098E0102274
:1031C000104200D0114200D192E00198026210201A
:1031D000C0430121C9432268926817404BD0EA6975
:1031E00013685B689BB2002BE4D05827E75BBB42B7
:1031F000E0DA6B809269202A35D0EFF310820092DA
:10320000012282F31088226813684E4F1F40176016
:10321000009A82F31088EFF31082012383F3108861
:1032200023689F683940996082F31088EFF310811A
:10323000012282F31088226893684027BB43936081
:1032400081F310882021A962AE60EFF31081012282
:1032500082F31088226813681840106081F3108888
:10326000E86902F05DFB0220E8605820205A698876
:10327000411A89B238E05822A25A6B88D21A6B469A
:103280001A806A88002A54D06A461288002A50D0D0
:10329000EFF310820192012282F3108822681368F2
:1032A000294F1F401760019A82F31088EFF31082B4
:1032B000012383F3108823689F683940996082F363
:1032C00010882021A962AE602E61EFF310810122E7
:1032D00082F31088226813681840106081F3108808
:1032E0000220E86068460188200002F05FFB20E0D1
:1032F0008022104207D00A4005D06969002918D001
:103300002000884715E0384013D00F4011D0EFF36C
:103310001080012181F3108821680A6840239A43B4
:103320000A6080F31088202068626E61200002F03D
:103330003EFB05B0F0BD00000F08000020010004B6
:10334000BD370008FFFEFFFFDFFEFFFFF8B50500F9
:1033500000260024286801689B4A0A40A968114396
:103360002A690A4369691143EA690A4302604168AC
:10337000964A0A40E968114341608168944A0A40CC
:10338000A96911432A6A0A4382609248006880074B
:10339000800F05D0022809D006D3032802D007E009
:1033A000002206E0022204E0042202E0082200E0FB
:1033B0001022894F894880210902EB698B4220D174
:1033C000002A06D0022A08D0042A15D0082A16D0CE
:1033D00037E002F02AF9002834D0696840004A0832
:1033E0008018FFF735FD01001039B94229D2074096
:1033F0000007400F38431CE002F0FAF8EBE7080042
:10340000EBE7002A06D0022A16D0042A16D0082A92
:1034100004D016E002F009F9010013D06A685008E0
:1034200008181100FFF714FD01001039B94208D245
:1034300080B22968C86005E00100EFE702F0D8F823
:10344000EAE70124AE66EE662000F2BD2421415C6D
:10345000090706D501684A68B04B1340426B1A430E
:103460004A602421415CC90706D501684A68AC4B13
:103470001340826A1A434A602421415C890706D5B9
:1034800001684A68A74B1340C26A1A434A60242164
:10349000415C490706D501684A68A34B1340026B9B
:1034A0001A434A602421415CC90606D501688A682E
:1034B0009E4B1340826B1A438A602421415C89062B
:1034C00006D501688A68134B1340C26B1A438A60A1
:1034D0002421415C490611D501684A68974B134085
:1034E000026C1A434A60026C80235B039A4205D146
:1034F0004A68934B1340426C1A434A602421415C52
:10350000090606D501684A688E4B1340806C184343
:1035100048607047FFDFFFFFFEB5060037007837D1
:103520000024FC6001F0B2FA0190202530680068A8
:10353000000717D584480090019B00222904300021
:1035400000F04EF800280DD0EFF31080012181F338
:10355000108831680A6880239A430A6080F31088D3
:103560007D6026E030680068400725D576480090E9
:10357000019B00226904300000F032F800281BD0C3
:10358000EFF31080012181F3108831680A68874BBE
:1035900013400B6080F31088EFF31080012181F35A
:1035A000108831688A6801239A438A6080F3108802
:1035B000BD603C700320FEBD7D60BD6034667466F6
:1035C0003C700020FEBD0000F369FFFFFFCFFFFF4E
:1035D000FFF4FFFF30100240F0FF000000127A00FD
:1035E000FEB580273F0108250026040001916846AA
:1035F000027002932068C0690199014001988142DC
:1036000001D1012000E0002069460978884236D1C6
:1036100008980021C9438842ECD001F037FA02999A
:10362000401A0899814201D3002901D10320FEBD2F
:10363000206800684007DDD501988028DAD040284E
:10364000D8D02068C0692840206803D1C0693840BC
:10365000D0D009E00562200000F078F82000783032
:10366000C56006700120FEBD20680762200000F0E2
:103670006DF8200078302021C1600670D6E7002068
:10368000FEBD70B54165010058310A804A800023B3
:103690000B618468FF2580225201944204D10469A1
:1036A000002C06D1424C07E0002C07D10469002C05
:1036B00001D18D8003E07F248C8000E08B80CB6281
:1036C00022238B62EFF31083012484F310880468B3
:1036D000A56801262E43A66083F310888368934271
:1036E0000DD10269002A0AD1324A0A61EFF3108132
:1036F000012282F3108800680268202318E02E4A15
:103700000A6101690029F1D0EFF31081012282F3EF
:1037100010880068026890235B00EFE7FF7FFFFFDF
:10372000FFFFFDFFFFFFFEFFFFFFFBFFFFEFFFFFC0
:103730001343036081F31088002070BDFFFFEFFF8B
:10374000FFFF9FFFFFFFF7FFFFFFFF0110B5EFF344
:103750001081012282F3108802681368134C1C4008
:10376000146081F31088EFF31081012282F3108836
:10377000026893680124A343936081F31088016E6B
:1037800001290BD1EFF31081012282F31088026826
:1037900013681024A343136081F310882021802232
:1037A000815000210166816610BD0000DFFEFFFF31
:1037B000FF0100006D380008D137000880B5406A6D
:1037C0000100523100220A810A8002F0EEF801BDA8
:1037D00070B50100583102688B6A222B41D1928C5E
:1037E0008B881340426D1370426D521C42654A88AB
:1037F000521E4A804A88002A37D1EFF310820123F3
:1038000083F3108803681C683F4D25401D6082F3D8
:103810001088EFF31082012383F3108803689C68FB
:103820000125AC439C6082F3108820228A6200222A
:103830000A61CA6003685B681B020BD5EFF3108353
:10384000012484F3108804682568304E2E402660D9
:1038500083F310888B68012B00D159E0FEF7E8FD57
:1038600070BD906908210143916170BD70B5010080
:10387000583102688B6A222B41D1928C8B8813407D
:10388000426D1380426D921C42654A88521E4A80E6
:103890004A88002A37D1EFF31082012383F310887E
:1038A00003681C68184D25401D6082F31088EFF3F3
:1038B0001082012383F3108803689C680125AC43C0
:1038C0009C6082F3108820228A6200220A61CA600A
:1038D00003685B681B020BD5EFF31083012484F3AC
:1038E000108804682568094E2E40266083F31088EE
:1038F0008B68012B00D10BE0FEF79AFD70BD90693B
:1039000008210143916170BDDFFEFFFFFFFFFFFB58
:103910008A60EFF31081012282F310880268136835
:103920001024A343136081F3108801681022CB692F
:10393000134000D00A625821415A02F037F870BD96
:1039400070B4103A03D378C9103A78C0FBD2530749
:1039500001D318C918C001D508C908C0D20704D3BB
:103960000B880380891C801C002A01D50B7803700A
:1039700070BC70478B0701D18307E1D0124205D09C
:103980000B78491C0370401C521EF9D1704743004C
:10399000012212060118CA420AD28A420DD83822E0
:1039A000120609098918C20FD20711434007704750
:1039B00000D049080909014301E0C10FC9070020EF
:1039C0007047FEE70CB418B583B004000A0006A8DF
:1039D000029001940020009002AB01A908487844AD
:1039E0001E3001F0E9FF0021019A1170002801D476
:1039F0000198001B04B0019910BC03B0084700BF38
:103A000087F4FFFFF8B504000025002C01D1012048
:103A1000F2BDA06B002805D1E06334216054200082
:103A200001F0C9FE10210122A06B084003D12068DB
:103A3000042386681E4000D091E0A66B834F374078
:103A400002263E43A6638668B607B60F012E06D14E
:103A50000646366816400FD1C66836040CD4C668D0
:103A60001827BE43A7683743C76020680669B600B9
:103A7000B6086768374307612068C668A84F3740B3
:103A8000C760A06A012801D0080200E00020266972
:103A9000022E01D1009300E00095A37E267EB6039E
:103AA000677EFF0337435E033E433043E6680643C9
:103AB000009F37432420205C40003843E67E012EDF
:103AC0000CD1002B03D103000803184306E0A36BBD
:103AD00020261E43A663E36B1343E363E369FF26DB
:103AE000C236B34202D00343206A18432368DE681B
:103AF0000643DE60E36A0E06B3420DD0012B0BD005
:103B0000022B09D0032B07D0042B05D0052B03D0A3
:103B1000062B01D0072B0CD123685E690727BE4313
:103B20005E6123685E692C27E75D7F077F0F37435F
:103B30005F610223DB432668F6687A4F374087428D
:103B400005D1E563A06B03401A43A2630BE0A06BB1
:103B500003401943A163E06B1043E06302E0A06BF4
:103B60000143A16301252800F2BD70B5040001D115
:103B7000012070BDA06B02210143A163200000F071
:103B8000E5F905000026280008D1200000F0A8F97A
:103B9000050001282FD00120A06301E0012D2AD0CB
:103BA000206841689F22914341609F2021680860FE
:103BB0002068C1685F4A0A40C260206801698900C4
:103BC00089080161206841690722914341612068A9
:103BD000016A594A0A4002622068816AC90CC90414
:103BE000816256480168564A0A400260200001F08E
:103BF0000DFEE663A66334202654280070BDF8B598
:103C000004000025002004262168896831401BD16A
:103C10003421615C012917D0270034370121397024
:103C2000617E012904D0200000F00CF901000CD1C4
:103C3000A16B444A0A40B1011143A163E5633D70A1
:103C40001C21226811606FE00220F2BDFFFEFFFF21
:103C5000FEB504000D0000200090012660690828D0
:103C600001D108270DE02068C068304008D0A06B63
:103C700020210143A1630098342160540120FEBD3E
:103C80000C2700F003FF019020680168394018D12B
:103C90000020C0438542F7D0002D05D000F0F6FE8D
:103CA0000199401A8542EFD2206800683840EBD174
:103CB000A06B04210143A1630098342160540320C8
:103CC000FEBDA16B72020A43A2632168C968C022CB
:103CD00012010A401CD1A17E002919D100680007F9
:103CE00016D52068806840070BD4206840680C21F6
:103CF000884321684860A06B134901400E43A663C6
:103D000006E0A06B20210143A163E06B0643E6635C
:103D1000207E002802D10C20216808600020FEBD12
:103D20001902FEFFE7FF3F8321688A6816438E6011
:103D3000F2BD000000023E8300F000F008270140C1
:103D4000FFFF3FFFFEF1FFFFFFFEFFFF0068006C7B
:103D50007047F8B504000025002600953420205C4B
:103D6000012801D10220F2BD01223423E25420684F
:103D700083685B075CD40B689A400092564A4B6894
:103D8000564FBB42836A009F44D01F438762E06A5C
:103D900080235B0598421FD001281DD002281BD02C
:103DA000032819D0042817D0052815D0062813D0C9
:103DB000072811D020688B6847697F077F0FBB42B7
:103DC0000AD043690727BB434361206843690F7AE0
:103DD0007F077F0F1F4347610868102817D01128FD
:103DE0002BD18020C0031368184310600868102886
:103DF00023D16C4800686C49FFF72AF80A21484330
:103E000000900098002818D00098401EF8E7802005
:103E10000004E8E7BB4383620868102806D0112835
:103E20000BD1624811680840106006E06048F9E76D
:103E3000A06B20210143A1630126342025543000CA
:103E4000F2BD0000F8B504000020009020680121B8
:103E500082689207920F012A06D1024612680A4030
:103E600036D1C268120433D410278268514B1340F4
:103E700006D0A06B0743A763E06B0143E16325E035
:103E8000826811438160474800684749FEF7E0FFB8
:103E900001E00098401E009000980028F9D100F041
:103EA000F5FD0125060020680068284010D100F0CB
:103EB000EDFD801B0328F6D3206800682840F2D16E
:103EC000A06B0743A763E06B0543E5630120F2BDE8
:103ED0000020F2BD00000000082701400110000092
:103EE000F8B504002068032182680A40012A2BD11A
:103EF0000125024612682A4002D1C268120423D565
:103F00001026826805231340012B15D182680223F5
:103F1000134383602068016000F0B8FD070020684B
:103F20008068284010D000F0B1FDC01B0328F6D3F4
:103F3000206880682840F2D0A06B0643A663E06B3F
:103F40000543E5630120F2BD0020F2BDF8B5040091
:103F5000206804278168394022D0102581683940C3
:103F600005D08168890702D481682943816000F007
:103F70008DFD060020688068384011D000F086FD75
:103F8000801B0328F6D3206880683840F2D0A06BED
:103F90000543A563E06B01210143E1630120F2BD0C
:103FA0000020F2BDF402002040420F00FFFFBFFFDF
:103FB000FFFF7FFF17000080FEB504000020019086
:103FC000694608703420205C012801D10220FEBD22
:103FD000012034216054206803258168294001298B
:103FE0000ED121680968C90702D4C168090407D540
:103FF000A06B20210143A16301206946087037E0CE
:10400000A16B1E4A0A4002211143A163C1680D4001
:10401000C16803229143C160206881688022120632
:104020000A43826000F032FD0700206880263606D1
:104030008168314013D000F029FDC01B0328F4D360
:10404000206880680640F0D0A06B022188431021D0
:104050000143A1630198342160540120FEBDC16871
:104060000D43C560A06B0221884301210143A16378
:1040700001983421605468460078FEBDFFFEFFFFC2
:104080009D2102000AD002D4491E9218FCD5C90510
:10409000100A1206524100D3012A4841704700001D
:1040A0009D210200EED55242F446FFF7EBFF0122BC
:1040B000D207104360470122D20703004B402ED4A1
:1040C000431A01D2C01AC91830B44B180418240E70
:1040D0001B0E22D0FF2C20D0E31A182B1DDC090266
:1040E0001143C40D641E0002104394461925ED1AB5
:1040F0000A00AA40D940451801D36D08A41CE40564
:10410000D209280A2D062A436546AA4160410318B0
:104110001B0EFF2B01D3C00DC00530BC70475140B2
:1041200006E05140CCE70122D20703004B40F8D40F
:10413000431A03D2C01AC9185040514030B44B182A
:10414000090211430418240E1B0E40D0FF2C3AD054
:1041500025009D410BD31ED8C50D4002401A0BD33C
:10416000ED050100400AC90591416841D5E7C50D3B
:1041700040024918401AD0D001214008491C0018BB
:10418000FCD58C4204D36D1A000AED054019C4E732
:10419000E8051040C1E7182DBFDCAC1C0D00E14064
:1041A000E5414D40012D4941C40D00021043451A1F
:1041B00001D46D199543641EE405280A2D06954126
:1041C000604130BC7047FF2BA7D1D843A5E72442FC
:1041D000A3D10020A1E730B405004D400122D20751
:1041E00015404B180418240E25D01B0E2CD0FF2C84
:1041F00031D0FF2B34D0E41A0002090210431143DE
:1042000043084808D10D1B1A02D2641EDB181B1884
:10421000DB18834200D31B1A4941F9D37F3423DDD5
:10422000FF2C05DAE40548086041284330BC70479C
:10423000FF20C005F9E728001B0E03D0FF2BF5D1A6
:104240004902F3D0D043F1E7FF2C01D14002F9D16C
:10425000FF20C005E9E74002F4D1FF2BF8D1F1E7D8
:1042600028004902E2D0EDE70B0200202442DCD115
:104270005B129B1CD9D9D805D7E730B405004D4057
:104280000122D20715404B180418240E2ED01B0E05
:1042900032D0FF2C34D0FF2B3AD0E41800020902B0
:1042A00010431143000A090A9446C2B24A43000A65
:1042B000C3B24B43000A4843110A5B181A43D2B2F7
:1042C000190A091801D44918641E080A7F3C23DB27
:1042D000FE2C08DAE4050906114363469941604162
:1042E000284330BC7047FF20C005F9E728001B0EAB
:1042F000FF2BF6D1D043F4E72800FF2CF1D1F9E7EA
:104300004002F7D1FF2B01D14902F3D1E005E7E7E5
:10431000D8054902E4D0EDE743020020641CDFD158
:104320005B129B1CDCD9D805DAE7F0B50E005E40C5
:104330000125ED072E40B446AE0ADF184C18F442B2
:1043400008D2F7420ED2640D01D07F0D12D10020A9
:104350006146F0BD05D1F74201D87F0D05D100209F
:10436000C143F0BDFBD1640DF9D00020C143490524
:1043700049088FE0E419C902DB0229432B43DB0A19
:10438000460DC00231438E4630B487B295B27D43AC
:104390002E0CADB2140C7C43A419260C2404254326
:1043A0009CB27C43A419190C7943270CC919A4B2F7
:1043B0000F043C43090C000C97B247432E0CBE1966
:1043C0003543ADB2170C4743360CBF19A6B2BF191F
:1043D0003E043543240C3E0C36199FB24743BF19A7
:1043E000BCB23E0C89191F0C47437F183E0434436E
:1043F000390C704680B297B247432E0CBE19354334
:10440000ADB2170C4743360CBF19A6B2BF193E0414
:104410003543240C3E0C36199FB24743BF19BCB23A
:104420003E0C89191F0C47437F183E043443390C56
:1044300077463F0C90B278432E0C80190604ADB23B
:104440002E43050CA0B22D18120C7A435019020C01
:1044500080B2240CA4189AB27A431219140420438F
:10446000120C89181B0C7B43C91830BCEF0A394267
:1044700003D1B61940414941641E6F12BF0DE41BC0
:104480000BDBFF19BC4211DA240500274208AE41BC
:104490007841614166463143F0BD641C05D1401C42
:1044A0006141CF0201D34908F4E750E75DE70122FB
:1044B00052054B18DA4201D9581570475B0D072297
:1044C000D2019B1A10D9FF2B1DD2DB050122D20786
:1044D0000A4013430903020D1143490AC200524125
:1044E00000D9491CC81870470AD1800A0A03024340
:1044F0005212921C04D9D3070B40D00518437047C1
:10450000C80FC0077047C80F0002FF30C0057047D2
:1045100070B5040001D1012070BD2068144901600C
:104520001449016061684160A168816000F0AEFAE1
:10453000072506002068C16829400AD000F0A6FAC5
:10454000801B2828F6D32068C0682840F2D00320BA
:1045500070BDE16802698A4201D0016101E006494B
:104560000160002070BD04490068016000207047B0
:10457000CCCC000055550000AAAA0000F0B40E00F3
:104580005E400125ED072E40B446AE0ADF184C18F8
:10459000F4423BD2F74241D2640D43D07F0D38D074
:1045A000E41BC902DB0229432B43CF0ADB0A0600C6
:1045B000B61A9F4104D2641EB6197F41B6185F41F6
:1045C0006812800D24180018844222DCE80C0021B7
:1045D000B6197F41B61A9F4102D2B6185F413F1CFF
:1045E00040414941F4D3241C21DD2405B6197F4103
:1045F000B61A9F4105D33743C60737430026012F1C
:104600007041614166463143F0BC7047FCD1F742CE
:1046100005D20020C14349054908F3E704D0002032
:10462000C143F1E77F0DFAD000206146ECE7244258
:10463000FAD1401C61410F03F6D30020E2E7FEE708
:104640000CB4012212060318DA4207D84B18DA42DA
:1046500004D802000A43921802D281420CBC70476F
:10466000FCD088420CBC70470CB40122120603181F
:10467000DA4207D84B18DA4204D802000A439218EB
:1046800002D288420CBC7047FCD08142FAE7F0B4F9
:104690000125ED070F005F404FD48B4200D18242CD
:1046A00005D98446100062468C4619006346DF181F
:1046B0004C18640D7F0D3AD0661C760537D0E61B8A
:1046C000352E34DCDB022B43DB0A0C0DC9022943F7
:1046D000C912202E0DDB1700203E06D01F00F74127
:1046E000F3405F400026012A7741C01871410DD286
:1046F00017E01700F741F2405740F3415A40B340EA
:10470000F3405A400026801859410AD3A21C520592
:104710000FD0C207012F724117004008CB07184382
:104720004908641C24054208AF4170416141F0BC56
:104730007047641C21050020F9E76B4010E06B40D6
:10474000ABE7F742F3D1E943F1E72442EFD1002090
:104750000021ECE7F0B40125ED070F005F40EED437
:104760000C00871A9C4105D2C01BA141D21963419C
:1047700069406B40AE0ADF184C18F442E1D2640D78
:104780007F0DE2D0E61B362ED1DCDB022B43DB0AA9
:10479000A4460C0DC9022943C90A012E28DC04D104
:1047A000D6075208DF073A435B08EF0A764290418A
:1047B000994114D039423BD1B61940414941761C48
:1047C000394204D1761C001849413942FAD0B94324
:1047D0006746B74208D9A41B24052143A7E7004236
:1047E000EAD13642E8D1A2E7E40AE10700209EE7D9
:1047F000202E0BDD203E1F00F340F7415F40012AD1
:10480000002257417E42984191410BE01700F74149
:10481000F2405740F3415A40B340F3405A407E4281
:10482000904199410A0303D2641EB619404149419F
:104830000027641E24054208AE4178416141F0BC66
:104840007047FEE70122D2070118090E7F3910D404
:1048500049421F310FD4001805D2C0011043C8408F
:1048600000D5D0437047C0011043C84005D4404232
:104870007047002070470042F3D51000704710B415
:10488000002A10D00B7804789C4206D1002C0AD064
:10489000401C491C521EF5D105E002D20020C04345
:1048A00002E0012000E0002010BC704738B5050090
:1048B0000AD00C00280002F03EF82D1828780028B5
:1048C00008D10C49086032BD0A480568002DF0D1B6
:1048D000002032BD2100280002F03FF8281801789E
:1048E000002902D000210170401C02490860280004
:1048F00032BD00BF74090020FCB587B00C00150064
:10490000002B01D0002119600390064600E0761CC0
:10491000307802F034F80028F9D1300001782D29E0
:1049200001D02B2903D16A461170401C02E02B21D3
:104930006A4611700194002D03D4012D01D0252D5C
:1049400004DB002C55D00398206052E0002D0ADDD6
:10495000102D16D10178302913D1417820220A4335
:10496000782A0ED10AE00178302901D00A2508E022
:10497000417820220A43782A02D11025801C00E0C9
:104980000825069000E0401C01783029FBD0002467
:1049900005902B4A7A44A83228326B465A70029509
:1049A000049F05000494264E7E44943608E0049447
:1049B00069464978471AFFB202984443E4196D1CCE
:1049C000287801F0E5FF029A01003000283001F05C
:1049D000E9FF0028EBD1029938002F002500049C44
:1049E000069ABA4207D10198002802D0039801998B
:1049F0000860002022E0059ABA1A735CD21A002AD5
:104A000011D405DC281A03D3FEF722FAA0420AD0FB
:104A100000BF00BF0898002802D001200899086054
:104A20000025ED4305E0684600782D2801D1684255
:104A300005000198002800D00760280009B0F0BDEB
:104A40004032000080B50023FFF756FF02BD80B55D
:104A5000FFE70A220021FFF7F5FF02BD70B50D78D0
:104A6000002D11D00C0004E0491C0E78964207D0AE
:104A7000401C290001F0A2FF002805D001002300FE
:104A80005B1C1A78002AEFD170BDFEE70148406830
:104A9000704700BFE802002008B410B585B007AB2E
:104AA000049300240394002902D10194029402E0AB
:104AB0000190491E0291009404AB01A90848784472
:104AC0001E3000F079FF0199002900D00C700028F9
:104AD00000D4039805B0019910BC02B0084700BF8C
:104AE0007533000070B51400002801D0050000E007
:104AF00025680E00280001F01EFF2D1828780028D8
:104B000004D100BF08A02060002070BD3100280043
:104B100001F023FF28180178002902D0002101703C
:104B2000401C2060280070BD0000FEE7002200BF8E
:104B3000094202D0491E4254FCD1704780B5064854
:104B4000016810220A430260032001F041FF00F0D7
:104B50001DFE002002BD00000020024010B5C30071
:104B600018221A40FF249440E3438907090E91401C
:104B7000020004D4184892089200801806E0174AF0
:104B80000007000F083880088000101802681340E2
:104B90001943016010BD80B5FFF7E0FF01BD0100C2
:104BA00005D40121C006C00E81400D480160704748
:104BB00010B5401E80214904884201D3012010BD58
:104BC000084C606003210020C043FFF7C7FF0020AE
:104BD000A0600721216010BD00E400E01CED00E0B2
:104BE00000E100E010E000E010B5040001D1012078
:104BF00010BD3D20205C002804D13C2160542000E1
:104C000000F015FE20E03D21415C012901D001208A
:104C1000704702213D22815402680121D3680B4371
:104C2000D3600268174B9A4202D0174B9A4205D1C3
:104C300092685207520F062A04D002681268114384
:104C4000006801600020704702203D216054211D52
:104C5000206800F0A3F90120462160543E216054F1
:104C60003F216054402160544121605442216054EE
:104C70004321605444216054452160543D216054D7
:104C8000002010BD002C01400004004004000E0074
:104C90000020694608700125300006D0042E37D068
:104CA000082E3CD00C2E41D047E02068C1682E4A27
:104CB0000A40C260606A00F054FE002231002068A1
:104CC00000F0ECF920682949294A244B984205D084
:104CD000234B984202D0234B984209D1036A1340D8
:104CE00006D1036A0B4003D1436C224F1F40476437
:104CF0002068036A1A4007D1006A014004D1206885
:104D00000068A84321680860002E19D13E2020E0E9
:104D10002068C168184A0A40C260A06ACBE72068D0
:104D2000C168164A0A40C260E06AC4E72068C168E8
:104D3000134A0A40C260206BBDE76846057009E06F
:104D4000042E01D13F2004E0082E01D1402000E0D4
:104D50004120255468460078F2BD0000002C014037
:104D60000044014000480140FFFDFFFF44040000F3
:104D700011110000FF7FFFFFFFFBFFFFFFF7FFFFA9
:104D8000FFEFFFFFF8B504002068C16800910569D6
:104D900000270226354214D0314012D00221C943E7
:104DA0000161012121778069800703D0200001F093
:104DB00031FE05E0200001F02EFE200001F02CFE67
:104DC0002777680717D50098400714D52068042175
:104DD000C943016126778069C0218900014003D061
:104DE000200001F017FE05E0200001F014FE200075
:104DF00001F012FE27770826354216D00098304081
:104E000013D020680821C943016104212177C069BA
:104E1000800703D0200001F0FDFD05E0200001F037
:104E2000FAFD200001F0F8FD27771020054217D089
:104E30000099084014D020681021C94301612677E9
:104E4000C069C0218900014003D0200001F0E2FDCB
:104E500005E0200001F0DFFD200001F0DDFD2777F7
:104E6000E807C00F0099CA07D20F104206D00120F0
:104E7000C043216808612000FDF738FB802005420F
:104E800009D00099084006D08020C04321680861FD
:104E9000200001F0C2FD4020054209D000990840E1
:104EA00006D04020C04321680861200001F0B6FD13
:104EB0002020054009D00099084006D02020C0439A
:104EC00021680861200001F0AAFDF1BDF8B50400D9
:104ED0000026684606703C20205C012801D1022093
:104EE000F2BD27003C3701253D7002203D22A05431
:104EF00020688268284B13408360086802003FD016
:104F000010283DD020283BD0302839D0402830D040
:104F1000502820D0602825D0702806D02B03984236
:104F200035D05B0098420AD02FE0CB684A68896888
:104F3000206800F0A5F820688168772208E0CB6837
:104F40004A688968206800F09BF820688168AA0395
:104F50000A4382601BE0CA684968206800F062F872
:104F600050210EE0CA684968206800F06CF86021A2
:104F700007E0CA684968206800F054F8402100E062
:104F80000100206800F074F801E0684605703D20DB
:104F900025543E70FFF7DEFE8800FFFFF0B5026883
:104FA0001B4B1C4C1C4D1D4EB04201D0A84206D1DB
:104FB0007027BA4317004A683A43B04208D0A84263
:104FC00006D0174DA84203D0A04201D0984203D189
:104FD000264D1540CA682A438025AA434D691543CA
:104FE00005608A68C2620A688262B04203D0A04249
:104FF00001D0984201D1096901630121416102692F
:10500000114003D00169012291430161F0BD00000C
:10501000004801400044014000040040002C0140D1
:105020000020004030B5036A046A0125AC430462E5
:105030008469F025AC431201224382610A22934322
:105040001943016230BD30B5036A046A1025AC43D0
:10505000046284690F4D254012032A438261A02215
:10506000934309011943016230BD0000FFFCFFFFBB
:10507000826870239A43114307220A438260704773
:1050800030B58468044D254029430A431902114371
:10509000816030BDFF0FFFFFFF00FFFF10B5C906A5
:1050A000C90E036A01248C40A3430362036A8A4049
:1050B0001A43026210BDFEE7F0B53C22825C012A71
:1050C00001D10220F0BD02003C3201231370022402
:1050D0003D25445505686E68AC687027BE430F686F
:1050E00037436F600568084EB54202D0074EB5429F
:1050F00004D18026B44349682143A9603D2143542B
:1051000000201070F0BD0000002C014000040040A1
:1051100010B5040001D1012010BD00F0D8FB2068BB
:10512000E16880220A430260216962680A43A1683B
:1051300011434160002010BDC1680068016000207B
:10514000704701684A68920500D4704780B58A6844
:10515000D20704D50122D2438A60FDF7DEFC01BDEF
:10516000FEB5040019D0AD4D2078C00717D58027B3
:10517000BF0268680C210140042909D068680C212D
:105180000140082941D168687908084088423CD12B
:105190002868074003D06068002800D19BE1207890
:1051A00080071AD5F827FF4368680C21014007D013
:1051B00068680C21014008295BD16868C00358D495
:1051C0002868800703D5E068012800D083E12868BB
:1051D00007402069C000384328602078000779D54F
:1051E0000227E0690028686A65D0012101436962ED
:1051F000FFF74CFC0600686A38406BD1FFF746FCAD
:10520000801B0228F7D90320FEBD60687B080128B7
:105210000BD0B349B34A002801D1286809E005281A
:10522000286806D1C94301432960286803432B60DD
:1052300004E002402A602868014029606068002874
:105240000BD0FFF723FC060028683840A7D1FFF7F2
:105250001DFC801B6528F7D3D5E7FFF717FC060078
:10526000286838409BD0FFF711FC801B6528F7D3D6
:10527000C9E7E068002828680ED0012101432960B1
:10528000FFF704FC060028688007A0D4FFF7FEFBA8
:10529000801B0228F7D9B6E7012188432860FFF771
:1052A000F5FB06002868800797D5FFF7EFFB801B0A
:1052B0000228F7D9A7E7012188436862FFF7E6FBD8
:1052C0000600686A384005D0FFF7E0FB801B022823
:1052D000F7D998E704272068384062D00020019071
:1052E000B806E969014008D1E9690143E961E96962
:1052F000084000900098012001907B480068C0059C
:1053000012D479480068A90D014377480160FFF77E
:10531000BDFB060074480068C00505D4FFF7B6FB66
:10532000801B6528F6D36EE7A068012808D0002806
:1053300001D1286A09E00528286A06D13843286285
:10534000286A01210143296205E00121884328627E
:10535000286AB8432862A4480090A06800280CD0AE
:10536000FFF794FB0600286A800713D4FFF78EFB33
:10537000801B00998842F6D345E7FFF787FB0600BC
:10538000286A800706D5FFF781FB801B00998842B9
:10539000F6D338E70198002803D0E8699349014023
:1053A000E9612078C0061DD56069F826F64301281A
:1053B00036D1686B07436F63686B012101436963F2
:1053C000FFF764FB0700686B800705D4FFF75EFBFF
:1053D000C01B0228F7D916E7686B0640A069C00019
:1053E00030436863206A002877D069680C220A403D
:1053F000082A5BD08027BF0491490228286847D13A
:1054000001402960FFF742FB06002868384021D0A0
:10541000FFF73CFB801B0228F7D9F4E6001002409E
:105420000421C9438842686B02D101406963D3E714
:1054300007436F63686B012188436863FFF726FBAE
:105440000600686B8007CDD5FFF720FB801B022884
:10545000F7D9D8E6E86A0F218843E16A0143E96297
:10546000686878490140A06A0843616A014369603D
:105470002868790801432960FFF708FB04002868C1
:1054800038402AD1FFF702FB001B0228F7D9BAE601
:1054900001402960FFF7FAFA0400286838401CD060
:1054A000FFF7F4FA001B0228F7D9ACE6012812D066
:1054B0006868E96A802252020240636A9A420AD10D
:1054C0000907090FE26A914205D1F02189030140E1
:1054D000A06A814201D00120FEBD0020FEBD000077
:1054E000FFFFFBFFFFFFFEFF00700040F8B5040068
:1054F00060D0009154480068C107C90F00988142EC
:105500000CD25148016801229143009A0A4302607B
:105510000068C107C90F009881424BD121684B4DEB
:10552000022001420CD0490704D56968E022D2006C
:105530000A436A606968F0229143A2680A436A607C
:1055400001272168394025D06168012902D12868E6
:10555000800303E0022903D12868800103D429E0F5
:105560002A68104026D0686803229043014369608E
:10557000FFF78CFA060068680C2101406068800023
:10558000814207D0FFF782FA801B17498842F2D385
:105590000320F2BD2C48009902683A4091420BD298
:1055A0000168B943009A0A43026000680740009806
:1055B000874201D00120F2BD2078400705D56868F8
:1055C00023490140E0680843686000F011F8214970
:1055D0006A681206120F895CC8401F4908600320E0
:1055E00001F0F6F90020F2BD89130000FFFFFFEF84
:1055F0001A4A13681A480C211940082900D070472C
:1056000030B50F2119A49D0C0D40645D926ADB0337
:1056100007D500BF19A31140595CFDF719FC604381
:1056200030BD20000F49484330BD0B4800680E498B
:105630000A4A12685205520F895CC8407047000040
:10564000FFFFFFFEFFFFC2FF0020024000100240EC
:10565000FFF8FFFF747E0008F402002004100240EF
:1056600000127A0000093D00947E00080203040540
:10567000060708090A0B0C0D0E0F10100102030497
:1056800005060708090A0B0C0D0E0F10F8B50400EB
:10569000374D2068C00356D500200090802040057B
:1056A0002968014008D12968014329602968084018
:1056B00000900098012000902E4F3868C00510D44B
:1056C0003868A90D01433960FFF7E0F90600386832
:1056D000C00506D4FFF7DAF9801B6528F7D303204D
:1056E000F2BDC020800069680140234F00291ED010
:1056F0006268104081421AD0686838406968802228
:1057000052020A436A6069681C4A0A406A6068601B
:10571000C0070CD5FFF7BAF906006868800706D401
:10572000FFF7B4F9801B16498842F6D3D7E76868BB
:1057300007406068384368600098002803D02868F4
:105740001049014029602078C00705D56869032108
:105750008843A168014369612078800605D568699E
:1057600010218843E168014369610020F2BD000017
:105770001C10024000700040FFFCFFFFFFFFFEFF17
:1057800089130000FFFFFFEF7047FEE781B00120A3
:105790005B490A6802430A600A681040009000985A
:1057A000802040054A6802434A60496808400090EA
:1057B000009801B0704710B586B004001421002293
:1057C00001A8FFF7B5F920684E4988421CD14E4820
:1057D000410D42680A4342604268114000910099BD
:1057E0008021890202680A4302600068014000913A
:1057F000009801200190032002900020039001A94D
:105800009020C005FDF7A4F906B010BD00683D4921
:10581000884200D0704780B5394801683B4A0A4049
:10582000026001219020C005FDF758FA01BD006813
:105830003749884200D0704780B5C80C30490A68A3
:1058400002430A6009680840009000980022002185
:105850000D20FFF7A0F90D20FFF7A1F901BD10B54C
:1058600086B004001421002201A8FFF761F9206826
:105870002849884229D124488021C90142680A4325
:1058800042604268114000910099802189020268BB
:105890000A43026000680140009100980C200190CA
:1058A0000220029000200390032004900120059024
:1058B00001A99020C005FDF74BF9002200211B2013
:1058C000FFF769F91B20FFF76AF906B010BD006801
:1058D0001149884200D0704780B5C80C0F490A684A
:1058E00002430A60096808400090009800220021E5
:1058F0000020FFF750F90020FFF751F901BD00002B
:10590000181002400024014014100240FFFDFFFF68
:10591000002C014000380140002C00401C100240C7
:1059200010B500212122825C022A05D00422826364
:1059300020228154012010BD026813680E24A34365
:105940001360026813680124A34313600122036CEF
:105950009C40C36B5C602123C254202281540020F0
:1059600010BD70B50021002401222123C35C022B4D
:1059700003D004218163012415E003681D680E260D
:10598000B5431D6003681D6895431D60036C0125C8
:105990009D40C36B5D602123C25420228154416B22
:1059A000002900D08847200070BD704770477047BD
:1059B0000100202008437047FDB5B2B03A98049129
:1059C00002A93B22885400200D9027A8401C31904A
:1059D0000DE00498329A90470490002801D100F01D
:1059E000D3FE0D98401C0D903398401C3390339893
:1059F000017800290FD02529EBD1002007900890CD
:105A000009900A900B900C90022501211491082115
:105A10001291339C05E00D9800F0B8FE0100149837
:105A20000843641C21782029F8D023290BD02B2986
:105A300004D02D2904D0302908D00AE02843F0E70B
:105A400001000420ECE701000820E9E70100102034
:105A5000E6E72A290FD134990A681168121D349B90
:105A60001A600F91002904D54A420F9201000420C8
:105A70000843641C12E000210F91644B09E00F9968
:105A8000994205DA8E0071184900891830390F9152
:105A9000641C2278110030390A29F0D321782E298C
:105AA00003D00021C9430E9126E0641C21782A29E5
:105AB00008D134990A681168121D349B1A600E913E
:105AC000641C19E02D2901D1641C00E00021002292
:105AD0000E920CE0002909D10E9A4C4EB24205DA22
