:020000040800F2
:10000000480A0020496B0008FD690008FF690008E4
:1000100000000000000000000000000000000000E0
:10002000000000000000000000000000016A00085D
:100030000000000000000000036A0008056A0008D4
:1000400057350008000000005B37000897370008AC
:10005000233D0008B34300088B5400080D6A0008D4
:100060000000000037550008975500083757000872
:10007000FF570008176A0008035800080000000036
:100080005B69000800000000000000000B6B000826
:1000900000000000176B0008616B0008636B00082C
:1000A00000000000656B000800000000676B00089E
:1000B000FA21490141430800411E0028FBD1704745
:1000C000C0000100481E0029FBD1704710B586B062
:1000D0008020800228490A6802430A600A680240B8
:1000E0000092009A0A6802430A600A68024000927D
:1000F000009A0A6802430A600A6802400092009A65
:100100000A6802430A6009680840009000980120CC
:1001100002900390032004908020C000019090245E
:10012000E40501A9200001F0BFFF802080000190BC
:1001300001A9200001F0B8FF80200001019001A971
:10014000200001F0B1FF80204000019001A92000B3
:1001500001F0AAFF06B010BD10B5494C206849490E
:1001600001402160322002F0F7F820688021490028
:100170000143216010BD000014100240F0B5404A58
:1001800013684B4C1C401460614BDC430029116820
:1001900001D0214300E019401160610015680D4352
:1001A000156007255B4E1768374017600700EF4062
:1001B000FF07176801D5274300E01F401760176845
:1001C0000F4317606D1EEED510680640166010686C
:1001D000890801431160F0BD70B504000D000F26C1
:1001E00000210F222A40B0201043FFF7C7FF002153
:1001F00026403000FFF7C2FF00216006420F1020AA
:100200001043FFF7BBFF44480470457070BD000009
:1002100080B5FFF75BFF1A480168802212010A438C
:1002200002600168802292000A4302600168802215
:1002300052000A4302600168354A0A400260FFF733
:100240008BFF0021E220FFF799FF0A2002F084F8DB
:100250000021A420FFF792FF0021A620FFF78EFFC8
:1002600000212F20FFF78AFF0A2002F075F80021F5
:100270002F20FFF783FF0021AF20FFF77FFF01BD95
:1002800014000048FFFEFFFF30B5CB084907490FB7
:10029000224CC50028182018C45C01258D40002A76
:1002A00002D02543C55430BDAC43C45430BD00001A
:1002B000FFFDFFFF70B500210020FFF78DFF002438
:1002C000164E002501213019EAB2D3009A18805C3D
:1002D000FFF754FF6D1CE8B26028F3DB641C092CA7
:1002E000EFDB70BD70B500210020FFF775FF002027
:1002F00000210A4A00235418DDB2EE00751960553A
:100300005B1CDCB2602CF6DB491C0929F2DB70BDFA
:10031000FFFBFFFFFFF7FFFF44060020C4010020A2
:100320000EB4FFB50700002001E00198401C0190C9
:1003300001980AA94988884238D20AA9097948430C
:1003400002900C980299405C002600240025694622
:10035000898C019A89186A4611706946487001E0D3
:10036000012211E06846008D8542DED27819694687
:1003700049788C46012307216A07520F891A8B405E
:1003800061461942ECD0002269460978C0B2FFF7F5
:100390007BFF641C082C07D30024761C0C98029960
:1003A0008919405C694648706D1CDBE704B004980D
:1003B000F0BC04B0004708B4FFB506002420684430
:1003C000007802903018401E602834DA6846418078
:1003D00009A8407801906846408801994018401E5D
:1003E000442828DA00276846427000E07F1C019804
:1003F000874220DA0B98694649782039019A51439F
:10040000C919455C002468464088C01969460870CF
:1004100001E0002207E002988442E7DA30190A99E5
:100420002940F6D0012269460978C0B2FFF72CFFB7
:100430006D00641CEFE7FFE704B00498F0BC02B065
:10044000004708B4FFB50025040068460181170085
:1004500012E009A881B069460CC80CC102680A60A4
:1004600008BC320068460189A0B2FFF7A4FF24202F
:100470006844007824186D1CE8B23E5C002EE8D178
:10048000DAE710B51C00029B401A1B1B5843511A97
:1004900001F076FF001910BD80B54021B14801F090
:1004A00035FF012801D1B049086001BD81B00100CC
:1004B000481E002908D00021009100990C29F6DA85
:1004C00000BF0099491CF7E701B070471CB5002137
:1004D0000091A64BDC22FFF7D4FFA3490A68012A4A
:1004E00011D100220A60FFF7E1FF9E4C012280211A
:1004F000200001F011FF0A20FFF7D8FF0022802121
:10050000200001F009FF13BD00B58DB00100684661
:1005100001F06AFF96A101F06FFF684601F07AFFD3
:10052000C82382B26946BB4801F0B2FF0DB000BDDE
:100530007FB50500B84E300002F0ABFA300002F093
:10054000F5F90095012001906946300002F095FB15
:100550006425300002F0C4FC300002F0E4FA6421AB
:10056000300002F009FB002808D1300002F082FBC5
:1005700002F01AFD210002F027FD0400012001F025
:10058000EBFE6D1EE5D12000A44902F0ADFDBE4991
:10059000496E01290AD102F0F9FDBCA20CCA02F091
:1005A0000EFE02F0CEFEC64902F09EFD04B070BD04
:1005B000F8B58CB0B44CA269C24902A802F0F2FEB0
:1005C000C14881B069460CC80CC102680A6008BC09
:1005D00002AA00210020FFF734FF0020E061A062A2
:1005E000A089A0615F4E80273F029020C005019046
:1005F000E089E16988421ADBA069FFF767FF3900EB
:10060000019801F083FE002811D00821300001F08C
:100610007DFE00280BD01021300001F077FE00286D
:1006200005D02021300001F071FE0028DDD1DC2052
:10063000A189401A0090208A009901F0A1FE20664D
:100640000025E5610098E065E069216E884203DBE2
:10065000A069401CA061E561A069FFF737FFA069B0
:10066000DC2818DA3900019801F050FE002839D052
:100670000821300001F04AFE002833D0102130005C
:1006800001F044FE00282DD02021300001F03EFE74
:100690000028D9D126E001202062E56101228021D5
:1006A000300001F039FEA269864907A802F07AFEFF
:1006B000854C81B068460ECC0EC00C3C08BC07AA25
:1006C00000210020FFF7BDFE81B068460ECC0EC0B1
:1006D00008BC00BF08A228210020FFF7B2FEFFF7E8
:1006E000E9FD07E000228021300001F015FE012025
:1006F0002062E5610DB0F0BD2020202020202020C8
:10070000202000003EB5604C00206066FFF710FF1F
:1007100002F03CFDA8A20CCA02F064FE02F011FE39
:1007200005002564A06B02F031FD009001912800C6
:1007300002F02CFD02000B000EA120007C3002F024
:1007400031FE614881B069460CC80CC102680A607C
:1007500008BC22007C320A210020FFF772FEFFF75E
:10076000A9FD37BD000400483C060020FC0800003D
:100770000D0A00004355523A252E31662D3E252E96
:1007800031660000FEB5404C01206066FFF7D0FEE8
:10079000224902F088FE050002F0F8FC06000F0076
:1007A000A0A003C832003B0002F009FD02F0C9FD21
:1007B0006064E563608A009032003B0018A120006D
:1007C0007C3002F0EFFD404D81B068460ECD0EC08A
:1007D0000C3D08BC22007C3214210020FFF731FEC2
:1007E000606C02F0D3FC02000B0000BF10A12000DF
:1007F0007C3002F0D7FD81B068460ECD0EC008BC3B
:1008000022007C321E210020FFF71BFEFFF752FD65
:10081000F7BD00002C050020FC0500200000C842A8
:100820005053493A252E31662D3E256420000000A4
:100830004241523A252E31662020000038B59024DE
:10084000E40580210902200001F060FD002812D09B
:100850009D4D0821280001F059FD00280BD01021E2
:10086000280001F053FD002805D02021280001F0C8
:100870004DFD002807D10120B749C86201220103BC
:10088000200001F049FD31BD00000020666666666B
:1008900066660A401CB5B04CE06B02F077FC009035
:1008A0000191206C02F072FC02000B00BC49200098
:1008B0007C3002F077FD20007C30FFF725FE13BD71
:1008C00000F07F455C0B0008B0000020F0B587B059
:1008D000A14C0120A06400256563FFF703FDFFF72D
:1008E000E9FCB04FB04EA08A00281DD1A28931008A
:1008F00002A802F057FD81B068460ECF0EC00C3F33
:1009000008BC02AA00210020FFF79BFDBC4882B072
:1009100069460CC80CC102680A600CBC2D2100207D
:10092000FFF7FEFCFFF7C6FCA08A01281ED1256256
:10093000A289310002A802F035FD81B068460ECFD1
:100940000EC00C3F08BC02AA00210020FFF779FD71
:10095000BE4882B069460CC80CC102680A600CBC73
:1009600030210020FFF7DCFCFFF7A4FCA08A02285E
:100970001FD1A289A261310002A802F013FD81B04B
:1009800068460ECF0EC008BC02AA00210020FFF767
:1009900058FDFFF78FFCC04882B069460CC80CC1F7
:1009A00002680A600CBC2D210020FFF7B9FCFFF79C
:1009B00081FC07B0F0BD0000F0F7E8D9CABB514098
:1009C0003EB5654D286A002801D1FFF7F1FDFFF71C
:1009D00099FEFFF7D7FEFFF75DFF3B4C202120007B
:1009E00001F094FC00281CD1286A012819D10020AC
:1009F00028626C4881B069460CC80CC102680A6064
:100A000008BCCE4A28210020FFF71BFDFFF752FC4F
:100A100000228021200001F07FFCFA20C00001F0BC
:100A20009BFC37BDA03F23C78CA6B13F7CB5FFF729
:100A300069FEFFF7A7FEFFF72DFF474C608A02F023
:100A4000B3FAE16B02F088FD04D8206A002801D1D6
:100A5000FFF7AEFD1C4E0025608A02F0A5FAE16B9F
:100A600002F08EFD0BD201206065A06D052806DB2B
:100A7000A565656500228021300001F04DFC202134
:100A8000300001F043FC00281CD1206A012819D154
:100A90002562444881B069460CC80CC102680A60EE
:100AA00008BC00BF09A228210020FFF7CAFCFFF7FD
:100AB00001FC00228021300001F02EFCFA20C00051
:100AC00001F04AFC73BD00000004004852657365E4
:100AD000742050756D70000018B587B01E4CA08949
:100AE000A061FFF7F3FC802109029020C00501F00E
:100AF0000DFC002807D1A089401CA081782001F0BE
:100B00002BFC0120206508218D4801F0FFFB002807
:100B100006D1A089401EA081782001F01DFC02E0D2
:100B2000206D012815D100202065A2690BA102A823
:100B300002F038FC1B4881B069460CC80CC1026841
:100B40000A6008BC02AA00210020FFF77AFCFFF728
:100B5000B1FB08B010BD000000000020566F6C749F
:100B60006167653A256456200000000010B5FFF764
:100B700065FE744CA06C002801D1FFF7A7FEA08A87
:100B8000002801D1FFF71CFFA08A012801D1FFF73F
:100B90004DFFA08A022801D1FFF79EFF10BD000083
:100BA0005C6A0008B00000205C0B000870B586B0DD
:100BB00080208002B0490A6802430A600A68024045
:100BC0000092009A0A6802430A600968084000908F
:100BD0000098012001901124029400250495584E9C
:100BE00001A9300001F060FA0220019002940495FE
:100BF00001A9300001F058FA06B070BD00000000F5
:100C00004C01002010B5FA208000FFF759FA9B4CE8
:100C100020680121014321606420FFF751FA206818
:100C20000221014321606420FFF74AFA2068012174
:100C3000884320606420FFF743FA2068022188433C
:100C400020606420FFF73CFA10BD0000BC000020CB
:100C500010B56420FFF734FA884C206802218843DD
:100C600020606420FFF72CFA20680121884320606F
:100C70006420FFF725FA20680221014321606420E7
:100C8000FFF71EFA2068012101432160FA2080004D
:100C9000FFF716FA10BD000064010020F2B582B023
:100CA0000021774C626802239A43626080250826FF
:100CB0006A46107001910227FF43684600782900B8
:100CC00001400029606803DD01210143616002E009
:100CD0000121884360606420FFF7F2F96068022117
:100CE000014361606420FFF7EBF9606838406060A1
:100CF0002068C00703D501982900014301916D08C0
:100D0000761EDAD1019D6846007A6168012291431E
:100D1000616001280CD16068022101436160642098
:100D2000FFF7CEF96068074067606420FFF7C8F9F5
:100D30006420FFF7C5F9E8B2FEBD0000CC0A000848
:100D4000000400480000002038B504000D00FFF743
:100D500059FF0121200A4200A0201043C0B2FFF732
:100D60009DFF0121E0B2FFF799FF01212800FFF765
:100D700095FFFFF76DFF0F20FFF79AF9002032BDB6
:100D8000FEB500246E46070000203055380A4500A5
:100D90003555FFF737FF0121A0202843C0B2FFF7E8
:100DA0007DFF0121F8B2FFF779FFFFF72BFF01214B
:100DB000A1202843C0B2FFF771FF0021FF20FFF7F9
:100DC0006DFF3055FFF744FF0120FFF771F9002C4C
:100DD00005D0305D3119491E0978814203D0641C69
:100DE000092CD1DB00E0FEBD3078FEBD38B5040033
:100DF0000D00E1B22800FFF7A7FF210A6D1CA8B281
:100E0000FFF7A2FF002032BD38B50400601C80B29D
:100E1000FFF7B6FF05022000FFF7B2FF281832BD2A
:100E20001CB5FFF75FFA7F4C82B068460ECC0EC04F
:100E30000C3C0CBC00212820FFF772FA7A4882B0E3
:100E400069460CC80CC102680A600CBC322128201B
:100E5000FFF766FAD84882B069460CC80CC1026830
:100E60000A600CBC00210020FFF75AFAFFF722FAB3
:100E7000FA20400000F0EFFC141002401404004877
:100E800010040048FEB5FFF72DFA684882B06946A5
:100E90000CC80CC102680A600CBC00210020FFF7DE
:100EA0003FFABC4882B069460CC80CC102680A60AF
:100EB0000CBC1E210520FFF733FA5A4D82B068465C
:100EC0000ECD0EC00C3D0CBC19214620FFF728FAB0
:100ED000554882B069460CC80CC102680A600CBC57
:100EE0002D214620FFF71CFAA86B02F04FF90200F3
:100EF0000B00A9492800683002F054FAAC4881B0D0
:100F000069460CC80CC102680A6008BC2A00683235
:100F100024211420FFF795FAFFF7CCF9FA204000BE
:100F200001F01AFA00272F659C4C0126F10390204E
:100F3000C00501F0EBF900280DD1A86B02F026F9ED
:100F400097A20CCA02F02FFB02F0FBF9A8632E65F2
:100F5000962001F001FA0821200001F0D7F90028BD
:100F60000DD1A86B02F012F98FA20CCA02F01BFB84
:100F700002F0E7F9A8632E65962001F0EDF9286DDF
:100F800001281AD12F65A86B02F000F902000B00AE
:100F900027A12800683002F005FA854881B069462B
:100FA0000CC80CC102680A6008BC2A0068322421FF
:100FB0001420FFF746FAFFF77DF91021200001F019
:100FC000A5F9002806D02021200001F09FF9002873
:100FD000ACD124E0FFF786F9764882B069460CC8A8
:100FE0000CC102680A600CBC1E210720FFF798F9AB
:100FF000FFF760F9C84CA86B210002F054FAA8630F
:1010000002F0ACFB322180B2FFF7F0FEFA20800044
:1010100001F0A2F9A86B210002F066F8A863FFF7BF
:10102000FFFEF7BD00000020C80000207001002076
:10103000252E316641200000FEB5FFF753F9B74871
:1010400082B069460CC80CC102680A600CBC002161
:101050000020FFF765F94F4882B069460CC80CC103
:1010600002680A600CBC1E210520FFF759F9AC4C40
:1010700082B068460ECC0EC00C3C0CBC1921462038
:10108000FFF74EF9A74882B069460CC80CC1026848
:101090000A600CBC2D214620FFF742F9628AA2A10A
:1010A0002000683002F07EF9414881B069460CC8E2
:1010B0000CC102680A6008BC220068322421142096
:1010C000FFF7BFF9FFF7F6F8FA20400001F044F906
:1010D00000272765314D0126F1039020C00501F05E
:1010E00015F9002806D1608A401D60822665962089
:1010F00001F032F90821280001F008F9002806D192
:10110000608A401F60822665962001F025F9206DD7
:10111000012816D12765628A83A12000683002F079
:1011200041F9234881B069460CC80CC102680A60C5
:1011300008BC2200683224211420FFF782F9FFF74F
:10114000B9F81021280001F0E1F8002806D020218C
:10115000280001F0DBF80028BED117E0FFF7C2F845
:10116000144882B069460CC80CC102680A600CBC05
:101170001E210720FFF7D4F8FFF79CF81E21608A94
:10118000FFF734FEFA20800001F0E6F8FFF748FE92
:10119000F7BD0000100100203010000800040048D6
:1011A0009A9999999999B93F9A9999999999B9BFA1
:1011B000B00000201C010020EC000020FEB5FFF76D
:1011C00091F8B44882B069460CC80CC102680A6044
:1011D0000CBC00210020FFF7A3F8AF4882B069469D
:1011E0000CC80CC102680A600CBC1E210520FFF768
:1011F00097F84B4C82B068460ECC0EC00C3C0CBC31
:1012000019214620FFF78CF8464882B069460CC881
:101210000CC102680A600CBC2D214620FFF780F843
:10122000A2899E492000683002F0BCF89C4881B039
:1012300069460CC80CC102680A6008BC220068320A
:1012400024211420FFF7FDF8FFF734F8FA204000BE
:1012500001F082F800272765924D0126F1039020C6
:10126000C00501F053F8002806D1A089401DA081D7
:101270002665FA2001F070F80821280001F046F8F0
:10128000002806D1A089401FA0812665FA2001F020
:1012900063F8206D012816D12765A28923A12000BB
:1012A000683002F07FF87E4881B069460CC80CC1F6
:1012B00002680A6008BC2200683224211420FFF76B
:1012C000C0F8FEF7F7FF1021280001F01FF80028F2
:1012D00006D02021280001F019F80028BED117E01F
:1012E000FFF700F8CB4882B069460CC80CC1026811
:1012F0000A600CBC1E210720FFF712F8FEF7DAFF88
:101300000021A089FFF772FDFA20800001F024F887
:10131000FFF786FDF7BD00000000204134010020EA
:1013200000000020C800002025642000256456200D
:1013300000000000FEB5FEF7D5FFB74882B0694651
:101340000CC80CC102680A600CBC00210020FEF72A
:10135000E7FF514882B069460CC80CC102680A60B8
:101360000CBC1E210520FEF7DBFFAC4C82B06846AA
:101370000ECC0EC00C3C0CBC19214620FEF7D0FF51
:10138000A74882B069460CC80CC102680A600CBC50
:101390002D214620FEF7C4FFE289A24920006830D3
:1013A00002F000F83E4881B069460CC80CC10268E2
:1013B0000A6008BC2200683224210F20FFF741F8A0
:1013C000FEF778FFFA20400000F0C6FF00272765EF
:1013D000344D0126F1039020C00500F097FF00284E
:1013E00006D1E0896430E0812665C82000F0B4FFB2
:1013F0000821280000F08AFF002806D1E08964381F
:10140000E0812665C82000F0A7FFE089642801DAA2
:101410006420E081206D012816D12765E289814989
:101420002000683001F0BEFF1D4881B069460CC83D
:101430000CC102680A6008BC2200683224210F2017
:10144000FEF7FFFFFEF736FF1021280000F05EFFD9
:10145000002806D02021280000F058FF0028B9D12C
:1014600015E0FEF73FFF6B4882B069460CC80CC11F
:1014700002680A600CBC1E210720FEF751FFFEF730
:1014800019FF0A21E089FFF7B1FC6420D4E0FFF7DF
:10149000C7FCF7BDF8000020100100202C13000845
:1014A000B000002000040048FEB5FEF71BFF5E48B8
:1014B00082B069460CC80CC102680A600CBC0021ED
:1014C0000020FEF72DFF594882B069460CC80CC1B8
:1014D00002680A600CBC1E210520FEF721FF4F4C5C
:1014E00082B068460ECC0EC00C3C0CBC19214620C4
:1014F000FEF716FF4A4882B069460CC80CC1026864
:101500000A600CBC2D214620FEF70AFF228A4549BD
:101510002000683001F046FFB84881B069460CC829
:101520000CC102680A6008BC2200683224210F2026
:10153000FEF787FFFEF7BEFEFA2000F00DFF002742
:101540002765AF4D0126F1039020C00500F0DEFEB7
:10155000002806D1208A643020822665C82000F049
:10156000FBFE0821280000F0D1FE002806D1208AC9
:10157000643820822665C82000F0EEFE208A6428A8
:1015800001DA64202082206D012816D12765228A85
:1015900027A12000683001F005FF984881B0694616
:1015A0000CC80CC102680A6008BC22006832242101
:1015B0000F20FEF746FFFEF77DFE1021280000F009
:1015C000A5FE002806D02021280000F09FFE00285C
:1015D000B9D116E0FEF786FE0E4882B069460CC807
:1015E0000CC102680A600CBC1E210720FEF798FEA1
:1015F000FEF760FE1421208AFFF7F8FBFA20800036
:101600001AE0FFF70DFC2021280000F07FFE0028E3
:10161000F9D0F7BD1C0100200401002000000020CB
:10162000C80000203016000828010020100100200A
:1016300025646D732000000000F08EFEFFF7F0FBC4
:101640001021280000F062FE0028F9D0F7BDF8B59F
:10165000FEF748FE854C82B068460ECC0EC00C3CAE
:101660000CBC00212820FEF75BFE814882B0694651
:101670000CC80CC102680A600CBC32212820FEF79D
:101680004FFE7C4882B069460CC80CC102680A60F3
:101690000CBC00210020FEF743FE774882B069466B
:1016A0000CC80CC102680A600CBC1C210020FEF7AB
:1016B00037FEFEF7FFFDFA20400000F04DFE01204E
:1016C000E0640020206510214D4800F01FFE002836
:1016D000F9D00125E9039020C00500F017FE00288D
:1016E00006D1E06C401CE0642565FA2000F034FE71
:1016F0000821434800F00AFE002806D1E06C401E95
:10170000E0642565FA2000F027FE0026584F2021CE
:101710003B4800F0FBFD00285AD0E06C052858DD5E
:101720000520E064206D012832D12665FEF7DAFD40
:1017300082B068460ECC0EC00C3C0CBC00212820A8
:10174000FEF7EEFD82B068460ECF0EC00CBC322113
:101750002820FEF7E5FD474882B069460CC80CC159
:1017600002680A600CBC00210020FEF7D9FDE06C85
:10177000012832D1404882B069460CC80CC10268C9
:101780000A600CBC1C210020FEF7CAFDFEF792FD8A
:1017900010211B4800F0BAFD00289AD1E06C012806
:1017A00001D1FFF70BFDE06C022801D1FFF7C2FD6C
:1017B000E06C032801D1FFF777FEE06C042801D12B
:1017C000FFF73AFCE06C052883D1FFF75BFB80E76D
:1017D0009CE10028A6DCE564A4E7022801D17A4850
:1017E000C9E7032801D17948C5E7042801D1784821
:1017F000C1E70528CAD1C348BDE70000B0000020FA
:10180000000400481CB5FEF76DFD184C82B0684618
:101810000ECC0EC00C3C0CBC00212820FEF780FD35
:10182000134882B069460CC80CC102680A600CBC3F
:1018300032212820FEF774FDB34882B069460CC8F7
:101840000CC102680A600CBC00210020FEF768FD94
:10185000FEF730FD962000F07FFD0120206510216D
:10186000C44800F053FD0028F9D013BD000000204B
:10187000C8000020EC000020F8000020F8B5FEF7BA
:1018800031FDA14882B069460CC80CC102680A60EB
:101890000CBC00210020FEF743FDB74CA08A0028B5
:1018A00001D1B64806E0012801D1B54802E002287E
:1018B0000BD1B44882B069460CC80CC102680A60FA
:1018C0000CBC1E210020FEF72BFDFEF7F3FCFA20D6
:1018D00000F042FD00272765A64D0126F103902068
:1018E000C00500F013FD002806D1A08A401CA0828C
:1018F0002665C82000F030FD0821280000F006FD14
:10190000002808D1A08A002805D0401EA0822665A4
:10191000C82000F021FDA08A032801DB0220A0825C
:10192000206D012819D12765A08A002801D193488C
:1019300006E0012801D1924802E002280BD191482B
:1019400082B069460CC80CC102680A600CBC1E213A
:101950000020FEF7E5FCFEF7ADFC1021280000F0AA
:10196000D5FC002806D02021280000F0CFFC00285C
:10197000B4D120E0FEF7B6FC834882B069460CC8BB
:101980000CC102680A600CBC1E210720FEF7C8FCCF
:10199000FEF790FC2821A08AFFF728FAFA208000A1
:1019A00000F0DAFCFFF72EFF1021280000F0AEFC5B
:1019B0000028F9D0F1BDFFF725FF2021280000F015
:1019C000A5FC0028F9D0F1BD040100202801002069
:1019D00034010020F8B5FEF785FC674C82B06846FC
:1019E0000ECC0EC00C3C0CBC00212820FEF798FC4D
:1019F000C54882B069460CC80CC102680A600CBCBC
:101A000032212820FEF78CFC3F4882B069460CC882
:101A10000CC102680A600CBC1C210020FEF780FC8F
:101A2000FEF748FCFA20400000F096FC0120E0643C
:101A30000020206510214F4800F068FC0028F9D0F4
:101A40000125E9039020C00500F060FC002806D1C4
:101A5000E06C401CE0642565FA2000F07DFC082164
:101A6000444800F053FC002806D1E06C401EE064BE
:101A70002565FA2000F070FC0026A34F20213D4888
:101A800000F044FC002839D0E06C012837DDE56423
:101A9000206D012826D12665FEF724FC82B0684619
:101AA0000ECC0EC00C3C0CBC00212820FEF738FCEC
:101AB00082B068460ECF0EC00CBC32212820FEF743
:101AC0002FFCE06C01280BD10F4882B069460CC88E
:101AD0000CC102680A600CBC1C210020FEF720FC2F
:101AE000FEF7E8FB1021234800F010FC0028A7D1E6
:101AF000E06C0128A4D1FFF7C1FEA1E706E00028B1
:101B0000C6DCC4E77001002040010020FEF7EAFBBC
:101B100082B068460ECC0EC00C3C0CBC00212820C4
:101B2000FEF7FEFB82B068460ECF0EC00CBC322121
:101B30002820FEF7F5FB8F4882B069460CC80CC11F
:101B400002680A600CBC19210220FEF7E9FBFEF7CF
:101B5000B1FBFA20400000F0FFFBE5642665FA20A7
:101B600000F0FAFB2021034800F0D0FB0028F9D058
:101B7000F1BD000000040048000000204C010020DE
:101B800058010020640100201C010020F8B57A4FA4
:101B90001021380000F0BAFB002800D0ABE0002292
:101BA0008021380000F0B8FB744C012565633220B9
:101BB00000F0D2FBFEF796FB82B068460ECC0EC05A
:101BC0000C3C0CBC00212820FEF7AAFB4E4882B03A
:101BD00069460CC80CC102680A600CBC322128207E
:101BE000FEF79EFB634882B069460CC80CC10268D0
:101BF0000A600CBC19210220FEF792FBFEF75AFB8B
:101C0000FA20400000F0A8FBE56400202065A064F5
:101C10001021380000F07AFB0028F9D0E903902069
:101C2000C00500F073FB002803D1E06C401CE064A9
:101C300025650821380000F069FB002803D1E06C1D
:101C4000401EE0642565FA2676002021380000F069
:101C50005DFB002846D0E06C02284DDD0220E064E8
:101C6000206D01282DD100202065FEF73BFB82B0BE
:101C700068460ECC0EC00C3C0CBC00212820FEF7A0
:101C80004FFB214882B069460CC80CC102680A604B
:101C90000CBC32212820FEF743FBE06C01282FD139
:101CA000344882B069460CC80CC102680A600CBC9A
:101CB00019210220FEF734FBFEF7FCFA300000F099
:101CC0004BFB1021380000F021FB0028A6D1E06C6E
:101CD000012801D1FFF7BBFCE06C02289ED1FFF781
:101CE00079FE9BE7300000F037FB2021380000F040
:101CF0000DFB0028F9D0F1BD0028B1DCE564AFE7A9
:101D00000228D9D1BE48CCE7C80000200068BD49F0
:101D1000884200D0704780B5BB48016A002902D1D3
:101D2000C169491CC161416A491C4162FA229200A1
:101D300091421EDB00214162426D012A02D1826D77
:101D4000521C8265C26A012A05D1436B002B02D165
:101D5000036B5B1C0363036B3C2B0ADB012A08D17A
:101D6000C16201630022802149019020C00500F07A
:101D7000D3FA01BDD4000020000400480000002078
:101D8000F8B586B001F008FD00F050F9142168465E
:101D900001F012FD8020C0039C490A6802430A60DA
:101DA0000A68104005900598802080020A68024366
:101DB0000A600A681040059005988020C0020A68F1
:101DC00002430A60096808400590059800228321B3
:101DD0008F4800F0A1FA0022F02109019020C005EF
:101DE00000F09AFA012211039020C00500F094FA45
:101DF00003200090112001900126029600240394F4
:101E00006946834800F050F9F8204001009001969F
:101E10000294039469469020C00500F045F9F00350
:101E200000900194029469469020C00500F03CF9AE
:101E300038200090019402946946754800F034F906
:101E40004020009088204003019002946946704829
:101E500000F02AF9802000900196029403946946CC
:101E60006B4800F021F900220121072001F0C9FC94
:101E7000072001F0CAFC68460021002200230EC0A2
:101E8000644D654828606C60AC60EC602E6104278E
:101E90006F61AC61FF20C230E8612C6224216C5478
:101EA000AE62280000F042FD002801D000F0FAF8F0
:101EB00000943003019002966946280000F0DDFE90
:101EC000002801D000F0EEF800976946280000F0E5
:101ED000D4FE002801D000F0E5F8504850490160D8
:101EE0009621890141608460C46004610C214161D4
:101EF0008461C4610462446200F094FA002801D055
:101F000000F0D0F802A800210022002300252EC0F6
:101F1000684606C0434D3B482860FA204000686090
:101F2000AC606420E8602C616C61AC61280001F059
:101F300091FC002801D000F0B5F83603029602A902
:101F4000280001F0F9FD002801D000F0ABF8009462
:101F500001946946280001F0E5FE002801D000F058
:101F6000A1F8280001F085FC00228021284800F01B
:101F7000D3F9012231009020C00500F0CDF9FEF721
:101F800015FE214C0020FEF73FFFA0810A2000F043
:101F9000E3F90A20FEF738FFE0810A2000F0DCF9BF
:101FA0001420FEF731FF20820A2000F0D5F91E2010
:101FB000FEF72AFF60820A2000F0CEF92820FEF703
:101FC00023FFA0820A2000F0C7F93220FEF71CFF91
:101FD00000F0EAFF144901F087F8A0630A2000F03E
:101FE000BBF9FEF715F9C82000F0B6F9FEF77AF94B
:101FF000FEF760F9FEF7BAFDFFF7C8FDFAE700004B
:10200000E0000020002C01400000002014100240DD
:1020100000040048FC050020002401402C0500209D
:1020200000380140B40500200000204170B594B094
:10203000302108A801F0C0FB6846002100220023DF
:1020400000241EC01EC01220089001240B940D9481
:1020500010200C900E900226109600251195A020BD
:1020600080031290139508A801F088FE002801D083
:1020700000F018F8072000900196029503950121C1
:10208000684602F041F8002801D000F00BF80494F3
:10209000069504A802F008F9002801D000F002F823
:1020A00014B070BD72B6FEE7FFB500220F23029395
:1020B0002DE0052403E0A14CA042FAD103246D4693
:1020C0002D78AC403443019D2C609D4CA568DC43C9
:1020D00025404E68F60200D51D43994EB560F5685F
:1020E00025404F68BF0200D51D43F5607568254047
:1020F0004F68BF0300D51D43756035682C404D689F
:10210000ED0302D525001C002C433460521C0B68E3
:102110001C00D44000D18CE0012595402B40F5D027
:1021200054000326A640F74301974E68B707BF0F38
:10213000012F03D0B607B60F022E0ED18668019F7D
:102140003740CE68A6403E4386604668AE434D6841
:10215000EF06FF0F97403743476095006E46757056
:102160000D79AD07AD0F032D26D0C568019E2E4019
:102170008D68A5403543C5600D79AD07AD0F022DC3
:102180001AD1D508AD0045192E6A03966E467678A9
:102190001C2737406E463770039EB446029F6E463A
:1021A0003678B7406646BE43B4460F696E46367809
:1021B000B740664637432F6207680325019E3E40BD
:1021C0004F682F40A740374307604C682E042640D5
:1021D0009CD001245B4E366826435A4F3E603E46F3
:1021E000366826400196019E574E9708BF00F619A3
:1021F0000196019E366803966E4676780C27374026
:102200006E463770039EB446029F6E463678B740DE
:102210006646BE439027FF05B84201D100244EE731
:102220004A4FB842FBD04A4CA04200D043E70224B8
:1022300045E7FFBDFFB503230293012301930391FB
:1022400000213EE0052703E03C4DA842FAD1029F61
:102250008D00B4460C262E40B740BC4515D1D64360
:10226000374A12683240364F3A603A465268324036
:102270007A603A46D2683240FA603A46926816402E
:102280003A4696601A68A2431A60029B4A0093403D
:10229000DA43036813400360CB089B00C3181C6A31
:1022A0000F261C272F40BE40B4431C62C368134056
:1022B000C3604368009CA343436083681A40826004
:1022C000491C039ACA4020D0019A8A400092039B7D
:1022D0001A40F5D01C4B8C08A4001B191E680F2453
:1022E0008D000C272F40BC4026409025ED05A842CC
:1022F00001D10027ACE7154DA84201D1019FA7E706
:10230000134DA842A0D10227A2E7FFBD00690840F3
:1023100000D00120C0B27047002A01D0816170470F
:102320008162704701000B4A13680B4000D170476F
:1023300080B51160FEF7B0F801BD0000000C004848
:102340000004014018100240080001400004004849
:10235000000800481404014038B5040002F022F8D7
:1023600005000020C043844202D0044800782418AD
:1023700002F018F8401BA042FAD331BD7C010020C6
:10238000CA0F00D0494203105A400DD004B500D303
:10239000404200F009F8009AD20701D349421242A4
:1023A00000D5404204BD0000094214D088420FD33A
:1023B0000122030C01D100041204002300185B4128
:1023C0008B4200D35B1A5241F8D3190010007047BA
:1023D00001000020704708B501F0EAFF08BD02685F
:1023E000531C0360117070470023DB435B1CCA5C05
:1023F000002AC254FAD17047020000E0521C137840
:10240000002BFBD10B781370002B02D0521C491CFF
:10241000F8E77047431C0178401C0942FBD1C01A01
:1024200070472E0038B5040001D1012032BD2500CF
:1024300078356868002803D12870200002F01FF862
:102440002420686020680168012291430160606A6D
:10245000002802D0200000F008F9200000F085F8E4
:10246000012811D020684168084A0A40426020686B
:1024700081680822914381602068016801220A4333
:102480000260200000F058F932BD0000FFF7FFFFA6
:10249000F1B584B01F0006465036F06A202861D19D
:1024A0000C000FD068460280002A0BD00498806888
:1024B00080214901884207D104980069002803D18E
:1024C000E00701D501204EE0002575632120F06270
:1024D00001F068FF01006846008830806846008887
:1024E00070803A000498806880235B01984209D18B
:1024F00004980069002805D12500049F01920291EB
:1025000004001AE02000F8E721780185641C11E03E
:1025100001980090029B00228021380000F070F9A1
:1025200000281BD13868002CEED12988C905C90DB7
:102530000185AD1C7088401E708070880028E7D12E
:102540003800029B019900910022402100F058F9C7
:10255000002803D12020F062002004E02020F06257
:10256000032000E0022005B0F0BDF8B5050000260C
:102570000024286801689C4A0A40A96811432A6916
:102580000A4369691143EA690A4302604168974A4C
:102590000A40E968114341608168954A0A40A96987
:1025A00011432A6A0A438260924800688007800FBC
:1025B00005D0022809D006D3032802D007E0002264
:1025C00006E0022204E0042202E0082200E01022D9
:1025D000894F8A4880210902EB698B4220D1002A69
:1025E00006D0022A08D0042A15D0082A16D037E0CF
:1025F00001F029FE002834D0696840004A0880189C
:10260000FFF7D2FE01001039B94229D20740000776
:10261000400F38431CE001F0F9FDEBE70800EBE761
:10262000002A06D0022A16D0042A16D0082A04D07E
:1026300016E001F008FE010013D06A68500808187F
:102640001100FFF7B1FE01001039B94208D280B283
:102650002968C86005E00100EFE701F0D7FDEAE76F
:102660000124AE66EE662000F2BD2421415C09071C
:1026700006D501684A688B4B1340426B1A434A6087
:102680002421415CC90706D501684A68864B13407E
:10269000826A1A434A602421415C890706D5016891
:1026A0004A68824B1340C26A1A434A602421415C43
:1026B000490706D501684A687D4B1340026B1A43EF
:1026C0004A602421415CC90606D501688A68794BB5
:1026D0001340826B1A438A602421415C890606D527
:1026E00001688A68134B1340C26B1A438A60242125
:1026F000415C490611D501684A686F4B1340026C72
:102700001A434A60026C80235B039A4205D14A68EF
:102710006A4B1340426C1A434A602421415C09060B
:1027200006D501684A68664B1340806C18434860C0
:1027300070470000FFDFFFFFFEB506003700783767
:102740000024FC6001F02EFE019020253068006816
:10275000000717D55B480090019B00222904300038
:1027600000F04EF800280DD0EFF31080012181F326
:10277000108831680A6880239A430A6080F31088C1
:102780007D6026E030680068400725D54D48009000
:10279000019B00226904300000F032F800281BD0B1
:1027A000EFF31080012181F3108831680A685E4BD5
:1027B00013400B6080F31088EFF31080012181F348
:1027C000108831688A6801239A438A6080F31088F0
:1027D000BD603C700320FEBD7D60BD6034667466E4
:1027E0003C700020FEBD0000F369FFFFFFCFFFFF3C
:1027F000FFF4FFFF30100240F0FF000000127A00EB
:10280000FEB580273F010825002604000191684697
:10281000027002932068C0690199014001988142C9
:1028200001D1012000E0002069460978884236D1B4
:1028300008980021C9438842ECD001F0B3FD029909
:10284000401A0899814201D3002901D10320FEBD1D
:10285000206800684007DDD501988028DAD040283C
:10286000D8D02068C0692840206803D1C0693840AA
:10287000D0D009E00562200000F026F82000783072
:10288000C56006700120FEBD20680762200000F0D0
:102890001BF8200078302021C1600670D6E70020A8
:1028A000FEBD0000FF7FFFFFFFFFFDFFFFFFFEFFFC
:1028B000FFFFFBFFFFEFFFFFFFFFEFFFFFFF9FFFAC
:1028C000FFFFF7FFFFFFFF0110B5EFF310810122BB
:1028D00082F3108802681368134C1C40146081F363
:1028E0001088EFF31081012282F310880268936848
:1028F0000124A343936081F31088016E01290BD159
:10290000EFF31081012282F310880268136810240B
:10291000A343136081F3108820218022815000217D
:102920000166816610BD0000DFFEFFFFF8B5040000
:102930000025002C01D10120F2BDA06B002805D19B
:10294000E06334216054200001F049FD1021012290
:10295000A06B084003D12068042386681E4000D085
:1029600091E0A66B834F374002263E43A6638668FC
:10297000B607B60F012E06D10646366816400FD1AF
:10298000C66836040CD4C6681827BE43A768374308
:10299000C76020680669B600B608676837430761F4
:1029A0002068C668A84F3740C760A06A012801D0D8
:1029B000080200E000202669022E01D1009300E009
:1029C0000095A37E267EB603677EFF0337435E0332
:1029D0003E433043E6680643009F37432420205C93
:1029E00040003843E67E012E0CD1002B03D10300BA
:1029F0000803184306E0A36B20261E43A663E36B7F
:102A00001343E363E369FF26C236B34202D00343B4
:102A1000206A18432368DE680643DE60E36A0E0618
:102A2000B3420DD0012B0BD0022B09D0032B07D0C2
:102A3000042B05D0052B03D0062B01D0072B0CD17E
:102A400023685E690727BE435E6123685E692C27A1
:102A5000E75D7F077F0F37435F610223DB43266813
:102A6000F6687A4F3740874205D1E563A06B034093
:102A70001A43A2630BE0A06B03401943A163E06B10
:102A80001043E06302E0A06B0143A163012528002D
:102A9000F2BD70B5040001D1012070BDA06B022110
:102AA0000143A163200000F0E5F90500002628009D
:102AB00008D1200000F0A8F9050001282FD001203E
:102AC000A06301E0012D2AD0206841689F22914334
:102AD00041609F20216808602068C1685F4A0A4001
:102AE000C260206801698900890801612068416924
:102AF0000722914341612068016A594A0A400262F3
:102B00002068816AC90CC904816256480168564A26
:102B10000A400260200001F08DFCE663A6633420C9
:102B20002654280070BDF8B50400002500200426B6
:102B30002168896831401BD13421615C012917D09B
:102B40002700343701213970617E012904D020002B
:102B500000F00CF901000CD1A16B444A0A40B1010C
:102B60001143A163E5633D701C21226811606FE091
:102B70000220F2BDFFFEFFFFFEB504000D000020A5
:102B8000009001266069082801D108270DE020681F
:102B9000C068304008D0A06B20210143A163009899
:102BA000342160540120FEBD0C2701F0FBFB019095
:102BB00020680168394018D10020C0438542F7D011
:102BC000002D05D001F0EEFB0199401A8542EFD2AD
:102BD000206800683840EBD1A06B04210143A16359
:102BE0000098342160540320FEBDA16B72020A4399
:102BF000A2632168C968C02212010A401CD1A17ECB
:102C0000002919D10068000716D5206880684007A0
:102C10000BD4206840680C21884321684860A06B71
:102C2000134901400E43A66306E0A06B2021014337
:102C3000A163E06B0643E663207E002802D10C20EE
:102C4000216808600020FEBD1902FEFFE7FF3F83F8
:102C500021688A6816438E60F2BD000000023E8340
:102C600000F000F008270140FFFF3FFFFEF1FFFFEB
:102C7000FFFEFFFF0068006C7047F8B504000025F8
:102C8000002600953420205C012801D10220F2BDED
:102C900001223423E254206883685B075CD40B680C
:102CA0009A400092564A4B68564FBB42836A009F37
:102CB00044D01F438762E06A80235B0598421FD09F
:102CC00001281DD002281BD0032819D0042817D0B2
:102CD000052815D0062813D0072811D020688B6846
:102CE00047697F077F0FBB420AD043690727BB4371
:102CF0004361206843690F7A7F077F0F1F43476155
:102D00000868102817D011282BD18020C003136821
:102D1000184310600868102823D16C4800686C497B
:102D2000FFF742FB0A21484300900098002818D082
:102D30000098401EF8E780200004E8E7BB43836268
:102D40000868102806D011280BD162481168084085
:102D5000106006E06048F9E7A06B20210143A16301
:102D60000126342025543000F2BD0000F8B50400DF
:102D7000002000902068012182689207920F012AAA
:102D800006D1024612680A4036D1C268120433D412
:102D900010278268514B134006D0A06B0743A763EE
:102DA000E06B0143E16325E082681143816047489D
:102DB00000684749FFF7F8FA01E00098401E0090CC
:102DC00000980028F9D101F0EDFA012506002068ED
:102DD0000068284010D101F0E5FA801B0328F6D3E3
:102DE000206800682840F2D1A06B0743A763E06B1E
:102DF0000543E5630120F2BD0020F2BD00000000A4
:102E00000827014001100000F8B5040020680321E4
:102E100082680A40012A2BD10125024612682A4005
:102E200002D1C268120423D51026826805231340FC
:102E3000012B15D18268022313438360206801604F
:102E400001F0B0FA070020688068284010D001F037
:102E5000A9FAC01B0328F6D3206880682840F2D066
:102E6000A06B0643A663E06B0543E5630120F2BD5A
:102E70000020F2BDF8B504002068042781683940BD
:102E800022D010258168394005D08168890702D495
:102E900081682943816001F085FA06002068806816
:102EA000384011D001F07EFA801B0328F6D3206849
:102EB00080683840F2D0A06B0543A563E06B012128
:102EC0000143E1630120F2BD0020F2BD8801002032
:102ED00040420F00FFFFBFFFFFFF7FFF1700008092
:102EE000FEB5040000200190694608703420205C83
:102EF000012801D10220FEBD012034216054206848
:102F000003258168294001290ED121680968C90774
:102F100002D4C168090407D5A06B20210143A16335
:102F200001206946087037E0A16B1E4A0A40022161
:102F30001143A163C1680D40C16803229143C16080
:102F400020688168802212060A43826001F02AFA12
:102F500007002068802636068168314013D001F0D2
:102F600021FAC01B0328F4D3206880680640F0D003
:102F7000A06B0221884310210143A16301983421F1
:102F800060540120FEBDC1680D43C560A06B0221E5
:102F9000884301210143A1630198342160546846AC
:102FA0000078FEBDFFFEFFFF9D2102000AD002D483
:102FB000491E9218FCD5C905100A1206524100D3C9
:102FC000012A4841704700000122D20703004B400C
:102FD0002ED4431A01D2C01AC91830B44B180418A1
:102FE000240E1B0E22D0FF2C20D0E31A182B1DDC40
:102FF00009021143C40D641E0002104394461925B2
:10300000ED1A0A00AA40D940451801D36D08A41C46
:10301000E405D209280A2D062A436546AA416041E3
:1030200003181B0EFF2B01D3C00DC00530BC704729
:10303000514006E05140CCE70122D20703004B404B
:10304000F8D4431A03D2C01AC9185040514030B4C2
:103050004B18090211430418240E1B0E40D0FF2CFC
:103060003AD025009D410BD31ED8C50D4002401A11
:103070000BD3ED050100400AC90591416841D5E730
:10308000C50D40024918401AD0D001214008491C02
:103090000018FCD58C4204D36D1A000AED054019C6
:1030A000C4E7E8051040C1E7182DBFDCAC1C0D00DB
:1030B000E140E5414D40012D4941C40D000210435E
:1030C000451A01D46D199543641EE405280A2D069E
:1030D0009541604130BC7047FF2BA7D1D843A5E78D
:1030E0002442A3D10020A1E730B405004D400122C5
:1030F000D20715404B180418240E25D01B0E2CD0D7
:10310000FF2C31D0FF2B34D0E41A00020902104307
:10311000114343084808D10D1B1A02D2641EDB1864
:103120001B18DB18834200D31B1A4941F9D37F34A3
:1031300023DDFF2C05DAE40548086041284330BC54
:103140007047FF20C005F9E728001B0E03D0FF2BB6
:10315000F5D14902F3D0D043F1E7FF2C01D1400271
:10316000F9D1FF20C005E9E74002F4D1FF2BF8D1E7
:10317000F1E728004902E2D0EDE70B0200202442EB
:10318000DCD15B129B1CD9D9D805D7E701221206E6
:103190000118CA420AD28A420DD8382212060909F9
:1031A0008918C20FD20711434007704700D0490861
:1031B0000909014301E0C10FC90700207047F0B5BC
:1031C0000E005E400125ED072E40B446AE0ADF1822
:1031D0004C18F44208D2F7420ED2640D01D07F0D94
:1031E00012D100206146F0BD05D1F74201D87F0D14
:1031F00005D10020C143F0BDFBD1640DF9D0002002
:10320000C143490549088FE0E419C902DB0229439B
:103210002B43DB0A460DC00231438E4630B487B2E1
:1032200095B27D432E0CADB2140C7C43A419260C30
:10323000240425439CB27C43A419190C7943270C20
:10324000C919A4B20F043C43090C000C97B24743C0
:103250002E0CBE193543ADB2170C4743360CBF19BF
:10326000A6B2BF193E043543240C3E0C36199FB25A
:103270004743BF19BCB23E0C89191F0C47437F1846
:103280003E043443390C704680B297B247432E0C4B
:10329000BE193543ADB2170C4743360CBF19A6B261
:1032A000BF193E043543240C3E0C36199FB24743E8
:1032B000BF19BCB23E0C89191F0C47437F183E044E
:1032C0003443390C77463F0C90B278432E0C80196A
:1032D0000604ADB22E43050CA0B22D18120C7A4391
:1032E0005019020C80B2240CA4189AB27A43121915
:1032F00014042043120C89181B0C7B43C91830BCE2
:10330000EF0A394203D1B61940414941641E6F1298
:10331000BF0DE41B0BDBFF19BC4211DA24050027AB
:103320004208AE417841614166463143F0BD641CBC
:1033300005D1401C6141CF0201D34908F4E750E7B1
:103340005DE7012252054B18DA4201D95815704742
:103350005B0D0722D2019B1A10D9FF2B1DD2DB0572
:103360000122D2070A4013430903020D1143490AFF
:10337000C200524100D9491CC81870470AD1800ABE
:103380000A0302435212921C04D9D3070B40D00502
:1033900018437047C80FC0077047C80F0002FF30BE
:1033A000C00570470CB418B583B004000A0006A825
:1033B000029001940020009002AB01A908487844D3
:1033C0001E3001F0A3F80021019A1170002801D4E9
:1033D0000198001B04B0019910BC03B0084700BF5E
:1033E000FFEFFFFFF0B40E005E400125ED072E4019
:1033F000B446AE0ADF184C18F4423BD2F74241D231
:10340000640D43D07F0D38D0E41BC902DB02294391
:103410002B43CF0ADB0A0600B61A9F4104D2641E72
:10342000B6197F41B6185F416812800D2418001844
:10343000844222DCE80C0021B6197F41B61A9F4174
:1034400002D2B6185F413F1C40414941F4D3241CCD
:1034500021DD2405B6197F41B61A9F4105D33743B4
:10346000C60737430026012F70416141664631434C
:10347000F0BC7047FCD1F74205D20020C14349059A
:103480004908F3E704D00020C143F1E77F0DFAD0EB
:1034900000206146ECE72442FAD1401C61410F0351
:1034A000F6D30020E2E730B405004D400122D207F8
:1034B00015404B180418240E2ED01B0E32D0FF2CB2
:1034C00034D0FF2B3AD0E418000209021043114314
:1034D000000A090A9446C2B24A43000AC3B24B43E7
:1034E000000A4843110A5B181A43D2B2190A091894
:1034F00001D44918641E080A7F3C23DBFE2C08DA3D
:10350000E40509061143634699416041284330BCF4
:103510007047FF20C005F9E728001B0EFF2BF6D1EE
:10352000D043F4E72800FF2CF1D1F9E74002F7D1AE
:10353000FF2B01D14902F3D1E005E7E7D8054902A5
:10354000E4D0EDE743020020641CDFD15B129B1C3A
:10355000DCD9D805DAE7FEE70CB40122120603181D
:10356000DA4207D84B18DA4204D802000A4392180C
:1035700002D281420CBC7047FCD088420CBC704720
:103580000CB4012212060318DA4207D84B18DA42AB
:1035900004D802000A43921802D288420CBC704739
:1035A000FCD08142FAE7F0B40125ED070F005F403F
:1035B0004FD48B4200D1824205D984461000624626
:1035C0008C4619006346DF184C18640D7F0D3AD005
:1035D000661C760537D0E61B352E34DCDB022B4328
:1035E000DB0A0C0DC9022943C912202E0DDB17007E
:1035F000203E06D01F00F741F3405F400026012A1D
:103600007741C01871410DD217E01700F741F24021
:103610005740F3415A40B340F3405A4000268018C7
:1036200059410AD3A21C52050FD0C207012F724183
:1036300017004008CB0718434908641C24054208BA
:10364000AF4170416141F0BC7047641C210500200E
:10365000F9E76B4010E06B40ABE7F742F3D1E94389
:10366000F1E72442EFD100200021ECE7F0B401257E
:10367000ED070F005F40EED40C00871A9C4105D285
:10368000C01BA141D219634169406B40AE0ADF18EB
:103690004C18F442E1D2640D7F0DE2D0E61B362EC9
:1036A000D1DCDB022B43DB0AA4460C0DC902294303
:1036B000C90A012E28DC04D1D6075208DF073A4395
:1036C0005B08EF0A76429041994114D039423BD1D0
:1036D000B61940414941761C394204D1761C001884
:1036E00049413942FAD0B9436746B74208D9A41BC9
:1036F00024052143A7E70042EAD13642E8D1A2E7F8
:10370000E40AE10700209EE7202E0BDD203E1F008B
:10371000F340F7415F40012A002257417E42984121
:1037200091410BE01700F741F2405740F3415A40F6
:10373000B340F3405A407E42904199410A0303D27C
:10374000641EB619404149410027641E2405420801
:10375000AE4178416141F0BC7047FEE70122D207DB
:103760000118090E7F3910D449421F310FD40018B7
:1037700005D2C0011043C84000D5D0437047C001F6
:103780001043C84005D440427047002070470042B3
:10379000F3D510007047FEE780B506480168102297
:1037A0000A430260032001F071FE00F003FE0020D6
:1037B00002BD000000200240002200BF094202D0EA
:1037C000491E4254FCD1704710B5C30018221A405C
:1037D000FF249440E3438907090E9140020004D47A
:1037E000184892089200801806E0174A0007000F58
:1037F00008388008800010180268134019430160DF
:1038000010BD80B5FFF7E0FF01BD010005D4012127
:10381000C006C00E81400D480160704710B5401EC3
:1038200080214904884201D3012010BD084C60600A
:1038300003210020C043FFF7C7FF0020A06007213D
:10384000216010BD00E400E01CED00E000E100E0BC
:1038500010E000E010B5040001D1012010BD3D20B2
:10386000205C002804D13C216054200000F0EFFDD2
:1038700020E03D21415C012901D001207047022157
:103880003D22815402680121D3680B43D360026852
:10389000174B9A4202D0174B9A4205D192685207B1
:1038A000520F062A04D002681268114300680160B2
:1038B0000020704702203D216054211D206800F047
:1038C000A3F90120462160543E2160543F216054F9
:1038D000402160544121605442216054432160548E
:1038E00044216054452160543D216054002010BDA6
:1038F000002C01400004004004000E000020694636
:1039000008700125300006D0042E37D0082E3CD098
:103910000C2E41D047E02068C1682E4A0A40C260A0
:10392000606A01F0D5FD00223100206800F0ECF95A
:1039300020682949294A244B984205D0234B9842B4
:1039400002D0234B984209D1036A134006D1036A7F
:103950000B4003D1436C224F1F4047642068036A29
:103960001A4007D1006A014004D120680068A843CA
:1039700021680860002E19D13E2020E02068C1682F
:10398000184A0A40C260A06ACBE72068C168164A9C
:103990000A40C260E06AC4E72068C168134A0A406E
:1039A000C260206BBDE76846057009E0042E01D1B6
:1039B0003F2004E0082E01D1402000E041202554A2
:1039C00068460078F2BD0000002C01400044014030
:1039D00000480140FFFDFFFF4404000011110000FA
:1039E000FF7FFFFFFFFBFFFFFFF7FFFFFFEFFFFF83
:1039F000F8B504002068C168009105690027022617
:103A0000354214D0314012D00221C9430161012155
:103A100021778069800703D0200001F07DFD05E05B
:103A2000200001F07AFD200001F078FD277768077B
:103A300017D50098400714D520680421C9430161B7
:103A400026778069C0218900014003D0200001F061
:103A500063FD05E0200001F060FD200001F05EFD47
:103A600027770826354216D00098304013D02068BA
:103A70000821C943016104212177C069800703D06F
:103A8000200001F049FD05E0200001F046FD200086
:103A900001F044FD27771020054217D00099084017
:103AA00014D020681021C94301612677C069C02164
:103AB0008900014003D0200001F02EFD05E0200028
:103AC00001F02BFD200001F029FD2777E807C00F4A
:103AD0000099CA07D20F104206D00120C0432168C6
:103AE00008612000FEF712F98020054209D00099F4
:103AF000084006D08020C04321680861200001F002
:103B00000EFD4020054209D00099084006D0402013
:103B1000C04321680861200001F002FD202005401B
:103B200009D00099084006D02020C04321680861D0
:103B3000200001F0F6FCF1BDF8B50400002668464F
:103B400006703C20205C012801D10220F2BD270034
:103B50003C3701253D7002203D22A0542068826838
:103B6000284B13408360086802003FD010283DD0E6
:103B700020283BD0302839D0402830D0502820D0C1
:103B8000602825D0702806D02B03984235D05B00E2
:103B900098420AD02FE0CB684A688968206800F014
:103BA000A5F820688168772208E0CB684A688968B0
:103BB000206800F09BF820688168AA030A438260AD
:103BC0001BE0CA684968206800F062F850210EE0E6
:103BD000CA684968206800F06CF8602107E0CA688C
:103BE0004968206800F054F8402100E00100206896
:103BF00000F074F801E0684605703D2025543E70E1
:103C0000FFF7DEFE8800FFFFF0B502681B4B1C4C7F
:103C10001C4D1D4EB04201D0A84206D17027BA43B8
:103C200017004A683A43B04208D0A84206D0174D60
:103C3000A84203D0A04201D0984203D1264D15409E
:103C4000CA682A438025AA434D69154305608A68DE
:103C5000C2620A688262B04203D0A04201D0984298
:103C600001D109690163012141610269114003D059
:103C70000169012291430161F0BD0000004801404B
:103C80000044014000040040002C0140002000409E
:103C900030B5036A046A0125AC4304628469F025E7
:103CA000AC431201224382610A2293431943016209
:103CB00030BD30B5036A046A1025AC4304628469E0
:103CC0000F4D254012032A438261A022934309012C
:103CD0001943016230BD0000FFFCFFFF82687023C2
:103CE0009A43114307220A438260704730B58468C3
:103CF000044D254029430A4319021143816030BD18
:103D0000FF0FFFFFFF00FFFF10B5C906C90E036AD2
:103D100001248C40A3430362036A8A401A4302626F
:103D200010BDFEE7F0B53C22825C012A01D10220E1
:103D3000F0BD02003C320123137002243D2544559E
:103D400005686E68AC687027BE430F6837436F60C4
:103D50000568084EB54202D0074EB54204D1802610
:103D6000B44349682143A9603D21435400201070A9
:103D7000F0BD0000002C014000040040FEB504002E
:103D800019D0AD4D2078C00717D58027BF026868CD
:103D90000C210140042909D068680C210140082940
:103DA00041D168687908084088423CD128680740BA
:103DB00003D06068002800D19BE1207880071AD5E5
:103DC000F827FF4368680C21014007D068680C2180
:103DD000014008295BD16868C00358D4286880076F
:103DE00003D5E068012800D083E1286807402069F6
:103DF000C000384328602078000779D50227E069A1
:103E00000028686A65D001210143696200F0CAFA9E
:103E10000600686A38406BD100F0C4FA801B0228A3
:103E2000F7D90320FEBD60687B0801280BD0B34999
:103E3000B34A002801D1286809E00528286806D17E
:103E4000C94301432960286803432B6004E0024012
:103E50002A60286801402960606800280BD000F0C3
:103E6000A1FA060028683840A7D100F09BFA801B11
:103E70006528F7D3D5E700F095FA060028683840A2
:103E80009BD000F08FFA801B6528F7D3C9E7E06864
:103E9000002828680ED001210143296000F082FA31
:103EA000060028688007A0D400F07CFA801B022856
:103EB000F7D9B6E701218843286000F073FA0600BD
:103EC0002868800797D500F06DFA801B0228F7D983
:103ED000A7E701218843686200F064FA0600686A77
:103EE000384005D000F05EFA801B0228F7D998E729
:103EF00004272068384062D000200190B806E969A4
:103F0000014008D1E9690143E961E969084000908D
:103F10000098012001907B480068C00512D47948C0
:103F20000068A90D01437748016000F03BFA0600E4
:103F300074480068C00505D400F034FA801B652879
:103F4000F6D36EE7A068012808D0002801D1286ABE
:103F500009E00528286A06D138432862286A012129
:103F60000143296205E0012188432862286AB84399
:103F70002862A4480090A06800280CD000F012FA33
:103F80000600286A800713D400F00CFA801B009901
:103F90008842F6D345E700F005FA0600286A800754
:103FA00006D500F0FFF9801B00998842F6D338E768
:103FB0000198002803D0E86993490140E96120781D
:103FC000C0061DD56069F826F643012836D1686B16
:103FD00007436F63686B01210143696300F0E2F9F5
:103FE0000700686B800705D400F0DCF9C01B0228CD
:103FF000F7D916E7686B0640A069C00030436863D4
:10400000206A002877D069680C220A40082A5BD011
:104010008027BF0491490228286847D101402960C0
:1040200000F0C0F906002868384021D000F0BAF945
:10403000801B0228F7D9F4E6001002400421C9438E
:104040008842686B02D101406963D3E707436F631D
:10405000686B01218843686300F0A4F90600686B6F
:104060008007CDD500F09EF9801B0228F7D9D8E64D
:10407000E86A0F218843E16A0143E9626868784988
:104080000140A06A0843616A0143696028687908B1
:104090000143296000F086F90400286838402AD1DD
:1040A00000F080F9001B0228F7D9BAE60140296028
:1040B00000F078F90400286838401CD000F072F94C
:1040C000001B0228F7D9ACE6012812D06868E96A1B
:1040D000802252020240636A9A420AD10907090FFC
:1040E000E26A914205D1F02189030140A06A814230
:1040F00001D00120FEBD0020FEBD0000FFFFFBFF40
:10410000FFFFFEFF00700040F8B5040060D0009192
:1041100054480068C107C90F009881420CD2514829
:10412000016801229143009A0A4302600068C107B6
:10413000C90F009881424BD121684B4D02200142AA
:104140000CD0490704D56968E022D2000A436A60AE
:104150006968F0229143A2680A436A6001272168D6
:10416000394025D06168012902D12868800303E025
:10417000022903D12868800103D429E02A6810406D
:1041800026D06868032290430143696000F00AF971
:10419000060068680C21014060688000814207D0F9
:1041A00000F000F9801B17498842F2D30320F2BDCA
:1041B0002C48009902683A4091420BD20168B943F9
:1041C000009A0A430260006807400098874201D0C5
:1041D0000120F2BD2078400705D5686823490140D9
:1041E000E0680843686000F011F821496A68120627
:1041F000120F895CC8401F490860032001F046F98E
:104200000020F2BD89130000FFFFFFEF1A4A136878
:104210001A480C211940082900D0704730B50F21E9
:1042200019A49D0C0D40645D926ADB0307D500BFA5
:1042300019A31140595CFEF7B7F8604330BD200068
:104240000F49484330BD0B4800680E490A4A1268BE
:104250005205520F895CC84070470000FFFFFFFE07
:10426000FFFFC2FF0020024000100240FFF8FFFFE6
:10427000386B0008880100200410024000127A0008
:1042800000093D00586B00080203040506070809F1
:104290000A0B0C0D0E0F101001020304050607088F
:1042A000090A0B0C0D0E0F10F8B50400374D2068ED
:1042B000C00356D5002000908020400529680140A9
:1042C00008D12968014329602968084000900098B6
:1042D000012000902E4F3868C00510D43868A90D11
:1042E0000143396000F05EF806003868C00506D466
:1042F00000F058F8801B6528F7D30320F2BDC020DA
:10430000800069680140234F00291ED06268104078
:1043100081421AD0686838406968802252020A4394
:104320006A6069681C4A0A406A606860C0070CD508
:1043300000F038F806006868800706D400F032F80C
:10434000801B16498842F6D3D7E768680740606843
:10435000384368600098002803D02868104901405D
:1043600029602078C00705D5686903218843A168C2
:10437000014369612078800605D56869102188436A
:10438000E168014369610020F2BD00001C10024099
:1043900000700040FFFCFFFFFFFFFEFF89130000DD
:1043A000FFFFFFEF01484068704700BF7C0100201D
:1043B0007047FEE781B001204C490A6802430A6059
:1043C0000A68104000900098802040054A68024327
:1043D0004A60496808400090009801B0704710B5E5
:1043E00086B004001421002201A8FFF7E7F9206835
:1043F0003F4988421CD13F48410D42680A43426010
:1044000042681140009100998021890202680A43A4
:104410000260006801400091009811200190032083
:1044200002900020039001A99020C005FDF73CFEFA
:1044300006B010BD00682E49884200D0704780B594
:104440002A4801682C4A0A400260112147E00068AE
:104450002A49884200D0704780B5C80C23490A68B1
:1044600002430A6009680840009000980022022177
:104470000D20FFF7C6F90D20FFF7C7F901BD10B5F4
:1044800086B004001421002201A8FFF797F92068E4
:104490001B49884221D117488021C90142680A433B
:1044A00042604268114000910099802189020268AF
:1044B0000A43026000680140009100980C200190BE
:1044C0000220029000200390032004900120059018
:1044D00001A99020C005FDF7E7FD06B010BD9020B2
:1044E000C005FDF7A7FE01BD000000001810024046
:1044F0000024014014100240FFFDFFFF002C01408A
:10450000003801400100202008437047FDB5B2B0DB
:104510003A98049102A93B22885400200D9027A8C4
:10452000401C31900DE00498329A90470490002886
:1045300001D100F0D3FE0D98401C0D903398401C23
:1045400033903398017800290FD02529EBD1002032
:104550000790089009900A900B900C900225012179
:10456000149108211291339C05E00D9800F0B8FEDB
:10457000010014980843641C21782029F8D02329CD
:104580000BD02B2904D02D2904D0302908D00AE0E3
:104590002843F0E701000420ECE701000820E9E7E8
:1045A00001001020E6E72A290FD134990A68116822
:1045B000121D349B1A600F91002904D54A420F92B4
:1045C000010004200843641C12E000210F91644B99
:1045D00009E00F99994205DA8E007118490089188F
:1045E00030390F91641C2278110030390A29F0D338
:1045F00021782E2903D00021C9430E9126E0641CA6
:1046000021782A2908D134990A681168121D349B2F
:104610001A600E91641C19E02D2901D1641C00E080
:10462000002100220E920CE0002909D10E9A4C4E76
:10463000B24205DA9600B2185200D218303A0E9201
:10464000641C23781A00303A0A2AEDD302A908879D
:104650002678310040487844FF30401E00F062FF69
:10466000002801D0641C00E0002602A83A2146542C
:10467000682E04D1207868280BD1622005E06C2ECA
:1046800007D120786C2804D1712002A93A228854DD
:10469000641C18A80690207869460870601C339046
:1046A000684604782000253833D01C3800D1CDE18D
:1046B000001F022800D8C9E1133801D100F036FDEF
:1046C000093800D1C2E1801E01D100F0CCFD401EAE
:1046D00001D100F079FD401E022800D8B6E1001F8C
:1046E00001D100F071FD401F00D109E1401E01D150
:1046F00000F01CFD401E00D1F1E0C01E0ED0801E57
:1047000001D100F013FDC01E01D100F00FFD00F03B
:10471000B6FD14980790252000F0ADFD3498006890
:104720000468001D349908600594002C00D0C2E094
:1047300002A83B21405C002800D1B6E00024E443FD
:1047400006487844163000F0F7FE201A01D000F039
:10475000C5FD00F0A2FD00BF98210000CC210000A3
:10476000CBCCCC0C01236A4602A9280000F072FED3
:10477000002801D000F0B2FD641EF3D13295079DF0
:1047800018AC002D0FD0329E21780498B0470490C9
:10479000002801D100F0A2FD0D98401C0D90641C72
:1047A0006D1EF1D132963020694608700A9C002CAB
:1047B0000DDD329D01236A4602A9280000F04AFE61
:1047C000002801D000F08AFD641EF3D13295059CCB
:1047D000089D002D0FD0329E21780498B047049098
:1047E000002801D100F07AFD0D98401C0D90641C4A
:1047F0006D1EF1D13296302769460F700B9C002C4C
:104800000DDD329D01236A4602A9280000F022FE38
:10481000002801D000F062FD641EF3D132950598A6
:1048200008994418099D002D0FD0329E21780498D4
:10483000B0470490002801D100F050FD0D98401CB5
:104840000D90641C6D1EF1D13296684607700C9C69
:10485000002C0DDD329D01236A4602A9280000F0DC
:10486000F9FD002801D000F039FD641EF3D1329526
:1048700002A83821405C400700D462E62020694647
:1048800008700198002800DC5BE6019C329D012342
:104890006A4602A9280000F0DDFD002801D000F0E2
:1048A0001DFD641EF3D132954BE61B4878446830F9
:1048B000059000F0F2FC0E9D002D03D52000FDF7C1
:1048C000A9FD09E02A000021200000F059FE00287F
:1048D00001D0001B00E02800089000F0DEFC3498B6
:1048E00000680268001D349908600020C043002160
:1048F000104002AA03C218A80590782100F0AFFC6E
:1049000002A83B21415C002908D00024E4434B4825
:104910007844FF30293016E72C2000003A21405C13
:1049200062286AD0682819D06A2845D06C2806D039
:1049300071284FD0742831D07A2821D06FE0349874
:1049400001680868091D349A116000287AD1002492
:10495000E4433B487844FF301738F4E63498016864
:104960000868091D349A1160002805D10024E44329
:1049700033487844CA30E6E60D99018000F08DFC9A
:10498000349801680868091D349A1160002859D1CB
:104990000024E4432A487844A630D4E634980168D9
:1049A0000868091D349A116000284BD10024E443A3
:1049B000234878448A30C6E6349800680268001DAF
:1049C00034990860002A13D10024E4431C48784439
:1049D0006E30B8E6349800680268001D34990860AB
:1049E000002A05D10024E443154878445230AAE651
:1049F0000D98C11703C200F050FC34980168086894
:104A0000091D349A1160002805D10024E4430C48A4
:104A100078442C3097E60D99017000F03EFC3498F4
:104A200001680868091D349A116000280AD1002421
:104A3000E44303487844083085E600BFBC1E00000C
:104A4000D01E00000D99016000F027FC349800682A
:104A5000C21D072082433498026003CA349B1A6047
:104A600002AA03C22022C80F04D007982D2118AA39
:104A700011540DE002A8008F284204D007982B2182
:104A800018AA115404E0C00704D5079818A90A54BD
:104A9000401C079018A8079940181390059027AD5F
:104AA00002A803C816AA03C2684600782021014361
:104AB00068464170612909D00E98002801D506206A
:104AC00003E003D1672901D114980E9002A803C80E
:104AD0000F0006187F417E15FF17BBA20CCA9F422C
:104AE00012D1964210D10903020D1143000300298F
:104AF00001D1002808D003200890613C1A2C19D35A
:104B0000244979448E3110E002A803C8080041000E
:104B10004915994212D1000310D103200890613C3D
:104B20001A2C21D31C4979446E310322139800F0CA
:104B30004DFDB2E3194979446231F6E701AA02A8B2
:104B400003C800F050FD02AA03C2684640786128FD
:104B500013D1059830210170811C059169460978AF
:104B6000612905D1782104E00D4979443231DCE72F
:104B7000582141700798801C079002A803C894A28E
:104B80000CCA02400B400DD1002A0BD10024002694
:104B900069E100BFB81D0000BC1D0000AC1D000095
:104BA000B01D000068464078612800D097E00E985C
:104BB000002801D5212000E0401C1390139F7F1C8A
:104BC00016A803C80022002300F022FD02A830C866
:104BD00002D28020000645400198001F01909C21D0
:104BE00069440A7027A8461C002F31DD20002900E7
:104BF000002280235B0300F024FD29D81C2200F052
:104C000039FD04000D0000F06DFD1590FF1F002F11
:104C100009DD00F0A1FD02000B0020002900FEF7D5
:104C200025FD04000D00F01D0722159900290ADD5D
:104C3000521E08D4401E0B071B0F03700911F5E725
:104C4000401E00210170521EFAD5C61D002FCDDC7A
:104C500027A83199711A27AA551C139A0C00914262
:104C600000DD1400002C33D48C4205DA411C095DB0
:104C7000082901DB0F2100E00021220027AB9B184F
:104C800001E0641E5B1E521E1E788E42F9D00F2971
:104C900004D1411C895C491C401C8154002A04D564
:104CA00027AD641C0198001D0190611E10D46A1884
:104CB0006846007813783033DEB23A2E01DBC31831
:104CC000C6331370491E521E0029F3D56946087079
:104CD0000E98002800D4C5E0601E0E90C2E016A811
:104CE00030C86D006D0801986C4948436C49FDF768
:104CF00047FB019007200199401A002805DD0200BA
:104D00002000290000F080FB0AE0424200206649B2
:104D100000F07AFB02000B0020002900FEF762FB86
:104D20006A465278662A02D1019A0A3200E00622C7
:104D30000E9B9A18142A00DD142227AB30241C7015
:104D40005C1C02E016A803C8139A002A44DD16ABC7
:104D500003C3139216A803C800F0D6FC15900546AD
:104D60000834042628000A21FDF71EFB0F00280046
:104D70000A21FDF719FB05003037601E0770280077
:104D80000A21FDF711FB0F0028000A21FDF70CFB9B
:104D90000500A41E30372770761EE3D1083413981F
:104DA000083813900028CDDD159800F0C5FC0200EE
:104DB0000B0016A803C8FEF759FC00223B4BFEF778
:104DC000FEF916AA03C2C5E7FFFFFFFFFFFFFFFFC3
:104DD000FFFFFFFFFFFFFF7F3198201A27A94D1C1F
:104DE00004E0401E0199491E01916D1C297830296B
:104DF000F7D020216A46127811436A4651706946FD
:104E00004978662902D10199491C06E0694649782A
:104E1000652901D1149900E000210E9A5418A0428E
:104E200000DA441E002C1DD4844204DA285D3428A4
:104E300001DD392000E0302021006A1E531801E016
:104E4000641E5B1E491E1E788642F9D0392802D1A5
:104E5000685C401C6854002904D51500641C019846
:104E6000401C0190019E1395684600786946887041
:104E700000F07CFC406A0078694608700E9D20B204
:104E8000002804DC149C07487844183013906846C6
:104E9000407866280CD1761C24E000BF977500008E
:104EA000A0860100B41A00000000F03F84D79741AB
:104EB00068464078672846D130B20321C94388420A
:104EC00047DBA84245DA761C02A8008F1299C0B2CF
:104ED000084203D120B2A84200DC050030B22D1AEE
:104EE00000D5002537B2002F00DDBAE00898411C3C
:104EF00008913021059A1154002D05DC02A8008F7D
:104F00001299C0B2084206D00898411C089169461F
:104F10000978059A11547842854200DA6E4236B219
:104F200070420B90AD1920B2854200DA2C0024B2F9
:104F30000994220013990598089BC01800F046FBBD
:104F4000281B0C90DAE068468078612818D1702020
:104F50001BE020B2A84206DA02A9098F129AC9B250
:104F6000114200D105006D1E00D5002568468078ED
:104F7000672802D16520694607E04520694604E0BC
:104F800068468078412801D1502088700898411CDB
:104F9000089113990978059A11541398411C002D12
:104FA00005DC02A8008F129AC0B2104219D00898EE
:104FB000421C08926A461278059B1A54002D10DD97
:104FC000641E20B2854200DA2C0022B20598089BAC
:104FD000C01800F0FBFA24B2089800190890281BAA
:104FE0000B9005980899411868468078087030B28F
:104FF000002803D42B2048708F1C03E02D224A7018
:105000008F1C4642002412AD300008E00A21FDF753
:10501000B7F915AA03C229701598641C6D1C00B25B
:105020000028F3DC012C08DC68468078202101434D
:10503000652902D1302038707F1C002C09D1302026
:1050400038707F1C07E0641E12A8005D3030387095
:105050007F1C002CF7DC059808994018381A099035
:105060004CE020B231B288421DDA22B21399059881
:10507000089BC01800F0AAFA24B2089800190890FA
:10508000391B0B91002D05DC02A9098F129AC9B2B8
:10509000114206D069460978059A11540998401CB6
:1050A00009900C952AE032B213990598089BC01814
:1050B00000F08CFA0898C0190890A41B002D05DC9C
:1050C00002A9098F129AC9B2114205D0411C089158
:1050D00069460978059A115420B2854200DA2C00FD
:1050E00022B21398C1190598089BC01800F06EFAF7
:1050F00024B2089800190890281B0B9002A83821A8
:10510000405C14210140102900D0C6E0079808999E
:1051100040180B994018099940180C9940180F999C
:10512000884200DBB9E0081A0A90B6E002AA3A20E9
:10513000105C622808D068280ED06A2814D06C2829
:105140001DD0712810D01AE0349801680868091D34
:10515000349B1960C0B218E0349801680868091DD2
:10516000349B196080B210E034980068C31D07209A
:1051700083433498036003CB349C236006E0349867
:1051800001680868091D349B1960002102AB03C344
:10519000108F1299C0B208425BD002A803C8002940
:1051A00001D1002855D06846007820210143782994
:1051B0004FD1079818A930220A54401C421C07926C
:1051C0006A4612780A5444E002AA3A20105C622827
:1051D00008D068280ED06A2814D06C281DD07128F9
:1051E00010D01AE0349801680868091D349B1960D2
:1051F00040B218E0349801680868091D349B1960B2
:1052000000B210E034980068C31D0720834334982F
:10521000036003CB349C236006E03498016808687F
:10522000091D349B1960C11702AB03C3002902DAC0
:1052300007982D2109E0108F284202D007982B21D2
:1052400003E0C00705D50798202118AA1154401C77
:10525000079018A80799401805906846017802A899
:1052600000F040F819E01498079034980168086835
:10527000091D349A11606021694408700DE014988A
:10528000079025206021694408706846007800284E
:1052900003D007956846007848700F980799401A20
:1052A0000A99401A0899401A0B99401A0999401A0C
:1052B0000C99401A019002A83821405C400701D5A2
:1052C000FFF75DFA2020694608700198002801DC8C
:1052D000FFF755FA019C329DFFF744FA0020C043C6
:1052E00035B0F0BDF2B586B0040025696F2901D153
:1052F000082707E00846FFF705F9782801D00A27B4
:1053000000E010273C2603CC083C04AA03C26A46EE
:10531000127E642A03D06A46127E692A09D10029C6
:1053200007DA04A803C800220023121A8B4104A83C
:105330000CC004A803C800290DD100280BD1206B94
:10534000002808D1082F3DD13820205C000739D52E
:105350003B26302035E00294009504A830C8761E24
:105360000196200029003A00002300F005FA3032AF
:10537000D0B23A280DDA00988255200029003A0070
:10538000002300F0F9F904000D0007D1002C05D12D
:105390000AE06846007E8218AF32ECE70298C068E7
:1053A000009989198842DAD3029C009D082F09D1FF
:1053B0003820205C000705D5A85D302802D0761E75
:1053C0003020A8553C20801BA061A919E160216B09
:1053D000884206DA081A2062208F1C490140218782
:1053E00010E000290ED53821615C14220A40102AF1
:1053F00008D1616B6269891A226A891A081A002821
:1054000000DD206207B0F0BDF8B50026104F0400A3
:105410000D00009214E0C00707D532003B002000C9
:105420002900FDF7CCFE04000D000098401000900C
:105430003000390032003B00FDF7C1FE06000F00CE
:1054400000980028E7D120002900F4BDEFFF0000FC
:1054500000002440F8B50024002B11D007000E00F6
:1054600014001D002178B068B847B060002809D04A
:10547000F06A401CF0620020641C6D1EF2D1040032
:105480002000F2BD0020C043F9E7FEE738B5050073
:105490000D4CFA2080002178FCF786FF01000B48B4
:1054A0000068FCF781FFFEF7B9F900280AD1042D46
:1054B00008D2002229000020C043FEF7A2F9A5600F
:1054C000002032BD012032BD7C0100208801002077
:1054D00070B50021002401222123C35C022B03D0DC
:1054E00004218163012415E003681D680E26B5437D
:1054F0001D6003681D6895431D60036C01259D4078
:10550000C36B5D602123C25420228154416B00296A
:1055100000D08847200070BD7047704770477047C3
:1055200070477047C9B202788A4203D0401C002AF3
:10553000F9D100207047FEE780B5002801D100BFF7
:1055400007A006490B68002B03D0222200219847B0
:1055500001E000F04FF9222002BD000040060020CB
:10556000636F6E73747261696E742068616E646CCF
:1055700065723A20626164206D65737361676500CE
:10558000C9B2521E05D30378401C8B42F9D1401E8C
:10559000704700207047FEE770B4103A03D378C913
:1055A000103A78C0FBD2530701D318C918C001D5EF
:1055B00008C908C0D20704D30B880380891C801C4B
:1055C000002A01D50B78037070BC70478B0701D19E
:1055D0008307E1D0124205D00B78491C0370401CB0
:1055E000521EF9D1704710B5144600F002F822603F
:1055F00010BD4A0053155B1C08D0520D06D0032382
:105600001B02FE3AD21A1305C91A704700227047CE
:1056100030B4012464054D00EC420BD85D00EC422F
:1056200008D80C001C4364000443144304D299427C
:1056300000D1904230BC7047FCD08B42FAD18242FC
:10564000F8E730B4012464054D00EC420BD85D004E
:10565000EC4208D80C001C4364000443144304D2F9
:105660008B4200D1824230BC7047FCD09942FAD1C3
:105670009042F8E7124217D40023DB435B0D9C46AF
:105680004B005B0D06D0634504D09B18634502D2E6
:105690001205891870476246090D1143090500205B
:1056A00000B500BF00BF00BD52424B005B0DF1D002
:1056B0005B1C5B05EED25B0D934102D91205891A82
:1056C00070470BD10B031B13C90FC907821C0020A5
:1056D00043411343E4D912051143E1E7C90FC90758
:1056E0000020DDE7F4464A1805D200F00FF801D596
:1056F00080174008604700F009F80121C907884277
:1057000000D90800404260474A1812D2400DC90231
:1057100008430121C9070843520D40210901521ACB
:10572000521C06D452421F3201D4D0407047C017D9
:10573000704700207047FEE7010042221201D21E8E
:10574000004207D002D4521E0018FCD5C10A400501
:1057500012058918704700000100EED54042F4465A
:10576000FFF7EBFF0122D207114360470148704762
:10577000000000008C01002012422DD0994231D946
:1057800070B500251B4209D00C00002112E0110069
:10579000FCF70AFE0A000021002370BD0942F6D082
:1057A0000024012649186441944200D3A41A76418A
:1057B000F8D33100012601E0764109D20018644196
:1057C0006D41A41A9D41F7D2A4185D41B619F5D3D5
:1057D000300022002B0070BD1B42CFD108B500F075
:1057E0000FF808BD01D19042CAD202000B0000217F
:1057F0000020704780B5012000F004F801BDFEE7ED
:105800007047FEE780B500BF00BF024A11001820B4
:10581000ABBEFBE726000200000000000000000015
:1058200000000010101010101010001000002828A8
:10583000280000000000000014147E2428FE2848E0
:1058400010103C5450701C14547800020464680812
:105850001016262000386C4C383A4E464639001057
:105860001010000000000000003060404040404048
:105870006030003018080808080818300010741844
:10588000741000000000000000101010FE10101036
:1058900000000000000018181020000000000000A8
:1058A0003800000000000000000018180000040488
:1058B0000808081810101020003864444444444478
:1058C00064380010301010101010107C007C44045C
:1058D000040C1830607E007C4404041804064478EC
:1058E00000040C1434247E040404007C60607804FA
:1058F00006044478001C20607C6446466438007EC0
:105900000404080810102060003C6446643C4646CD
:10591000643C0038644446663C040C3800000010C7
:105920001000000010100000003030000030304047
:10593000000000020C30C0300C020000000000FE2D
:1059400000FE0000000000C0701C061C70C0007843
:105950004C0C0C1830200030003CC3BD256464257D
:10596000BFC00018182C2424667E42C3007C444625
:10597000447C4646467C001E226040404060221E19
:1059800000F88C84868686848CF800FC808080F801
:10599000808080FC00FC808080F880808080003CDB
:1059A00040C0809E86C6463C0084848484FC8484F7
:1059B0008484007C101010101010107C003808082F
:1059C00008080808087000848890A0E0B0988C86C9
:1059D0000040404040404040407C00C2C6E6A6BA7D
:1059E0009A92828200C4E4E4B4949C8C8C84003C3F
:1059F00046C2828282C2463C007C4446464478408D
:105A00004040003C46C282829ACE463D00F8888CD7
:105A100088F098888C86003C6040603C0606467C96
:105A200000FE1010101010101010004242424242AE
:105A30004242623C00868484C8484870303000008E
:105A4000009292BAAAAC6C4400C2642C3818182C8C
:105A500064C200C24624281810101010007E040CE6
:105A600008103020407E00704040404040407000B0
:105A700000202020101010180808007010101010BE
:105A800010107000000010284CC60000000000003C
:105A9000000000000000FE00000000000000000008
:105AA000FE0000000000380C3C4C4C3C00404040E4
:105AB0007C64444444780000000038604040603812
:105AC000000404043C644444643C00000000384486
:105AD0007C40643C001820207820202020200000FA
